1F 034184840001811APARECIDA ALBANO VALINHOS                                                                                                                                                                                    042018091863                                                                                                                                2135199909024722901RUA                 MADALENA IAMARINO                                           193                                                                                                                                                               JARDIM DO LAGO                                    13277510SP7225VALINHOS                                                                                                                                                                                                 50000000000000000100000000000000000N                                                                                                                                                                                                                                                                                  F
1F 034190230001231CALCADOS TOMODATI DE VALINHOS LTDA                                                                                                                    CALCADOS TOMODATI                                      082015020973                                                                                                                                2062199909234782201LARGO               SAO SEBASTIAO                                               233   237                                                                                                                                                         CENTRO                                            13270010SP7225VALINHOS                                                                                                                                                                                                 49000000000000000500000000000000000N                                                                                                                                                                                                                                                                                  F
1F 034220850001941NEUSA DE OLIVEIRA SAMELO-VALINHOS                                                                                                                     VALI-QUARTZO                                           082008123171                                                                                                                                2135199909284744005RUA                 MANOEL AUGUSTO                                              138                                                                                                                                                               JARDIM AMERICA II                                 13272511SP7225VALINHOS                                          019 8692513                                                                                                                                            50000000000000000500000000000000000N                                                                                                                                                                                                                                                                                  F
1F 034235640001251PADARIA PANE PER TUTTI VALINHOS LTDA                                                                                                                                                                         021999092800                                                                                                                                2062199909281091102AVENIDA             JOAO ANTUNES DOS SANTOS                                     282                                                                                                                                                               JARDIM PINHEIROS                                  13274290SP7225VALINHOS                                          19  38494561                                                                                                                                           49000000010000000152007070100000000N                                                                                                                                                                                                                                                                                  F
1F 034250990001611USINAGEM DE MAQUINAS VALINHOS LTDA                                                                                                                    USIMAQ. VALI                                           022005110300                                                                                                                                2062199909202869100RUA                 ISAURA AP. OLIVEIRA BARBOSA TERINI                          46                                                                                                                                                                BAIRRO CECAP                                      13273609SP7225VALINHOS                                          019 8695406             019 8717797                                                                                                                    49000000130000000152007070100000000N                                                                                                                                                                                                                                                                                  F
1F 034252060001511CLAUDIA BEATRIZ MARIA FERREIRA KREIGNE                                                                                                                GIRASSOL PAISAGISMO                                    082003100801                                                                                                                                2135199909244789002RUA                 JURUTIS                                                     89                                                                                                                                                                JD PAIQUERE                                       13271602SP7225VALINHOS                                          19  8492202             19  8691507 correa@dglnet.com.br                                                                                               50000000000000000500000000000000000N                                                                                                                                                                                                                                                                                  F
1F 034322650001571ADRIANO CAUN MODAS                                                                                                                                    ONE STORE                                              022002060800                                                                                                                                2135199909304781400RUA                 SETE DE SETEMBRO                                            187                                                                                                                                                               CENTRO                                            13270100SP7225VALINHOS                                          19  38718255                        NELSONPADULA3@GMAIL.COM                                                                                            50000000000000000152007070100000000N                                                                                                                                                                                                                                                                                  F
1F 034326080001831ASSOCIACAO DE AMIGOS DA VILA MOLETTA E ADJACENCIAS                                                                                                                                                           022005082700                                                                                                                                3999199909299430800RUA                 ALBERTO FABRINI                                             45                                                                                                                                                                VILA MOLETTA                                      13272045SP7225VALINHOS                                                                                                                                                                                                 16000000000000000500000000000000000N                                                                                                                                                                                                                                                                                  F
1F 034342080001071EMBALPACK INDUSTRIA E COMERCIO DE CAIXAS DE PAPELAO LTDA                                                                                                                                                     022005110300                                                                                                                                2062199907021731100RUA                 TEREZA VECHIATTI TRIGO                                      470   TERREO                                                                                                                                                      COUNTRY CLUB                                      13278072SP7225VALINHOS                                                                                                                                                                                                 49000000000000000162007070120081231N                                                                                                                                                                                                                                                                                  F
1F 034342510001721R.VICENTIN REPRESENTACAO E COMERCIO LTDA                                                                                                              ESPAN REPRESENTACAO E COMERCIO                         022005110300                                                                                                                                2062199909304619200RUA                 ALVARO GOMES VILELA                                         53                                                                                                                                                                COLINA DOS PINHEIROS                              13274540SP7225VALINHOS                                          19  38294325                        ROGERIOESPAN@HOTMAIL.COM                                                                                           49000000003000000100000000000000000N                                                                                                                                                                                                                                                                                  F
1F 034367610001891LB CONFECCOES LTDA                                                                                                                                    LB CONFECCOES                                          022004123100                                                                                                                                2062199909211412601RUA                 ALEXANDRE H. MOLETTA                                        866                                                                                                                                                               JARDIM PINHEIROS                                  13273609SP7225VALINHOS                                          19  38245488                        CONTATO@ANSELMIETROVATTI.COM.BR                                                                                    49000000012000000152007070100000000N                                                                                                                                                                                                                                                                                  F
1F 034408130001901BAZAR E PAPELARIA DUPPEX LTDA                                                                                                                         BAZAR E PAPELARIA DUPPEX                               022005110300                                                                                                                                2062199910084761003RUA                 VEREADOR ANTONIO FERRARI                                    67                                                                                                                                                                SUBD. FRED. BRECIANI                              13273117SP7225VALINHOS                                          19  38716211            19  38716211POSTAL&VEIGA@LEXXA.COM.BR                                                                                          49000000000000000152007070100000000N                                                                                                                                                                                                                                                                                  F
1F 034408670001561CANTINHO NOBRE PASTEIS LTDA                                                                                                                           CANTINHO NOBRE                                         022005030500                                                                                                                                2062199910085611203RUA                 ALBERTO DE MELLO FIGUEIREDO                                 153                                                                                                                                                               JARDIM DOS MANACAS                                13273081SP7225VALINHOS                                          19  38494438            19  38716211MARCELO@CANTINHONOBRE.COM.BR                                                                                       49000000020000000152007070100000000N                                                                                                                                                                                                                                                                                  F
1F 034413810002132FREGEL ADMINISTRACAO E CORRETAGEM DE SEGUROS LTDA                                                                                                                                                            022005083000                                                                                                                                2240200508306622300RUA                 ITALIA                                                      94                                                                                                                                                                JARDIM RIBEIRO                                    13270180SP7225VALINHOS                                          19  38497491            19  38497491oswaldo.alves@uol.com.br                                                                                           49000000000000000352015010100000000                        00000000                                                                                                                                                                                                                                                   F
1F 034432040001951FREDDY HUEWES DESENVOLVIMENTO DE SISTEMAS LTDA                                                                                                                                                               022005110300                                                                                                                                2062199909226201501RUA                 SARA ALVARADO BERTANHOLI                                    720   APT   12                                                                                                                                                    JD MONTE VERDE                                    13275054SP7225VALINHOS                                          19  38695633                        rafhorie@dglnet.com.br                                                                                             49000000000500000162013010120161231N                                                                                                                                                                                                                                                                                  F
1F 034434860001201ARI TORRES ADVOGADOS ASSOCIADOS                                                                                                                                                                              022000100200                                                                                                                                2232199910046911701RUA                 LUIZ SPIANDORELLI NETO                                      30    ANDAR 5                   SALA  508/509             EDIF  ARAUCARIA                                                                                         JARDIM PAIQUERE                                   13271570SP7225VALINHOS                                          19  32446000            019 2345305                                                                                                                    49000000030000000552015010100000000N                                                                                                                                                                                                                                                                                  F
1F 034458010001591MARCONDES & REIS PRESENTES LIMITADA                                                                                                                   MIL COISAS                                             021999092700                                                                                                                                2062199909274763601RUA                 DR. CANDIDO FERREIRA                                        181                                                                                                                                                               BAIRRO CENTRO                                     13270040SP7225VALINHOS                                          019 38695406            019 38497296fedocci@hiway.com.br                                                                                               49000000000000000152018010100000000N                                                                                                                                                                                                                                                                                  F
1F 034458120001391VALE VERDE PAPELAO RECICLADO LTDA                                                                                                                     VALE VERDE                                             082008123171                                                                                                                                2062199910061749400RUA                 BENJAMIN DE PAULA FRANCA                                    454                                                                                                                                                               BAIRRO VALE VERDE                                 13279173SP7225VALINHOS                                          019 8695406             019 8717797 www.fedocci@hiway.com.br                                                                                           49000000000000000500000000000000000N                                                                                                                                                                                                                                                                                  F
1F 034469100001901ROSELI JORGE FASSINI                                                                                                                                                                                         082001031501                                                                                                                                2135199910075611203RUA                 12 DE OUTUBRO                                               92                                                                                                                                                                VILA SANTANA                                      13273609SP7225VALINHOS                                                                                                                                                                                                 50000000000000000500000000000000000N                                                                                                                                                                                                                                                                                  F
1F 034485480003592EUROART COMERCIO DE PRODUTOS DE BELEZA LTDA                                                                                                                                                                  082005030101                                                                                                                                2062200308275211799RUA                 CARLOS GOMES                                                374                                                                                                                                                               VERA CRUZ                                         13271050SP7225VALINHOS                                          019 32782444                                                                                                                                           05000000000000000500000000000000000                        00000000                                                                                                                                                                                                                                                   F
1F 034489460001031OPTALED INDUSTRIA E COMERCIO DE EQUIPAMENTOS OPTICOS LIMITADA                                                                                         OPTALED INDUSTRIA E COMERCIO DE EQUIPAMENTOS OPTICOS   022005110300                                                                                                                                2062199909293250701RUA                 ANTONIO CARLOS RUSSO                                        88          BARRACAO INDUSTRIAL                                                                                                                                   VILA FAUSTINA I I                                 13272362SP7225VALINHOS                                          19  38496811            019 38497296FINANCEIRO@OPTALED.COM.BR                                                                                          05000000028000000152007070100000000N                                                                                                                                                                                                                                                                                  F
1F 034519120001781SECTOR - SERVICOS E CONSULTORIA LTDA                                                                                                                                                                         082016091601                                                                                                                                2062199910136311900ALAMEDA             DAS PITANGUEIRAS                                            S/N   LOTE  35                  QUADRA22                                                                                                                          PARQUE VALINHOS                                   13274718SP7225VALINHOS                                          11  2372472819  38496129            CELIAOLIVA@GMAIL.COM                                                                                               49000000002000000152008010100000000N                                                                                                                                                                                                                                                                                  F
1F 034555290001981COMERCIAL E IMPORTADORA ROTA DO SOL LTDA                                                                                                                                                                     032015012621                                                                                                                                2062199910194789099RUA                 JOSE MILANI                                                 267   SALA B                                                                                                                                                      CENTRO                                            13270200SP7225VALINHOS                                          19  38492974            19  38497922rotadosol@dglnet.com.br                                                                                            49000000000000000100000000000000000N                                                                                                                                                                                                                                                                                  F
1F 034574280001561LUIZ APARECIDO CARVALHO                                                                                                                                                                                      042018091863                                                                                                                                2135199910185611201AVENIDA             INVERNADA                                                   630/50                                                                                                                                                            JARDIM NOVA SUICA                                 13271450SP7225VALINHOS                                          19  32310001                        natancost@uol.com.br                                                                                               50000000000000000100000000000000000N                                                                                                                                                                                                                                                                                  F
1F 034575500001221ASSOCIACAO DOS BAIRROS INTEGRADOS DO MUNICIPIO DE VALINHOS                                                                                                                                                   082015020973                                                                                                                                3999199908309430800RUA                 SANTO MILANEZE                                              19                                                                                                                                                                JARDIM JUREMA                                     13272474SP7225VALINHOS                                          19  8714264             19  8697484                                                                                                                    16000000000000000500000000000000000N                                                                                                                                                                                                                                                                                  F
1F 034576980001671VALDECIR MIGUEL DIAS COMERCIO DE BEBIDAS E SERVICOS LTDA                                                                                              THITHAL COMERCIAL E SERVICOS                           022018101500                                                                                                                                2062199909305611204AVENIDA             PAULISTA                                                    776                                                                                                                                                               JARDIM PAULISTA                                   13276340SP7225VALINHOS                                          19  82366315                        VALDECIR.DIAS@HOTMAIL.COM                                                                                          49000000060000000162009010120151231N                                                                                                                                                                                                                                                                                  F
1F 034578640001251PLUS ALARMES E MANUTENCAO LTDA                                                                                                                                                                               082005101301                                                                                                                                2062199910204789099RUA                 DR.CANDIDO FERREIRA                                         446   FUNDOS                                                                                                                                                      VILA BISSOTO                                      13271180SP7225VALINHOS                                          19  38691477            019 8691477                                                                                                                    49000000000000000500000000000000000N                                                                                                                                                                                                                                                                                  F
1F 034611940001101GABRIANNI'S PRODUTOS AGROPECUARIOS LTDA                                                                                                               CHAMP DOG                                              042019022763                                                                                                                                2062199910214763604RUA                 JOSE PISCIOTTA                                              256                                                                                                                                                               VILA SAO LUIZ                                     13270300SP7225VALINHOS                                          19  38495567                        ecgarcia@dglnet.com.br                                                                                             49000000006000000162009010120161231N                                                                                                                                                                                                                                                                                  F
1F 034622550001641HOSANA LEARDINI PEREIRA                                                                                                                                                                                      042018102463                                                                                                                                2135199909295611203RUA                 ITALIA                                                      513   LOJA H                                                                                                                                                      CENTRO                                            13270180SP7225VALINHOS                                                                                                                                                                                                 50000000000000000100000000000000000N                                                                                                                                                                                                                                                                                  F
1F 034642970001341JOSE NILTON ALVES DOS SANTOS                                                                                                                          J N BARATEIRO                                          082008123171                                                                                                                                2135199910154729699RUA                 PEDREIRA                                                    14                                                                                                                                                                VILASAO CRISTOVAO                                 13276510SP7225VALINHOS                                                                                                                                                                                                 50000000000000000500000000000000000N                                                                                                                                                                                                                                                                                  F
1F 034647310001861CLAUDIONOR LUIZ ANTONIO                                                                                                                                                                                      022005110300                                                                                                                                2135199909244722901RUA                 DOZE DE OUTUBRO                                             86                                                                                                                                                                SANTANA                                           13274125SP7225VALINHOS                                                                                                                                                                                                 50000000000000000152007070100000000N                                                                                                                                                                                                                                                                                  F
1F 034653700001921SIDNEI VICTORIO                                                                                                                                                                                              022004082800                                                                                                                                2135199909304789099AVENIDA             JOAQUIM ALVES CORREA                                        3774                                                                                                                                                              RESIDENCIAL SAO LUIZ                              13270400SP7225VALINHOS                                          19  3869509119  3871557619  38695091                                                                                                                   50000000010000000152007070100000000N                                                                                                                                                                                                                                                                                  F
1F 034656310001741SONIA MARINA SPEGLICH ROSSI VALINHOS                                                                                                                                                                         082015020973                                                                                                                                2135199910214729699RUA                 HERMINIA OLIVO PAVAN                                        70                                                                                                                                                                SAO CRISTOVAO                                     13276600SP7225VALINHOS                                          019 8716211             019 8716211 POSTAL&VEIGA@LEXXA.COM.BR                                                                                          50000000000000000500000000000000000N                                                                                                                                                                                                                                                                                  F
1F 034657270001321HUNEKE & BONAZZI LTDA                                                                                                                                                                                        082003110701                                                                                                                                2062199909234789099RUA                 DR. CANDIDO FERREIRA                                        163   SALA 03                                                                                                                                                     CENTRO                                            13270040SP7225VALINHOS                                                                                                                                                                                                 49000000000000000500000000000000000N                                                                                                                                                                                                                                                                                  F
1F 034661070001181RENELSIO ZANETTI                                                                                                                                      REAL TOLDOS                                            042018102463                                                                                                                                2135199910152229399RUA                 EUCLIDES DA CUNHA                                           153                                                                                                                                                               BELA VISTA                                        13270330SP7225VALINHOS                                                                                                                                                                                                 50000000000000000162007070120081231N                                                                                                                                                                                                                                                                                  F
1F 034670520001601T. B. VALINHOS TRANSPORTES E SERVICOS LTDA                                                                                                                                                                   082004061601                                                                                                                                2062199910194930202RUA                 ULISSES PEDROSO DE OLIVEIRA FILHO                           68                                                                                                                                                                SAO LUIZ                                          13273609SP7225VALINHOS                                                                                                                                                                                                 49000000000000000500000000000000000N                                                                                                                                                                                                                                                                                  F
1F 034672650001921LANCHONETE E RESTAURANTE QUASE ESQUINA VALINHOS LTDA                                                                                                  LANCHONETE E RESTAURANTE QUASE ESQUINA                 042018102463                                                                                                                                2062199910255611201AVENIDA             DR. JOSE PAGANO BRUNDO                                      19                                                                                                                                                                VILA PAGANO                                       13273609SP7225VALINHOS                                          019 8716211             019 8716211 postal&veiga@lexxa.com.br                                                                                          49000000000000000500000000000000000N                                                                                                                                                                                                                                                                                  F
1F 034696280001291PROJEPACK ASSESSORIA TECNICA DE EMBALAGENS LTDA                                                                                                       PROJEPACK                                              022003030800                                                                                                                                2062199910264789099RUA                 CATHARINA FARSARELLA GALLEGO                                506         PREDIO 1                                                                                                                                              CHACARAS SAO BENTO                                13278073SP7225VALINHOS                                          19  38813082            19  38716211PROJEPACK@YAHOO.COM.BR                                                                                             49000000000000000152007070100000000N                                                                                                                                                                                                                                                                                  F
1F 034716060001011SOMA-VALINHOS LTDA                                                                                                                                                                                           022005110300                                                                                                                                2062199910069521500RUA                 DOS CRISANTEMOS                                             105                                                                                                                                                               PARQUE CECAP                                      13273380SP7225VALINHOS                                                                                                                                                                                                 49000000000000000162007070120121231N                                                                                                                                                                                                                                                                                  F
1F 034716450001091ADENIR CORREA REPRESENTACAO COMERCIAL S/C LTDA                                                                                                                                                               042018102463                                                                                                                                2062199910054619200RUA                 DAS MAGNOLIAS                                               8                                                                                                                                                                 JD NOVO MUNDO III                                 13273047SP7225VALINHOS                                                                                                                                                                                                 49000000000000000100000000000000000N                                                                                                                                                                                                                                                                                  F
1F 034721470001721COOPERATIVA DE TRABALHO DOS PRODUTORES DE ARTIGOS DE FERRAMENTARIA- COOPERFER                                                                                                                                022004121800                                                                                                                                2143199910072840200RUA                 CLARK                                                       1651  LOTE  GLEBA 1 A                                                                                                                                             MACUCO                                            13279700SP7225VALINHOS                                          19  3881815419  3881815119  38818156fausto@cooperfer.com.br                                                                                            16000000000000000500000000000000000N                                                                                                                                                                                                                                                                                  F
1F 034729350001691ANGELA APARECIDA CILUMBRIELLO VALINHOS                                                                                                                LOJA DAS PROMOCOES DE VALINHOS                         082001010401                                                                                                                                2135199910054721104RUA                 DR. CANDIDO FERREIRA                                        187                                                                                                                                                               CENTRO                                            13273609SP7225VALINHOS                                                                                                                                                                                                 50000000000000000500000000000000000N                                                                                                                                                                                                                                                                                  F
1F 034746420001101OGURA CLUTCH DO BRASIL LTDA.                                                                                                                          OGURA CLUTCH                                           022004013100                                                                                                                                2062199910288211300RUA                 JOAO COLETO                                                 275   SALA  A                                                                                                                                                     JARDIM SAO JORGE                                  13277095SP7225VALINHOS                                          19  38257500            19  38851472NUNO@OGURA.COM.BR                                                                                                  05000044939600000500000000000000000N                                                                                                                                                                                                                                                                                  F
1F 034746420006252OGURA CLUTCH DO BRASIL LTDA.                                                                                                                          OGURA CLUTCH                                           022014010900                                                                                                                                2062201401094530701RUA                 JOAO COLETO                                                 275   SALA  B                                                                                                                                                     JARDIM SAO JORGE                                  13277095SP7225VALINHOS                                          19  38257500                        NUNO@OGURA.COM.BR                                                                                                  05000000000000000500000000000000000                        00000000                                                                                                                                                                                                                                                   F
1F 034767680001241ZILIO & ZILIO LTDA                                                                                                                                                                                           082016050601                                                                                                                                2062199806224930202RODOVIA             MUNICIPAL DOS ANDRADAS                                      988   FUNDOS                                                                                                                                                      PONTE ALTA                                        13277650SP7225VALINHOS                                                                                                                                                                                                 49000000000000000152007070100000000N                                                                                                                                                                                                                                                                                  F
1F 034768110094502DIA BRASIL SOCIEDADE LIMITADA                                                                                                                                                                                022003051500                                                                                                                                2062200305154711302RODOVIA             DOS ANDRADAS                                                958                                                                                                                                                               SANTA AMALIA                                      13277650SP7225VALINHOS                                          11  3886808711  3886808711  38868087cintia.guerra@diagroup.com                                                                                         05000000000000000500000000000000000                        00000000                                                                                                                                                                                                                                                   F
1F 034768110135632DIA BRASIL SOCIEDADE LIMITADA                                                                                                                                                                                022003112000                                                                                                                                2062200311204711302AVENIDA             DOS ESPORTES                                                569                                                                                                                                                               VILA BISSOTO                                      13270210SP7225VALINHOS                                          11  3886800011  38868607            FISCAL@GAAPBRASIL.COM.BR                                                                                           05000000000000000500000000000000000                        00000000                                                                                                                                                                                                                                                   F
1F 034768110302202DIA BRASIL SOCIEDADE LIMITADA                                                                                                                                                                                022009030400                                                                                                                                2062200903044711302AVENIDA             INVERNADA                                                   344                                                                                                                                                               SANTA CRUZ                                        13271450SP7225VALINHOS                                          11  31049855                        ORTECSP@ORTECSP.COM.BR                                                                                             05000000000000000500000000000000000                        00000000                                                                                                                                                                                                                                                   F
1F 034768110470342DIA BRASIL SOCIEDADE LIMITADA                                                                                                                         DIA BRASIL SOCIEDADE LIMITADA                          022014022000                                                                                                                                2062201402204711302RUA                 HUMBERTO BARBIN                                             46          48                        50                        52                        54                                                                      JARDIM SAO PAULO                                  13273010SP7225VALINHOS                                          11  38868706            11  38868017DIABRASIL.FISCAL@DIAGROUP.COM                                                                                      05000000000000000500000000000000000                        00000000                                                                                                                                                                                                                                                   F
1F 034808280001821EXPO GRAV INDUSTRIA E COMERCIO ARTEFATOS DE BORRACHA LTDA                                                                                                                                                    022002021600                                                                                                                                2062199910272219600RUA                 LUIZ CARLOS BRUNELLO                                        520                                                                                                                                                               CHACARA SAO BENTO                                 13278074SP7225VALINHOS                                          19  38811200            19  38812062                                                                                                                   49000000050000000352007070100000000N                                                                                                                                                                                                                                                                                  F
1F 034824740001051LUMA INTERMEDIACAO DE NEGOCIOS LTDA                                                                                                                   LUMA                                                   022000082600                                                                                                                                2062199910287490104RUA                 JOAO PREVITALLE                                             2810  COND  LE VILLAGE          CASA  90                        JD. SAMAMBAIA                                                                                     SANTA CRUZ                                        13272400SP7225VALINHOS                                          11  33150807            11  33150807ALMEIDA@GUITTA.COM.BR                                                                                              49000000000500000300000000000000000N                                                                                                                                                                                                                                                                                  F
1F 034838890001011ETTORI TRANSPORTES LTDA                                                                                                                               ETTORI TRANSPORTES LTDA                                021999110400                                                                                                                                2062199911044930202ALAMEDA             ITAJUBA                                                     2400  GALPAOA                                                                                                                                                     JOAPIRANGA                                        13278530SP7225VALINHOS                                          19  37838000            019 32137149                                                                                                                   49000000200000000500000000000000000N                                                                                                                                                                                                                                                                                  F
1F 034846010005392KEMIN DO BRASIL LTDA                                                                                                                                                                                         022019031500                                                                                                                                2062201903155211799RUA                 KREBSFER                                                    736                                                                                                                                                               MACUCO                                            13279450SP7225VALINHOS                                          19  21078020                        MARCEL.SUZIGAN@KEMIN.COM                                                                                           05000000000000000500000000000000000                        00000000                                                                                                                                                                                                                                                   F
1F 034853750001871ARIOVALDO MARTA MACAIRA & CIA LTDA                                                                                                                                                                           082005031501                                                                                                                                2062199910294687703RUA                 CAMPOS SALES                                                1656                                                                                                                                                              SANTA CRUZ                                        13272350SP7225VALINHOS                                                                                                                                                                                                 49000000000000000500000000000000000N                                                                                                                                                                                                                                                                                  F
1F 034878640001781A.G.MAIS REPRESENTACAO COMERCIAL S/C LTDA                                                                                                             A.G.MAIS                                               082015020973                                                                                                                                2240199910198299799RUA                 MARIANO PIATO                                               27                                                                                                                                                                VILA GENOVEVA                                     13277412SP7225VALINHOS                                          019 8714264                                                                                                                                            49000000000000000500000000000000000N                                                                                                                                                                                                                                                                                  F
1F 034879810001311GIUSEPPE DEVASTATO                                                                                                                                    AUTO POSTO CAPRI                                       082006081701                                                                                                                                2135199911084731800RUA                 DOM NERY                                                    926                                                                                                                                                               AR.ANTONIO BISSOTO                                13271170SP7225VALINHOS                                                                                                                                                                                                 50000000000000000500000000000000000N                                                                                                                                                                                                                                                                                  F
1F 034890860001561EDNA L C MONTEIRO                                                                                                                                     ROTISSERIE TEMPERO PAULISTA                            042018102463                                                                                                                                2135199911054729699RUA                 SEBASTIAO VIEIRA DE ANDRADE                                 99    C 02                                                                                                                                                        SAN FERNANDO                                      13278110SP7225VALINHOS                                          084 2066476                                                                                                                                            50000000000000000100000000000000000N                                                                                                                                                                                                                                                                                  F
1F 034897820001621VALINTEC - COMERCIO E MONTAGEM LTDA                                                                                                                   VALINTEC                                               082005111101                                                                                                                                2062199911082610800RUA                 PASCHOAL NICOLAU                                            12                                                                                                                                                                LENHEIRO                                          13272060SP7225VALINHOS                                                                                                                                                                                                 49000000000000000500000000000000000N                                                                                                                                                                                                                                                                                  F
1F 034928370001931FERNANDA ANDREOTTI VALINHOS                                                                                                                           FLORENCE PRESENTES                                     082003062401                                                                                                                                2135199910224755502RUA                 SIDNEI COLLETO                                              180                                                                                                                                                               JD. FRORENCE                                      13277616SP7225VALINHOS                                                                                                                                                                                                 50000000000000000500000000000000000N                                                                                                                                                                                                                                                                                  F
1F 034928850001811ALEN & VIEIRA LTDA                                                                                                                                                                                           082002013101                                                                                                                                2062199909234753900RUA                 D                                                           16                                                                                                                                                                RES. SANTA MARIA                                  13278130SP7225VALINHOS                                                                                                                                                                                                 49000000000000000500000000000000000N                                                                                                                                                                                                                                                                                  F
1F 034960680001001SALUD SERVICOS HOSPITALARES LTDA                                                                                                                                                                             022004122400                                                                                                                                2062199911048610102RUA                 DOUTOR ALFREDO ZACHARIAS                                    1816                                                                                                                                                              VILA PAGANO                                       13277280SP7225VALINHOS                                          19  3242727019  32426664            PRISMACONTABIL@GMAIL.COM                                                                                           49000000004500000500000000000000000N                                                                                                                                                                                                                                                                                  F
1F 034978690001811ZANKA MOVEIS E DECORACOES LTDA                                                                                                                                                                               022005110300                                                                                                                                2062199911104754701RUA                 AMERICANA                                                   10                                                                                                                                                                JDIM PAULISTA                                     13276485SP7225VALINHOS                                          19  8710205             19  8710009                                                                                                                    49000000050000000152008010100000000N                                                                                                                                                                                                                                                                                  F
1F 034978690003432ZANKA MOVEIS E DECORACOES LTDA                                                                                                                                                                               022012052300                                                                                                                                2062201205235211702RUA                 PEDRO RUSSI                                                 100                                                                                                                                                               JARDIM PAULISTA                                   13276170SP7225VALINHOS                                          19  38710009                        esc@stoantonio.com                                                                                                 49000000000000000152008010100000000                        00000000                                                                                                                                                                                                                                                   F
1F 034986740001561MURCIA & DELUCCA VALINHOS LTDA                                                                                                                                                                               082002080101                                                                                                                                2062199911048299799RUA                 LUIZA R. BRANDINI                                           200                                                                                                                                                               VILA SAO JOSE                                     13273609SP7225VALINHOS                                                                                                                                                                                                 49000000000000000500000000000000000N                                                                                                                                                                                                                                                                                  F
1F 034995950001601SANTOS REPRESENTACOES LTDA                                                                                                                                                                                   022001070800                                                                                                                                2062199910194619200RUA                 LUIZ SPIANDORELLI NETO                                      30    SALA  614                                                                                                                                                   JD. PAIQUERE                                      13271570SP7225VALINHOS                                          19  38693082            19  38693082                                                                                                                   49000000020000000300000000000000000N                                                                                                                                                                                                                                                                                  F
1F 035012120001401PEDROZO COMERCIO DE MADEIRAS TUUBARAO LTDA                                                                                                                                                                   022005110300                                                                                                                                2062199911054744002RUA                 KAMEKICHI OHNUMA                                            190   QUADRA  01  LOTE   C                                                                                                                                        BAIRRO NACOES                                     13272364SP7225VALINHOS                                          19  3871621119  3871895919  38716211veigaepostal@veigaepostal.com.br                                                                                   49000000000000000162007070120081231N                                                                                                                                                                                                                                                                                  F
1F 035013330001921CONDOMINIO RESIDENCIAL ORUAM                                                                                                                                                                                 022002051800                                                                                                                                3085199910298112500RUA                 PAIQUERE                                                    1359                                                                                                                                                              PAIQUERE                                          13271600SP7225VALINHOS                                          019 8691477             019 8691477                                                                                                                    19000000000000000500000000000000000N                                                                                                                                                                                                                                                                                  F
1F 035022360001141AMORAS ROUPAS E ACESSORIOS LTDA                                                                                                                       AMORAS                                                 022005110300                                                                                                                                2062199911054781400RUA                 EUGENIO FRANCESCHINI                                        51                                                                                                                                                                CENTRO                                            13270080SP7225VALINHOS                                          11  68636850                        CONTATO@JLOCONTABIL.COM.BR                                                                                         49000000025000000152007070100000000N                                                                                                                                                                                                                                                                                  F
1F 035054740001831CALLTECH INFORMATICA LTDA                                                                                                                             CALLTECH INFORMATICA                                   022005043000                                                                                                                                2062199911119511800RUA                 CAMPOS SALLES                                               710   SALA  02                                                                                                                                                    JARDIM JUREMA                                     13272477SP7225VALINHOS                                          19  38492191            11  38842777DPCLAUSANT@DGLNET.COM.BR                                                                                           49000000025000000352007070100000000N                                                                                                                                                                                                                                                                                  F
1F 035099390001741BLUE VALLEY EXPORTADORA LTDA                                                                                                                          BLUE VALLEY EXPORTADORA                                042018102463                                                                                                                                2062199911194633801RUA                 PAULO SETUBAL                                               566                                                                                                                                                               VILA NOVA VALINHOS                                13271070SP7225VALINHOS                                          019 8716211             019 8716211 POSTAL&VEIGA@LEXXA.COM.BR                                                                                          49000000000000000162007070120081231N                                                                                                                                                                                                                                                                                  F
1F 035151500001261SELARIA VALINHOS LTDA                                                                                                                                                                                        082010100401                                                                                                                                2062199911084789099AVENIDA             INDEPENDENCIA                                               1889                                                                                                                                                              SANTA MARINA                                      13276030SP7225VALINHOS                                                                                                                                                                                                 49000000000000000500000000000000000N                                                                                                                                                                                                                                                                                  F
1F 035157340001001F.B. COMERCIO DE ROUPAS E PRESENTES LTDA                                                                                                              BUGS RUNNER                                            082008123171                                                                                                                                2062199910084781400RUA                 EUGENIO FRANCESCHINI                                        25                                                                                                                                                                CENTRO                                            13270080SP7225VALINHOS                                                                                                                                                                                                 49000000000000000100000000000000000N                                                                                                                                                                                                                                                                                  F
1F 035163240001751BENETI REPRESENTACOES COMERCIAIS LTDA                                                                                                                                                                        022005082700                                                                                                                                2062199911164619200RUA                 AVELINO CAPELLATO                                           38          LOTEAMENTO VIVENDA        DAS CEREJEIRAS                                                                                                              JARDIM ALTO DA COLINA                             13272300SP7225VALINHOS                                          11  33374819            11  33314758                                                                                                                   49000000000000000500000000000000000N                                                                                                                                                                                                                                                                                  F
1F 035211150001101THAIS ALINE CARVALHO SAGAWA                                                                                                                           CEDROS CAFE                                            022010051500                                                                                                                                2135199911165611203RUA                 CANDIDO FERREIRA                                            163   SALA 01                                                                                                                                                     CENTRO                                            13273609SP7225VALINHOS                                                                                                                                                                                                 50000000000000000100000000000000000N                                                                                                                                                                                                                                                                                  F
1F 035219250001761ZIMMERMANN CONSULTORIA E COMERCIO LTDA                                                                                                                                                                       021999111700                                                                                                                                2062199911178299799ALAMEDA             ITATUBA                                                     565                                                                                                                                                               SITIO REC.CAFEZAIS                                13278520SP7225VALINHOS                                          19  38492191            19  38492192clausant@dglnet.com.br                                                                                             49000000000000000100000000000000000N                                                                                                                                                                                                                                                                                  F
1F 035238790001441STAR CELULAR-COM. DE APAR. E ACES. P/TELEFONIA CELULAR LTDA                                                                                                                                                  011999100811                                                                                                                                2062199910084752100AVENIDA             ONZE DE AGOSTO                                              515                                                                                                                                                               VILA NEGRELLO                                     13276130SP7225VALINHOS                                                                                                                                                                                                 49000000000000000500000000000000000N                                                                                                                                                                                                                                                                                  F
1F 035238820001681STAR CELULAR-COM. DE APAR. E ACES. P/TELEFONIA CELULAR LTDA                                                                                                                                                  042018102463                                                                                                                                2062199910084752100AVENIDA             ONZE DE AGOSTO                                              515                                                                                                                                                               VILA NEGRELLO                                     13276130SP7225VALINHOS                                                                                                                                                                                                 49000000000000000100000000000000000N                                                                                                                                                                                                                                                                                  F
1F 035279520001561A.D.S. COMERCIO E SERVICOS LTDA                                                                                                                       A.D.S.                                                 082009080701                                                                                                                                2062199911054789007RUA                 CELSO LUGLIO                                                38                                                                                                                                                                MOLETA                                            13272047SP7225VALINHOS                                          19  38497000            19  38497000contsenador@ig.com.br                                                                                              49000000005000000162008010120090807N                                                                                                                                                                                                                                                                                  F
1F 035284700001101BAR E MERCEARIA KATUGI LTDA                                                                                                                                                                                  022005110300                                                                                                                                2062199911184712100RUA                 ESTORIL                                                     295                                                                                                                                                               PARQUE PORTUGAL                                   13273260SP7225VALINHOS                                                                                                                                                                                                 49000000000000000152019010100000000N                                                                                                                                                                                                                                                                                  F
1F 035286900001441BRASA QUENTE HAPPY HOUR LTDA                                                                                                                          BRASA QUENTE HAPPY HOUR                                022002030900                                                                                                                                2062199911235611203RUA                 DOM NERY                                                    316                                                                                                                                                               VILA EMBARE                                       13271170SP7225VALINHOS                                          19  3869640219  9277489819  38715335contabilidade@anselmietrovatti.com.br                                                                              49000000000000000152009010100000000N                                                                                                                                                                                                                                                                                  F
1F 035304120001211CONSTRUTORA M. BASTOS EIRELI                                                                                                                                                                                 022005110300                                                                                                                                2305199909274120400AVENIDA             ONZE DE AGOSTO                                              232   SALA  01                                                                                                                                                    VILA CLAYTON                                      13276130SP7225VALINHOS                                          19  38295900            19  36571155CARLA@BASTOSCONSTRUTORA.COM                                                                                        65000000600000000500000000000000000N                                                                                                                                                                                                                                                                                  F
1F 035346310001891F.H.P.C. -CONSULTORIA EM VENDAS EIRELI                                                                                                                                                                       082017051901                                                                                                                                2305199911177319002RUA                 JOSE DE OLIVEIRA                                            144   BLOCO B                   CASA  06                                                                                                                          CHACARAS SILVANIA                                 13271653SP7225VALINHOS                                          19  38695964                        NUCLEO@NUCLEOCONTABIL.COM.BR                                                                                       65000000067800000352007070100000000N                                                                                                                                                                                                                                                                                  F
1F 035365970001811MATRIX ROLLS MONTADORA E COMERCIAL LTDA                                                                                                                                                                      022005110300                                                                                                                                2062199911193314710RUA                 CASEMIRO DE ABREU                                           151                                                                                                                                                               VILA ANHANGUERA                                   13273609SP7225VALINHOS                                                                                                                                                                                                 49000000000000000100000000000000000N                                                                                                                                                                                                                                                                                  F
