1F 000000000811752BANCO DO BRASIL SA                                                                                                                                                                                           022005110300                                                                                                                                2038197401176421200RUA                 QUINZE DE NOVEMBRO                                          70                                                                                                                                                                CENTRO                                            13270130SP7225VALINHOS                                                                                                                                                                                                 10000000000000000500000000000000000                        00000000                                                                                                                                                                                                                                                   F
1F 000000006715682BANCO DO BRASIL SA                                                                                                                                    VALINHOS / BNC (SP)                                    022009041600                                                                                                                                2038200904166422100RUA                 7 DE SETEMBRO                                               160                                                                                                                                                               CENTRO                                            13270100SP7225VALINHOS                                          11  21287060                                                                                                                                           10000000000000000500000000000000000                        00000000                                                                                                                                                                                                                                                   F
1F 000012770001391J A STOPIGLIA & CIA LTDA                                                                                                                                                                                     042018102463                                                                                                                                2062199405064712100RUA                 JOSE GUIRALDELO                                             127                                                                                                                                                               JARDIM PINHEIROS                                  13273609SP7225VALINHOS                                                                                                                                                                                                 49000000000000000100000000000000000N                                                                                                                                                                                                                                                                                  F
1F 000015590001361DUNELLA ARTIGOS DE PELUCIA LTDA                                                                                                                       DUNELLA                                                081995073101                                                                                                                                2062199405093240099RUA                 ANGELO CAPOVILLA                                            427                                                                                                                                                               JARDIM AMERICA                                    13273609SP7225VALINHOS                                                                                                                                                                                                 49000000000000000500000000000000000N                                                                                                                                                                                                                                                                                  F
1F 000015610001051RESTAURANTE MANILA LTDA                                                                                                                                                                                      022005110300                                                                                                                                2062199405065620101AVENIDA             DOUTOR JOSE PAGANO BRUNDO                                   238                                                                                                                                                               VILA PAGANO                                       13277210SP7225VALINHOS                                          19  38298000                        MARILIZA.DALBEN@NTGOURMET.COM.BR                                                                                   49000000005000000362007070120081231N                                                                                                                                                                                                                                                                                  F
1F 000015610002962RESTAURANTE MANILA LTDA                                                                                                                                                                                      082011062701                                                                                                                                2062200110295611201RUA                 DR JOSE PAGANO BRUNDO                                       55                                                                                                                                                                VILA PAGANO                                       13277210SP7225VALINHOS                                          19  38693275                                                                                                                                           49000000000000000362007070120081231                        00000000                                                                                                                                                                                                                                                   F
1F 000015610003772RESTAURANTE MANILA LTDA                                                                                                                               SABOR & MAGIA                                          082004022701                                                                                                                                2062200206185611201AVENIDA             INDEPENDENCIA                                               677                                                                                                                                                               CENTRO                                            13276030SP7225VALINHOS                                          019 38710552                                                                                                                                           49000000000000000362007070120081231                        00000000                                                                                                                                                                                                                                                   F
1F 000031470001351CONGEL PRODUTOS ALIMENTICIOS LTDA                                                                                                                                                                            082012032301                                                                                                                                2062199405125620101RUA                 MARIA FONSECA CARVALHO                                      60                                                                                                                                                                JARDIM PINHEIROS                                  13273609SP7225VALINHOS                                                                              lcmessias@terra.com.br                                                                                             49000000000000000162007070120120323N                                                                                                                                                                                                                                                                                  F
1F 000032490001501SANI QUIMICA LTDA                                                                                                                                                                                            022005110300                                                                                                                                2062199405122062200AVENIDA             ARQUITETO CLAYTON ALVES CORREA                              785   789                                                                                                                                                         VALE VERDE                                        13279071SP7225VALINHOS                                                                                                                                                                                                 49000000040000000362007070120071231N                                                                                                                                                                                                                                                                                  F
1F 000041570001951ROSIMAR N CELESTINO                                                                                                                                                                                          082008123171                                                                                                                                2135199405135611203ESTRADA             MUN REFORMA AGRARI                                          SN                                                                                                                                                                REFORMA AGRARIA                                   13273609SP7225VALINHOS                                                                                                                                                                                                 50000000000000000500000000000000000N                                                                                                                                                                                                                                                                                  F
1F 000042210001381AUTO MECANICA ITALIA VALINHOS LTDA                                                                                                                                                                           082008123171                                                                                                                                2062199405134520001RUA                 ITALIA                                                      663                                                                                                                                                               CENTRO                                            13270180SP7225VALINHOS                                                                                                                                                                                                 49000000000000000500000000000000000N                                                                                                                                                                                                                                                                                  F
1F 000043000001491STELLA INFORMATICA LTDA                                                                                                                               KARTRO                                                 082012101101                                                                                                                                2062199405134761003RUA                 TREZE DE MAIO                                               602                                                                                                                                                               CENTRO                                            13270020SP7225VALINHOS                                                                                                                                                                                                 49000000000000000100000000000000000N                                                                                                                                                                                                                                                                                  F
1F 000043100001841UTI PLAST IND.E COM.DE ARTEFATOS PLASTICOS LTDA                                                                                                                                                              042018091163                                                                                                                                2062199405162399101RUA                 ANTONIO C.PRADO NETO                                        8                                                                                                                                                                 ALTO DA COLINA                                    13273609SP7225VALINHOS                                                                                                                                                                                                 49000000000000000100000000000000000N                                                                                                                                                                                                                                                                                  F
1F 000049320001021MALA & CUIA VALINHOS BAZAR LTDA                                                                                                                       MALA & CUIA VALINHOS                                   081994081709                                                                                                                                2062199405174713004                    LARG SAO SEBASTIAO                                          229                                                                                                                                                               CENTRO                                            13270010SP7225VALINHOS                                                                                                                                                                                                 49000000000000000500000000000000000N                                                                                                                                                                                                                                                                                  F
1F 000051870001161MACRI & MACRI LTDA                                                                                                                                    BORRACHARIA SAO CRISTOVAO                              082011090801                                                                                                                                2062199405174530703RUA                 DR MARINO COSTA TERRA                                       2371                                                                                                                                                              VILA PAGANO                                       13277200SP7225VALINHOS                                                                                                                                                                                                 49000000000000000100000000000000000N                                                                                                                                                                                                                                                                                  F
1F 000052920001551PODIUM EVENTOS COMERCIO E SERVICOS LTDA                                                                                                                                                                      081994051709                                                                                                                                2062199405174774100RUA                 ULYSSES P DE OLIV FILHO                                     321                                                                                                                                                               CENTRO                                            13273609SP7225VALINHOS                                                                                                                                                                                                 49000000000000000500000000000000000N                                                                                                                                                                                                                                                                                  F
1F 000052920002362PODIUM EVENTOS COMERCIO E SERVICOS LTDA                                                                                                               PODIUM EVENTOS COMERCIO E SERVICOS LTDA                081995053001                                                                                                                                2062199409064774100RUA                 VINTE E UM DE DEZEMBRO                                      66                                                                                                                                                                CENTRO                                            13270070SP7225VALINHOS                                                                                                                                                                                                 49000000000000000500000000000000000                        00000000                                                                                                                                                                                                                                                   F
1F 000052920021072PODIUM EVENTOS COMERCIO E SERVICOS LTDA                                                                                                                                                                      081994090601                                                                                                                                2062199409064774100RUA                 VINTE E UM DE DEZEMBRO                                      66                                                                                                                                                                CENTRO                                            13270070SP7225VALINHOS                                                                                                                                                                                                 49000000000000000500000000000000000                        00000000                                                                                                                                                                                                                                                   F
1F 000053640001641VTX TELEINFORMATICA LTDA                                                                                                                                                                                     082004051801                                                                                                                                2062199405174752100AVENIDA             PRESID.TANCREDO NEVES                                       1223                                                                                                                                                              PQ DAS COLINAS                                    13273609SP7225VALINHOS                                                                                                                                                                                                 49000000000000000500000000000000000N                                                                                                                                                                                                                                                                                  F
1F 000056170001081SUIREN COMERCIO DE ALIMENTOS LTDA                                                                                                                     NECTAR CAFE E SALGADOS                                 082014070101                                                                                                                                2062199405194729699RUA                 21 DE DESEMBRO                                              137                                                                                                                                                               CENTRO                                            13273609SP7225VALINHOS                                          019 8712738                                                                                                                                            49000000000000000100000000000000000N                                                                                                                                                                                                                                                                                  F
1F 000067100001291PANIFICADORA MICHELLUTTI LTDA                                                                                                                                                                                082015020973                                                                                                                                2062199405204721102RUA                 SETE DE SETEMBRO                                            87    ESQ. 21 DE DEZEMBRO                                                                                                                                         CENTRO                                            13270100SP7225VALINHOS                                                                                                                                                                                                 49000000000000000500000000000000000N                                                                                                                                                                                                                                                                                  F
1F 000068680001071XGED SOFTWARES LTDA                                                                                                                                   XGED SOFTWARES                                         082016072701                                                                                                                                2062199405204761003ESTRADA             DO JEQUITIBA                                                999   CASA  13                  COND  PORTAL DO JEQUITIBA                                                                                                         PINHEIRO                                          13274610SP7225VALINHOS                                          19  3871621119  3871895919  38716211VEIGAEPOSTAL@VEIGAEPOSTAL.COM.BR                                                                                   49000000001000000152016010100000000N                                                                                                                                                                                                                                                                                  F
1F 000071600001621LAERTE ASTOLFI                                                                                                                                                                                               081996123101                                                                                                                                2135199405194722901RUA                 ULISSES PEDROSO DE OLIVEIRA FILHO                           402                                                                                                                                                               JD. SAO LUIZ                                      13273609SP7225VALINHOS                                                                                                                                                                                                 50000000000000000500000000000000000N                                                                                                                                                                                                                                                                                  F
1F 000073640001011DEVANIR APARECIDO GONCALVES                                                                                                                                                                                  081996123101                                                                                                                                2135199405205611203AVENIDA             ROSA BELMIRO RAMOS                                          964                                                                                                                                                               JD SAO PEDRO                                      13275400SP7225VALINHOS                                                                                                                                                                                                 50000000000000000500000000000000000N                                                                                                                                                                                                                                                                                  F
1F 000077060001851SHOJI HATA                                                                                                                                                                                                   081994082509                                                                                                                                2135199405207490101RUA                 VALMIR ANTONIO CAPELARI                                     766                                                                                                                                                               JD MARIA ROSA                                     13273550SP7225VALINHOS                                                                                                                                                                                                 50000000000000000500000000000000000N                                                                                                                                                                                                                                                                                  F
1F 000077520001841DISTRIBUIDORA DE AGUA QUATRO ESTACOES VALINHOS LTDA                                                                                                   LINDOIA 4 ESTACOES                                     082006031601                                                                                                                                2062199405204774100AVENIDA             11 DE AGOSTO                                                1944                                                                                                                                                              NOVA VALINHOS                                     13273609SP7225VALINHOS                                                                                                                                                                                                 49000000000000000100000000000000000N                                                                                                                                                                                                                                                                                  F
1F 000082090001001KAIROS DE VALINHOS LIVRARIA E EDITORA LTDA                                                                                                            HOJE EDICOES                                           022005110300                                                                                                                                2062199405235821200ALAMEDA             DAS MACIEIRAS                                               SN    LOTE  23                  QUADRAR                                                                                                                           PARQUE VALINHOS                                   13274710SP7225VALINHOS                                          19  82387700                        JORNALHOJE@GMAIL.COM                                                                                               49000000001000000152007070100000000N                                                                                                                                                                                                                                                                                  F
1F 000084240001001EMBAPEL VALINHOS INDUSTRIA E COM DE EMBALAGENS LTDA                                                                                                                                                          081995123101                                                                                                                                2062199405201749400RUA                 JOSE OSCAR                                                  78                                                                                                                                                                VILA PAGANO                                       13277260SP7225VALINHOS                                                                                                                                                                                                 49000000000000000500000000000000000N                                                                                                                                                                                                                                                                                  F
1F 000100190001191PAOLA ALEJANDRA ANSALDO OLMEDO GUIRELI                                                                                                                SABINA MODAS                                           042018091163                                                                                                                                2135199405264781400RUA                 XV DE NOVEMBRO                                              41                                                                                                                                                                CENTRO                                            13273609SP7225VALINHOS                                                                                                                                                                                                 50000000000000000100000000000000000N                                                                                                                                                                                                                                                                                  F
1F 000104400001201ADRIANO DOS ANJOS MACAIRA VALINHOS                                                                                                                    SERVE-LAR                                              082002122401                                                                                                                                2135199405274723700AVENIDA             DOS ESPORTES                                                494                                                                                                                                                               CENTRO                                            13270210SP7225VALINHOS                                                                                                                                                                                                 50000000000000000500000000000000000N                                                                                                                                                                                                                                                                                  F
1F 000105730001041TELLY BRINQUEDOS LTDA                                                                                                                                                                                        081995053101                                                                                                                                2062199405303240099RUA                 LUIZ CARLOS BRUNELLO                                        583   FUNDOS                                                                                                                                                      CHACARA SAO BENTO                                 13278074SP7225VALINHOS                                                                                                                                                                                                 49000000000000000500000000000000000N                                                                                                                                                                                                                                                                                  F
1F 000109090001201THE POINT LANCHES E PORCOES LTDA                                                                                                                      THE POINT                                              042018102463                                                                                                                                2062199405304729601RUA                 DAS GARDENIAS                                               175                                                                                                                                                               SUBD BRECIANI                                     13273350SP7225VALINHOS                                                                                                                                                                                                 49000000000000000100000000000000000N                                                                                                                                                                                                                                                                                  F
1F 000117760001071MOACYR MACHADO NEVES                                                                                                                                                                                         022005110300                                                                                                                                2135199405304744005AVENIDA             DOS ESTADOS                                                 182                                                                                                                                                               VILA SANTANA                                      13274170SP7225VALINHOS                                                                                                                                                                                                 50000000000000000100000000000000000N                                                                                                                                                                                                                                                                                  F
1F 000129960001551PAULO LUIZ GRAMOSTINI                                                                                                                                                                                        082008123171                                                                                                                                2135199406014774100RUA                 EDUARDO DE SOUZA                                            84                                                                                                                                                                NOVO MUNDO I                                      13273033SP7225VALINHOS                                                                                                                                                                                                 50000000000000000500000000000000000N                                                                                                                                                                                                                                                                                  F
1F 000147560001901TERRANOVA VALINHOS TRANSPORTES LTDA                                                                                                                   TERRANOVA                                              022005110300                                                                                                                                2062199406094744004AVENIDA             INDEPENDENCIA                                               2123                                                                                                                                                              JARDIM STA MARINA                                 13277000SP7225VALINHOS                                          019 38717474            019 38692469                                                                                                                   49000000000000000152019010100000000N                                                                                                                                                                                                                                                                                  F
1F 000147600001581101.1 SUPER EMISSORA FM STEREO LTDA                                                                                                                   101 SUPER FM STEREO                                    081999032301                                                                                                                                2062199406096010100RUA                 CAMPOS SALES                                                289                                                                                                                                                               CENTRO                                            13273609SP7225VALINHOS                                                                                                                                                                                                 49000000000000000500000000000000000N                                                                                                                                                                                                                                                                                  F
1F 000148610001291ACADEMIA RYUKO KAI E COMERCIO ARTIGOS ESPORTIVOS LTDA                                                                                                                                                        081996073101                                                                                                                                2062199406089312300RUA                 DOM P. DE TARSO CAMPOS                                      130                                                                                                                                                               VILA SAO JOSE                                     13273609SP7225VALINHOS                                                                                                                                                                                                 49000000000000000500000000000000000N                                                                                                                                                                                                                                                                                  F
1F 000154480001891JOLUMA USINAGEM DE PRECISAO LTDA                                                                                                                                                                             022005110300                                                                                                                                2062199406072829199RUA                 JULIO BARCHESI                                              4                                                                                                                                                                 VALE VERDE                                        13279074SP7225VALINHOS                                          19  38813448            19  38813448jolumausinagem@uol.com.br                                                                                          49000000100000000500000000000000000N                                                                                                                                                                                                                                                                                  F
1F 000155590001951ALEA-EVENTOS PROMOCOES E PARTICIPACOES LTDA                                                                                                                                                                  081999092001                                                                                                                                2062199406109200301RUA                 RIO GRANDE DO SUL                                           110                                                                                                                                                               VILA SANTANA                                      13274110SP7225VALINHOS                                                                                                                                                                                                 49000000000000000500000000000000000N                                                                                                                                                                                                                                                                                  F
1F 000175920001541AUGUSTO E MARIANO ENGENHARIA E SANEAMENTO AMBIENTAL EIRELI                                                                                            MOTRIZ SANEAMENTO AMBIENTAL                            022005110300                                                                                                                                2305199406134930202RUA                 JOAO LOURENCON                                              7B    LOTE  A - QUADRA 7B                                                                                                                                         VALE VERDE                                        13279011SP7225VALINHOS                                          19  9865942119  3233611319  38811001KIELSONPRADO@YAHOO.COM.BR                                                                                          65000000500000000500000000000000000N                                                                                                                                                                                                                                                                                  F
1F 000176210001881JOAO BATISTA APARECIDO VALINHOS                                                                                                                       J.B.FUNILARIA E PINTURA                                042018091163                                                                                                                                2135199406134520001RUA                 GENESIA GIMENEZ ARICO                                       126                                                                                                                                                               PONTE ALTA                                        13273609SP7225VALINHOS                                                                                                                                                                                                 50000000000000000100000000000000000N                                                                                                                                                                                                                                                                                  F
1F 000180330001691PEDRO PEDRAL SANT ANA VALINHOS                                                                                                                                                                               042018091163                                                                                                                                2135199406135611203RUA                 JOSE GUIRADELLO                                             358                                                                                                                                                               JARDIM PINHEIROS                                  13273609SP7225VALINHOS                                          00198716109                                                                                                                                            50000000000000000100000000000000000N                                                                                                                                                                                                                                                                                  F
1F 000181910001191ANTONIO ADEMIR GABETTA                                                                                                                                MECATEC MANUTENCAO E MONTAGEM INDUSTRIAL               082015020973                                                                                                                                2135199406153314710RUA                 DOS MANACAS                                                 33                                                                                                                                                                JD NOVO MUNDO III                                 13273030SP7225VALINHOS                                                                                                                                                                                                 50000000000000000100000000000000000N                                                                                                                                                                                                                                                                                  F
1F 000185680001301VALIVEL VALINHOS VEICULOS LTDA                                                                                                                        VALIVEL                                                082008123171                                                                                                                                2062199406164511101RUA                 CANARIOS                                                    165                                                                                                                                                               JARDIM PAIQUERE                                   13271605SP7225VALINHOS                                                                                                                                                                                                 49000000000000000500000000000000000N                                                                                                                                                                                                                                                                                  F
1F 000185680003002VALIVEL VALINHOS VEICULOS LTDA                                                                                                                        VALIVEL                                                082002121801                                                                                                                                2062199911164511101AVENIDA             DOS ESPORTES                                                585   585 E 699                                                                                                                                                   JD. PLANALTO                                      13270210SP7225VALINHOS                                                                                                                                                                                                 49000000000000000500000000000000000                        00000000                                                                                                                                                                                                                                                   F
1F 000186880001371LAMARTINE ALBERTO FRANCO DE GODOI                                                                                                                                                                            022005110300                                                                                                                                2135199406154619200RUA                 SILVESTRE CHIARI                                            18                                                                                                                                                                JARDIM BOM RETIRO II                              13275250SP7225VALINHOS                                          19  3849148519  38714179            adm@unifielassessoria.com.br                                                                                       50000000001000000100000000000000000N                                                                                                                                                                                                                                                                                  F
1F 000198270001471TERRAPLENAGEM BASI TERRA LTDA.                                                                                                                        TERRAPLENAGEM BASI TERRA                               082002091801                                                                                                                                2062199406224744005RODOVIA             FLAVIO DE CARVALHO                                          735                                                                                                                                                               CAPUAVA                                           13273000SP7225VALINHOS                                          019 38715387            019 38692032                                                                                                                   49000000000000000500000000000000000N                                                                                                                                                                                                                                                                                  F
1F 000202410001001MANUEL T DA SILVA VALINHOS                                                                                                                            CANTINHO DA COLINA                                     082008123171                                                                                                                                2135199406215611203AVENIDA             PRES TANCREDO NEVES                                         317                                                                                                                                                               PQ DAS COLINAS                                    13273609SP7225VALINHOS                                                                                                                                                                                                 50000000000000000500000000000000000N                                                                                                                                                                                                                                                                                  F
1F 000205620001051EVALI COMERCIO DE PECAS LTDA                                                                                                                                                                                 082008051954                                                                                                                                2062199406214774100AVENIDA             ESPORTES                                                    445                                                                                                                                                               CENTRO                                            13270210SP7225VALINHOS                                                                                                                                                                                                 49000000000000000100000000000000000N                                                                                                                                                                                                                                                                                  F
1F 000217400001041TRANSCHIQUE TRANSPORTES DE CARGAS VALINHOS LIMITADA                                                                                                   TRANSCHIQUE                                            022005110300                                                                                                                                2062199406244930202CHACARA             SANTO ANTONIO                                               SN    LOTE 04                                                                                                                                                     REFORMA AGRARIA                                   13273609SP7225VALINHOS                                                                                                                                                                                                 49000000000000000100000000000000000N                                                                                                                                                                                                                                                                                  F
1F 000220910001661ITALE TRANSPORTE E COMERCIO LTDA                                                                                                                                                                             022005110300                                                                                                                                2062199406274930202RUA                 DR. ALFREDO ZACHARAIS                                       1040                                                                                                                                                              SANTA ESCOLASTICA                                 13270970SP7225VALINHOS                                          19  38298811                        FINANCEIRO@ITALE.COM.BR                                                                                            49000000000000000100000000000000000N                                                                                                                                                                                                                                                                                  F
1F 000223360001551MUNDIAL SOM E ACESSORIOS LTDA                                                                                                                                                                                082015020301                                                                                                                                2062199406274530703RUA                 TREZE DE MAIO                                               758                                                                                                                                                               RIGESA                                            13270020SP7225VALINHOS                                          019 8693388                                                                                                                                            49000000001000000100000000000000000N                                                                                                                                                                                                                                                                                  F
1F 000238510001501A. L. B. LUZ                                                                                                                                          BIOBOAVISTA                                            022005061100                                                                                                                                2135199406302123800RUA                 UM                                                          437                                                                                                                                                               NOVA ESPIRITO SANTO                               13273200SP7225VALINHOS                                          19  38497499                        FINANCEIRO@BIOBOAVISTA.COM.BR                                                                                      50000000000000000362007070120181231N                                                                                                                                                                                                                                                                                  F
1F 000240160001341GLOBO TERRESTRE ENCOMENDAS INTELIGENTES LTDA                                                                                                                                                                 022002111600                                                                                                                                2062199406307911200AVENIDA             INDEPENDENCIA                                               1633  SALA  B                                                                                                                                                     JARDIM PLANALTO                                   13277000SP7225VALINHOS                                          11  48074085                        CONTATO@NUNESEBRUNELLI.COM.BR                                                                                      49000000096000000352007070100000000N                                                                                                                                                                                                                                                                                  F
1F 000240160002152GLOBO TERRESTRE ENCOMENDAS INTELIGENTES LTDA                                                                                                                                                                 082005033101                                                                                                                                2062199910295112999AVENIDA             DOS ESPORTES                                                1045                                                                                                                                                              JD PLANALTO                                       13270210SP7225VALINHOS                                          011 45262172                                                                                                                                           49000000000000000352007070100000000                        00000000                                                                                                                                                                                                                                                   F
1F 000245300001701ADILSON ANTONIO LOPES SECCO                                                                                                                           CAV BAR                                                082008123171                                                                                                                                2135199406135611203AVENIDA             ONZE DE AGOSTO                                              2095-B                                                                                                                                                            NOVA VALINHOS                                     13271210SP7225VALINHOS                                                                                                                                                                                                 50000000000000000500000000000000000N                                                                                                                                                                                                                                                                                  F
1F 000252090001001ROBERTO TAKASHI SAITO                                                                                                                                 ASSIST INFORMATICA                                     081999101901                                                                                                                                2135199407074751201RUA                 12 DE OUTUBRO                                               679                                                                                                                                                               JD. SAO FELIPE                                    13273609SP7225VALINHOS                                                                                                                                                                                                 50000000000000000500000000000000000N                                                                                                                                                                                                                                                                                  F
1F 000260150001291EDMAR SUPERMERCADO LIMITADA                                                                                                                           EDMAR SUPERMERCADO                                     082008123171                                                                                                                                2062199407084712100RUA                 PEDRO FAVRIN                                                184                                                                                                                                                               JARDIM JUREMA                                     13272452SP7225VALINHOS                                                                                                                                                                                                 49000000000000000500000000000000000N                                                                                                                                                                                                                                                                                  F
1F 000272000001381ALMMDEO ZALAQUETT                                                                                                                                     ECO SPA                                                022004100200                                                                                                                                2135199407129602502RUA                 DOUTOR ERALDO AURELIO FRANZESE                              120   SALA  01                                                                                                                                                    JARDIM PAIQUERE                                   13271608SP7225VALINHOS                                          19  3849381119  3878940019  38789401ANALUCIA@SPAECO.COM.BR                                                                                             50000000020000000152015010100000000N                                                                                                                                                                                                                                                                                  F
1F 000277910001431VILLAS BOAS - CONSULTORIA E REPRESENTACOES LTDA                                                                                                                                                              022004100200                                                                                                                                2062199407157020400RUA                 SIRIO LIBANESA                                              96                                                                                                                                                                VL STA CATARINA                                   13276100SP7225VALINHOS                                          019 8710205                                                                                                                                            49000000050000000100000000000000000N                                                                                                                                                                                                                                                                                  F
1F 000283680001681HVS INFORMATICA LTDA                                                                                                                                  PEOPLE COMPUTACAO                                      082014090901                                                                                                                                2062199407114752100RUA                 TREZE DE MAIO                                               237                                                                                                                                                               CENTRO                                            13270020SP7225VALINHOS                                          19  38693818                                                                                                                                           49000000000000000100000000000000000N                                                                                                                                                                                                                                                                                  F
1F 000288710001131J ANTONIO DA SILVA VALINHOS                                                                                                                                                                                  082008123171                                                                                                                                2135199408035611203RUA                 LUIZ BISSOTO                                                555                                                                                                                                                               BOM RETIRO I                                      13275110SP7225VALINHOS                                                                                                                                                                                                 50000000000000000500000000000000000N                                                                                                                                                                                                                                                                                  F
1F 000292920001951MARILENA MICHELON SAMPAIO VALINHOS                                                                                                                    BETEL MATERIAIS PARA CONSTRUCOES                       082010120701                                                                                                                                2135199407284744005RUA                 VALMIR ANTONIO CAPELARI                                     750                                                                                                                                                               JARDIM CENTENARIO                                 13273550SP7225VALINHOS                                          19  38716211            19  38716211POSTAL&VEIGA@LEXXA.COM.BR                                                                                          50000000000000000162007070120101207N                                                                                                                                                                                                                                                                                  F
1F 000299080001281CASSIO ALEXANDRE COSTALONGA VALINHOS                                                                                                                  PALADAR EVENTOS & BUFFET                               042019032063                                                                                                                                2135199407275620102RUA                 DOM PAULO DE TARSO CAMPOS                                   102                                                                                                                                                               VILA SAO JOSE                                     13270240SP7225VALINHOS                                                                                                                                                                                                 50000000100000000162007070120161231N                                                                                                                                                                                                                                                                                  F
1F 000301160001731D & V COMERCIO DE CERAMICAS LTDA                                                                                                                                                                             082008080701                                                                                                                                2062199408032349499RUA                 GIACOMO TRENTO                                              70                                                                                                                                                                VL MOLETA                                         13272041SP7225VALINHOS                                                                                                                                                                                                 49000000000000000162007070120080807N                                                                                                                                                                                                                                                                                  F
1F 000301410001571ANTONIO LUIZ CIPRIANO                                                                                                                                 LS MODAS E CONFECCOES                                  082008123171                                                                                                                                2135199408034781400RUA                 13 DE MAIO                                                  455   LOJA 1                                                                                                                                                      CENTRO                                            13273609SP7225VALINHOS                                                                                                                                                                                                 50000000000000000500000000000000000N                                                                                                                                                                                                                                                                                  F
1F 000305320001711MAURICIO JOSE MORASI                                                                                                                                  BAR DO BOI                                             082012031601                                                                                                                                2135199409125611203RUA                 CAMPOS SALLES                                               1306                                                                                                                                                              VILA COLEGA                                       13272350SP7225VALINHOS                                                                                                                                                                                                 50000000000000000100000000000000000N                                                                                                                                                                                                                                                                                  F
1F 000305370001021DIVINO HENRIQUE SCAPIN                                                                                                                                PASTELARIA E SORVETERIA SONHO MEU                      081996123101                                                                                                                                2135199408195611203RUA                 CAMPOS SALLES                                               574                                                                                                                                                               VERA CRUZ                                         13272350SP7225VALINHOS                                                                                                                                                                                                 50000000000000000500000000000000000N                                                                                                                                                                                                                                                                                  F
1F 000305380001491CARDOSO & BENASSI LTDA                                                                                                                                                                                       042018091163                                                                                                                                2062199408035611203AVENIDA             INDEPENDENCIA                                               642                                                                                                                                                               CENTRO                                            13276030SP7225VALINHOS                                                                                                                                                                                                 49000000000000000100000000000000000N                                                                                                                                                                                                                                                                                  F
1F 000305390001931SIMOES & CONTIERO LTDA                                                                                                                                SKINA INFORMATICA                                      042018102463                                                                                                                                2062199407274751201RUA                 INDAIATUBA                                                  280   FUNDOS                                                                                                                                                      SAO CRISTOVAO                                     13276520SP7225VALINHOS                                                                                                                                                                                                 49000000000000000162007070120081231N                                                                                                                                                                                                                                                                                  F
1F 000581010001131CLEUSA MARIA CESAR                                                                                                                                                                                           081994111701                                                                                                                                4014199404278512100RUA                 ACACIAS                                                     245                                                                                                                                                               JD PARAISO                                        13273609SP7225VALINHOS                                                                                                                                                                                                 34000000000000000500000000000000000N                                                                                                                                                                                                                                                                                  F
1F 000637900001541MARCIO DE GASPERI                                                                                                                                     STORE PLUS                                             082008123171                                                                                                                                4014199405064774100RUA                 13 DE MAIO                                                  133   SALA 1 E 3                                                                                                                                                  CEBTRO                                            13273609SP7225VALINHOS                                                                                                                                                                                                 34000000000000000500000000000000000N                                                                                                                                                                                                                                                                                  F
1F 000662120001711IRMAOS MORASI LTDA                                                                                                                                    M & F AUTO FUNILARIA E PINTURA                         022005110300                                                                                                                                2062199405114520001RUA                 LUIZ ANGELI                                                 207   FD.                                                                                                                                                         JARDIM PINHEIRO                                   13274400SP7225VALINHOS                                          19  3871538719  3869830019  38692032prepon@hiway.com.br                                                                                                49000000010000000152007070100000000N                                                                                                                                                                                                                                                                                  F
1F 000742700001471BRASIL OFFICE COMERCIO E LOCACAO DE EQUIPAMENTOS LTDA                                                                                                 BRASIL OFFICE                                          022005110300                                                                                                                                2062199405244751201AVENIDA             BENJAMIN DE PAULA FRANCA                                    434                                                                                                                                                               VALE VERDE                                        13279173SP7225VALINHOS                                          19  38817600            19  38716211WBESERRA@MKMNET.COM.BR                                                                                             49000000005000000152009010100000000N                                                                                                                                                                                                                                                                                  F
1F 000839850004092UNICRED ASSESSORIA E SERVICOS DE CADASTRO E COBRANCAS LTDA                                                                                                                                                   082001080901                                                                                                                                2062199807018291100RUA                 ANTONIO CARLOS                                              153   SALA 02                                                                                                                                                     VALINHOS                                          13270005SP7225VALINHOS                                          019 2340028             019 2340028                                                                                                                    49000000000000000162007070120121231                        00000000                                                                                                                                                                                                                                                   F
1F 000840270001001D S ACADEMIA DE TENIS LTDA                                                                                                                                                                                   081994053009                                                                                                                                2240199405304774100ALAMEDA             ITATUBA                                                     751                                                                                                                                                               CHAC JOAPIRANGA II                                13278520SP7225VALINHOS                                                                                                                                                                                                 28000000000000000500000000000000000N                                                                                                                                                                                                                                                                                  F
1F 000840470001801LEONEL APARECIDO PALHARES                                                                                                                                                                                    081994123101                                                                                                                                4014199406014330402AVENIDA             TANCREDO NEVES                                              384                                                                                                                                                               PQ DAS COLINAS                                    13273609SP7225VALINHOS                                                                                                                                                                                                 34000000000000000500000000000000000N                                                                                                                                                                                                                                                                                  F
1F 000841040001211OGGI - ASSESSORIA DE COMUNICACAO S/S LTDA.                                                                                                                                                                   022005110300                                                                                                                                2240199405317311400RUA                 JOSE DE OLIVEIRA                                            50    CASA  32                  COND  RESID. BLUMEN HOF                                                                                                           CHACARAS SILVANIA                                 13271653SP7225VALINHOS                                          19  38695022            19  38695022FAZANI@TERRA.COM.BR                                                                                                49000000020100000500000000000000000N                                                                                                                                                                                                                                                                                  F
1F 000922530001321CLASSE A IMOBILIARIA E CONSULTORIA LTDA                                                                                                               CLASSE A                                               042018091163                                                                                                                                2240199406146821802AVENIDA             DOS ESPORTES                                                853                                                                                                                                                               CENTRO                                            13270210SP7225VALINHOS                                                                                                                                                                                                 49000000000000000100000000000000000N                                                                                                                                                                                                                                                                                  F
1F 000923130001171VETOR SERVICOS LTDA                                                                                                                                                                                          022005110300                                                                                                                                2062199406167820500RUA                 PAULO SETUBAL                                               595   CONJ  02                                                                                                                                                    VILA ANGELI                                       13271070SP7225VALINHOS                                          19  38691257            19  38691257ADM@GRUPOIRON.COM                                                                                                  49000000000000000500000000000000000N                                                                                                                                                                                                                                                                                  F
1F 001045640001741RWX INFORMATICA LTDA                                                                                                                                                                                         022005110300                                                                                                                                2062199406156311900RUA                 MAXIMO PITON                                                249   APT   11                                                                                                                                                    JARDIM SANTA ROSA                                 13275090SP7225VALINHOS                                          11  2021884511  2368190511  20218845EHUDS@BOL.COM.BR                                                                                                   49000000005000000152016010100000000N                                                                                                                                                                                                                                                                                  F
1F 001076650001071C.M.S. FARMACIA LTDA                                                                                                                                                                                         022005110300                                                                                                                                2062199407074771701RUA                 BARAO DE MAUA                                               200                                                                                                                                                               CENTRO                                            13276080SP7225VALINHOS                                          19  3876109319  3886112519  38865434                                                                                                                   49000000006000000152007070100000000N                                                                                                                                                                                                                                                                                  F
1F 001079370001601CLINICA MEDICA CONCON LTDA                                                                                                                                                                                   022005110300                                                                                                                                2062199406298630502RUA                 SILVIO CONCON                                               44                                                                                                                                                                CENTRO                                            13270140SP7225VALINHOS                                                                                                                                                                                                 49000000040000000500000000000000000N                                                                                                                                                                                                                                                                                  F
