1F 138186920001211JOSE INFER NETO 03832070885                                                                                                                                                                                  082017102301                                                                                                                                2135201106164399103AVENIDA             PRESIDENTE TANCREDO NEVES                                   1011  TERREO                                                                                                                                                      PARQUE DAS COLINAS                                13273610SP7225VALINHOS                                          19  38493693                        marcos-infer@hotmail.com                                                                                           50000000000001000152011061600000000S                                                                                                                                                                                                                                                                                  F
1F 138197890001591RHIAN DENNIS SERAFINI                                                                                                                                                                                        082012011654                                                                                                                                2135201106151091102RUA                 ULYSSES PEDROSO DE OLIVEIRA FILHO                           133                                                                                                                                                               VILA BOA ESPERANCA                                13270393SP7225VALINHOS                                          19  3871621119  3871895919  38716211veigaepostal@veigaepostal.com.br                                                                                   50000000010000000162011061520120116N                                                                                                                                                                                                                                                                                  F
1F 138202520001091ANESIO DE GODOI 07320096854                                                                                                                                                                                  082019031801                                                                                                                                2135201106174729699RUA                 LISBOA                                                      04    CASA Fte                                                                                                                                                    JARDIM PORTUGAL                                   13273277SP7225VALINHOS                                          19  97565797                        luanmateus.luma@gmail.com                                                                                          50000000000001000162011061720190318S                                                                                                                                                                                                                                                                                  F
1F 138206250001411COMUNIDADE TERAPEUTICA DIVINO MESTRE LTDA                                                                                                             DIVINO MESTRE                                          042018121863                                                                                                                                2062201106068720499ALAMEDA             ITHAIM                                                      25    LOTE  D                                                                                                                                                     JOAPIRANGA II                                     13278510SP7225VALINHOS                                          19  3327076619  3327076619  33270766juliano@jlramonscontabil.com.br                                                                                    49000000010000000100000000000000000N                                                                                                                                                                                                                                                                                  F
1F 138220720001661GLOBALMAXX - REPRESENTACOES COMERCIAIS LTDA                                                                                                                                                                  022011041500                                                                                                                                2062201104154618401RUA                 BARAO DE MAUA                                               279   SALA  03                                                                                                                                                    CENTRO                                            13276080SP7225VALINHOS                                          19  38697794                        marcos.fregonezi@hotmail.com                                                                                       49000000006000000500000000000000000N                                                                                                                                                                                                                                                                                  F
1F 138230320001391SILVIO DIAS SOCIEDADE INDIVIDUAL DE ADVOCACIA                                                                                                                                                                022011053000                                                                                                                                2321201105306911701RUA                 GERALDO DE GASPERI                                          695   CASA  30                                                                                                                                                    CHACARAS SAO BENTO                                13278085SP7225VALINHOS                                          19  32992073            11  38192899SILVIO@PINHOEDIAS.ADV.BR                                                                                           65000000001200000552015010100000000N                                                                                                                                                                                                                                                                                  F
1F 138251050001211JILBERTO MARTINS LIMA 37536133553                                                                                                                                                                            082017062101                                                                                                                                2135201106174929902RUA                 RIO BRANCO                                                  116                                                                                                                                                               VILA SAO SEBASTIAO                                13271040SP7225VALINHOS                                          19  33279949                        vinnerodrigues@gmail.com                                                                                           50000000000001000152011061700000000S                                                                                                                                                                                                                                                                                  F
1F 138279890001531CARINA ANGELICA VELASCO 32624672869                                                                                                                                                                          082018020167                                                                                                                                2135201106208599699RUA                 OROZIMBO MAIA                                               574   APT 33;BLOCO B                                                                                                                                              VILA SONIA                                        13274000SP7225VALINHOS                                          19  92066010                        carinavelasco_1984@hotmail.com                                                                                     50000000000001000162011062020180201S                                                                                                                                                                                                                                                                                  F
1F 138287090001211SIBELE CRISTINA MALATESTA LEONE 18070662824                                                                                                                                                                  082018020167                                                                                                                                2135201106204530703RUA                 JOAO ALONSO                                                 341                                                                                                                                                               JARDIM SANTA HELENA                               13272080SP7225VALINHOS                                          19  38713325                        scm.jav@uol.com.br                                                                                                 50000000000001000162011062020180201S                                                                                                                                                                                                                                                                                  F
1F 1382974400016514 SPEED ACADEMIA DE GINASTICA LTDA                                                                                                                    4 SPEED ACADEMIA                                       022011060800                                                                                                                                2062201106089313100RUA                 LUIZ SPIANDORELLI NETO (LULA)                               161   QUADRAD                   LOTE  1                                                                                                                           PAIQUERE                                          13271570SP7225VALINHOS                                          19  33277668            11  51816694PATRICIA@ACADEMIATARGET.COM.BR                                                                                     49000000300000000352011060800000000N                                                                                                                                                                                                                                                                                  F
1F 138299670001221FERNANDO MANDATO GASPARINI ACOUGUE                                                                                                                    MOIDA EXPRESS                                          022011051800                                                                                                                                2135201105184634601RUA                 LUIZ DE FRANCA PINTO                                        75    SALA  02                                                                                                                                                    RES FNT NOVA                                      13273097SP7225VALINHOS                                          19  3876452819  97574094            escritoriomarconi@globo.com                                                                                        50000000005500000152011051800000000N                                                                                                                                                                                                                                                                                  F
1F 138307390001721LOJA DE CONVENIENCIA VALINHOS LTDA                                                                                                                                                                           082015031901                                                                                                                                2062201106074729602RUA                 TREZE DE MAIO                                               460   CASA  02                                                                                                                                                    VILA OLIVO                                        13276020SP7225VALINHOS                                          19  32360321                        paulobagni@dglnet.com.br                                                                                           05000000005000000152011060700000000N                                                                                                                                                                                                                                                                                  F
1F 138309600001201AGUINALDO SILVA DE MORAES                                                                                                                             LAVA CAR BOB ESPONJA                                   042018121863                                                                                                                                2135201105024520005AVENIDA             DOS ESTADOS                                                 86    QUADRAA                                                                                                                                                     VILA SANTANA                                      13274170SP7225VALINHOS                                          19  3327711019  40629989            pzanutto@terra.com.br                                                                                              50000000005000000100000000000000000N                                                                                                                                                                                                                                                                                  F
1F 138310240001341WAGNER TOMAS LUCATO 08780478832                                                                                                                                                                              082011082501                                                                                                                                2135201106208599604RUA                 ANTONIO MUSSELI                                             281   CASA                                                                                                                                                        JARDIM MONTE VERDE                                13275051SP7225VALINHOS                                          19  38717255                        wagnertlucato@hotmail.com                                                                                          50000000000001000162011062020110825S                                                                                                                                                                                                                                                                                  F
1F 138315040001031PAES - SERVICOS ADMINISTRATIVOS LTDA                                                                                                                                                                         022011060800                                                                                                                                2062201106088219999RUA                 AVELINO CAPELLATO                                           45                                                                                                                                                                VIVENDA DAS CEREJEIRAS                            13270005SP7225VALINHOS                                          19  38717800            19  38494722gilmarsugai@hiway.com.br                                                                                           49000000010000000152016010100000000N                                                                                                                                                                                                                                                                                  F
1F 138317940001871SMC CAETANO PARTICIPACOES LTDA                                                                                                                                                                               022011041200                                                                                                                                2062201104126810201AVENIDA             ONZE DE AGOSTO                                              623         PARTE                                                                                                                                                 CENTRO                                            13276130SP7225VALINHOS                                          19  38497385                                                                                                                                           05000006901709000500000000000000000N                                                                                                                                                                                                                                                                                  F
1F 138341780001801SIMONE RIBEIRO COUTINHO 32573636801                                                                                                                                                                          082018020167                                                                                                                                2135201106207319002AVENIDA             ONZE DE AGOSTO                                              736                                                                                                                                                               VILA CLAYTON                                      13276130SP7225VALINHOS                                          19  33276102                        simonecconsultora@yahoo.com.br                                                                                     50000000000001000162011062020180201S                                                                                                                                                                                                                                                                                  F
1F 138350170001001MIRIAM ELIENE DE SOUZA MELLO 28596173889                                                                                                                                                                     082011082501                                                                                                                                2135201106201093701RUA                 MARCOS ANTONIO BISSOTO                                      243                                                                                                                                                               LOTEAMENTO RESIDENCIAL AGUA NOVA                  13273567SP7225VALINHOS                                          19  3871621119  3871895919  38716211veigaepostal@veigaepostal.com.br                                                                                   50000000000001000162011062020110825S                                                                                                                                                                                                                                                                                  F
1F 138376520001271ODAIR APARECIDO CAMARGO 01706906951                                                                                                                                                                          082018020167                                                                                                                                2135201106218130300ALAMEDA             ITATUBA                                                     2030                                                                                                                                                              JOAPIRANGA                                        13278520SP7225VALINHOS                                          19  93391341                        odair-75@hotmail.com                                                                                               50000000000001000162011062120180201S                                                                                                                                                                                                                                                                                  F
1F 138398230001571APARECIDA PEREIRA DA SILVA 25886459847                                                                                                                                                                       082018020167                                                                                                                                2135201106214781400AVENIDA             ITATIBA                                                     31    CXPST 381                                                                                                                                                   FAZENDA HOTEL SAO BENTO DO RECREIO                13274751SP7225VALINHOS                                          19  91363635                        cida.per@hotmail.com                                                                                               50000000000001000162011062120180201S                                                                                                                                                                                                                                                                                  F
1F 138401640001791DAMASIO & VILELA DE OLIVEIRA LTDA                                                                                                                                                                            082018050301                                                                                                                                2062201106204761003AVENIDA             JOAQUIM ALVES CORREA                                        3350        SALA 1                                                                                                                                                JARDIM PLANALTO                                   13271430SP7225VALINHOS                                          19  3269594719  3267490619  38716211CONTATO@ALCANTARAALVES.COM.BR                                                                                      49000000010000000162011062020180503N                                                                                                                                                                                                                                                                                  F
1F 138408580001061CHURRASCARIA TERAPIA DO CHOPP LTDA                                                                                                                    MIMI EXPRESS VALINHOS                                  082011092001                                                                                                                                2062201106175611201RUA                 LUIZ SPIANDORELLI NETO (LULA)                               161   LOJA  84                                                                                                                                                    JARDIM PAIQUERE                                   13271570SP7225VALINHOS                                          19  38291260                        atualvalinhos@uol.com.br                                                                                           49000000010000000100000000000000000N                                                                                                                                                                                                                                                                                  F
1F 138415060001751MARCOS ANTONIO GRANADO                                                                                                                                GRANADO AUTO CENTER                                    022011062000                                                                                                                                2135201106204520004AVENIDA             ROSA BELMIRO RAMOS                                          S/N   LOTE  10-C                QUADRAB                                                                                                                           JARDIM ELISA                                      13275400SP7225VALINHOS                                          19  3869946919  91130426            gomes_empreendimentos@ig.com.br                                                                                    50000000010000000152017010100000000N                                                                                                                                                                                                                                                                                  F
1F 138460180001501CONDOMINIO VILA VENTURA                                                                                                                               CONDOMINIO VILA VENTURA                                022009033000                                                                                                                                3085200903308112500RUA                 LUIZ BISSOTO                                                240                                                                                                                                                               JARDIM SANTA ROSA                                 13275110SP7225VALINHOS                                          19  38496941                        VALICON@VALICON.COM.BR                                                                                             19000000000000000500000000000000000N                                                                                                                                                                                                                                                                                  F
1F 138467390001601TS PHARMA SOLUCOES FARMACEUTICAS LTDA                                                                                                                 TS PHARMA SOLUCOES FARMACEUTICAS                       022011051700                                                                                                                                2062201105174669999AVENIDA             GESSY LEVER                                                 869                                                                                                                                                               JARDIM SAO FRANCISCO                              13272000SP7225VALINHOS                                          19  3871621119  3871895919  38716211veigaepostal@veigaepostal.com.br                                                                                   49000000010000000152011051700000000N                                                                                                                                                                                                                                                                                  F
1F 138468100001051TRATCH FABRICACAO E COMERCIALIZACAO DE PRODUTOS QUIMICOS PARA REMEDIACAO DE SOLOS E TRATAMENTO DE AGUA E LIMPEZA INDUSTRIAL LTDA                      TRATCH FABRICACAO                                      082016093001                                                                                                                                2062201106102099199RUA                 CATHARINA FARSARELLA GALEGO                                 14    LOTE  43                  QUADRA07                                                                                                                          CHACARAS SAO BENTO                                13278073SP7225VALINHOS                                          19  3881720519  3881720519  38817205pczanutto@yahoo.com.br                                                                                             49000000101000000500000000000000000N                                                                                                                                                                                                                                                                                  F
1F 138502120001001GUILHERME DE SOUZA BUENO 35867288838                                                                                                                                                                         082018020167                                                                                                                                2135201106239521500RUA                 ANTONIA D`ANGELO PERSEGHETTI                                209                                                                                                                                                               JARDIM DO LAGO                                    13277504SP7225VALINHOS                                          19  39295707                        gui_coxajr@yahoo.com.br                                                                                            50000000000001000162011062320180201S                                                                                                                                                                                                                                                                                  F
1F 138502340001701MARCIA BERNARDES DE SOUZA BUENO 12074328818                                                                                                                                                                  082018020167                                                                                                                                2135201106239602502RUA                 ANTONIA D`ANGELO PERSEGHETTI                                209                                                                                                                                                               JARDIM DO LAGO                                    13277504SP7225VALINHOS                                          19  38496839                                                                                                                                           50000000000001000162011062320180201S                                                                                                                                                                                                                                                                                  F
1F 138548860001821LEANDRO DE ANDRADE MONTEIRO                                                                                                                           CARMEL                                                 082012120501                                                                                                                                2135201106094761001RUA                 JOAO ROCHA                                                  127                                                                                                                                                               JARDIM ALTO DA COLINA                             13272305SP7225VALINHOS                                          19  3871454419  3871652519  38714544abolicao@hiway.com.br                                                                                              50000000008000000162011060920121205N                                                                                                                                                                                                                                                                                  F
1F 138576090001231ALUMIVALI COMERCIO DE ESQUADRIAS DE ALUMINIO LTDA                                                                                                     ESQUADRIAS ALUMIVALI                                   022011050600                                                                                                                                2062201105064744099RUA                 WALDOMIRO ROSSI                                             151                                                                                                                                                               JARDIM NOVA ESPIRITO SANTO                        13273202SP7225VALINHOS                                          19  38715883                        atualvalinhos@uol.com.br                                                                                           49000000010000000152013010100000000N                                                                                                                                                                                                                                                                                  F
1F 138584120001091FAVACHO IMPAR EMPREENDIMENTOS IMOBILIARIOS EIRELI                                                                                                     FAVACHO IMPAR                                          022011052600                                                                                                                                2305201105266810202RUA                 LUIS SPIANDORELI NETO                                       30          TORRE ARAUCARIA     SALA  106                                                                                                                         PAIQUERE                                          13271600SP7225VALINHOS                                          19  21029680                        cirele.amorim@transcon-logistica.com.br                                                                            65000000420042000500000000000000000N                                                                                                                                                                                                                                                                                  F
1F 138606380001441DENISE SCIAMMARELLA MONTEIRO DA ROCHA CAMPOS 34432423838                                                                                                                                                     082013042601                                                                                                                                2135201106275813100RUA                 JOAO BISSOTTO FILHO                                         99    BLOCO 7 AP 44                                                                                                                                               ORTIZES                                           13275410SP7225VALINHOS                                          19  98223421                                                                                                                                           50000000000001000152011062700000000S                                                                                                                                                                                                                                                                                  F
1F 138632330001601RITA DE CASSIA ROSETTI 06871988874                                                                                                                    B. A. PLUS EVENTOS & TRAVEL                            022011062700                                                                                                                                2135201106277911200RUA                 MANOEL DOS SANTOS MARTA                                     323   CASA 52                                                                                                                                                     CHACARA DAS NACOES                                13272580SP7225VALINHOS                                          19  32562291                        rita_ro7@yahoo.com.br                                                                                              50000000000001000152011062700000000S                                                                                                                                                                                                                                                                                  F
1F 138633430001211ANGEL' S LIFE RESIDENCIAL DE IDOSOS S/S LTDA                                                                                                                                                                 022011061000                                                                                                                                2240201106108711502ALAMEDA             ITATINGA                                                    909                                                                                                                                                               JOAPIRANGA                                        13278480SP7225VALINHOS                                          19  74056119                        FABIO@ANGELSLIFE.COM.BR                                                                                            49000000010000000362011061020181231N                                                                                                                                                                                                                                                                                  F
1F 138638960001841CICERO SALUSTIANO DE OLIVEIRA 96777052887                                                                                                                                                                    082018020167                                                                                                                                2135201106284330404RUA                 CAMPOS SALLES                                               0000  CXPST 699                                                                                                                                                   VILA SAO SEBASTIAO                                13271971SP7225VALINHOS                                          19  32541035                                                                                                                                           50000000000001000162011062820180201S                                                                                                                                                                                                                                                                                  F
1F 138663240001591DM PACIFICO SERVICOS ADMINISTRATIVOS LTDA                                                                                                                                                                    022011061300                                                                                                                                2062201106138219999ESTRADA             DO JEQUITIBA                                                1750  CASA  08                  COND  RESI.MOINHO DE VENTO                                                                                                        PINHEIRO                                          13274901SP7225VALINHOS                                          11  45250731                        d.pacifico@khromat.com.br                                                                                          49000000010000000552013010100000000N                                                                                                                                                                                                                                                                                  F
1F 138663960003682SANSIMA GESTAO DE ATIVOS LTDA                                                                                                                                                                                022013071100                                                                                                                                2062201307116822600RUA                 FRANCISCO SPEGLISH                                          383                                                                                                                                                               RESIDENCIAL NOVA ERA                              13275652SP7225VALINHOS                                          19  3871174219  3871174219  38711742escritorioindependencia@uol.com.br                                                                                 49000000000000000162011062720130630                        00000000                                                                                                                                                                                                                                                   F
1F 138687220001041BROZA & DIAS EMPREENDIMENTOS TURISTICOS LTDA                                                                                                          INFINITY TOUR BRAZIL                                   082015030601                                                                                                                                2062201106167911200RUA                 FRANCISCO GLICERIO                                          195   SALA  01                                                                                                                                                    JD RIBEIRO                                        13271200SP7225VALINHOS                                          19  3849693119  3849693119  38591382chileno.fiscal@hotmail.com                                                                                         49000000070000000152011061600000000N                                                                                                                                                                                                                                                                                  F
1F 138715210001661JHONATAS SCARASSATI 37192267864                                                                                                                                                                              082013082701                                                                                                                                2135201106284541206AVENIDA             UM                                                          797                                                                                                                                                               JARDIM SAO MARCOS                                 13272838SP7225VALINHOS                                          19  38696780                        metodo.contabil@terra.com.br                                                                                       50000000000001000152011062800000000S                                                                                                                                                                                                                                                                                  F
1F 138739530001061AMAURI CARLOS SANTOS FERREIRA 34905666880                                                                                                                                                                    082018020167                                                                                                                                2135201106294520003RODOVIA             FLAVIO DE CARVALHO                                          1936  CASA                                                                                                                                                        JARDIM SAO PAULO                                  13273000SP7225VALINHOS                                          19  93289864                        tatodigital@yahoo.com                                                                                              50000000000001000162011062920180201S                                                                                                                                                                                                                                                                                  F
1F 138766030001011SAND WALK COMERCIO DE ARTIGOS DO VESTUARIO EIRELI                                                                                                                                                            022019010800                                                                                                                                2305201106164781400RUA                 RAYMUNDO BISSOTO                                            28    SALA  4                                                                                                                                                     JARDIM PRIMAVERA                                  13270320SP7225VALINHOS                                          19  92431717                        SINDWALK@BOL.COM.BR                                                                                                65000000100000000162011061620141231N                                                                                                                                                                                                                                                                                  F
1F 138784930001091FERNANDA DA SILVA SANTOS 39379113838                                                                                                                                                                         022011062900                                                                                                                                2135201106295320202RUA                 ENGENHEIRO PAULO DE CAMPOS FESSEL                           03    FUNDOS                                                                                                                                                      DOIS CORREGOS                                     13278209SP7225VALINHOS                                          19  92330980                        contabilidade.jair@terra.com.br                                                                                    50000000000001000152011062900000000S                                                                                                                                                                                                                                                                                  F
1F 138816090001691RF VALINHOS COMERCIO E SERVICOS AUTOMOTIVOS LTDA                                                                                                                                                             022011021100                                                                                                                                2062201102114731800RUA                 GERALDO DE GASPERI                                          S/N                                                                                                                                                               DOIS CORREGOS                                     13278085SP7225VALINHOS                                          19  3573770019  3573770919  35737709confianca@linkway.com.br                                                                                           49000000050000000500000000000000000N                                                                                                                                                                                                                                                                                  F
1F 138831760001801ESTANISLAU FRANCISCO DOS SANTOS 02465984845                                                                                                                                                                  082018020167                                                                                                                                2135201106292330399RUA                 M                                                           93                                                                                                                                                                JARDIM SAO LUIZ                                   13272715SP7225VALINHOS                                          19  88763152                        stanleynr@hotmail.com                                                                                              50000000000001000162011062920180201S                                                                                                                                                                                                                                                                                  F
1F 138865870001201DADE COMERCIO DE LIVROS E DESIGN LTDA                                                                                                                                                                        082015090801                                                                                                                                2062201106284761001AVENIDA             JOAQUIM ALVES CORREA                                        4480  SALA  03                                                                                                                                                    PARQUE NOVA SUICA                                 13271430SP7225VALINHOS                                          19  38695185                        jvg@uol.com.br                                                                                                     49000000010000000152011062800000000N                                                                                                                                                                                                                                                                                  F
1F 138872930001121JOSE ELIAS PEREIRA JUNIOR E OUTRO                                                                                                                                                                            022011062900                                                                                                                                4120201106290133499ESTRADA             LUIZ DE QUEIROZ GUIMARAES                                   S/N         CHACARA SOL NASCENTE                                                                                                                                  REFORMA AGRARIA                                   13279481SP7225VALINHOS                                          19  92285040                                                                                                                                           59000000000000000500000000000000000N                                                                                                                                                                                                                                                                                  F
1F 138877040001701DERCI POSSATI GALLANI 77437870878                                                                                                                                                                            022011063000                                                                                                                                2135201106309609299RUA                 ANTONIO ANGARTHEN                                           163                                                                                                                                                               VILA NOVA VALINHOS                                13271270SP7225VALINHOS                                          19  38714016                                                                                                                                           50000000000001000152011063000000000S                                                                                                                                                                                                                                                                                  F
1F 138878000001181BOM DE BOLA ESPORTES E INTERMEDIACOES LTDA                                                                                                                                                                   022011041100                                                                                                                                2062201104117490105RUA                 JOAO PIERA AGOSTINHO                                        275                                                                                                                                                               CHACARAS SAO BENTO                                13278030SP7225VALINHOS                                          11  36875051                        naotem@naotem.com.br                                                                                               05000000030000000500000000000000000N                                                                                                                                                                                                                                                                                  F
1F 138892450001631VANDA APARECIDA DE OLIVEIRA 07967148860                                                                                                                                                                      082018020167                                                                                                                                2135201106305612100RUA                 LUIZ MOSCATINI                                              sn                                                                                                                                                                VILA CAPUAVA                                      13273141SP7225VALINHOS                                          19  38493790                        vandecadeval@hotmail.com                                                                                           50000000000001000162011063020180201S                                                                                                                                                                                                                                                                                  F
1F 138900520001221MARIA ROSINEI DOS SANTOS 12058526899                                                                                                                                                                         082018052301                                                                                                                                2135201106304772500RUA                 JOSE TOSELLI                                                81    FUNDOS                                                                                                                                                      JARDIM ALTO DA COLINA                             13272304SP7225VALINHOS                                          19  38716211                        veigaepostal@veigaepostal.com.br                                                                                   50000000000001000162011063020180523S                                                                                                                                                                                                                                                                                  F
1F 138922840001101LUCAS JOSE BALDASSIM TOME 40316692832                                                                                                                                                                        082017012501                                                                                                                                2135201106304785799RUA                 AUGUSTA MARIA CUNHA                                         15                                                                                                                                                                VILA PAPELAO                                      13276150SP7225VALINHOS                                          19  38696433                        novacont@novacontassessoria.com.br                                                                                 50000000000001000152011063000000000S                                                                                                                                                                                                                                                                                  F
1F 138944020001291RENATO DE SOUZA BRITO 44654430130                                                                                                                                                                            022011063000                                                                                                                                2135201106304330404RUA                 DAS AZALEAS                                                 lt 22 QUADRA c                                                                                                                                                    PARQUE CECAP                                      13273450SP7225VALINHOS                                          19  38495815                        debmelo@uol.com.br                                                                                                 50000000000001000152011063000000000S                                                                                                                                                                                                                                                                                  F
1F 138986770001301GATTA TURISMO E VIAGENS LTDA                                                                                                                          GATTA TURISMO                                          032013050621                                                                                                                                2062201105187911200RUA                 ALMIRANTE BARROSO                                           23                                                                                                                                                                VILA NEGRELLO                                     13276210SP7225VALINHOS                                          19  41171620                        gabriela@gattaturismo.com.br                                                                                       49000000030000000152011051800000000N                                                                                                                                                                                                                                                                                  F
1F 138988470001871MARCOS DE ANDRADE GONCALVES 01563988933                                                                                                                                                                      082018020167                                                                                                                                2135201107014330404RUA                 SAMUEL FRAGOSO COIMBRA                                      386                                                                                                                                                               VILA NOVA VALINHOS                                13271280SP7225VALINHOS                                          19  96882773                                                                                                                                           50000000000001000162011070120180201S                                                                                                                                                                                                                                                                                  F
1F 139008350001401CM3 EMPREENDIMENTO IMOBILIARIO SPE LTDA                                                                                                               RESIDENCIAL FELICE                                     022011061500                                                                                                                                2062201106154110700RUA                 IRIO GIARDELLI                                              47          CJ.801                                                                                                                                                PAIQUERE                                          13271570SP7225VALINHOS                                          19  3869338819  3869338819  38693388contabilidade@anselmietrovatti.com.br                                                                              49000000400000000500000000000000000N                                                                                                                                                                                                                                                                                  F
1F 139009040001151BR3L INVESTIMENTOS E PARTICIPACOES LTDA                                                                                                                                                                      022011060300                                                                                                                                2240201106036810201RUA                 LAERTE DE PAIVA                                             344   QUADRAC                   GALPAO04                  SALA  01                                                                                                MACUCO                                            13279451SP7225VALINHOS                                          19  38811123                                                                                                                                           49000000073000000500000000000000000N                                                                                                                                                                                                                                                                                  F
1F 139020400001701UNIDADE EXECUTORA DO CEMEI ALBERTO JULIANO SERRA                                                                                                                                                             022019031800                                                                                                                                3999201106158511200RUA                 MARIO OLIVO                                                 516                                                                                                                                                               JARDIM MARACANA                                   13277540SP7225VALINHOS                                          19  3849392119  38493921            gomes_empreendimentos@ig.com.br                                                                                    16000000000000000500000000000000000N                                                                                                                                                                                                                                                                                  F
1F 139031640001701HILQUIAS ALVES DA SILVA 30262119404                                                                                                                                                                          022011070100                                                                                                                                2135201107019001902RUA                 CAMPOS SALLES                                               2535  CASA 81                                                                                                                                                     VILA FAUSTINA II                                  13272350SP7225VALINHOS                                          19  38599173                                                                                                                                           50000000000001000152011070100000000S                                                                                                                                                                                                                                                                                  F
1F 139039880001401CARLOS HENRIQUE PRADO TORRES 26153274889                                                                                                              CARLOS PRADO                                           022011070100                                                                                                                                2135201107019602501AVENIDA             ROSA BELMIRO RAMOS                                          464   BLOCO E;APT 51                                                                                                                                              ORTIZES                                           13275400SP7225VALINHOS                                          19  38760020                                                                                                                                           50000000000001000152011070100000000S                                                                                                                                                                                                                                                                                  F
1F 139045510001211FORT BONES LTDA                                                                                                                                                                                              022011070100                                                                                                                                2062201107011414200RUA                 OROZIMBO MAIA                                               90                                                                                                                                                                VILA SONIA                                        13274000SP7225VALINHOS                                          19  3871621119  3871895919  38716211VEIGAEPOSTAL@VEIGAEPOSTAL.COM.BR                                                                                   49000000050000000152011070100000000S                                                                                                                                                                                                                                                                                  F
1F 139050530001011GISLAINE CRISTINA DE OLIVEIRA CAMARGO 28766434807                                                                                                     KITA PERSONALIZADOS                                    022011070100                                                                                                                                2135201107014789001RUA                 ANTONIO FELAMINGO                                           959                                                                                                                                                               MACUCO                                            13279452SP7225VALINHOS                                          19  38811325                        kita.artespersonalizados@gmail.com                                                                                 50000000000001000152011070100000000S                                                                                                                                                                                                                                                                                  F
1F 139122290001441LAUDICEIA ELIAS DE MENEZES                                                                                                                            INSTITUTO DE SAUDE CORPO E MENTE                       082018071601                                                                                                                                2135201106029602502RUA                 JOSE BONIFACIO                                              324                                                                                                                                                               JARDIM BELA VISTA                                 13276195SP7225VALINHOS                                          19  38292296                        metodo.contabilvinhedo@hotmail.com                                                                                 50000000006000000500000000000000000N                                                                                                                                                                                                                                                                                  F
1F 139135410001521ANA CLAUDIA CENACHI DE PAULA 12058710800                                                                                                                                                                     082018020167                                                                                                                                2135201107049521500RUA                 ANTONIO CREMASCO                                            45    SALA 39                                                                                                                                                     RESIDENCIAL SANTA MARIA                           13272813SP7225VALINHOS                                          19  38491342                                                                                                                                           50000000000001000162011070420180201S                                                                                                                                                                                                                                                                                  F
1F 139141100001001FATIMA OLIMPIO GARDIN 77812689891                                                                                                                                                                            022011070400                                                                                                                                2135201107049602501RUA                 PIRATININGA                                                 232                                                                                                                                                               VILA INDEPENDENCIA                                13276225SP7225VALINHOS                                          19  38693741                                                                                                                                           50000000000001000152011070400000000S                                                                                                                                                                                                                                                                                  F
1F 139151950001411NAY FERREIRA DE MELLO 29758464876                                                                                                                                                                            082018020167                                                                                                                                2135201107045320202RUA                 QUATORZE                                                    46    CASA FDOS                                                                                                                                                   JARDIM SAO MARCOS                                 13272828SP7225VALINHOS                                          19  38710002                        contabilidade.ecsaojose@uol.com.br                                                                                 50000000000001000162011070420180201S                                                                                                                                                                                                                                                                                  F
1F 139155910001791ISRAEL RODRIGUES DO NASCIMENTO 40973177845                                                                                                                                                                   082018020167                                                                                                                                2135201107045320202AVENIDA             ROSA BELMIRO RAMOS                                          831   CASA                                                                                                                                                        ORTIZES                                           13275400SP7225VALINHOS                                          19  38710002                        contabilidade.ecsaojose@uol.com.br                                                                                 50000000000001000162011070420180201S                                                                                                                                                                                                                                                                                  F
1F 139173170001391AUTO POSTO 100% VALINHOS LTDA.                                                                                                                        AUTO POSTO 100% VALINHOS                               022011041200                                                                                                                                2062201104124731800RODOVIA             FLAVIO DE CARVALHO                                          759                                                                                                                                                               CAPUAVA                                           13273000SP7225VALINHOS                                          11  2348235911  2348235911  23482359adm@consultoriaschmidt.com.br                                                                                      49000000497524000500000000000000000N                                                                                                                                                                                                                                                                                  F
1F 139174340001001DA SILVA & RODRIGUES DE SOUZA LIMITADA                                                                                                                                                                       082013051701                                                                                                                                2062201107014679604RUA                 JOAQUIM SIMOES SALGUEIRO                                    61                                                                                                                                                                PINHEIRO                                          13274600SP7225VALINHOS                                          19  3871621119  3871895919  38716211veigaepostal@veigaepostal.com.br                                                                                   49000000020000000162011070120130517N                                                                                                                                                                                                                                                                                  F
1F 139175370001621DIMPEC DISTRIBUIDORA DE PRODUTOS ECOLOGICOS LIMITADA                                                                                                  DIMPEC                                                 082014021801                                                                                                                                2062201104114649499RUA                 CATHARINA FARSARELLA GALLEGO                                406                                                                                                                                                               CHACARAS SAO BENTO                                13278073SP7225VALINHOS                                          19  3871895919  3871621119  38716211veigaepostal@veigaepostal.com.br                                                                                   49000000020000000500000000000000000N                                                                                                                                                                                                                                                                                  F
1F 139193230001251LUCIO FELIX THOMAZ 32048983855                                                                                                                                                                               082012102901                                                                                                                                2135201107054781400RUA                 LUIZ BISSOTO 662                                            662   APT N11;BLOCO A31                                                                                                                                           JARDIM BOM RETIRO                                 13275900SP7225VALINHOS                                          19  38716211                        veigaepostal@veigaepostal.com.br                                                                                   50000000000001000162011070520121029S                                                                                                                                                                                                                                                                                  F
1F 139201250001811ANANIAS ANTONIO DIAS E OUTRA                                                                                                                                                                                 022011070500                                                                                                                                4120201107050133499ESTRADA MUNICIPAL   MARIO COVAS                                                 S/N         FAZENDA CANAA                                                                                                                                         REFORMA AGRARIA                                   13279411SP7225VALINHOS                                          19  30329345                                                                                                                                           59000000000000000500000000000000000N                                                                                                                                                                                                                                                                                  F
1F 139209460001181ALMIR FREIRE FERREIRA                                                                                                                                                                                        042018121863                                                                                                                                2135201107044923002RUA                 ITALIA                                                      931                                                                                                                                                               CENTRO                                            13270180SP7225VALINHOS                                          19  3871621119  3871895919  38716211veigaepostal@veigaepostal.com.br                                                                                   50000000010000000162011070420141231N                                                                                                                                                                                                                                                                                  F
1F 139214070001011ROSEMAR MARIA ADRIANO 00863658865                                                                                                                                                                            082018102901                                                                                                                                2135201107054772500RUA                 LUIZ BISSOTO 662                                            662                                                                                                                                                               JARDIM BOM RETIRO                                 13275900SP7225VALINHOS                                          11  96551545                        rozeadriano@yahoo.com.br                                                                                           50000000000001000162011070520181029S                                                                                                                                                                                                                                                                                  F
1F 139214280001191ELIZABETH APARECIDA DE MORAES                                                                                                                         ELISABETH MODAS FASCHION                               042018121863                                                                                                                                2135201106154781400RUA                 WALDOMIRO ROSSI                                             16                                                                                                                                                                JD NOVA ESPIRITO SANTO                            13273202SP7225VALINHOS                                          19  88250301                        shel@hotmail.com                                                                                                   50000000015000000100000000000000000N                                                                                                                                                                                                                                                                                  F
1F 139246460001071MAURICIO JOAQUIM ANTUNES LORDEIRO 33972839812                                                                                                                                                                082012071701                                                                                                                                2135201107057319002RUA                 MARIA DE LOURDES RODRIGUES DE SOUZA                         65                                                                                                                                                                LOTEAMENTO RESIDENCIAL AGUA NOVA                  13273565SP7225VALINHOS                                          19  93862135                        MAURICIO_ANTUNES86@HOTMAIL.COM                                                                                     50000000000001000162011070520120717S                                                                                                                                                                                                                                                                                  F
1F 139255610001431CLAUDIA ROBERTA MANSANO DE NICOLAI 21596516801                                                                                                        MAGNUS BRINDES                                         022011070500                                                                                                                                2135201107054789001RUA                 GIACOMO TRENTO                                              243                                                                                                                                                               VILA MOLETTA                                      13272041SP7225VALINHOS                                          19  38692052                        magnusbrindes@outlook.com                                                                                          50000000000001000152011070500000000S                                                                                                                                                                                                                                                                                  F
1F 139279350001601MARCOS RODRIGUES DE SOUZA MELLO                                                                                                                                                                              042018102463                                                                                                                                2135201106161821100RUA                 JORGE NIEDO                                                 S/N   LOTE  06                  QUADRAE                                                                                                                           RES. ANA CAROLYNA                                 13273601SP7225VALINHOS                                          19  3871531219  3871531219  38715312freitas.assessoriacontabil@gmail.com                                                                               50000000010000000162011061620151231N                                                                                                                                                                                                                                                                                  F
1F 139289540001001VINCAS PARTICIPACOES LTDA                                                                                                                                                                                    022011060800                                                                                                                                2062201106086463800RUA                 DOS ARGENTINOS                                              77    SALA  1                                                                                                                                                     PARQUE NOVA SUICA                                 13271443SP7225VALINHOS                                          19  33655057            19  33655057DCONTABIL@GRUPOELLOEMPRESARIAL.COM.BR                                                                              49000000050000000500000000000000000N                                                                                                                                                                                                                                                                                  F
1F 139303600001341GARDELON EXPRESS TRANSPORTADORA LTDA                                                                                                                                                                         022011052400                                                                                                                                2062201105244930202AVENIDA             JOAQUIM ALVES CORREIA                                       4520                                                                                                                                                              PQ. NOVA SUICA                                    13271430SP7225VALINHOS                                          19  3871531219  3871531219  38715312pathymagal@ig.com.br                                                                                               49000000080000000152011052400000000N                                                                                                                                                                                                                                                                                  F
1F 139303870001271PANIFICADORA IMPERIO DO SOL LTDA                                                                                                                                                                             022011052500                                                                                                                                2062201105254721102RUA                 FIORAVANTE AGNELLO                                          1340        ESQUINA COM               RUA OSVALDO ZANIVAN                                                                                                         JARDIM SAO FRANCISCO                              13272006SP7225VALINHOS                                          19  3871531219  3871531219  38715312pathymagal@ig.com.br                                                                                               49000000100000000152011052500000000N                                                                                                                                                                                                                                                                                  F
1F 139307080001931KAIROS FILMES LTDA                                                                                                                                    KAIROS FILMES                                          082016072601                                                                                                                                2062201105035911199RUA                 BRASILIA                                                    253                                                                                                                                                               VILA SONIA                                        13274008SP7225VALINHOS                                          19  38494562                        novacont@novacontassessoria.com.br                                                                                 49000000050000000152011050300000000N                                                                                                                                                                                                                                                                                  F
1F 139328200001631JAQUELINE BRAGA LIMA 30480661871                                                                                                                      COFFE MILK SHOW                                        022011070600                                                                                                                                2135201107065611203RUA                 TREZE DE MAIO                                               349                                                                                                                                                               VILA OLIVO                                        13276020SP7225VALINHOS                                          19  38716211                        veigaepostal@veigaepostal.com.br                                                                                   50000000005000000152011070600000000S                                                                                                                                                                                                                                                                                  F
1F 139342360001471LINDOVAL LIMA SOUZA 92680143515                                                                                                                                                                              022011070600                                                                                                                                2135201107068230001RUA                 AMELIA FERNANDES BARROSO                                    0     LOTE 3;QUADRA L                                                                                                                                             JARDIM NOVA PALMARES II                           13275720SP7225VALINHOS                                          19  38716211                        veigaepostal@veigaepostal.com.br                                                                                   50000000005000000152011070600000000S                                                                                                                                                                                                                                                                                  F
