1F 729083530006002COMERCIAL FRANGO ASSADO LTDA.                                                                                                                         RESTAURANTE FONTE SANTA TEREZA                         081994021001                                                                                                                                2062197210065611201RUA                 12 DE OUTUBRO                                               650                                                                                                                                                                                                                 13273609SP7225VALINHOS                                                                                                                                                                                                 05000000000000000500000000000000000                        00000000                                                                                                                                                                                                                                                   F
1F 729083530011772COMERCIAL FRANGO ASSADO LTDA.                                                                                                                         FONTE SANTA TEREZA                                     082017083102                                                                                                                                2062198202165611201RUA                 12 DE OUTUBRO                                               650                                                                                                                                                               VILA SANTANA                                      13273609SP7225VALINHOS                                                                                                                                                                                                 05000000000000000500000000000000000                        00000000                                                                                                                                                                                                                                                   F
1F 729083530038972COMERCIAL FRANGO ASSADO LTDA.                                                                                                                         COMERCIAL FRANGO ASSADO LTDA.                          082016070801                                                                                                                                2062201211075611201AVENIDA             INDEPENDENCIA                                               2854        PARTE B                                                                                                                                               APAGA FOGO                                        13277000SP7225VALINHOS                                          11  30419500                        FRANGOASSADO@GRUPOASTEC.COM.BR                                                                                     05000000000000000500000000000000000                        00000000                                                                                                                                                                                                                                                   F
1F 729083530039782COMERCIAL FRANGO ASSADO LTDA.                                                                                                                         COMERCIAL FRANGO ASSADO LTDA.                          082017050801                                                                                                                                2062201211075611201RUA                 CLARK                                                       1947        PARTE B                                                                                                                                               CHACARA SAO JOAPIRANGA                            13279400SP7225VALINHOS                                          11  30419500                        FRANGOASSADO@GRUPOASTEC.COM.BR                                                                                     05000000000000000500000000000000000                        00000000                                                                                                                                                                                                                                                   F
1F 729119510001231ROVYNCORT FACAS LTDA                                                                                                                                                                                         042018121863                                                                                                                                2062197202112599399RUA                 JOSE OSCAR                                                  7                                                                                                                                                                 VL PAGANO                                         13277260SP7225VALINHOS                                                                                                                                                                                                 49000000000000000100000000000000000N                                                                                                                                                                                                                                                                                  F
1F 729229250001091ARGENTONE & ARGENTONI LTDA                                                                                                                            PUFF-UTILIDADES E PRESENTES                            081994072709                                                                                                                                2062199310144754701RUA                 MAL DEODORO DA FONSECA                                      60                                                                                                                                                                VILA INDEPENDENCIA                                13273609SP7225VALINHOS                                                                                                                                                                                                 49000000000000000500000000000000000N                                                                                                                                                                                                                                                                                  F
1F 729269000001751HORUS-COMERCIO DE MATERIAIS DE INFORM E ELETROMEC LTDA                                                                                                                                                       042018121863                                                                                                                                2062199310184669999RUA                 TREZE DE MAIO                                               159   SALA 31 3 AND                                                                                                                                               CENTRO                                            13270020SP7225VALINHOS                                                                                                                                                                                                 49000000000000000100000000000000000N                                                                                                                                                                                                                                                                                  F
1F 729271140001921M K M COMERCIAL IMPORTADORA E EXPORTADORA LTDA                                                                                                                                                               022005092400                                                                                                                                2062199310154751201RUA                 BENJAMIN DE PAULA FRANCA                                    414                                                                                                                                                               VALE VERDE                                        13279173SP7225VALINHOS                                          19  3871621119  3871895919  38716211veigaepostal@veigaepostal.com.br                                                                                   49000000100000000100000000000000000N                                                                                                                                                                                                                                                                                  F
1F 729271710001711LUNA'S RESTAURANTE E LAZER LTDA                                                                                                                       EL REENCUENTRO                                         082008123171                                                                                                                                2062199310155611201                    LOC  ALAMEDA ITAIPU                                         34                                                                                                                                                                JOAPIRANGA                                        13273609SP7225VALINHOS                                                                                                                                                                                                 49000000000000000100000000000000000N                                                                                                                                                                                                                                                                                  F
1F 729281870001071ESFINGE INDUSTRIA DE EMBALAGENS LIMITADA                                                                                                              ESFINGE                                                081998123101                                                                                                                                2062199310152399101RUA                 JOSE DE SALLES PUPO                                         34                                                                                                                                                                JD JUREMA                                         13272473SP7225VALINHOS                                                                                                                                                                                                 49000000000000000500000000000000000N                                                                                                                                                                                                                                                                                  F
1F 729499770001601RAIMUNDO JOSE BIAZZI VALINHOS                                                                                                                         BROTHER'S CAR                                          042018102463                                                                                                                                2135199310204789099                    AVEN DOM NERY                                               881                                                                                                                                                               CENTRO                                            13271170SP7225VALINHOS                                                                                                                                                                                                 50000000000000000162007070120080101N                                                                                                                                                                                                                                                                                  F
1F 729693300001091NEUSA HELENA ALVES & CIA LTDA.                                                                                                                                                                               082002121001                                                                                                                                2062199310254619200RUA                 LUIZ BISSOTO                                                622   BLOCO A12 APTO 4                                                                                                                                            BOM RETIRO                                        13275110SP7225VALINHOS                                                                                                                                                                                                 49000000000000000500000000000000000N                                                                                                                                                                                                                                                                                  F
1F 729711380001491DOMOTECNICA COMERCIO DE PECAS E ACESS PARA ELETROD LTDA                                                                                                                                                      082016111801                                                                                                                                2062199310264789099AVENIDA             AMALIA BASSETO                                              480                                                                                                                                                               COLINA DOS ALAMOS                                 13271771SP7225VALINHOS                                                                                                                                                                                                 49000000000000000100000000000000000N                                                                                                                                                                                                                                                                                  F
1F 729732580001851KAMIKAZE FUNILARIA E PINTURA LTDA.                                                                                                                    KAMIKAZE                                               042018121863                                                                                                                                2062199310264520001AVENIDA             DR JOSE PAGANO BRUNDO                                       000096                                                                                                                                                            VILA PAGANO                                       13273609SP7225VALINHOS                                                                                                                                                                                                 49000000000000000100000000000000000N                                                                                                                                                                                                                                                                                  F
1F 729819700001261ENIGMA AUTO ALARME LTDA                                                                                                                                                                                      082008123171                                                                                                                                2062199310274649401AVENIDA             INDEPENDENCIA                                               1303                                                                                                                                                              JD PLANALTO                                       13276030SP7225VALINHOS                                                                                                                                                                                                 49000000000000000500000000000000000N                                                                                                                                                                                                                                                                                  F
1F 729836120001521TORDIN RECICLAGEM DE PLASTICOS LTDA                                                                                                                   VALIPLAST RECICLAGEM DE PLASTICOS                      082017062801                                                                                                                                2062199310273839499ESTRADA             MUN A FAZ SAO PEDRO                                         SN    SITIO SAO FRANCISCO                                                                                                                                         CAPUAVA                                           13273609SP7225VALINHOS                                                                                                                                                                                                 49000000020000000152007070100000000N                                                                                                                                                                                                                                                                                  F
1F 729908490001601ANDRE LUIZ MACHADO HURPIA ACADEMIA DE GINASTICA                                                                                                                                                              082018060501                                                                                                                                2135199311039313100AVENIDA             JOAQUIM ALVES CORREA                                        4667                                                                                                                                                              PARQUE NOVA SUICA                                 13271430SP7225VALINHOS                                          19  3327784519  3849477719  38497296CONTATO@R4ADCON.COM.BR                                                                                             50000000020000000162018010120180605N                                                                                                                                                                                                                                                                                  F
1F 729923570001041METALURGICA GCL LTDA                                                                                                                                                                                         081996123101                                                                                                                                2062199310264744001RUA                 VICENTE ANGELO BISSOTO                                      619                                                                                                                                                               JD JUREMA                                         13272453SP7225VALINHOS                                                                                                                                                                                                 49000000000000000500000000000000000N                                                                                                                                                                                                                                                                                  F
1F 729935610001401PEDRA DO SOL COMERCIO DE MATERIAIS PARA CONSTRUCAO LTDA                                                                                                                                                      082005092301                                                                                                                                2062199311014744005RUA                 INVERNADA                                                   780                                                                                                                                                               VERA CRUZ                                         13271450SP7225VALINHOS                                                                                                                                                                                                 49000000000000000500000000000000000N                                                                                                                                                                                                                                                                                  F
1F 729943120001791JOSE LUIZ DE ANDRADE VALINHOS                                                                                                                         ARTE NOBRE                                             082015020973                                                                                                                                2135199311013101200                    AVEN DOS ESPORTES                                           443   B                                                                                                                                                           CENTRO                                            13270210SP7225VALINHOS                                                                                                                                                                                                 50000000000000000100000000000000000N                                                                                                                                                                                                                                                                                  F
1F 729944110001501DIJOBERT DA SILVA MENDES                                                                                                                              FEIRINHA DO DIJO                                       081996123101                                                                                                                                2135199311014729601RUA                 LAZARA DA CRUZ BARBOSA                                      86                                                                                                                                                                NOVA VALINHOS                                     13271240SP7225VALINHOS                                                                                                                                                                                                 50000000000000000500000000000000000N                                                                                                                                                                                                                                                                                  F
1F 729952930001031JOAO LUIS MENEGALDO                                                                                                                                                                                          031998052817                                                                                                                                2135199311044761001RUA                 JOSE MILANI                                                 209                                                                                                                                                               VILA BISSOTO                                      13270200SP7225VALINHOS                                                                                                                                                                                                 50000000000000000500000000000000000N                                                                                                                                                                                                                                                                                  F
1F 730095570001671ATAIDE FRUTUOSO COMERCIO E TRANSPORTE DE LEITE LTDA                                                                                                                                                          082010120701                                                                                                                                2062199311044721103RODOVIA             FLAVIO DE CARVALHO                                          1691                                                                                                                                                              CAPUAVA                                           13273000SP7225VALINHOS                                                                                                                                                                                                 49000000000000000500000000000000000N                                                                                                                                                                                                                                                                                  F
1F 730112310001741LASTRO COMERCIAL E DISTRIBUIDORA DE PROD ALIMENTIC LTDA                                                                                               LASTRO COMERCIAL                                       042018121863                                                                                                                                2062199311058888888RUA                 PIRATININGA                                                 66                                                                                                                                                                JD BELA VISTA                                     13276225SP7225VALINHOS                                                                                                                                                                                                 49000000000000000100000000000000000N                                                                                                                                                                                                                                                                                  F
1F 730116780001431EZIO PERES GUEDES VALINHOS                                                                                                                            PERES REFRIGERACAO                                     082008123171                                                                                                                                2135199311059521500RUA                 TREZE DE MAIO                                               602   A                                                                                                                                                           BAIRRO CENTRO                                     13270020SP7225VALINHOS                                                                                                                                                                                                 50000000000000000500000000000000000N                                                                                                                                                                                                                                                                                  F
1F 730146490001351NEWTRADING TRANSPORTES E TURISMO LTDA                                                                                                                                                                        022005110300                                                                                                                                2062199311054921301AVENIDA             ONZE DE AGOSTO                                              2038  SALA  B                                                                                                                                                     VILA EMBARE                                       13271210SP7225VALINHOS                                          19  32038421            19  32436915ACLUCATTO@ACLUCATTO.COM.BR                                                                                         49000000100000000562015010120170630N                                                                                                                                                                                                                                                                                  F
1F 730202570001891JANINE DE AZEVEDO MANGABEIRA HOPPE                                                                                                                                                                           081995053101                                                                                                                                2135199311084771701RUA                 13 DE MAIO                                                  162                                                                                                                                                               CENTRO                                            13273609SP7225VALINHOS                                                                                                                                                                                                 50000000000000000500000000000000000N                                                                                                                                                                                                                                                                                  F
1F 730347530001911ADILSON URSO                                                                                                                                          SPYRO GAMES                                            081994123101                                                                                                                                2135199311108690901RODOVIA             MUNICIPAL DOS ANDRADAS                                      988   B                                                                                                                                                           PONTE ALTA                                        13277650SP7225VALINHOS                                                                                                                                                                                                 50000000000000000500000000000000000N                                                                                                                                                                                                                                                                                  F
1F 730442400001611DROGARIA SAO MARCOS DE VALINHOS LTDA                                                                                                                                                                         082016022201                                                                                                                                2062199311124771701RUA                 JOAO PREVITALLI                                             2654                                                                                                                                                              SAMAMBAIA                                         13273609SP7225VALINHOS                                                                                                                                                                                                 49000000000000000500000000000000000N                                                                                                                                                                                                                                                                                  F
1F 730487610001971ETECAMP ENGENHARIA CONSTRUCOES E COMERCIO LTDA                                                                                                                                                               082000012701                                                                                                                                2062199311164744001AVENIDA             ONZE DE AGOSTO                                              736   SL 11                                                                                                                                                       CENTRO                                            13271210SP7225VALINHOS                                                                                                                                                                                                 49000000000000000500000000000000000N                                                                                                                                                                                                                                                                                  F
1F 730552460001341D H M A COMERCIAL IMPORTACAO E EXPORTACAO LIMITADA                                                                                                    D H M A COMERCIAL IMPORTACAO E EXPORTACAO              042018102463                                                                                                                                2062199311174763603RUA                 KREBSFER                                                    S/N   LOTES 27/28/29                                                                                                                                              MACUCO                                            13279450SP7225VALINHOS                                                                                                                                                                                                 49000000000000000500000000000000000N                                                                                                                                                                                                                                                                                  F
1F 730557820001301CTASV CENTRO TEC COM PECAS LUBRIF E SERV VEIC LTDA                                                                                                    CTASV                                                  082001092401                                                                                                                                2062199311179529102AVENIDA             JOAO ANTUNES DOS SANTOS                                     62                                                                                                                                                                JD PINHEIROS                                      13274290SP7225VALINHOS                                                                                                                                                                                                 49000000000000000500000000000000000N                                                                                                                                                                                                                                                                                  F
1F 730614260001291SILVIA HELENA MAZIERO                                                                                                                                 CESTAS DELICIA & CIA                                   081995043001                                                                                                                                2135199311174729601RUA                 MODESTA POLLI MARTINS                                       185                                                                                                                                                               CENTRO                                            13270280SP7225VALINHOS                                                                                                                                                                                                 50000000000000000500000000000000000N                                                                                                                                                                                                                                                                                  F
1F 730634220001801VALINHOS CORRETORA IMPORT E EXPORTACAO DE VEICULOS LTDA                                                                                               VICENTIM VEICULOS                                      022005110300                                                                                                                                2062199311176499999RUA                 BARAO DE MAUA                                               518                                                                                                                                                               VILA COQUEIRO                                     13276080SP7225VALINHOS                                                                                                                                                                                                 49000000000000000500000000000000000N                                                                                                                                                                                                                                                                                  F
1F 730689000001441NOVA SUICA MAQ EQUIP. E ART. P/FESTAS EM GERAL LTDA                                                                                                                                                          042018102463                                                                                                                                2062199311184774100RUA                 SAMUEL FRAGOSO COIMBRA                                      171                                                                                                                                                               NOVA VALINHOS                                     13271280SP7225VALINHOS                                                                                                                                                                                                 49000000000000000100000000000000000N                                                                                                                                                                                                                                                                                  F
1F 730716720001611MARCENARIA ITAUBA ART NOBRE LTDA                                                                                                                      MARCENARIA ITAUBA ART NOBRE                            022004120400                                                                                                                                2062199311183101200RUA                 VEREADOR ANTONIO DE CASTRO                                  170                                                                                                                                                               ESPIRITO SANTO                                    13273201SP7225VALINHOS                                                                                                                                                                                                 49000000004000000152007070100000000N                                                                                                                                                                                                                                                                                  F
1F 730772650001611LUZIA CAPOVILLA BARBOSA                                                                                                                               CASA XV DE NOVEMBRO                                    022005110300                                                                                                                                2135196907014755502RUA                 SETE DE SETEMBRO                                            237                                                                                                                                                               CENTRO                                            13270100SP7225VALINHOS                                                                                                                                                                                                 50000000000000000152007070100000000N                                                                                                                                                                                                                                                                                  F
1F 730772810001541EDMUND USCHER SCHERMAN                                                                                                                                TECELAGEM SANTANA                                      082008123171                                                                                                                                2135196908258888888RUA                 PARANA                                                      116                                                                                                                                                               VILA SANTANA                                      13274190SP7225VALINHOS                                                                                                                                                                                                 50000000000000000500000000000000000N                                                                                                                                                                                                                                                                                  F
1F 730772990002372ADELBRAS INDUSTRIA E COMERCIO DE ADESIVOS LTDA                                                                                                                                                               082006100601                                                                                                                                2062200304232091600RUA                 DAS INDUSTRIAS                                              175                                                                                                                                                               DISTRITO INDUSTRIAL                               13279410SP7225VALINHOS                                          019 40097711            019 40097712                                                                                                                   49000000000000000500000000000000000                        00000000                                                                                                                                                                                                                                                   F
1F 730773150001001HELENA CORREA ZAMBOTI                                                                                                                                 ARMAZEM SANTA CRUZ                                     081981043001                                                                                                                                2135196907304711301ESTRADA             BAIRRO CAPIVARI                                             S N   REFORMA AGRARIA                                                                                                                                             CAPIVARI                                          13273609SP7225VALINHOS                                                                                                                                                                                                 50000000000000000500000000000000000N                                                                                                                                                                                                                                                                                  F
1F 730773310001011GILBERTA DE ANDRADE AVILA                                                                                                                             PAPELARIA E LIVRARIA A COLEGIAL                        082008123171                                                                                                                                2135196908014761001RUA                 DOM NERY                                                    1                                                                                                                                                                 CENTRO                                            13271170SP7225VALINHOS                                                                                                                                                                                                 50000000000000000500000000000000000N                                                                                                                                                                                                                                                                                  F
1F 730773980001381COOPERATIVA DE ECONOMIA E CREDITO MUTUO DOS EMPREGADOS DA EATON DE VALINHOS                                                                                                                                  022005110300                                                                                                                                2143196908226424703RUA                 CLARK                                                       2061                                                                                                                                                              MACUCO                                            13273609SP7225VALINHOS                                                                                                                                                                                                 16000000000000000500000000000000000N                                                                                                                                                                                                                                                                                  F
1F 730774140001921ALBERTO DE MATTOS                                                                                                                                                                                            081978050201                                                                                                                                4014196909058888888RUA                 12 DE OUTUBRO                                               555                                                                                                                                                               VILA SANTANA                                      13273609SP7225VALINHOS                                                                                                                                                                                                 34000000000000000500000000000000000N                                                                                                                                                                                                                                                                                  F
1F 730774480001871ANTONIO BAPTISTA FRIGO                                                                                                                                                                                       081985040901                                                                                                                                2135196910038888888RUA                 CAMPOS SALES                                                367   FUNDOS                                                                                                                                                      SANTA CRUZ                                        13273609SP7225VALINHOS                                                                                                                                                                                                 50000000000000000500000000000000000N                                                                                                                                                                                                                                                                                  F
1F 730774630001251ANTONIO MIRANDA                                                                                                                                       OFICINA SANTO ANTONIO                                  081989082102                                                                                                                                2135197103048888888RUA                 21 DE DEZEMBRO                                              65                                                                                                                                                                CENTRO                                            13273609SP7225VALINHOS                                                                                                                                                                                                 50000000000000000500000000000000000N                                                                                                                                                                                                                                                                                  F
1F 730774970001101ANTONIO MORASI                                                                                                                                        ARMAZEM SANTO ANTONIO                                  082008123171                                                                                                                                2135196911254711301AVENIDA             INDEPENDENCIA                                               966                                                                                                                                                               CENTRO                                            13276030SP7225VALINHOS                                                                                                                                                                                                 50000000000000000500000000000000000N                                                                                                                                                                                                                                                                                  F
1F 730775390001121ADORNO & ADORNO LTDA                                                                                                                                  BAZAR DAS NOVIDADES ADELINA                            081993010701                                                                                                                                2062197304064781400RUA                 ANA L.DO A.CAMARGO                                          188                                                                                                                                                               VILA BISSOTO                                      13273609SP7225VALINHOS                                                                                                                                                                                                 49000000000000000500000000000000000N                                                                                                                                                                                                                                                                                  F
1F 730775470001691DIRCE FABRI OLIVO                                                                                                                                                                                            042018121863                                                                                                                                2135197001214781400AVENIDA             INDEPENDENCIA                                               857                                                                                                                                                               CENTRO                                            13276030SP7225VALINHOS                                                                                                                                                                                                 50000000000000000100000000000000000N                                                                                                                                                                                                                                                                                  F
1F 730775880001551LIONS CLUBE DE VALINHOS                                                                                                                                                                                      021998072800                                                                                                                                3999197001199430800RUA                 MATO GROSSO                                                 612                                                                                                                                                               VILA SANTANA                                      13274120SP7225VALINHOS                                                                                                                                                                                                 16000000000000000500000000000000000N                                                                                                                                                                                                                                                                                  F
1F 730776040001001INSTITUTO ESPERANCA                                                                                                                                   INSTITUTO ESPERANCA                                    022002051800                                                                                                                                3999197001198511200RUA                 FIORAVANTE MENEGALDO                                        210   CAIXA POSTAL 137                                                                                                                                            SANTA CRUZ                                        13271115SP7225VALINHOS                                          19  38711855                        CONTATO@INSTITUTOESPERANCA.ORG.BR                                                                                  16000000000000000500000000000000000N                                                                                                                                                                                                                                                                                  F
1F 730776040002902INSTITUTO ESPERANCA                                                                                                                                   INSTITUTO ESPERANCA                                    021998072800                                                                                                                                3999197503318511200RUA                 RIO DE JANEIRO                                              24    CAIXA POSTAL 137                                                                                                                                            VILA SANTANA                                      13274140SP7225VALINHOS                                          19  38494735                        CONTATO@INSTITUTOESPERANCA.ORG.BR                                                                                  16000000000000000500000000000000000                        00000000                                                                                                                                                                                                                                                   F
1F 730776040003712INSTITUTO ESPERANCA                                                                                                                                                                                          021998072800                                                                                                                                3999198809058511200RUA                 HERMINIA OLIVO PAVAN                                        2112                                                                                                                                                              PONTE ALTA                                        13273609SP7225VALINHOS                                          19  38494735                        CONTATO@INSTITUTOESPERANCA.ORG.BR                                                                                  16000000000000000500000000000000000                        00000000                                                                                                                                                                                                                                                   F
1F 730776040004522INSTITUTO ESPERANCA                                                                                                                                                                                          022019012800                                                                                                                                3999201901288511200RUA                 ANTONIO NICOLAU                                             84                                                                                                                                                                JARDIM BOM RETIRO                                 13275350SP7225VALINHOS                                          19  38711855                        CONTATO@INSTITUTOESPERANCA.ORG.BR                                                                                  16000000000000000500000000000000000                        00000000                                                                                                                                                                                                                                                   F
1F 730776120001561DIONIZIO PELEGATTI                                                                                                                                                                                           082002082801                                                                                                                                2135197904177810800RUA                 MODESTA POLLI MARTINS                                       103                                                                                                                                                               CASTELO                                           13270280SP7225VALINHOS                                                                                                                                                                                                 50000000000000000500000000000000000N                                                                                                                                                                                                                                                                                  F
1F 730776790001901SIND TRAB IND PAPEL PAPL CEL PASTA M P P PAPL CORT ART DE P PAPL APARAS PAPEL PAPL E TRAB EMBALADORAS PAPEL PAPL DE VALINHOS E AMPARO/SP                                                                     021998072800                                                                                                                                3131197002199420100RUA                 VINTE E OITO DE MAIO                                        34                                                                                                                                                                CENTRO                                            13270050SP7225VALINHOS                                                                                                                                                                                                 16000000000000000500000000000000000N                                                                                                                                                                                                                                                                                  F
1F 730777110001381TRANSPORTADORA FRANCESCHINI LTDA                                                                                                                                                                             082003121201                                                                                                                                2062197003164930202CAMPO               P BAIRRO PINHEIROS                                          S N                                                                                                                                                               PINHEIROS                                         13273609SP7225VALINHOS                                                                                                                                                                                                 49000000000000000500000000000000000N                                                                                                                                                                                                                                                                                  F
1F 730777290001301ESCRITORIO COMERCIAL SAO LUIZ S C LTDA                                                                                                                ESCRITORIO COMERCIAL SAO LUIZ                          081987091001                                                                                                                                2062197003108888888AVENIDA             INDEPENDENCIA                                               66                                                                                                                                                                CENTRO                                            13276030SP7225VALINHOS                                                                                                                                                                                                 49000000000000000500000000000000000N                                                                                                                                                                                                                                                                                  F
1F 730777290002102ESCRITORIO COMERCIAL SAO LUIZ S C LTDA                                                                                                                ESCRITORIO COMERCIAL SAO LUIZ                          081987091001                                                                                                                                2062198002068888888AVENIDA             INDEPENDENCIA                                               86                                                                                                                                                                CENTRO                                            13276030SP7225VALINHOS                                                                                                                                                                                                 49000000000000000500000000000000000                        00000000                                                                                                                                                                                                                                                   F
1F 730777780001721BRACALENTE & BRACALENTE LTDA                                                                                                                          GRUPO BRACALENTE                                       022005102200                                                                                                                                2062197004019603304AVENIDA             ONZE DE AGOSTO                                              2461                                                                                                                                                              CENTRO                                            13271210SP7225VALINHOS                                          019 38691900            019 38692469                                                                                                                   49000000146000000352007070100000000N                                                                                                                                                                                                                                                                                  F
1F 730777940001651HALLER ZACHARIAS                                                                                                                                      FORNECEDORA SAO JORGE                                  082008123171                                                                                                                                2135197004014649401PRACA               SAO SEBASTIAO                                               196                                                                                                                                                               CENTRO                                            13270010SP7225VALINHOS                                                                                                                                                                                                 50000000000000000500000000000000000N                                                                                                                                                                                                                                                                                  F
1F 730778440001041ESCRITORIO EDUARDO S C LTDA                                                                                                                                                                                  042018121863                                                                                                                                2240197004078888888RUA                 ANTONIO CARLOS                                              68                                                                                                                                                                CENTRO                                            13270005SP7225VALINHOS                                                                                                                                                                                                 49000000000000000100000000000000000N                                                                                                                                                                                                                                                                                  F
1F 730778510001061CERAMICA ARAGAPHE LTDA                                                                                                                                CERAMICA ARAGAPHE                                      022005110300                                                                                                                                2062197004082349499AVENIDA             ROSA BELMIRO RAMOS                                          S/N                                                                                                                                                               PONTE ALTA                                        13275400SP7225VALINHOS                                                                                                                                                                                                 49000000025200000352007070100000000N                                                                                                                                                                                                                                                                                  F
1F 730778690001081RAPIDO VALINHENSE LTDA                                                                                                                                RAPIDO VALINHENSE                                      082018100301                                                                                                                                2062197004154930202RUA                 PEDREIRA                                                    116                                                                                                                                                               SAO CRISTOVAO                                     13276510SP7225VALINHOS                                          19  3871621119  3871621119  38716211veigaepostal@veigaepostal.com.br                                                                                   49000000350000000562014010120181003N                                                                                                                                                                                                                                                                                  F
1F 730779840001821ANTONIO CARLOS GARAVELLO                                                                                                                                                                                     081978012701                                                                                                                                2135197006258888888CAMPO               P BAIRRO PINHEIROS                                          S N   CER SANTO AGOSTINHO                                                                                                                                         PINHEIROS                                         13273609SP7225VALINHOS                                                                                                                                                                                                 50000000000000000500000000000000000N                                                                                                                                                                                                                                                                                  F
1F 730779920001291E.C.B.FRANCO & CIA LTDA                                                                                                                               CASA FRANCO                                            081988121201                                                                                                                                2062197005254781400AVENIDA             SETE DE SETEMBRO                                            152                                                                                                                                                               CENTRO                                            13270100SP7225VALINHOS                                                                                                                                                                                                 49000000000000000500000000000000000N                                                                                                                                                                                                                                                                                  F
1F 730780080001441GAEL GRAFICA ANDRADE EMBALAGENS LTDA                                                                                                                  GAEL                                                   082008123171                                                                                                                                2062197005268888888RUA                 GUILHERME YANSEN                                            48                                                                                                                                                                SANTA CRUZ                                        13273609SP7225VALINHOS                                                                                                                                                                                                 49000000000000000500000000000000000N                                                                                                                                                                                                                                                                                  F
1F 730780160001901IZAEL RAMOS & IRMAOS LTDA                                                                                                                             TRANSPORTADORA SANTA ROSA                              022005110300                                                                                                                                2062197210204930202ESTRADA             VALINHOS VINHEDO                                            S N                                                                                                                                                               BAIRRO PINHEIROS                                  13273609SP7225VALINHOS                                                                                                                                                                                                 49000000000000000100000000000000000N                                                                                                                                                                                                                                                                                  F
1F 730781230001191IRMAOS TORDIN LTDA                                                                                                                                    LANCHONETE TORDIN                                      022006122100                                                                                                                                2062197006028888888AVENIDA             DON NERY                                                    1                                                                                                                                                                 CENTRO                                            13273609SP7225VALINHOS                                                                                                                                                                                                 49000000000000000100000000000000000N                                                                                                                                                                                                                                                                                  F
1F 730781560001691SERGIO BELTRAMINI                                                                                                                                     PINTURAS SERBEL                                        081978050201                                                                                                                                4014197006228888888RUA                 MODESTA POLI MARTINS                                        51                                                                                                                                                                CENTRO                                            13273609SP7225VALINHOS                                                                                                                                                                                                 34000000000000000500000000000000000N                                                                                                                                                                                                                                                                                  F
1F 730781720001511PAPELARIA VALINHENSE LTDA                                                                                                                             PAPELARIA VALINHENSE                                   082008123171                                                                                                                                2062197007084761001RUA                 ANTONIO CARLOS                                              101                                                                                                                                                               CENTRO                                            13270005SP7225VALINHOS                                                                                                                                                                                                 49000000000000000500000000000000000N                                                                                                                                                                                                                                                                                  F
1F 730782220001091ANTONIO P DA SILVA VALINHOS                                                                                                                                                                                  081982110501                                                                                                                                2135197010128888888RUA                 FRANCISCO GLICERIO                                          996                                                                                                                                                               CASTELO                                           13271200SP7225VALINHOS                                                                                                                                                                                                 50000000000000000500000000000000000N                                                                                                                                                                                                                                                                                  F
1F 730782300001471CENTRO AUTOMOTIVO UNIAO III LTDA                                                                                                                      AUTO POSTO GOTA DE OURO                                082012072301                                                                                                                                2062197009014731800RUA                 JOSE AUGUSTO R MOREIRA                                      295                                                                                                                                                               RESID. SAO LUIZ                                   13273609SP7225VALINHOS                                          019 8691477                                                                                                                                            49000000000000000100000000000000000N                                                                                                                                                                                                                                                                                  F
1F 730782630001971JERSON PAGNOTA                                                                                                                                                                                               081999053101                                                                                                                                2135197008047490101RUA                 SILVESTRE CHIARI                                            38                                                                                                                                                                BOM RETIRO II                                     13275250SP7225VALINHOS                                                                                                                                                                                                 50000000000000000500000000000000000N                                                                                                                                                                                                                                                                                  F
1F 730783130001361SATURO FUJITA                                                                                                                                                                                                082008123171                                                                                                                                2135197007318888888RUA                 BAHIA                                                       305                                                                                                                                                               CENTRO                                            13274020SP7225VALINHOS                                                                                                                                                                                                 50000000000000000100000000000000000N                                                                                                                                                                                                                                                                                  F
1F 730783390001841ANTONIO ZANOTA FILHO                                                                                                                                                                                         081978050201                                                                                                                                4014197009118888888AVENIDA             INDEPENDENCIA                                               300                                                                                                                                                               CENTRO                                            13276030SP7225VALINHOS                                                                                                                                                                                                 34000000000000000500000000000000000N                                                                                                                                                                                                                                                                                  F
1F 730783540001221MUNEHIRO SHIMISU & CIA LTDA                                                                                                                                                                                  082008123171                                                                                                                                2062197008034729601RODOVIA             ANHANGUERA                                                  S N                                                                                                                                                               MACUCO                                            13278600SP7225VALINHOS                                                                                                                                                                                                 49000000000000000500000000000000000N                                                                                                                                                                                                                                                                                  F
1F 730784380001661B APARECIDO                                                                                                                                                                                                  082008123171                                                                                                                                2135197010164774100RUA                 JAGUARIUNA                                                  242                                                                                                                                                               VL SAO JOSE                                       13276135SP7225VALINHOS                                                                                                                                                                                                 50000000000000000500000000000000000N                                                                                                                                                                                                                                                                                  F
1F 730785030001531MAC-BIS PRODUTOS ALIMENTICIOS LTDA.                                                                                                                   VULCANIA ALIMENTOS                                     022001081600                                                                                                                                2062197309174639702RUA                 DOZE DE OUTUBRO                                             250   SALA: 01;                                                                                                                                                   VILA SANTANA                                      13274125SP7225VALINHOS                                          19  3871240219  3871776519  38717765MACBIS250@TERRA.COM.BR                                                                                             49000000637000000500000000000000000N                                                                                                                                                                                                                                                                                  F
1F 730785030002342MAC-BIS PRODUTOS ALIMENTICIOS LTDA.                                                                                                                                                                          081988120801                                                                                                                                2062198309261094500RUA                 DUQUE DE CAXIAS                                             32                                                                                                                                                                SANTA CRUZ                                        13271140SP7225VALINHOS                                                                                                                                                                                                 49000000000000000500000000000000000                        00000000                                                                                                                                                                                                                                                   F
1F 730785030003152MAC-BIS PRODUTOS ALIMENTICIOS LTDA.                                                                                                                   PASTIFICIO VALINHOS                                    082003121107                                                                                                                                2062200006021092900RUA                 OROZIMBO MAIA                                               50    60                                                                                                                                                          VILA SONIA                                        13274000SP7225VALINHOS                                          19  38717877            19  38717877                                                                                                                   49000000000000000500000000000000000                        00000000                                                                                                                                                                                                                                                   F
1F 730785370001481LEONARDO BENATTI                                                                                                                                                                                             081978050201                                                                                                                                4014197009048888888PRACA               QUINTINO BOCAIUVA                                           97                                                                                                                                                                CENTRO                                            13270359SP7225VALINHOS                                                                                                                                                                                                 34000000000000000500000000000000000N                                                                                                                                                                                                                                                                                  F
1F 730785450001941GUILHERME BENAGLIA IANSEN                                                                                                                             AREIEIRO SAO JOSE                                      081988030101                                                                                                                                2135197009230810001VIA                 DOM PEDRO I                                                 S/N   KM 115                                                                                                                                                                                                        13273609SP7225VALINHOS                                                                                                                                                                                                 50000000000000000500000000000000000N                                                                                                                                                                                                                                                                                  F
1F 730785450002752GUILHERME BENAGLIA IANSEN                                                                                                                             TONINHO ACESSORIOS                                     081988030101                                                                                                                                2135198212288888888RUA                 DOM NERY                                                    530                                                                                                                                                               SANTA CRUZ                                        13271170SP7225VALINHOS                                                                                                                                                                                                 50000000000000000500000000000000000                        00000000                                                                                                                                                                                                                                                   F
