1F 342362040001481CENTRO CULTURAL DE ESPORTES E EDUCACAO GUERREIROS DA LIBERDADE                                                                                                                                               022018103100                                                                                                                                3999201810319319101RUA                 ABRANTES                                                    S/N   QUADRAT                   LOTE  16                                                                                                                          JARDIM PORTUGAL                                   13273282SP7225VALINHOS                                          19  97122526                        ANAPAULAFANTINI@HOTMAIL.COM                                                                                        16000000000000000500000000000000000N                                                                                                                                                                                                                                                                                  F
1F 342370350001601LUSIA ALVES SCARABELIN 32386910822                                                                                                                                                                           022019071700                                                                                                                                2135201907175612100RUA                 SILVIO ALCANTARA                                            91                                                                                                                                                                JARDIM JUREMA                                     13272455SP7225VALINHOS                                          19  38716211                        grafica@bocaboa.com.br                                                                                             50000000005000000152019071700000000S                                                                                                                                                                                                                                                                                  F
1F 342376720001371ANA RAFAELA CHINAGLIA MUNCK 31657122808                                                                                                               ADOTE CANECAS                                          022019071700                                                                                                                                2135201907174759899RUA                 DAS AZALEAS                                                 4055                                                                                                                                                              PARQUE CECAP                                      13273450SP7225VALINHOS                                          11  87833000                        comercial@adotecanecas.com.br                                                                                      50000000003000000152019071700000000S                                                                                                                                                                                                                                                                                  F
1F 342424000001251LARA KARINA DA SILVA 35374517848                                                                                                                      LK MASSOTERAPIA ESTETICA                               022019071700                                                                                                                                2135201907178712300RUA                 DAS ACACIAS                                                 573                                                                                                                                                               PARQUE CECAP                                      13273390SP7225VALINHOS                                          19  95471456                        larakarina02021988@gmail.com                                                                                       50000000001000000152019071700000000S                                                                                                                                                                                                                                                                                  F
1F 342433210001391MARCOS DE ANDRADE GONCALVES 01563988933                                                                                                               VERTICAL PINTURAS E MANUTENCAO                         022019071700                                                                                                                                2135201907174330404RUA                 SAMUEL FRAGOSO COIMBRA                                      386                                                                                                                                                               VILA NOVA VALINHOS                                13271280SP7225VALINHOS                                          19  82174152                        terracorpinturas1@gmail.com                                                                                        50000000002000000152019071700000000S                                                                                                                                                                                                                                                                                  F
1F 342467000001821ANDERSON ALVES DIOGO 22460067836                                                                                                                      ANDERSON ALVES DIOGO                                   022019071700                                                                                                                                2135201907172539001RUA                 VITORIO RANDI                                               135   APT 115                                                                                                                                                     JARDIM ALTO DA BOA VISTA                          13272106SP7225VALINHOS                                          19  92164336                        anderdiogo99@gmail.com                                                                                             50000000000100000152019071700000000S                                                                                                                                                                                                                                                                                  F
1F 342472070001871ANA CECILIA SIQUINELLI PORTELLA 36839215873                                                                                                           PORTS DRONES                                           022019071700                                                                                                                                2135201907177420002AVENIDA             ROSA BELMIRO RAMOS                                          465                                                                                                                                                               ORTIZES                                           13275400SP7225VALINHOS                                          19  96388363                        portsdrones@gmail.com                                                                                              50000000010000000152019071700000000S                                                                                                                                                                                                                                                                                  F
1F 342485330001091NAIARA PAULA DE FREITAS 37736659893                                                                                                                   SAM TRANSPORTES EXECUTIVOS                             022019071800                                                                                                                                2135201907184929901RUA                 OLIVIO ANSELMI                                              9                                                                                                                                                                 JARDIM DAS FIGUEIRAS                              13275618SP7225VALINHOS                                          19  38715883                        samtransportesexecutivos@gmail.com                                                                                 50000000003000000152019071800000000S                                                                                                                                                                                                                                                                                  F
1F 342502940001211PR2 EMPREENDIMENTOS IMOBILIARIOS LTDA SCP                                                                                                                                                                    022017101000                                                                                                                                2127201710106463800AVENIDA             JOAQUIM ALVES CORREA                                        2898                                                                                                                                                              JARDIM SANTO ANTONIO                              13277055SP7225VALINHOS                                          19  96446037                        PR2@PR2CONSTRUTORA.COM.BR                                                                                          05000000300000000500000000000000000N                                                                                                                                                                                                                                                                                  F
1F 342511740001491GUILHERME PEREIRA VIANA 16172223720                                                                                                                   Barbearia Viana                                        022019071800                                                                                                                                2135201907189602501RUA                 VEREADOR JACOB TURCATTI                                     141                                                                                                                                                               JARDIM SAO MARCOS                                 13272823SP7225VALINHOS                                          19  96638468                        guilherme015viana@gmail.com                                                                                        50000000000500000152019071800000000S                                                                                                                                                                                                                                                                                  F
1F 342528390001391ELOISA ALESSANDRA MENDES PIMENTA 18210076892                                                                                                                                                                 022019071800                                                                                                                                2135201907187319002AVENIDA             REMO OSCAR BESEGGIO (LOT RESID ALVORADA)                    565   BLOCO L;APT 13                                                                                                                                              PARQUE DAS COLINAS                                13273649SP7225VALINHOS                                          19  32723034                        jajulio_07@hotmail.com                                                                                             50000000005000000152019071800000000S                                                                                                                                                                                                                                                                                  F
1F 342531920001601JOSE ABEROALDO DA SILVA 02816159426                                                                                                                   JAS PINTURAS                                           022019071800                                                                                                                                2135201907184330404RUA                 DAS ACACIAS                                                 30    LOTE 30;QUADRA J                                                                                                                                            PARQUE CECAP                                      13273390SP7225VALINHOS                                          19  88477318                        aberoaldojunio@gmail.com                                                                                           50000000001000000152019071800000000S                                                                                                                                                                                                                                                                                  F
1F 342561290001871CLAUDIA DA ROCHA MACHADO 15849484850                                                                                                                  ESSENZA CONSULTORIA E EVENTOS                          022019071800                                                                                                                                2135201907187319002RUA                 JOAO BISSOTTO FILHO                                         1728  CASA 3                                                                                                                                                      ORTIZES                                           13275410SP7225VALINHOS                                          19  32556829                        claudiamachado1000@gmail.com                                                                                       50000000001000000152019071800000000S                                                                                                                                                                                                                                                                                  F
1F 342561730001971FERNANDO MARCOS VIANA 22299982850                                                                                                                                                                            022019071800                                                                                                                                2135201907184399199RUA                 EDUARDO DE SOUZA                                            181                                                                                                                                                               JARDIM NOVO MUNDO                                 13273033SP7225VALINHOS                                          19  97419682                        passos.eliete@bol.com.br                                                                                           50000000001000000152019071800000000S                                                                                                                                                                                                                                                                                  F
1F 342582480001791SIDNEY CANDIDO DE OLIVEIRA 07958213875                                                                                                                Sidney Locacao                                         022019071800                                                                                                                                2135201907187729202RUA                 ANTONIO CARLOS PRADO                                        5                                                                                                                                                                 PARQUE DOS COCAIS                                 13273186SP7225VALINHOS                                          19  89717395                        aline854_lnd@hotmail.com                                                                                           50000000001000000152019071800000000S                                                                                                                                                                                                                                                                                  F
1F 342598710001461BEMM PARTICIPACOES SOCIETARIAS LTDA                                                                                                                                                                          022019071800                                                                                                                                2062201907186810201ESTRADA MUNICIPAL   DO CAPUAVA 401                                              401   CASA  334                                                                                                                                                   CAPUAVA                                           13272903SP7225VALINHOS                                          19  97106764                        MIRIAM.AUDIOBEL@HOTMAIL.COM                                                                                        49000000115000000500000000000000000N                                                                                                                                                                                                                                                                                  F
1F 342620840001531ANNA BEATRIZ DEBERNARDI DE SOUZA                                                                                                                                                                             022019071800                                                                                                                                2135201907187020400RUA                 ROMEU POGETTI                                               120                                                                                                                                                               LOTEAMENTO NOVA ESPIRITO SANTO                    13273209SP7225VALINHOS                                          19  39295331                        FREITAS.ASSESSORIACONTABIL@GMAIL.COM                                                                               50000000010000000100000000000000000N                                                                                                                                                                                                                                                                                  F
1F 342633260001231EDILEIA REGINA CRUZ CUNHA 61904325149                                                                                                                 Edileia R C Cunha                                      022019071900                                                                                                                                2135201907194754702RUA                 DAS AZALEAS                                                 3550                                                                                                                                                              PARQUE CECAP                                      13273450SP7225VALINHOS                                          19  81140449                        mariellecaldos@hotmail.com                                                                                         50000000150000000152019071900000000S                                                                                                                                                                                                                                                                                  F
1F 342647820001981PRECIOSO LAR COMERCIO VAREJISTA DE ARTIGOS EM GERAL LTDA                                                                                              PRECIOSO LAR                                           022019071900                                                                                                                                2062201907194759899AVENIDA             DOUTOR HEITOR PENTEADO                                      104                                                                                                                                                               CENTRO                                            13270060SP7225VALINHOS                                          19  32386609                        RAFAEL.PINHELLI@DPRCONTABILIDADE.COM.BR                                                                            49000000500000000300000000000000000N                                                                                                                                                                                                                                                                                  F
1F 342653600001371SONIA MARCIA CELESTINO NEVES 06370359840                                                                                                              SONIA NEVES                                            022019071900                                                                                                                                2135201907198230001RUA                 NILO TORDIN                                                 57                                                                                                                                                                LOTEAMENTO RESIDENCIAL FAZENDA SAO JOSE           13278141SP7225VALINHOS                                          19  91075384                        sonianeves.ong@gmail.com                                                                                           50000000005000000152019071900000000S                                                                                                                                                                                                                                                                                  F
1F 342656390001101PORTO SEGURO OFFICE                                                                                                                                                                                          022019031900                                                                                                                                3085201903198112500RUA                 JOSE DE OLIVEIRA                                            359                                                                                                                                                               CHACARAS SILVANIA                                 13271653SP7225VALINHOS                                          11  50800000                        DENISE.DIAS@FMG.NET.BR                                                                                             19000000000000000500000000000000000N                                                                                                                                                                                                                                                                                  F
1F 342666550001281NICOLAS ANTUNES RIBEIRO 41536358800                                                                                                                   NR PROFISSIONAIS                                       022019071900                                                                                                                                2135201907199001902ESTRADA             DO JEQUITIBA                                                99    CASA 20                                                                                                                                                     PINHEIRO                                          13274610SP7225VALINHOS                                          19  99861030                        nicolas_ribeiro97_@hotmail.com                                                                                     50000000000100000152019071900000000S                                                                                                                                                                                                                                                                                  F
1F 342670070001961PURPOSE ASSESSORIA E CONSULTORIA EM RECURSOS HUMANOS LTDA                                                                                                                                                    022019071900                                                                                                                                2062201907197020400RUA                 JOAO FAVARO                                                 72                                                                                                                                                                JARDIM NOVO HORIZONTE                             13272029SP7225VALINHOS                                          19  38710009                                                                                                                                           49000000002000000100000000000000000N                                                                                                                                                                                                                                                                                  F
1F 342677450001331G.C.SOUZA CHAVES                                                                                                                                      FIBER TECH - SOLUCOES EMPRESARIAIS                     022019071900                                                                                                                                2135201907194330404RUA                 HIGYNO GUILHERME COSTATO                                    160                                                                                                                                                               JARDIM PINHEIROS                                  13274410SP7225VALINHOS                                          19  84054089                        GSOUZA.REPRESENTANTE@GMAIL.COM                                                                                     50000000010000000100000000000000000N                                                                                                                                                                                                                                                                                  F
1F 342678520001611CONSTRUA REPRESENTACAO E COMERCIO - EIRELI                                                                                                                                                                   022019071900                                                                                                                                2305201907197490104RUA                 DOUTOR ERALDO AURELIO FRANZESE                              174                                                                                                                                                               JARDIM PAIQUERE                                   13271608SP7225VALINHOS                                          19  32375724                        CARLOS@CONTABNEW.COM.BR                                                                                            65000000100000000300000000000000000N                                                                                                                                                                                                                                                                                  F
1F 342683450001421B & G COMERCIAL AUTOMOTIVA LTDA.                                                                                                                                                                             022019071900                                                                                                                                2062201907194530701ESTRADA             DO JEQUITIBA                                                1750  CASA  248                                                                                                                                                   PINHEIRO                                          13274610SP7225VALINHOS                                          19  38695633            19  38712090RAFAEL@ESCRITORIOVALINHENSE.COM.BR                                                                                 49000000050000000100000000000000000N                                                                                                                                                                                                                                                                                  F
1F 342689580001801SITIMA AUTOMACAO INDUSTRIAL LTDA                                                                                                                      SITIMA AUTOMACAO                                       022019071900                                                                                                                                2062201907192840200RUA                 UM                                                          649                                                                                                                                                               LOTEAMENTO NOVA ESPIRITO SANTO                    13273200SP7225VALINHOS                                          19  41151671                        CONTATO@SITIMAAUTOMACAO.COM.BR                                                                                     49000000100000000100000000000000000N                                                                                                                                                                                                                                                                                  F
1F 342693580001361C. A. AGUSTINHO EMBALAGENS                                                                                                                            FENIX EMBALAGENS                                       022019071900                                                                                                                                2135201907194789099RUA                 ALICE GARRIDO                                               67                                                                                                                                                                LOTEAMENTO RESIDENCIAL FONTE NOVA                 13273095SP7225VALINHOS                                          19  92404249                        CAROLINA.AGUSTINHO@GMAIL.COM                                                                                       50000000010000000100000000000000000N                                                                                                                                                                                                                                                                                  F
1F 342701360001331GLELTHON MOYA BARBOSA 22366316852                                                                                                                     box store                                              022019071900                                                                                                                                2135201907194781400RUA                 ARIOVALDO ANTONIO BOCATTE                                   345                                                                                                                                                               CHACARAS SAO BENTO                                13278041SP7225VALINHOS                                          19  98281702                        ton.moya@yahoo.com.br                                                                                              50000000030000000152019071900000000S                                                                                                                                                                                                                                                                                  F
1F 342702650001211NATALIA NARA FERREIRA DE SALVE 37515561840                                                                                                            NARA CAKES                                             022019071900                                                                                                                                2135201907191091102RUA                 JOAO PREVITALLE                                             2780  CASA 377                                                                                                                                                    SANTA CRUZ                                        13272400SP7225VALINHOS                                          19  99168775                                                                                                                                           50000000001000000152019071900000000S                                                                                                                                                                                                                                                                                  F
1F 342704720001861SUELEM GONCALVES DE SOUSA 41064055800                                                                                                                 APS BATERIAS                                           022019071900                                                                                                                                2135201907194530703RUA                 WALDOMIRO AMARAL                                            99    QUADRA G;LOTE 13;FUNDOS                                                                                                                                     JARDIM ALTO DA COLINA                             13272310SP7225VALINHOS                                          19  87469736                        suelemaps91@gmail.com                                                                                              50000000000100000152019071900000000S                                                                                                                                                                                                                                                                                  F
1F 342709710001731NELIS ANDREA FERREIRA 27507458881                                                                                                                     Massas e Doces da Deia                                 022019071900                                                                                                                                2135201907195620104RUA                 AGOSTINHO CAPOVILLA                                         461                                                                                                                                                               JARDIM BOM RETIRO                                 13275200SP7225VALINHOS                                          19  91436423                        nelisandreaferreira@gmail.com                                                                                      50000000005000000152019071900000000S                                                                                                                                                                                                                                                                                  F
1F 342748570001111GERSON LUIZ DE SOUZA 12074355890                                                                                                                      GERSON LUIZ DE SOUSA                                   022019072100                                                                                                                                2135201907218219999RUA                 CARLOS ALBERTO BIANCHIN                                     454   CASA 2;QUADRA H;LOTE 14                                                                                                                                     JARDIM DAS PALMEIRAS                              13273063SP7225VALINHOS                                          19  38714741                        gersonlsousa@yahoo.com.br                                                                                          50000000001000000152019072100000000S                                                                                                                                                                                                                                                                                  F
1F 342766030001321THAIS HELENA DOS SANTOS 40675107806                                                                                                                   Shop Bem Aventurado                                    022019072200                                                                                                                                2135201907228219999RUA                 ITALO BORDINI                                               303                                                                                                                                                               JARDIM DO LAGO                                    13277520SP7225VALINHOS                                          19  99772088                        thaisilumina@gmail.com                                                                                             50000000001000000152019072200000000S                                                                                                                                                                                                                                                                                  F
1F 342769250001811SUSAN MOBLEY ERPEN                                                                                                                                    CLINICA VETERINARIA MOBLEY                             022019072200                                                                                                                                2135201907227500100RUA                 BARAO DE MAUA                                               601                                                                                                                                                               VILA CLAYTON                                      13276080SP7225VALINHOS                                          19  82095214                        SUSAN.ERPEN@YAHOO.COM.BR                                                                                           50000000010000000100000000000000000N                                                                                                                                                                                                                                                                                  F
1F 342807450001731BSV COMERCIO E SERVICOS DE BOMBAS INDUSTRIAIS E SANITARIAS  -  EIRELI                                                                                                                                        022019072200                                                                                                                                2305201907223314702AVENIDA             JOAO ANTUNES DOS SANTOS                                     561   PAVMTOTERREO                                                                                                                                                JARDIM PINHEIROS                                  13274290SP7225VALINHOS                                          19  32443425                        HELENA@BOMSERVBOMBAS.COM.BR                                                                                        65000000100000000100000000000000000N                                                                                                                                                                                                                                                                                  F
1F 342812630001381MAYARA ROSTIROLA DA SILVA 41632266806                                                                                                                 Auto Eletrica pai e filho                              022019072200                                                                                                                                2135201907224520003RUA                 MARIA QUITERIA                                              65                                                                                                                                                                JARDIM SANTO ANTONIO                              13277011SP7225VALINHOS                                          19  95225539                        pfautoeletrica@yahoo.com                                                                                           50000000005000000152019072200000000S                                                                                                                                                                                                                                                                                  F
1F 342857230001041PAULA FERNANDA REZENDE 41358291802                                                                                                                    Paula Rezende                                          022019072200                                                                                                                                2135201907228219999RUA                 OROZIMBO MAIA                                               574   BLOCO B;APT 12                                                                                                                                              VILA SONIA                                        13274000SP7225VALINHOS                                          19  87642625                        paulsrezende@gmail.com                                                                                             50000000001000000152019072200000000S                                                                                                                                                                                                                                                                                  F
1F 342857970001321LEONARDO HENRIQUE DA SILVA 36320629860                                                                                                                                                                       022019072200                                                                                                                                2135201907224929901RUA                 SANTAREM                                                    359                                                                                                                                                               JARDIM PORTUGAL                                   13273266SP7225VALINHOS                                          19  38290108                        leo_rockless@hotmail.com                                                                                           50000000001000000152019072200000000S                                                                                                                                                                                                                                                                                  F
1F 342891010001461GILBERTO AMARO MONHOLLI 06187678869                                                                                                                                                                          022019072300                                                                                                                                2135201907232342702RUA                 FUNCIONARIO ALVARO RIBEIRO                                  309                                                                                                                                                               PARQUE DAS COLINAS                                13273613SP7225VALINHOS                                          19  38494911                        anacavalieri.personal@gmail.com                                                                                    50000000002000000152019072300000000S                                                                                                                                                                                                                                                                                  F
1F 342892050001501NIVEA FERRARI 26638421840                                                                                                                             NIVEA FERRARI                                          022019072300                                                                                                                                2135201907238219999RUA                 CAMPOS SALLES                                               2035  BLOCO 1;APT 57                                                                                                                                              VILA FAUSTINA II                                  13272350SP7225VALINHOS                                          19  97164053                        ni.fe.ip@gmail.com                                                                                                 50000000001000000152019072300000000S                                                                                                                                                                                                                                                                                  F
1F 342906320001591ERICK BRUNO LIMA DE FREITAS 31097289826                                                                                                                                                                      022019072300                                                                                                                                2135201907234930202RUA                 LOURENCO BARBISAN                                           145                                                                                                                                                               JARDIM PANORAMA                                   13277440SP7225VALINHOS                                          19  38494069                        ERICKBRUNO65@GMAIL.COM                                                                                             50000000001000000152019072300000000S                                                                                                                                                                                                                                                                                  F
1F 342909040001101MARISTELA APARECIDA PIANCATELLI MARCAL EMPORIO                                                                                                        EMPORIO PIANCATELLI                                    022019072300                                                                                                                                2135201907234712100RODOVIA             FLAVIO DE CARVALHO                                          71                                                                                                                                                                JARDIM SAO PAULO                                  13273000SP7225VALINHOS                                          19  37341260                        LUCAS@OMEGACONTABILIDADE.COM.BR                                                                                    50000000010000000100000000000000000N                                                                                                                                                                                                                                                                                  F
1F 342913450001631CELSO SPADA FIORI 31184625824                                                                                                                                                                                022019072300                                                                                                                                2135201907231099699AVENIDA             HELIO PIRES DE CAMARGO                                      134                                                                                                                                                               VALE VERDE                                        13279020SP7225VALINHOS                                          19  71705895                        celso.fiori@gmail.com                                                                                              50000000005000000152019072300000000S                                                                                                                                                                                                                                                                                  F
1F 342928670001801SILAS DAMASIO JUNIOR 27139973806                                                                                                                      SM DAMASIO                                             022019072300                                                                                                                                2135201907238219999RUA                 CAMPOS SALLES                                               2535  CASA 79                                                                                                                                                     VILA FAUSTINA II                                  13272350SP7225VALINHOS                                          19  92450118                        silasdamasio@gmail.com                                                                                             50000000000500000152019072300000000S                                                                                                                                                                                                                                                                                  F
1F 342934750001351SUELI APARECIDA DO CANTO                                                                                                                                                                                     022019072300                                                                                                                                4120201907230133499RUA                 YOSHIDA TOMIYOSHI                                           S/N   QUADRAI 3 - AG LOTE 10                                                                                                                                      MACUCO                                            13279401SP7225VALINHOS                                          19  38696837                                                                                                                                           59000000000000000500000000000000000N                                                                                                                                                                                                                                                                                  F
1F 342945840001771MATEUS GOUVEA LEMOS FERREIRA 45839703826                                                                                                              Mateus Lemos Ferreira                                  022019072300                                                                                                                                2135201907239329899AVENIDA             ROSA BELMIRO RAMOS                                          464   BLOCO Paraty;APT 76                                                                                                                                         ORTIZES                                           13275400SP7225VALINHOS                                          19  98858825                                                                                                                                           50000000000100000152019072300000000S                                                                                                                                                                                                                                                                                  F
1F 342965030001781BIANCA LARISSA DE BRITO CAMARGO 12687653683                                                                                                           VALITENDAS                                             022019072300                                                                                                                                2135201907237721700RUA                 NICOLA ANSELMI                                              884                                                                                                                                                               ESTANCIA RECREATIVA SAN FERNANDO                  13278112SP7225VALINHOS                                          19  38496104                        ra_festas@yahoo.com.br                                                                                             50000000050000000152019072300000000S                                                                                                                                                                                                                                                                                  F
1F 342969220001001M L D  CLINICA MEDICA LTDA                                                                                                                                                                                   022019072300                                                                                                                                2062201907238610101RUA                 DOUTOR ALFREDO ZACHARIAS                                    1816  SALA  16                        PISO TERREO                                                                                                                 VILA PAGANO                                       13277280SP7225VALINHOS                                          19  94231522                        MATHEUSHDD@HOTMAIL.COM                                                                                             49000000020000000100000000000000000N                                                                                                                                                                                                                                                                                  F
1F 342977430001971JOAO PAULO ROGERIO APOIO ADMINISTRATIVO                                                                                                                                                                      022019072300                                                                                                                                2135201907238219999RUA                 JOAO BISSOTTO FILHO                                         1085  APT   13                                                                                                                                                    ORTIZES                                           13275410SP7225VALINHOS                                          19  33274144                        JOAOPAULO@NISSANDAHRUJ.COM.BR                                                                                      50000000005000000100000000000000000N                                                                                                                                                                                                                                                                                  F
1F 342982830001111BRYAN BRESCAK SANTOS 46868971818                                                                                                                                                                             022019072300                                                                                                                                2135201907235611204RUA                 HORACIO AMARAL                                              485                                                                                                                                                               JARDIM PINHEIROS                                  13274360SP7225VALINHOS                                          19  38718965                        MJKSOLUCOES@GMAIL.COM                                                                                              50000000005000000152019072300000000S                                                                                                                                                                                                                                                                                  F
1F 343030560001371MELINA LOPES DA SILVA 38942176852                                                                                                                     GRIS                                                   022019072300                                                                                                                                2135201907238599604RUA                 JOAO UBIALI                                                 333   CASA 16                                                                                                                                                     CHACARAS SILVANIA                                 13271656SP7225VALINHOS                                          19  30303424                        melina.lopess@outlook.com                                                                                          50000000003400000152019072300000000S                                                                                                                                                                                                                                                                                  F
1F 343035410001001LARISSA FERNANDA LUGLIO 42393550879                                                                                                                                                                          022019072400                                                                                                                                2135201907248219999RUA                 SANTAREM                                                    285                                                                                                                                                               JARDIM PORTUGAL                                   13273266SP7225VALINHOS                                          19  95478480                        LARINANDA.LUGLIO.LFL@GMAIL.COM                                                                                     50000000001000000152019072400000000S                                                                                                                                                                                                                                                                                  F
1F 343057150001741SILVA E TOMAZ SERVICOS DE MANUTENCAO LTDA                                                                                                             UNIQUE SERVICES                                        022019072400                                                                                                                                2062201907244321500RUA                 JOAO BISSOTTO FILHO                                         99    APT   43                  EDIF  PARDAL              COND  PARQUE DOS PASSAROS                                                                               ORTIZES                                           13275410SP7225VALINHOS                                          19  32444956                        IVANDESSILVA@GMAIL.COM                                                                                             49000000020000000100000000000000000N                                                                                                                                                                                                                                                                                  F
1F 343062010001331JUAN PABLO NINO PATERNINA 23199840892                                                                                                                 AGROSCONSULT                                           022019072400                                                                                                                                2135201907247319002RUA                 JOAO ROMANETTO                                              140                                                                                                                                                               LOTEAMENTO RESIDENCIAL FAZENDA SAO JOSE           13278139SP7225VALINHOS                                          19  81733470                        jnino@agrosconsult.com.br                                                                                          50000000001000000152019072400000000S                                                                                                                                                                                                                                                                                  F
1F 343091760001411FABIO DE O. MARIANO ADMINISTRACAO                                                                                                                     FARO                                                   022019072400                                                                                                                                2135201907248211300RUA                 ENGENHEIRO SILVIO N SPIANDORELLI                            622                                                                                                                                                               JARDIM SAO MARCOS                                 13272824SP7225VALINHOS                                          19  9931107319  93110735            JOY_MAARCELY@HOTMAIL.COM                                                                                           50000000005000000100000000000000000N                                                                                                                                                                                                                                                                                  F
1F 343114510001611LEILA BARBOSA DURAES 10389390623                                                                                                                      Leila Barbosa Duraes                                   022019072400                                                                                                                                2135201907244713002RUA                 PEDRO ANTONIO MILANEZ                                       149                                                                                                                                                               PARQUE DAS COLINAS                                13273621SP7225VALINHOS                                          38  88334470                        leiladuraes@hotmail.com                                                                                            50000000001500000152019072400000000S                                                                                                                                                                                                                                                                                  F
1F 343116040001701THIAGO CAMARGO DE ALMEIDA 44028328888                                                                                                                 UNICAMP RACING TEAM 1600                               022019072400                                                                                                                                2135201907244520001RUA                 CAMPOS SALLES                                               2535  CASA 22                                                                                                                                                     VILA FAUSTINA II                                  13272350SP7225VALINHOS                                          19  95228284                        thiagocamargo2000@hotmail.com                                                                                      50000000005000000152019072400000000S                                                                                                                                                                                                                                                                                  F
1F 343121450001401FABIO FRAGA MOREIRA ANEAS 17888966888                                                                                                                 FABIO ANEAS TREINAMENTOS                               022019072400                                                                                                                                2135201907248599603RUA                 CARLOS PENTEADO STEVENSON                                   700   CASA 40                                                                                                                                                     JARDIM RECANTO                                    13271510SP7225VALINHOS                                          19  81554200                        fabio.kiskadi@gmail.com                                                                                            50000000005000000152019072400000000S                                                                                                                                                                                                                                                                                  F
1F 343134880001291THAYLA MEIRE RODRIGUES SANTOS 08199228970                                                                                                                                                                    022019072500                                                                                                                                2135201907259602502RUA                 DOM JOAO VI                                                 877                                                                                                                                                               JARDIM SANTO ANTONIO                              13277040SP7225VALINHOS                                          19  71005166                        thaylameire@hotmail.com                                                                                            50000000001000000152019072500000000S                                                                                                                                                                                                                                                                                  F
1F 343187990001801MIRIAM SIQUEIRA PEREIRA GOMES 03637125854                                                                                                             Infocus                                                022019072500                                                                                                                                2135201907255813100AVENIDA             ROSA BELMIRO RAMOS                                          464   BLOCO A;APT 22                                                                                                                                              ORTIZES                                           13275400SP7225VALINHOS                                          19  96841563                        mspmiriam@uol.com.br                                                                                               50000000001000000152019072500000000S                                                                                                                                                                                                                                                                                  F
1F 343192390001401EVERTON DANILO COSTALONGA 33640502876                                                                                                                 TRANSPORTES EXECUTIVO COSTALONGA                       022019072500                                                                                                                                2135201907254929901RUA                 MADRE MARIA DO CALVARIO                                     120   CASA                                                                                                                                                        JARDIM JUREMA                                     13272451SP7225VALINHOS                                          19  98324747                        phf_fagundes@hotmail.com                                                                                           50000000001000000152019072500000000S                                                                                                                                                                                                                                                                                  F
1F 343197090001761PATRICIA ROSEANE ROSA TAVARES 35006433884                                                                                                             Paty Rosa's Cafe & Doceria                             022019072500                                                                                                                                2135201907255611203RUA                 JOAO PREVITALLE                                             s/n   LOJA 51                                                                                                                                                     SANTA CRUZ                                        13272400SP7225VALINHOS                                          19  93762695                        elielrodrigotavares@gmail.com                                                                                      50000000001800000152019072500000000S                                                                                                                                                                                                                                                                                  F
1F 343200080001571JURACI ROSARIO DA SILVA JUNIOR 44939607879                                                                                                            JR EXPRES                                              022019072500                                                                                                                                2135201907255320202RUA                 MARINO ANTONIO FARTAROTTI POLIDORO                          411   LOTE 32;QUADRA J                                                                                                                                            JARDIM AMERICA II                                 13272500SP7225VALINHOS                                          19  95077867                        jrjuniorsilva0604@gmail.com                                                                                        50000000000050000152019072500000000S                                                                                                                                                                                                                                                                                  F
1F 343242950001731JOAO ALBERTO AUGUSTO 00489419801                                                                                                                                                                             022019072500                                                                                                                                2135201907252539001RUA                 SANTO ZANOTTI                                               187   CASA B2                                                                                                                                                     RESIDENCIAL VILLAGGIO FIORENTINO                  13275011SP7225VALINHOS                                          19  38711826                        joaoalbertoaugusto@gmail.com                                                                                       50000000000100000152019072500000000S                                                                                                                                                                                                                                                                                  F
1F 343259630001871CHM REPRESENTACOES LTDA                                                                                                                                                                                      022019072500                                                                                                                                2062201907254617600ALAMEDA             ALEXANDRIA                                                  161                                                                                                                                                               CONDOMINIO RESIDENCIAL TERRAS DO ORIENTE          13272853SP7225VALINHOS                                          19  32995387                        CAIO_TASSO@OUTLOOK.COM                                                                                             49000000001000000100000000000000000N                                                                                                                                                                                                                                                                                  F
1F 343262330001091MARIA ELENIR DOS CAMPOS 27444616876                                                                                                                                                                          022019072500                                                                                                                                2135201907257319002RUA                 PAIQUERE                                                    465   LOTE 01 - QUADRA C                                                                                                                                          JARDIM PAIQUERE                                   13271600SP7225VALINHOS                                          19  38295500                        jrmasculli@hotmail.com                                                                                             50000000001000000152019072500000000S                                                                                                                                                                                                                                                                                  F
1F 343286770001751DANUBIA ARAUJO GRATAO 33032559898                                                                                                                     DANUBIA GRATAO BOUTIQUE DG                             022019072500                                                                                                                                2135201907254781400RUA                 DAS AZALEAS                                                 3672                                                                                                                                                              PARQUE CECAP                                      13273450SP7225VALINHOS                                          19  99279647                        robsonaraujo714@gmail.com                                                                                          50000000003000000152019072500000000S                                                                                                                                                                                                                                                                                  F
1F 343301270001901MP TRANSPORTES DE CARGAS LTDA                                                                                                                                                                                022019072600                                                                                                                                2062201907264930201RUA                 ANTONIA MOLINA GUAIUME                                      83    APT   34                  EDIF  SUCUPIRA                                                                                                                    JARDIM PACAEMBU                                   13277732SP7225VALINHOS                                          19  87628336                        RICARDOBARBOSA2014.RB@GMAIL.COM                                                                                    49000000050000000100000000000000000N                                                                                                                                                                                                                                                                                  F
1F 343344480001631EDSON BUENO DA SILVA JUNIOR                                                                                                                           EDS MANUTENCAO                                         022019072600                                                                                                                                2135201907263321000RUA                 JULIO BROCANELLI                                            65                                                                                                                                                                SITIO RECREIO DOS CAFEZAIS                        13278316SP7225VALINHOS                                          19  92791221                        RHR.CONTABILIDADE@OUTLOOK.COM.BR                                                                                   50000000027500000100000000000000000N                                                                                                                                                                                                                                                                                  F
1F 343351400001321BLR SOROCABA EMPREENDIMENTOS SCP LTDA                                                                                                                                                                        022019050200                                                                                                                                2127201905026463800RUA                 IRIO GIARDELLI                                              47    CONJ  508 B                                                                                                                                                 LOTEAMENTO PAIQUERE                               13271565SP7225VALINHOS                                          19  38492410                        CONTATO@BOULDERENGENHARIA.COM.BR                                                                                   05000000001000000500000000000000000N                                                                                                                                                                                                                                                                                  F
1F 343359980001051CARLOS ALBERTO DELMINO 07958214847                                                                                                                    Carlos Empreendimento                                  022019072600                                                                                                                                2135201907267319002RUA                 DYONIZIO CAPOVILLA - BIJU                                   165                                                                                                                                                               COLINA DOS PINHEIROS                              13274560SP7225VALINHOS                                          19  94474909                        carlosdelmino@gmail.com                                                                                            50000000001000000152019072600000000S                                                                                                                                                                                                                                                                                  F
1F 343363430001431ALEXANDRE JUSTINO PAULINO 31848789882                                                                                                                 AJP pinturas                                           022019072600                                                                                                                                2135201907264330404RUA                 NATALINO PRADO                                              123                                                                                                                                                               JARDIM SAO LUIZ                                   13272700SP7225VALINHOS                                          19  91970323                        paulinoa845@gmail.com                                                                                              50000000004000000152019072600000000S                                                                                                                                                                                                                                                                                  F
1F 343373150001401OSCAR JOSE TANASOVIA 25203065802                                                                                                                      OSCAR JOSE TANASOVIA                                   022019072600                                                                                                                                2135201907269529106RUA                 CARLOS PENTEADO STEVENSON                                   1059  CASA 107                                                                                                                                                    JARDIM RECANTO                                    13271510SP7225VALINHOS                                          19  99991018                        tanasovia@yahoo.com.br                                                                                             50000000000100000152019072600000000S                                                                                                                                                                                                                                                                                  F
1F 343384350001621JOSE QUEIROZ SILVA FILHO                                                                                                                                                                                     022019072600                                                                                                                                2135201907268599604RUA                 MARIO LUIZ FERRARO                                          71                                                                                                                                                                VALE VERDE                                        13279121SP7225VALINHOS                                          19  38711742                        INDEPENDENCIA_ERIKA@HOTMAIL.COM                                                                                    50000000002000000300000000000000000N                                                                                                                                                                                                                                                                                  F
1F 343392990001251F C DA SILVA CAMBI COMERCIO DE ALIMENTOS                                                                                                              COMERCIAL AVANT DISTRIBUIDORA DE ALIMENTOS             022019072600                                                                                                                                2135201907264637199RUA                 CLAUDINO PEREIRA                                            83          SOBRELOJA                                                                                                                                             VILA FAUSTINA II                                  13272361SP7225VALINHOS                                          19  38492003                        ATENDIMENTO@SRGCONTABIL.COM                                                                                        50000000030000000100000000000000000N                                                                                                                                                                                                                                                                                  F
1F 343414930001451CLEBER PEREIRA DA SILVA SOUZA 34346310893                                                                                                             Rupestre Design                                        022019072700                                                                                                                                2135201907273101200RUA                 CAMPINAS                                                    25                                                                                                                                                                BELA VISTA                                        13276065SP7225VALINHOS                                          19  95493379                        cleberpison@gmail.com                                                                                              50000000005000000152019072700000000S                                                                                                                                                                                                                                                                                  F
1F 343416150001011ELAINE CENCAO FERREIRA 38352554875                                                                                                                    Closet Store                                           022019072700                                                                                                                                2135201907274781400RUA                 CAMPINAS                                                    25                                                                                                                                                                BELA VISTA                                        13276065SP7225VALINHOS                                          19  92652223                        elaineferreirasouza3@gmail.com                                                                                     50000000001000000152019072700000000S                                                                                                                                                                                                                                                                                  F
1F 343426800001431ALEX APARECIDO CORREIA CARVALHO 43795284805                                                                                                           N&A Montagem de Moveis Planejados                      022019072700                                                                                                                                2135201907273329501RUA                 ROMEU CHIMINASSO                                            181   CONJ                                                                                                                                                        CHACARA DAS NACOES                                13272588SP7225VALINHOS                                          19  87628841                        neno.129212@outlook.com                                                                                            50000000002500000152019072700000000S                                                                                                                                                                                                                                                                                  F
1F 343542790001231ALUAR PARTICIPACOES LTDA.                                                                                                                             ALUAR                                                  022019072900                                                                                                                                2062201907296463800RUA                 EMILIO ROMANETTI                                            1092                                                                                                                                                              VILLAGE VISCONDE DE ITAMARACA                     13278352SP7225VALINHOS                                          11  55946275                        MAC.VI.FNR@TERRA.COM.BR                                                                                            49000000010000000100000000000000000N                                                                                                                                                                                                                                                                                  F
1F 343546900001071CEZAR RODRIGO BENTO DE SOUZA 22572818884                                                                                                              VOVO LUIZA                                             022019072900                                                                                                                                2135201907294399103RUA                 ALEXANDRE HUMBERTO MOLETTA                                  372                                                                                                                                                               JARDIM PINHEIROS                                  13274340SP7225VALINHOS                                          19  38491606                        CEZAO.SOUZA@YAHOO.COM.BR                                                                                           50000000001000000152019072900000000S                                                                                                                                                                                                                                                                                  F
1F 343548670001671DANILO JEFFERSON OLIVO 31965364837                                                                                                                    DANILO LAVA CAR                                        022019072900                                                                                                                                2135201907294520005AVENIDA             JOAQUIM ALVES CORREA                                        1214  CASA                                                                                                                                                        PARQUE NOVA SUICA                                 13271430SP7225VALINHOS                                          19  91446772                        danilocar16@gmail.com                                                                                              50000000000100000152019072900000000S                                                                                                                                                                                                                                                                                  F
1F 343554760001671NOSSO CANTINHO SERVICOS DE ASSISTENCIA AO IDOSO LTDA                                                                                                  NOSSO CANTINHO CENTRO DIA PARA A MELHOR IDADE          022019072900                                                                                                                                2062201907298800600RUA                 AMERICANA                                                   72                                                                                                                                                                JARDIM IMPERIAL                                   13276485SP7225VALINHOS                                          19  9724559119  38715883            MOALBANO@GMAIL.COM                                                                                                 49000000045000000100000000000000000N                                                                                                                                                                                                                                                                                  F
