1F 017799480001501RADIANTE COMERCIO E REPRESENTACOES VALINHOS LTDA                                                                                                                                                             082003010901                                                                                                                                2062199703204781400RUA                 ADEMAR DE BARROS                                            688                                                                                                                                                               JD EUROPA                                         13273609SP7225VALINHOS                                          019 8711772                                                                                                                                            49000000000000000500000000000000000N                                                                                                                                                                                                                                                                                  F
1F 017819790001451AMATTI COMERCIO E LOCACAO DE GERIATRICOS E HOSPITALARES LTDA                                                                                                                                                 042018102463                                                                                                                                2062199703114789099RUA                 ITATIBA                                                     299                                                                                                                                                               SAO CRISTOVAO                                     13276500SP7225VALINHOS                                          019 8698199                                                                                                                                            49000000000000000500000000000000000N                                                                                                                                                                                                                                                                                  F
1F 017820880001031FABIO MONTONI MORTATI CERAMICAS                                                                                                                                                                              042018091163                                                                                                                                2135199704232349499RUA                 LUIZ CARLOS BRUNELLO                                        320                                                                                                                                                               CHACARA SAO BENTO                                 13278074SP7225VALINHOS                                                                                                                                                                                                 50000000000000000500000000000000000N                                                                                                                                                                                                                                                                                  F
1F 017821180001811NURIA ROSSONI ASEVEDO                                                                                                                                 NURIA ROSSINI ASEVEDO                                  082008040754                                                                                                                                2135199704234712100RUA                 AGOSTINHO CAPOVILLA                                         515                                                                                                                                                               BOM RETIRO I                                      13275200SP7225VALINHOS                                                                                                                                                                                                 50000000000000000100000000000000000N                                                                                                                                                                                                                                                                                  F
1F 017839180001171ANDRE LUIS VASCONCELOS CAMPINAS                                                                                                                                                                              082003040301                                                                                                                                2135199703264782201RUA                 CESAR FERRARI                                               96                                                                                                                                                                CAPUAVA                                           13273142SP7225VALINHOS                                          19  38710882            19  38710882                                                                                                                   50000000000000000100000000000000000N                                                                                                                                                                                                                                                                                  F
1F 017845960001201OPCAO LANCHONETE DE VALINHOS LTDA                                                                                                                     OPCAO LANCHONETE                                       082005041901                                                                                                                                2062199703245611203RUA                 SETE                                                        96                                                                                                                                                                SAMAMBAIA                                         13272755SP7225VALINHOS                                          019 8713775                                                                                                                                            49000000000000000500000000000000000N                                                                                                                                                                                                                                                                                  F
1F 017856240001241HALTTUNG S.A.                                                                                                                                                                                                042018102463                                                                                                                                2054199704254649401RUA                 ALEXANDRE HUMBERTO MOLETA                                   472                                                                                                                                                               JARDIM PINHEIROS                                  13274340SP7225VALINHOS                                          19  3859134519  3859114119  38591141carvalholeal@carvalholeal.com.br                                                                                   16000000587856000500000000000000000N                                                                                                                                                                                                                                                                                  F
1F 017870060001131BENICIO & BENICIO LTDA                                                                                                                                                                                       082008123171                                                                                                                                2062199704254711302RUA                 PEDRO GABETA                                                71                                                                                                                                                                JD. MARIA ROSA                                    13273609SP7225VALINHOS                                                                                                                                                                                                 49000000000000000100000000000000000N                                                                                                                                                                                                                                                                                  F
1F 017870300001521CAMARGO & MACHADO VALINHOS LTDA                                                                                                                                                                              081998031601                                                                                                                                2062199704254721102RUA                 SAMUEL FRAGOSO COIMBRA                                      27    37                                                                                                                                                          NOVA VALINHOS                                     13271280SP7225VALINHOS                                                                                                                                                                                                 49000000000000000500000000000000000N                                                                                                                                                                                                                                                                                  F
1F 017875470001411LEONISIO NEGRELLO & CIA LTDA                                                                                                                          HOTEL IPE                                              082000040501                                                                                                                                2062199703145590603AVENIDA             INDEPENDENCIA                                               2034                                                                                                                                                              JARDIM VALENCA                                    13276030SP7225VALINHOS                                          019 8691391                                                                                                                                            49000000000000000500000000000000000N                                                                                                                                                                                                                                                                                  F
1F 017882610001801LPR AUTOMACAO E EQUIPAMENTOS INDUSTRIAIS LTDA                                                                                                                                                                082000032101                                                                                                                                2062199702214663000AVENIDA             PAULISTA                                                    772                                                                                                                                                               SAO CRISTOVAO                                     13276340SP7225VALINHOS                                                                                                                                                                                                 49000000000000000500000000000000000N                                                                                                                                                                                                                                                                                  F
1F 017916930001401IGREJA EVANGELICA MENONITA DE VALINHOS                                                                                                                                                                       021998072800                                                                                                                                3999199703049491000RUA                 JOAO PREVITALLE                                             170                                                                                                                                                               ALTO DA BOA VISTA                                 13272400SP7225VALINHOS                                          019 8718637             019 8714305 iemval@uol.com.br                                                                                                  16000000000000000500000000000000000N                                                                                                                                                                                                                                                                                  F
1F 017925900001031TANGRAM - SERVICOS E PARTICIPACOES SOCIETARIAS LTDA                                                                                                                                                          022005110300                                                                                                                                2062199703266463800RUA                 LUIZ SPIANDORELLI NETO                                      60    EDIF  PAINEIRAS           ANDAR 4                   SALA  403                                                                                               PAIQUERE                                          13271570SP7225VALINHOS                                          19  3729200019  3729200019  37292000marcio.pisciotta@pvtec.com.br                                                                                      49000000003000000300000000000000000N                                                                                                                                                                                                                                                                                  F
1F 017926570001001HAROLDO ANGELO PAZINATTO VALINHOS                                                                                                                                                                            082015020973                                                                                                                                2135199704284753900RUA                 12 DE OUTUBRO                                               455                                                                                                                                                               JARDIM SANTANA                                    13273609SP7225VALINHOS                                                                                                                                                                                                 50000000000000000100000000000000000N                                                                                                                                                                                                                                                                                  F
1F 017926810001301D&D-VALINHOS EDITORA LTDA                                                                                                                             D&D-VALINHOS EDITORA                                   042018102463                                                                                                                                2062199704281821100RUA                 ANGELO CAPELLATO                                            42                                                                                                                                                                VILA PRIMAVERA                                    13276050SP7225VALINHOS                                                                                                                                                                                                 49000000000000000100000000000000000N                                                                                                                                                                                                                                                                                  F
1F 017926900001211SH.O COMERCIO DE MATERIAIS DE CONSTRUCAO LTDA                                                                                                         O.I REPRESENTACOES                                     022005110300                                                                                                                                2062199704284744099RUA                 DAS PETUNIAS                                                323                                                                                                                                                               JARDIM DAS VITORIAS REGIAS                        13273050SP7225VALINHOS                                          19  3849469119  7823162719  38494691SHEILAVIANACOSTA@YAHOO.COM.BR                                                                                      49000000020000000300000000000000000N                                                                                                                                                                                                                                                                                  F
1F 017927030001621ANTONIO FAVARIN                                                                                                                                       CRIARTE PAISAGISMO                                     082008123171                                                                                                                                2135199704284789002AVENIDA             DOS ESPORTES                                                853                                                                                                                                                               CENTRO                                            13270210SP7225VALINHOS                                                                                                                                                                                                 50000000000000000500000000000000000N                                                                                                                                                                                                                                                                                  F
1F 017927220001991PORTAL DO VERDE VALINHOS LTDA                                                                                                                         PORTAL DO VERDE                                        082008123171                                                                                                                                2062199704294753900AVENIDA             DOS ESPORTES                                                506   SALA A                                                                                                                                                      BAIRRO CENTRO                                     13270210SP7225VALINHOS                                                                                                                                                                                                 49000000000000000100000000000000000N                                                                                                                                                                                                                                                                                  F
1F 017927820001011VALINHOS COLCHOES LTDA                                                                                                                                VALINHOS COLCHOES                                      082015020973                                                                                                                                2062199704294754702AVENIDA             DOS ESPORTES                                                91    LADO A                                                                                                                                                      CENTRO                                            13270210SP7225VALINHOS                                                                                                                                                                                                 49000000000000000500000000000000000N                                                                                                                                                                                                                                                                                  F
1F 017959950004301SILGAN DISPENSING SYSTEMS BRAZIL INDUSTRIA DE EMBALAGENS LTDA.                                                                                        MWV                                                    022013041600                                                                                                                                2062201304162229399ESTRADA             MUNICIPAL GOVERNADOR MARIO COVAS                            600   GALPAO02                                                                                                                                                    DO MACUCO                                         13279411SP7225VALINHOS                                          19  38818800                        S-RIG-CONSULTORIA-FISCAL@WESTROCK.COM                                                                              05000090883738000500000000000000000N                                                                                                                                                                                                                                                                                  F
1F 017996470001981DAMETODO ASSESSORIA E CORRETORA DE SEGUROS S/C LTDA                                                                                                                                                          082006030901                                                                                                                                2062199703266622300RUA                 ANIBAL LELIS DE MIRANDA                                     36                                                                                                                                                                VILA EMBARE                                       13273609SP7225VALINHOS                                                                                                                                                                                                 49000000000000000100000000000000000N                                                                                                                                                                                                                                                                                  F
1F 018034740001341CAMISETERIA MONACO LTDA                                                                                                                                                                                      082010081101                                                                                                                                2062199704024781400RUA                 VITORIA COLOMBO ROSSI                                       403   SALA  02                                                                                                                                                    JARDIM VILA ROSA                                  13270260SP7225VALINHOS                                          19  3869781619  3871557619  38697816                                                                                                                   49000000000000000182007070120100811N                                                                                                                                                                                                                                                                                  F
1F 018059880001291EDSON PEREIRA DOS SANTOS VALINHOS                                                                                                                                                                            042018102463                                                                                                                                2135199704034774100RUA                 TREZE DE MAIO                                               602                                                                                                                                                               VL CLEYTON                                        13270020SP7225VALINHOS                                                                                                                                                                                                 50000000000000000100000000000000000N                                                                                                                                                                                                                                                                                  F
1F 018082930001091CAMARGO & SOUZA VALINHOS TRANSPORTES LTDA                                                                                                             CAMARGO & SOUZA TRANSPORTES                            022005110300                                                                                                                                2062199704074924800RUA                 ITALIA                                                      895                                                                                                                                                               JARDIM RIBEIRO                                    13270180SP7225VALINHOS                                          19  38492610                        paulo@vbsi.com.br                                                                                                  49000000000000000152016010100000000N                                                                                                                                                                                                                                                                                  F
1F 018098530001311LUIZ CARLOS TEODORO EMPRESARIAL                                                                                                                       TECMOLD & VIDEOTEC                                     022005090300                                                                                                                                2135199704094751201ESTRADA             MUNICIPAL                                                   79    AC 4 CASA 70                                                                                                                                                BAIRRO CAPUAVA                                    13273140SP7225VALINHOS                                          19  32767176            19  32767176VIDEOTEC@DGLNET.COM.BR                                                                                             50000000000000000152007070100000000N                                                                                                                                                                                                                                                                                  F
1F 018099330001971ROSA HELENA BARBOSA BROMBAI HORTIFRUTIGRANJEIROS                                                                                                      AGRO COMERCIAL TROPICAL                                022005110300                                                                                                                                2135199704094633801RUA                 DR. ANTONIO DE CASTRO PRADO                                 448                                                                                                                                                               VILA CLAYTON                                      13273609SP7225VALINHOS                                          019 8715387             019 8692032                                                                                                                    50000000000000000162007070120181231N                                                                                                                                                                                                                                                                                  F
1F 018109780001811MAUCHA CONFECCAO E COMERCIO DE ROUPAS LTDA                                                                                                                                                                   082015020973                                                                                                                                2062199704111414200RUA                 PIETRO STOPIGLIA                                            223                                                                                                                                                               JD PINHEIROS                                      13274260SP7225VALINHOS                                          019 8711772                                                                                                                                            49000000000000000100000000000000000N                                                                                                                                                                                                                                                                                  F
1F 018110130001031MARCOS VIRGILIO SERRALHERIA                                                                                                                           "SERRALHERIA SERCAL - ME"                              022005060400                                                                                                                                2135199704114789099RUA                 GUILHERMEM MAMPRIM                                          1.031                                                                                                                                                             JARDIM PINHEIROS                                  13274450SP7225VALINHOS                                          019 38695406            019 38497296fedocci@hiway.com.br                                                                                               50000000000000000152007070100000000N                                                                                                                                                                                                                                                                                  F
1F 018114250001431LUIZ MARQUES CARVALHO                                                                                                                                                                                        022005110300                                                                                                                                2135199704144773300AVENIDA             LINO BUZATO                                                 925                                                                                                                                                               JD PINHEIRO                                       13273609SP7225VALINHOS                                                                                                                                                                                                 50000000000000000152007070100000000N                                                                                                                                                                                                                                                                                  F
1F 018136040001101MARCOS A. CANAVASSI REPRESENTACOES S/C LTDA                                                                                                                                                                  082001040901                                                                                                                                2062199703268299799RUA                 LUIZ DORIVAL CEDRAN                                         30                                                                                                                                                                RES NOVA ITALIA                                   13271391SP7225VALINHOS                                                                                                                                                                                                 49000000000000000500000000000000000N                                                                                                                                                                                                                                                                                  F
1F 018138140001081M. R. C. - CONSULTORIA E REPRESENTACAO LTDA                                                                                                                                                                  082010111201                                                                                                                                2062199704247020400RUA                 SETE                                                        230   VILLAGE SANS SOUCI                                                                                                                                          SANS SOUCI                                        13272755SP7225VALINHOS                                                                                                                                                                                                 49000000000000000100000000000000000N                                                                                                                                                                                                                                                                                  F
1F 018167450001961CAMPO BELLO COMERCIO DE GRAMAS LTDA                                                                                                                   CAMPO BELLO                                            022005110300                                                                                                                                2062199705064789002RUA                 CARMEN LUCIA DIAS FARIA                                     S/N   LOTE  A2E                 QUADRASUBD                                                                                                                        VALE VERDE                                        13279013SP7225VALINHOS                                          19  3876085419  3869559319  38695593campobellogramas@ig.com.br                                                                                         49000000015000000162007070120151231N                                                                                                                                                                                                                                                                                  F
1F 018181480001091OLIVEIRA ANDRADE & SANTOS REPRESENTACOES COMERCIAIS S/C                                                                                                                                                      081998063001                                                                                                                                2240199702134619200RUA                 GOIAS                                                       498                                                                                                                                                               VILA SANTANA                                      13274150SP7225VALINHOS                                                                                                                                                                                                 28000000000000000500000000000000000N                                                                                                                                                                                                                                                                                  F
1F 018192560001981APARECIDA C. DA ROSA VALINHOS                                                                                                                         CASA AGROPECURARIA SNOOPY II                           022005110300                                                                                                                                2135199704094623109RUA                 RIO GRANDE DO SUL                                           284                                                                                                                                                               VILA SANTANA                                      13274110SP7225VALINHOS                                          19  38715333            19  38715442AGRO.SNOOPY@HOTMAIL.COM                                                                                            50000000030000000152009010100000000N                                                                                                                                                                                                                                                                                  F
1F 018193350001071BATISTA ALVES DE LIMA VALINHOS                                                                                                                        CASA DE CARNES PINHEIROS                               022005110300                                                                                                                                2135199705134722901AVENIDA             JOAO ANTUNES DOS SANTOS                                     687                                                                                                                                                               JD. PINHEIROS                                     13274290SP7225VALINHOS                                          019 8716817                                                                                                                                            50000000000000000100000000000000000N                                                                                                                                                                                                                                                                                  F
1F 018193390001871OSVALDO JACOMETI FILHO                                                                                                                                CASA DE CARNES JG                                      081999011201                                                                                                                                2135199705134722901AVENIDA             JOAO ANTUNES DOS SANTOS                                     433                                                                                                                                                               JARDIM PINHEIROS                                  13274290SP7225VALINHOS                                          019 8691816             019 8718583 sgabriel@valinhos.correionet.com.br                                                                                50000000000000000500000000000000000N                                                                                                                                                                                                                                                                                  F
1F 018193480001781FERNANDO L PELEGATTI                                                                                                                                  MULTIPEL DISTRIBUIDORA DE PRODUTOS DE LIMPEZA          082003071501                                                                                                                                2135199705134649408RUA                 OROZIMBO MAIA                                               248                                                                                                                                                               JD. CELANI                                        13274000SP7225VALINHOS                                                                                                                                                                                                 50000000000000000500000000000000000N                                                                                                                                                                                                                                                                                  F
1F 018200550001001BORGES & ALMARANTE LTDA                                                                                                                                                                                      042018102463                                                                                                                                2062199705051414200RUA                 DOMINGOS CAPELLATO                                          36                                                                                                                                                                VILA PAGANO                                       13277250SP7225VALINHOS                                          19  97349746            19  38591712BORGESDARAVAL@UOL.COM.BR                                                                                           49000000000000000362007070120071231N                                                                                                                                                                                                                                                                                  F
1F 018206500001461SILAPEX REPRESENTACOES S/C LTDA                                                                                                                                                                              081997093001                                                                                                                                2062199703184618499RUA                 MARIA QUITERIA                                              54                                                                                                                                                                JD. STO. ANTONIO                                  13277011SP7225VALINHOS                                          019 8713922                                                                                                                                            49000000000000000500000000000000000N                                                                                                                                                                                                                                                                                  F
1F 018207570001941PAULO SERGIO RIGUETI VALINHOS                                                                                                                                                                                022005010800                                                                                                                                2135199704184744001AVENIDA             DOS ESPORTES                                                443         LADO A                                                                                                                                                VILA OLIVO                                        13270210SP7225VALINHOS                                          19  3871621119  3871895919  38716211veigaepostal@veigaepostal.com.br                                                                                   50000000000000000152007070100000000N                                                                                                                                                                                                                                                                                  F
1F 018303790001201GLOBAL VILLAGE VIAGENS E TURISMO LTDA                                                                                                                                                                        022002092800                                                                                                                                2062199701317911200AVENIDA             DOS ESPORTES                                                1065  MEZANINO                                                                                                                                                    CENTRO                                            13270210SP7225VALINHOS                                                                                                                                                                                                 49000000000000000352007070100000000N                                                                                                                                                                                                                                                                                  F
1F 018306630001041SERAFINI & S SERAFINI REPRESNTACAO COMERCIAL LTDA                                                                                                     ZOZO & FILHOS DISTRIBUIDORA                            082018051501                                                                                                                                2062199704254617600RUA                 ULYSSES P DE O FILHO                                        133                                                                                                                                                               BOA ESPERANCA                                     13273609SP7225VALINHOS                                          019 8692513                                                                                                                                            49000000001000000100000000000000000N                                                                                                                                                                                                                                                                                  F
1F 018333720001611DENILSON CESAR MATTIAZZO                                                                                                                                                                                     082001081001                                                                                                                                2135199705194772500RUA                 TREZE DE MAIO                                               155   LOJA 02 -EDIF.PALERMO                                                                                                                                       CENTRO                                            13270020SP7225VALINHOS                                                                                                                                                                                                 50000000000000000500000000000000000N                                                                                                                                                                                                                                                                                  F
1F 018350670001091ALEXANDRE DA SILVA SANTOS VALINHOS                                                                                                                    TOK & SOM                                              082008123171                                                                                                                                2135199705194530701RUA                 SAO CARLOS                                                  70                                                                                                                                                                SAO CRISTOVAO                                     13276134SP7225VALINHOS                                                                                                                                                                                                 50000000000000000500000000000000000N                                                                                                                                                                                                                                                                                  F
1F 018387230235002BRF S.A.                                                                                                                                                                                                     082014121801                                                                                                                                2046200811101043100AVENIDA             GESSY LEVER                                                 99          PARTE B                                                                                                                                               LENHEIRO                                          13272000SP7225VALINHOS                                          19  39295603                        tributariocsc@brf-br.com                                                                                           10000000000000000500000000000000000                        00000000                                                                                                                                                                                                                                                   F
1F 018392660001951ENGREVALI - INDUSTRIA DE ENGRENAGENS LTDA                                                                                                                                                                    042019053063                                                                                                                                2062199705202599399RUA                 VEREADOR ANTONIO DE CASTRO                                  226                                                                                                                                                               JD NOVA ESPIRITO STO                              13273201SP7225VALINHOS                                          19  38697700            19  38697700                                                                                                                   49000000000000000362007070120161231N                                                                                                                                                                                                                                                                                  F
1F 018406410001171STARTECH - CONSULTORIA E SERVICOS S/C LTDA                                                                                                                                                                   082015020973                                                                                                                                2240199705209511800RUA                 VITORIA COLOMBO ROSSI                                       260                                                                                                                                                               VILA MARTINS                                      13270260SP7225VALINHOS                                                                                                                                                                                                 49000000000000000500000000000000000N                                                                                                                                                                                                                                                                                  F
1F 018415670001531PROT LIFE MANUTENCAO INDUSTRIAL LTDA                                                                                                                                                                         082015021201                                                                                                                                2062199705213319800RUA                 MATO GROSSO                                                 413                                                                                                                                                               VILA SANTANA                                      13274120SP7225VALINHOS                                                                                                                                                                                                 49000000000000000162007070120150212N                                                                                                                                                                                                                                                                                  F
1F 018422040001321CARDINAL DO BRASIL LTDA                                                                                                                               CARDINAL                                               022004072400                                                                                                                                2062199705024689399AVENIDA             ONZE DE AGOSTO                                              1797  SALA 23                                                                                                                                                     NOVA VALINHOS                                     13271210SP7225VALINHOS                                          19  38718251            19  38693752                                                                                                                   49000000000000000300000000000000000N                                                                                                                                                                                                                                                                                  F
1F 018459620001041GIOCONDA CRISTINA MATTIAZZO ANTUNES                                                                                                                   TAPECARIA ANTUNES                                      082004083101                                                                                                                                2135199705084755501AVENIDA             ONZE DE AGOSTO                                              1535                                                                                                                                                              NOVA VALINHOS                                     13271210SP7225VALINHOS                                          019 8711477                                                                                                                                            50000000000000000500000000000000000N                                                                                                                                                                                                                                                                                  F
1F 018469350001561EMEF HORACIO DE SALLES CUNHA                                                                                                                                                                                 022019031800                                                                                                                                3999199704079430800ESTRADA             VALINHOS-ITATIBA                                            S/N   KM 14                                                                                                                                                       SAO BENTO                                         13273609SP7225VALINHOS                                                                                                                                                                                                 16000000000000000500000000000000000N                                                                                                                                                                                                                                                                                  F
1F 018532570001591LUIZ A NUNES VALINHOS                                                                                                                                                                                        082000052501                                                                                                                                2135199705197729201RUA                 MARIA B.PEDROSO                                             55                                                                                                                                                                PONTE ALTA                                        13273609SP7225VALINHOS                                                                                                                                                                                                 50000000000000000500000000000000000N                                                                                                                                                                                                                                                                                  F
1F 018538350001571CARAMELADA INDUSTRIA E COMERCIO DE CONFECCOES LTDA                                                                                                                                                           081998063001                                                                                                                                2062199705261412601RUA                 CLAUDIONOR NEVES LIMA                                       162                                                                                                                                                               JD. MARACANA                                      13277582SP7225VALINHOS                                                                                                                                                                                                 49000000000000000500000000000000000N                                                                                                                                                                                                                                                                                  F
1F 018552650001341A. A. DA SILVA - COMERCIO DE ALIMENTOS LTDA                                                                                                           CASA DE FRIOS DO MAGRAO                                022005110300                                                                                                                                2062199705264721103RUA                 DAS VITORIAS REGIAS                                         S/N   LOTE  001                 QUADRAC                                                                                                                           JARDIM DAS VITORIAS REGIAS                        13273053SP7225VALINHOS                                          19  38714756            19  38715442MAGRAO@DGLNET.COM.BR                                                                                               49000000015000000162016010120171231N                                                                                                                                                                                                                                                                                  F
1F 018570300001811FAST PIZZA LTDA                                                                                                                                                                                              022005110300                                                                                                                                2062199702275611201AVENIDA             TIRADENTES                                                  36                                                                                                                                                                VILA CASSIA                                       13271060SP7225VALINHOS                                          019 8711772             019 8698199                                                                                                                    49000000002000000152007070100000000N                                                                                                                                                                                                                                                                                  F
1F 018570760001091VALINPHARMA COMERCIO E REPRESENTACOES LTDA                                                                                                                                                                   022005110300                                                                                                                                2062199705274644301AVENIDA             JOAO ANTUNES DOS SANTOS                                     1137        1139                                                                                                                                                  JARDIM PINHEIROS                                  13274290SP7225VALINHOS                                          19  38718488                        valinpharma@terra.com.br                                                                                           49000001650000000500000000000000000N                                                                                                                                                                                                                                                                                  F
1F 018586980001431SUELI APARECIDA MILANEZI VALINHOS                                                                                                                                                                            081997052709                                                                                                                                2135199705275611203RUA                 CINCO                                                       19                                                                                                                                                                COLEGA                                            13272554SP7225VALINHOS                                                                                                                                                                                                 50000000000000000500000000000000000N                                                                                                                                                                                                                                                                                  F
1F 018589730002002AIRELA INDUSTRIA FARMACEUTICA LTDA                                                                                                                                                                           022011011400                                                                                                                                2062201101148219999RUA                 SEIS                                                        S/N   EDIF  TRES                SALA   901-902-903-904-905SALA  906-907                                                                                           LOTEAMENTO PAIQUERE                               13271575SP7225VALINHOS                                          48  36590682                                                                                                                                           49000000000000000500000000000000000                        00000000                                                                                                                                                                                                                                                   F
1F 018597040001871LISLAN FESTAS MAIS - DISTRIBUIDORA DE ARTIGOS DE FESTAS E ALIMENTOS EIRELI                                                                                                                                   022002060800                                                                                                                                2305199705134789099RUA                 DOM NERY                                                    530                                                                                                                                                               VERA CRUZ                                         13271170SP7225VALINHOS                                          19  38714765                        INFO@LISLANFESTASMAIS.COM.BR                                                                                       65000000090000000152012010100000000N                                                                                                                                                                                                                                                                                  F
1F 018618240001191LUZIA VANETE PEREIRA                                                                                                                                  QUITANDA E MERCEARIA DA LU                             081998063001                                                                                                                                2135199705224729601AVENIDA             JOAO ANTUNES DOS SANTOS                                     687                                                                                                                                                               JD PINHEIROS                                      13274290SP7225VALINHOS                                                                                                                                                                                                 50000000000000000500000000000000000N                                                                                                                                                                                                                                                                                  F
1F 018619630001421VAMA REPRESENTACAO COMERCIAL LTDA                                                                                                                     VAMA REPRESENTACAO                                     082013021301                                                                                                                                2062199705228299799RUA                 LIMEIRA                                                     114                                                                                                                                                               VL NOVA S SEBASTIAO                               13276580SP7225VALINHOS                                                                                                                                                                                                 49000000000000000500000000000000000N                                                                                                                                                                                                                                                                                  F
1F 018625080001611ASSOCIACAO DOS MORADORES NOS LOTEAMENTOS RESIDENCIAL V.                                                                                                                                                      042018102463                                                                                                                                3999199503319430800AVENIDA             INDEPENDENCIA                                               724                                                                                                                                                               CENTRO                                            13273609SP7225VALINHOS                                          019 8714947                                                                                                                                            16000000000000000500000000000000000N                                                                                                                                                                                                                                                                                  F
1F 018666990001301JONAS TAVEIRA ARRAES                                                                                                                                                                                         032012091221                                                                                                                                2135199705232229301RUA                 ANTONIO MOYSES                                              96                                                                                                                                                                VL PAGANO                                         13277240SP7225VALINHOS                                          19  3871531219  38715312019 8710011 freitas.assessoriafiscal@gmail.com                                                                                 50000000000000000500000000000000000N                                                                                                                                                                                                                                                                                  F
1F 018684240001351UNIVERSALE ENGENHARIA E NEGOCIOS INTERNACIONAIS LTDA                                                                                                                                                         022005110300                                                                                                                                2062199705087112000RUA                 JOAO PREVITALLE                                             2780  CASA  131                                                                                                                                                   SANTA CRUZ                                        13272400SP7225VALINHOS                                          19  38492331                        ADM@UNIVERSALE.COM.BR                                                                                              49000000001000000100000000000000000N                                                                                                                                                                                                                                                                                  F
1F 018698240001651BUSNELLI & GARCIA LTDA                                                                                                                                PIT STOP                                               082008123171                                                                                                                                2062199706035611203RUA                 CAMPOS SALLES                                               574                                                                                                                                                               VERA CRUZ                                         13272350SP7225VALINHOS                                                                                                                                                                                                 49000000000000000500000000000000000N                                                                                                                                                                                                                                                                                  F
1F 018705130001161LATANCIA & CAVALCANTE VALINHOS LTDA                                                                                                                                                                          082008123171                                                                                                                                2062199705208299799RUA                 DAS AZALEAS                                                 3034                                                                                                                                                              JD. PARAISO                                       13273450SP7225VALINHOS                                          019 8715442                                                                                                                                            49000000000000000500000000000000000N                                                                                                                                                                                                                                                                                  F
1F 018707760001251CENTRO DE RECREACAO E EDUCACAO INFANTIL URSINHO PANDA LTDA                                                                                                                                                   022004122400                                                                                                                                2062199704298511200AVENIDA             ONZE DE AGOSTO                                              731                                                                                                                                                               VILA COQUEIRO                                     13276130SP7225VALINHOS                                          19  38693633                        joaoccano@mg6.cnt.br                                                                                               49000000005000000152007070100000000N                                                                                                                                                                                                                                                                                  F
1F 018707760002062CENTRO DE RECREACAO E EDUCACAO INFANTIL URSINHO PANDA LTDA                                                                                                                                                   082005092601                                                                                                                                2062200308268511200RUA                 JAGUARIUNA                                                  152                                                                                                                                                               VILA RAMACCIOTTI                                  13276135SP7225VALINHOS                                                                                                                                                                                                 49000000000000000152007070100000000                        00000000                                                                                                                                                                                                                                                   F
1F 018709400002852EROMA LTDA                                                                                                                                                                                                   082014021301                                                                                                                                2062201201204689399RUA                 B                                                           93          LOTEAMENTO                PORTAL DA ANHANGUERA                                                                                                        MACUCO                                            13279411SP7225VALINHOS                                          19  3871621119  3871895919  38716211veigaepostal@veigaepostal.com.br                                                                                   05000000000000000500000000000000000                        00000000                                                                                                                                                                                                                                                   F
1F 018716600001001L.K. COMERCIO DE ARTIGOS DE CUTELARIA E VEICULOS LTDA                                                                                                                                                        022005110300                                                                                                                                2062199706034759899RUA                 JOAO ANTUNES DOS SANTOS                                     1074                                                                                                                                                              JARDIM PINHEIROS                                  13274290SP7225VALINHOS                                          19  38711606                        contsenador@hotmail.com                                                                                            49000000005000000152009010100000000N                                                                                                                                                                                                                                                                                  F
1F 018732360001031OTIMIZA ASSESSORIA TECNICA LTDA                                                                                                                                                                              022000093000                                                                                                                                2240199704237112000RUA                 CASIMIRO DE ABREU                                           112                                                                                                                                                               JARDIM BELA VISTA                                 13276045SP7225VALINHOS                                                                                                                                                                                                 49000000000000000100000000000000000N                                                                                                                                                                                                                                                                                  F
1F 018734680001531SCHUMACHER REPRESENTACOES LTDA                                                                                                                        SCHUMACHER REPRESENTACOES                              022003120600                                                                                                                                2062199705274618499AVENIDA             JOAQUIM ALVES CORREA                                        3668  SALA: 01; : PRIMAVERA;                                                                                                                                      PARQUE NOVA SUICA                                 13271430SP7225VALINHOS                                          19  38494463            017 2319582 ECGARCIA@DGLNET.COM.BR                                                                                             49000000004500000152018010100000000N                                                                                                                                                                                                                                                                                  F
1F 018742410001221GINOPARK ESTACIONAMENTO LTDA.                                                                                                                         VISAPARCK ESTACIONAMENTO                               022005110300                                                                                                                                2062199706044511102RUA                 SETE DE SETEMBRO                                            191                                                                                                                                                               CENTRO                                            13270100SP7225VALINHOS                                                                                                                                                                                                 49000000007000000152007070100000000N                                                                                                                                                                                                                                                                                  F
1F 018742410002032GINOPARK ESTACIONAMENTO LTDA.                                                                                                                         VISAPARCK ESTACIONAMENTO                               022016120600                                                                                                                                2062201612064511102RUA                 JOSE MILANI                                                 288                                                                                                                                                               VILA BISSOTO                                      13270200SP7225VALINHOS                                          19  93591638                        GINOCRF230@HOTMAIL.COM                                                                                             49000000000000000152007070100000000                        00000000                                                                                                                                                                                                                                                   F
1F 018760730001041CONDE & SILVA VALINHOS LTDA                                                                                                                                                                                  082008123171                                                                                                                                2062199705234721102RUA                 RICARDO G VENTURINI                                         11    CASA                                                                                                                                                        BOM RETIRO II                                     13273609SP7225VALINHOS                                          019 8713553                                                                                                                                            49000000000000000500000000000000000N                                                                                                                                                                                                                                                                                  F
1F 018776630001511MARTHA DE JESUS HELOU VALINHOS                                                                                                                        BAZAR MIX                                              082002070501                                                                                                                                2135199706054789099RUA                 21 DE DEZEMBRO                                              75                                                                                                                                                                BAIRRO CENTRO                                     13273609SP7225VALINHOS                                          019 8695406             019 8695406                                                                                                                    50000000000000000500000000000000000N                                                                                                                                                                                                                                                                                  F
1F 018879730001571DANIEL ESPANHOLETO                                                                                                                                    AESC BAZAR DE PAPELARIA                                081997123101                                                                                                                                2135199706034761001RUA                 JOSE MILANI                                                 168                                                                                                                                                               CENTRO                                            13270200SP7225VALINHOS                                                                                                                                                                                                 50000000000000000500000000000000000N                                                                                                                                                                                                                                                                                  F
1F 018881670001011CLEIDE APARECIDA DAMASIO                                                                                                                              SPEED REFRIGERACAO                                     042018102463                                                                                                                                2135199706044774100RUA                 VITORIO GOBATTO                                             1086                                                                                                                                                              PARQUE DAS COLINAS                                13273630SP7225VALINHOS                                          19  38494777            19  38497296atendimento@adcononline.cnt.br                                                                                     50000000000000000500000000000000000N                                                                                                                                                                                                                                                                                  F
1F 018917140001081TARUBID PINTURAS S/C LTDA                                                                                                                             TARUBID                                                081998073101                                                                                                                                2240199704014330401RUA                 ISMAEL EVANGELISTA                                          76                                                                                                                                                                ALTO DA BOA VISTA                                 13272114SP7225VALINHOS                                                                                                                                                                                                 28000000000000000500000000000000000N                                                                                                                                                                                                                                                                                  F
1F 018940850001611ALEXANDRE SOARES DA SILVA                                                                                                                             LAGUNA INDUSTRIA E COMERCIO                            042018091163                                                                                                                                2135199705282219600RUA                 CAMPOS SALES                                                1373                                                                                                                                                              BAIRRO NACOES                                     13273609SP7225VALINHOS                                                                                                                                                                                                 50000000000000000100000000000000000N                                                                                                                                                                                                                                                                                  F
1F 018960360002492CONCREX CONCRETO LIMITADA                                                                                                                                                                                    022005110300                                                                                                                                2062200108294330499RUA                 FLAVIO DE CARVALHO                                          1214                                                                                                                                                              CAPUAVA                                           13273000SP7225VALINHOS                                          19  32767622            19  32767622                                                                                                                   49000000000000000100000000000000000                        00000000                                                                                                                                                                                                                                                   F
1F 018993100001521WILSON ANTONIO LAZARETTI VALINHOS                                                                                                                                                                            022005110300                                                                                                                                2135199706105911101AVENIDA             INDEPENDENCIA                                               601                                                                                                                                                               VILA OLIVO                                        13276030SP7225VALINHOS                                                                                                                                                                                                 50000000030000000152007070100000000N                                                                                                                                                                                                                                                                                  F
1F 018993470001801MAX CLEAN LIMPEZA INDUSTRIAL E COMERCIO LTDA                                                                                                                                                                 081998073101                                                                                                                                2062199706057490101RUA                 MODESTA P MARTINS                                           88                                                                                                                                                                CASTELO                                           13273609SP7225VALINHOS                                                                                                                                                                                                 49000000000000000500000000000000000N                                                                                                                                                                                                                                                                                  F
