1F 320216840001021FELIPE DE MARCO COSTA 41607479818                                                                                                                     DE MARCO ENERGIA SOLAR                                 022018111400                                                                                                                                2135201811144321500RUA                 ANTONIO MUSSELI                                             269                                                                                                                                                               JARDIM MONTE VERDE                                13275051SP7225VALINHOS                                          19  38692814                        belightfelipe@gmail.com                                                                                            50000000000200000152018111400000000S                                                                                                                                                                                                                                                                                  F
1F 320222800002062ANTONIO DOS SANTOS                                                                                                                                                                                           022019012300                                                                                                                                4120201901230133499RUA                 WILSON ROBERTO SOLINSKI                                     281         CHACARA SAO JOSE                                                                                                                                      JARDIM JUREMA                                     13272480SP7225VALINHOS                                          19  38712617                                                                                                                                           59000000000000000500000000000000000                        00000000                                                                                                                                                                                                                                                   F
1F 320230400001451LAURA CRISTINA DOMENES SILVA PAFARO 35846957838                                                                                                       DISTORE                                                022018111400                                                                                                                                2135201811144781400RUA                 PRINCESA IZABEL                                             127                                                                                                                                                               JARDIM SANTO ANTONIO                              13277021SP7225VALINHOS                                          19  94431190                        la.domenes@gmail.com                                                                                               50000000010000000152018111400000000S                                                                                                                                                                                                                                                                                  F
1F 320249240001141EMILIA P. ANDRELLA                                                                                                                                                                                           022018111400                                                                                                                                2135201811144754702RUA                 CARLOS ALBERTO BIANCHIN                                     409                                                                                                                                                               JARDIM DAS PALMEIRAS                              13273063SP7225VALINHOS                                          19  94021598                        J.LAERCIO.ANDRELLA@HOTMAIL.COM                                                                                     50000000001000000552018111400000000N                                                                                                                                                                                                                                                                                  F
1F 320255740001001M. H. TEIXEIRA LANCHONETE                                                                                                                             REVIVA ORGANICOS E FUNCIONAL                           022018111400                                                                                                                                2135201811145611203RUA                 LUIZ SPIANDORELLI NETO (LULA)                               60    LOJA  9                                                                                                                                                     LOTEAMENTO PAIQUERE                               13271570SP7225VALINHOS                                          19  34912210                        CONTATO@CONTABILIZEAQUI.COM.BR                                                                                     50000000050000000152018111400000000N                                                                                                                                                                                                                                                                                  F
1F 320256150001691CASSIA ELIANA TURINI                                                                                                                                  TURINI CONSULTORIA E TRANSPORTE                        022018111400                                                                                                                                2135201811144929901RUA                 JOAO JOANIN TORDIN                                          355   CASA  47                  COND  VILA SAO LOURENCO                                                                                                           VILA CAPUAVA                                      13273146SP7225VALINHOS                                          19  93170740                        CASSIA.TURINI@HOTMAIL.COM                                                                                          50000000010000000152018111400000000N                                                                                                                                                                                                                                                                                  F
1F 320256570001081COLLETO & MOREIRA SERVICOS VETERINARIOS LTDA                                                                                                          COLLETO & MOREIRA SERVICOS VETERINARIOS                022018111400                                                                                                                                2062201811147500100RUA                 ITALIA                                                      931                                                                                                                                                               JARDIM RIBEIRO                                    13270180SP7225VALINHOS                                          19  38716211                        CAROL_COLLETO@HOTMAIL.COM                                                                                          49000000010000000152018111400000000N                                                                                                                                                                                                                                                                                  F
1F 320261990001131JAS & JO SERVICOS DE INTERMEDIACAO LTDA                                                                                                                                                                      022018111400                                                                                                                                2062201811147490104AVENIDA             DOS ESPORTES                                                569   SALA  01                                                                                                                                                    VILA BISSOTO                                      13270210SP7225VALINHOS                                          11  97805327                        JALEDASIILLVA@GMAIL.COM                                                                                            49000000002000000152018111400000000N                                                                                                                                                                                                                                                                                  F
1F 320271090001091PAULO EDUARDO SILVA GALO                                                                                                                                                                                     022018111400                                                                                                                                2135201811148219999AVENIDA             ROSA BELMIRO RAMOS                                          464   APT   13                        TORRE B             EDIF  ANGRA               COND  RES. BRISA CLUB                                                         ORTIZES                                           13275400SP7225VALINHOS                                          16  81811039                        PAULO_TVA@HOTMAIL.COM                                                                                              50000000015000000152018111400000000N                                                                                                                                                                                                                                                                                  F
1F 320277610001231JOSELMA SOUZA LEMOS 26436224807                                                                                                                       E&J TRANSPORTES                                        082019060601                                                                                                                                2135201811144930202RUA                 WALDOMIRO ROSSI                                             780                                                                                                                                                               LOTEAMENTO NOVA ESPIRITO SANTO                    13273202SP7225VALINHOS                                          19  38591918                        joselmalemos@hotmail.com                                                                                           50000000001000000162018111420190606S                                                                                                                                                                                                                                                                                  F
1F 320289170001901CELSO HENRIQUE DA SILVEIRA FONSECA 22417727803                                                                                                        CELSO HENRIQUE                                         022018111500                                                                                                                                2135201811154530705RUA                 ANGELO POZZUTO                                              131                                                                                                                                                               JARDIM JUREMA                                     13272471SP7225VALINHOS                                          19  74059389                        celsohenrique.25@gmail.com                                                                                         50000000001000000152018111500000000S                                                                                                                                                                                                                                                                                  F
1F 320310690001791SERGIO DOS SANTOS 26108597836                                                                                                                                                                                082019020101                                                                                                                                2135201811167319002RUA                 ORLANDO MARRONE                                             11    BLOCO 2;APT 53                                                                                                                                              JARDIM ALTO DA BOA VISTA                          13272101SP7225VALINHOS                                          19  41120448                        ssantosxxx@gmail.com                                                                                               50000000000100000162018111620190201S                                                                                                                                                                                                                                                                                  F
1F 320332060001041DANIELA ROBERTA DA COSTA DO CARMO 25848304858                                                                                                                                                                082019031101                                                                                                                                2135201811168230001RODOVIA             FLAVIO DE CARVALHO                                          2560                                                                                                                                                              JARDIM SAO PAULO                                  13273000SP7225VALINHOS                                          19  38710882                                                                                                                                           50000000010000000162018111620190311S                                                                                                                                                                                                                                                                                  F
1F 320336280001801THAIS MEDEIA MEGGIATO FAVARO 38630384875                                                                                                                                                                     022018111600                                                                                                                                2135201811167319002RUA                 JOAO PREVITALLE                                             2810  CASA 133                                                                                                                                                    SANTA CRUZ                                        13272400SP7225VALINHOS                                          19  38298959                        veigaepostal@veigaepostal.com.br                                                                                   50000000005000000152018111600000000S                                                                                                                                                                                                                                                                                  F
1F 320343900001071SILVIO CAIADO ROSA 38855130803                                                                                                                        SILVIO ROSA                                            022018111600                                                                                                                                2135201811168599699ALAMEDA             ANCARA                                                      129                                                                                                                                                               CONDOMINIO RESIDENCIAL TERRAS DO ORIENTE          13272865SP7225VALINHOS                                          19  98170606                        silviocaiadorosa@gmail.com                                                                                         50000000001000000152018111600000000S                                                                                                                                                                                                                                                                                  F
1F 320366940001031LUCAS DA SILVA MOREIRA 35260970896                                                                                                                    ROI EXPRESS                                            022018111700                                                                                                                                2135201811175320202RUA                 ROSANA APARECIDA CRISOSTOMO FERIAN                          69                                                                                                                                                                JARDIM SAO MARCOS                                 13272829SP7225VALINHOS                                          19  38496923                        enzodelucas.19@gmail.com                                                                                           50000000002000000152018111700000000S                                                                                                                                                                                                                                                                                  F
1F 320384340001771PAULO ROBERTO LAZARINO FELIPE 34260775820                                                                                                             PRLF ENTREGAS RAPIDAS                                  022018111800                                                                                                                                2135201811184930201RUA                 SALIM PEDRO                                                 51    CONJ Chacara                                                                                                                                                COLINA DOS PINHEIROS                              13274580SP7225VALINHOS                                          19  93066787                        zikizira3456@gmail.com                                                                                             50000000000100000152018111800000000S                                                                                                                                                                                                                                                                                  F
1F 320418510001791CAROLINE ALBINO PAGLIATO 39640765899                                                                                                                  ANA BENEDICTA CAFE E BISTRO                            022018111900                                                                                                                                2135201811195611203RUA                 JOAO UBIALI                                                 255                                                                                                                                                               CHACARAS SILVANIA                                 13271656SP7225VALINHOS                                          19  40629018                        ana@anabenedicta.com.br                                                                                            50000000010000000152018111900000000S                                                                                                                                                                                                                                                                                  F
1F 320518890001221JORGE PINHEIRO BESSON 02556214856                                                                                                                     MARCENARIA BESSON                                      022018112000                                                                                                                                2135201811203101200RUA                 OLIVIA OMENEZES BALZZI                                      93                                                                                                                                                                JARDIM SAO PEDRO                                  13275432SP7225VALINHOS                                          19  39297830                        marcenariabesson@gmail.com                                                                                         50000000001000000152018112000000000S                                                                                                                                                                                                                                                                                  F
1F 320559510001541ODAIR TOCOLLI 05348444804                                                                                                                                                                                    022018112000                                                                                                                                2135201811208219999ALAMEDA             BASILEIA (LOT. RESID. Z. DORF)                              35                                                                                                                                                                NACOES                                            13271793SP7225VALINHOS                                          19  99455522                        otocolli@gmail.com                                                                                                 50000000001000000152018112000000000S                                                                                                                                                                                                                                                                                  F
1F 320572710001701GILMARA VALERIANO DE SOUZA 28222856839                                                                                                                GILMARA VALERIANO                                      022018112000                                                                                                                                2135201811208712300AVENIDA             REMO OSCAR BESEGGIO (LOT RESID ALVORADA)                    565                                                                                                                                                               PARQUE DAS COLINAS                                13273649SP7225VALINHOS                                          19  38591286                        gilmaravaleriano1@hotmail.com                                                                                      50000000001000000152018112000000000S                                                                                                                                                                                                                                                                                  F
1F 320579070001831GABRIELLE ROSA THOMAZI 45607481875                                                                                                                    GABRIELLE ROSA MAKE UP & HAIR                          022018112000                                                                                                                                2135201811209602502RUA                 BARAO DE MAUA                                               784                                                                                                                                                               VILA CLAYTON                                      13276080SP7225VALINHOS                                          19  81142694                        gabrielle.thomazi.mk@gmail.com                                                                                     50000000001000000152018112000000000S                                                                                                                                                                                                                                                                                  F
1F 320579150001201CRISTIANNE VITOR DE SOUSA 29400213840                                                                                                                 BAR DO TADEU                                           082019052201                                                                                                                                2135201811205611204RUA                 DAS AZALEAS                                                 3654                                                                                                                                                              PARQUE CECAP                                      13273450SP7225VALINHOS                                          19  91353427                        alvesconsultoriavinhedo@gmail.com                                                                                  50000000001000000162018112020190522S                                                                                                                                                                                                                                                                                  F
1F 320580300001451FELIPE FREALDO DE OLIVEIRA 45831909808                                                                                                                                                                       022018112000                                                                                                                                2135201811208130300RUA                 JULIA LOVISARO VICENTINI (NONA)                             100   BLOCO 15;APT 14                                                                                                                                             SITIOS FRUTAL                                     13273220SP7225VALINHOS                                          19  38692548                        sueli.frealdo@hotmail.com                                                                                          50000000001200000152018112000000000S                                                                                                                                                                                                                                                                                  F
1F 320582930001541ANA PAULA DE ALMEIDA 26488877844                                                                                                                      +DELICADA                                              022018112000                                                                                                                                2135201811209602501RUA                 BAHIA                                                       317                                                                                                                                                               JARDIM SANTANA                                    13274020SP7225VALINHOS                                          19  38717880                        anapaula.almarte.almeida10@gmail.com                                                                               50000000003000000152018112000000000S                                                                                                                                                                                                                                                                                  F
1F 320585720001181FLAVIO VINICIUS CARIERI DE CAMPOS 36566302832                                                                                                         CODIGO ZEROUM SOLUCOES                                 022018112000                                                                                                                                2135201811209511800AVENIDA             JOAQUIM ALVES CORREA                                        1.533                                                                                                                                                             PARQUE NOVA SUICA                                 13271430SP7225VALINHOS                                          19  38714834                        flaviovc_campos@yahoo.com.br                                                                                       50000000002000000152018112000000000S                                                                                                                                                                                                                                                                                  F
1F 320589090001971MURILO GUEDES SIMAO 09737176618                                                                                                                       GUEDES PRODUCOES                                       022018112100                                                                                                                                2135201811214930204RUA                 TREZE DE MAIO                                               523                                                                                                                                                               VILA OLIVO                                        13276020SP7225VALINHOS                                          11  26404251                        murilo_guedes1@hotmail.com                                                                                         50000000160000000152018112100000000S                                                                                                                                                                                                                                                                                  F
1F 320596320001171LEONICE RIBEIRO 16638179870                                                                                                                           POA ATELIE                                             022018112100                                                                                                                                2135201811211412601RUA                 PIRATININGA                                                 62    SALA 62                                                                                                                                                     VILA INDEPENDENCIA                                13276225SP7225VALINHOS                                          19  38698831                        lc_ribeiro@hotmail.com                                                                                             50000000001000000152018112100000000S                                                                                                                                                                                                                                                                                  F
1F 320620060001801JOSIE LENE CRISTINA BATISTA DA SILVA 36906353810                                                                                                      ESTETICA JOSIE LENE                                    022018112100                                                                                                                                2135201811219602502AVENIDA             JOAQUIM ALVES CORREA                                        4540                                                                                                                                                              PARQUE NOVA SUICA                                 13271430SP7225VALINHOS                                          19  38691232                        josielene.silva@gmail.com                                                                                          50000000000500000152018112100000000S                                                                                                                                                                                                                                                                                  F
1F 320650640001671FLAVIA DA ROCHA DESIDERIO 29683089801                                                                                                                 FLAVIA DESIDERIO                                       022018112100                                                                                                                                2135201811214729699AVENIDA             PRESIDENTE TANCREDO NEVES                                   566                                                                                                                                                               PARQUE DAS COLINAS                                13273610SP7225VALINHOS                                          19  38698270                        flavinhadesiderio@gmail.com                                                                                        50000000002000000152018112100000000S                                                                                                                                                                                                                                                                                  F
1F 320651330001321ANA CAROLINE CANDIDO DA SILVA 44627986866                                                                                                             A&L CHURRAS                                            022018112100                                                                                                                                2135201811215620102RUA                 VITORIO GOBATTO                                             754                                                                                                                                                               PARQUE DAS COLINAS                                13273630SP7225VALINHOS                                          19  38497744                        anacarolinealchurras@gmail.com                                                                                     50000000001000000152018112100000000S                                                                                                                                                                                                                                                                                  F
1F 320675310001981JOAO FELIPE VON ZUBEN 33316141812                                                                                                                                                                            022018112100                                                                                                                                2135201811218599604RUA                 LUIZ BISSOTO                                                240   APT 134;BLOCO 9                                                                                                                                             JARDIM SANTA ROSA                                 13275110SP7225VALINHOS                                          19  41413899                        vonzuben.joao@gmail.com                                                                                            50000000001000000152018112100000000S                                                                                                                                                                                                                                                                                  F
1F 320703890001381SILVANA DA SILVA MONTEIRO 29438074864                                                                                                                 SIL MONTEIRO                                           022018112100                                                                                                                                2135201811219602501RUA                 DAS ACACIAS                                                 08                                                                                                                                                                PARQUE CECAP                                      13273390SP7225VALINHOS                                          19  97562893                        silvana1204@bol.com.br                                                                                             50000000000001990152018112100000000S                                                                                                                                                                                                                                                                                  F
1F 320714910001581JULIA ELIANA DE AQUINO 47825895819                                                                                                                    CARANGO'S HOT ROD                                      022018112200                                                                                                                                2135201811224520002RUA                 ANTONIO FONOFF                                              07                                                                                                                                                                LOTEAMENTO NOVA ESPIRITO SANTO                    13273203SP7225VALINHOS                                          19  93923103                        julia.eliana@mmsfranquias.com.br                                                                                   50000000001000000152018112200000000S                                                                                                                                                                                                                                                                                  F
1F 320734430001071JOCELIA DE OLIVEIRA LIMA 43200457856                                                                                                                                                                         022018112200                                                                                                                                2135201811229602501RUA                 ITAIUVA                                                     00                                                                                                                                                                JARDIM SAO BENTO DO RECREIO                       13274757SP7225VALINHOS                                          19  38696049                                                                                                                                           50000000001200000152018112200000000S                                                                                                                                                                                                                                                                                  F
1F 320738990001691POSTE PADRAO PRONTO VALINHOS EIRELI                                                                                                                                                                          022018112200                                                                                                                                2305201811224744099RODOVIA             FLAVIO DE CARVALHO                                          268   SALA  1                                                                                                                                                     JARDIM SAO PAULO                                  13273000SP7225VALINHOS                                          19  38716525                        ABOLICAO@HIWAY.COM.BR                                                                                              65000000095400000152018112200000000N                                                                                                                                                                                                                                                                                  F
1F 320770190001221NEIL HENRIQUE PROCOPIO 36160036874                                                                                                                    77 INK TATTOO                                          022018112200                                                                                                                                2135201811229609206RUA                 ANTONIO CARLOS                                              223   SLJ                                                                                                                                                         CENTRO                                            13270005SP7225VALINHOS                                          19  33278216                        neil.procopio@hotmail.com                                                                                          50000000001000000152018112200000000S                                                                                                                                                                                                                                                                                  F
1F 320837390001091ROMILDO TUCUMANTEL 17196882814                                                                                                                        ROMILDO TRANSPORTES                                    022018112300                                                                                                                                2135201811234930202AVENIDA             LINO BUZATTO                                                642   LOTE 56;QUADRA 4                                                                                                                                            JARDIM PINHEIROS                                  13274440SP7225VALINHOS                                          11  46791811                        ROMILDOTUMANTEL@GMAIL.COM                                                                                          50000000000100000152018112300000000S                                                                                                                                                                                                                                                                                  F
1F 320840410001081GEREMIAS DE ASSIS MOTTA 04229997841                                                                                                                                                                          022018112300                                                                                                                                2135201811234321500RUA                 DOUTOR ALFREDO ZACHARIAS                                    842   APT 12 A                                                                                                                                                    VILA PAGANO                                       13277280SP7225VALINHOS                                          19  38716211                        veigaepostal@veigaepostal.com.br                                                                                   50000000005000000152018112300000000S                                                                                                                                                                                                                                                                                  F
1F 320847430001831ALEX AGOSTINO SOCIEDADE INDIVIDUAL DE ADVOCACIA                                                                                                                                                              022018072000                                                                                                                                2321201807206911701RUA                 JOAQUIM SIMOES SALGUEIRO                                    46                                                                                                                                                                PINHEIRO                                          13274600SP7225VALINHOS                                          19  91142479                        ALEX.AGOSTINO@HOTMAIL.COM                                                                                          65000000005000000552018072000000000N                                                                                                                                                                                                                                                                                  F
1F 320847680001871CASSIO SALVADOR MORENO 06856523866                                                                                                                    MORENO TRANSPORTES                                     022018112300                                                                                                                                2135201811234930202RUA                 FRANCISCO DE CASTRO JUNIOR                                  61                                                                                                                                                                JARDIM PINHEIROS                                  13274460SP7225VALINHOS                                          19  74238193                        CASSIOSALVAD@GMAIL.COM                                                                                             50000000000100000152018112300000000S                                                                                                                                                                                                                                                                                  F
1F 320875910001721CAMILA CRISTINA MACHADO MOREIRA 16510843609                                                                                                           CALLMEC VIDRACARIA E ESQUADRIA EM ALUMINIO             022018112300                                                                                                                                2135201811234330499RUA                 ALGARVE                                                     140   CASA casa                                                                                                                                                   JARDIM PORTUGAL                                   13273261SP7225VALINHOS                                          19  32992789                        call.1503@yahoo.com.br                                                                                             50000000020000000152018112300000000S                                                                                                                                                                                                                                                                                  F
1F 320888210001181POMIM & YOSHITAKE SERVICOS DE ENTREGA LTDA                                                                                                                                                                   022018112300                                                                                                                                2062201811235320202RUA                 NANCI EVANGELISTA                                           134                                                                                                                                                               JARDIM ALVORADA                                   13274240SP7225VALINHOS                                          19  38693099                        ELIZEU@CENTRALANALISYS.COM.BR                                                                                      49000000010000000152018112300000000N                                                                                                                                                                                                                                                                                  F
1F 320898900001461JULIA FERREIRA 48946128879                                                                                                                            JULIA FERREIRA                                         022018112300                                                                                                                                2135201811237319002RUA                 ETTORE BERTOLI                                              sn    LOTE 6;QUADRA 3                                                                                                                                             LOTEAMENTO RESIDENCIAL SANTA GERTRUDES            13272799SP7225VALINHOS                                          19  38691498                        neilsonperes@gmail.com                                                                                             50000000000100000152018112300000000S                                                                                                                                                                                                                                                                                  F
1F 320913920001381DAVI CARACA 15436185886                                                                                                                                                                                      022018112300                                                                                                                                2135201811234399103RUA                 LUIZ OSTANELLI                                              395   LOTE 10;QUADRA l                                                                                                                                            PARQUE DAS COLINAS                                13273612SP7225VALINHOS                                          19  99991763                        davicaracacaraca6750@gmail.com                                                                                     50000000000100000152018112300000000S                                                                                                                                                                                                                                                                                  F
1F 320930880001201ETHOL EXIME 55638660259                                                                                                                               THOS-BLIME                                             022018112400                                                                                                                                2135201811249609299AVENIDA             ARQUITETO CLAYTON ALVES CORREA                              8c    CASA 1                                                                                                                                                      VALE VERDE                                        13279071SP7225VALINHOS                                          19  38812453                        eeetholl@hotmail.com                                                                                               50000000001000000152018112400000000S                                                                                                                                                                                                                                                                                  F
1F 320931090001071LEANDRO HENRIQUE GIBIN 28740363821                                                                                                                    CLICHERIA VALINHENSE                                   082019010401                                                                                                                                2135201811241821100RUA                 AMABILE BERSAN DOS SANTOS                                   245   LOTE 02;QUADRA E                                                                                                                                            JARDIM SANTO ANTONIO                              13277030SP7225VALINHOS                                          19  38491665                        HENRIQUENEW@GMAIL.COM                                                                                              50000000000100000162018112420190104S                                                                                                                                                                                                                                                                                  F
1F 320983830001791CAMPTECNICA SISTEMAS E TECNOLOGIA LTDA                                                                                                                                                                       022018112600                                                                                                                                2062201811264783102RUA                 ISAURA APARECIDA OLIVEIRA BARBOSA TERINI                    76    SALA  01                                                                                                                                                    JARDIM ITAPUA                                     13273105SP7225VALINHOS                                          19  38298222                        FABRICIO@CAMPTECNICA.COM.BR                                                                                        49000000100000000352018112600000000N                                                                                                                                                                                                                                                                                  F
1F 320989080001761JOSUE DE SOUZA GUERRA 16384396807                                                                                                                     GUERRA FERRAMENTARIA                                   022018112600                                                                                                                                2135201811262543800RUA                 FREDERICO BUGIM                                             0     QUADRA 9;LOTE 5 c;QUADRA 9;LOTE 5 c                                                                                                                         JARDIM SAO LUIZ                                   13272705SP7225VALINHOS                                          19  98735874                        Guerrajsouza7@gmail.com                                                                                            50000000005000000152018112600000000S                                                                                                                                                                                                                                                                                  F
1F 320989250001031DONIZETE SEBASTIAO DA SILVA                                                                                                                                                                                  022018112300                                                                                                                                4120201811230133499RUA                 YOSHIDA TOMIYOSHI                                           SN          CHAC. SANTO ANTONIO                                                                                                                                   MACUCO                                            13279401SP7225VALINHOS                                          19  92424556                                                                                                                                           59000000000000000500000000000000000N                                                                                                                                                                                                                                                                                  F
1F 321023990001081ORISVALDO SERAFIM SARTI                                                                                                                                                                                      022018112600                                                                                                                                2135201811266209100RUA                 OLIVIO ANSELMI                                              15                                                                                                                                                                JARDIM DAS FIGUEIRAS                              13275618SP7225VALINHOS                                          19  33246504                        SC_CONTABILIDADE@GLOBO.COM                                                                                         50000000005000000152018112600000000N                                                                                                                                                                                                                                                                                  F
1F 321041340001491CLAUDENILSON BARBOSA AMORIM DA ROCHA 33662543869                                                                                                                                                             022018112600                                                                                                                                2135201811264330404RUA                 DO FADO                                                     32    LOTE 32-A;QUADRA K                                                                                                                                          JARDIM PORTUGAL                                   13273269SP7225VALINHOS                                          19  32990278                        CR.CLAUDENILSONBARBOSA@GMAIL.COM                                                                                   50000000000100000152018112600000000S                                                                                                                                                                                                                                                                                  F
1F 321044910001071J S MOVEIS EIRELI                                                                                                                                                                                            022018112600                                                                                                                                2305201811263101200RUA                 JOAO PREVITALE                                              2322                                                                                                                                                              JARDIM ALTO DA COLINA                             13272315SP7225VALINHOS                                          19  38496931                        CHCONTABIL@HOTMAIL.COM                                                                                             65000000095400000152018112600000000N                                                                                                                                                                                                                                                                                  F
1F 321058720001001NOVOGAS VALINHOS COMERCIO DE GAS LTDA                                                                                                                                                                        022018112600                                                                                                                                2062201811264784900RUA                 FRANCISCO GLICERIO                                          S/N   LOTE  1                   QUADRA1                                                                                                                           VILA EMBARE                                       13271200SP7225VALINHOS                                          19  38496931                        CHCONTABIL@HOTMAIL.COM                                                                                             49000000010000000152018112600000000N                                                                                                                                                                                                                                                                                  F
1F 321062020001091ANSELMO SILVA SANTOS 31856361802                                                                                                                      MUNHOZ ESTACAO DE MARMORES E GRANITOS                  022018112600                                                                                                                                2135201811264399103RUA                 LUIZ BISSOTO 662                                            662   CONJ Bloco 3pat 31                                                                                                                                          JARDIM BOM RETIRO                                 13275900SP7225VALINHOS                                          19  38291968                        anselmosantosilva@gmail.com                                                                                        50000000003800000152018112600000000S                                                                                                                                                                                                                                                                                  F
1F 321082660001491CARMEN SILVIA CATELAN CAMARGO 01692904841                                                                                                             MANA PRODUTOS ALIMENTICIOS                             022018112600                                                                                                                                2135201811267319002RUA                 PEDRO ANTONIO MILANEZ                                       199                                                                                                                                                               PARQUE DAS COLINAS                                13273621SP7225VALINHOS                                          19  38712587                        belmarfrios@yahoo.com.br                                                                                           50000000003000000152018112600000000S                                                                                                                                                                                                                                                                                  F
1F 321089340001381OSVALDO ASTOLFO                                                                                                                                       OSVALDO ASTOLFO                                        022018112600                                                                                                                                2135201811268219999RUA                 ELSO PREVITALE                                              645   CASA  48                                                                                                                                                    JARDIM ALTO DA COLINA                             13272300SP7225VALINHOS                                          19  3227945119  99394808            O.ASTOLFO@YAHOO.COM.BR                                                                                             50000000001000000152018112600000000N                                                                                                                                                                                                                                                                                  F
1F 321096820002422VENZO CORRETORA DE SEGUROS LTDA                                                                                                                                                                              022019043000                                                                                                                                2062201904306622300AVENIDA             INVERNADA                                                   1963                                                                                                                                                              PARQUE NOVA SUICA                                 13271450SP7225VALINHOS                                          11  50511392                        MARCIA@MSSCONTABIL.COM.BR                                                                                          49000000000000000152018112700000000                        00000000                                                                                                                                                                                                                                                   F
1F 321100140001541DOLIZETE LACERDA 04862299806                                                                                                                          DOG BELA PRACA                                         022018112700                                                                                                                                2135201811275612100RUA                 PAULO FERNANDO TETTI DE BARROS                              190   LOTE 17;QUADRA 22                                                                                                                                           CHACARAS SAO BENTO                                13278063SP7225VALINHOS                                          19  38812161                        isa_bela_lacerda@hotmail.com                                                                                       50000000001000000152018112700000000S                                                                                                                                                                                                                                                                                  F
1F 321112900001371SMART - REPRESENTACOES COMERCIAIS DE MATERIAIS DA CONSTRUCAO CIVIL LTDA                                                                               SMART REPRESENTACOES                                   022018112700                                                                                                                                2062201811274613300AVENIDA             PRESIDENTE TANCREDO NEVES                                   712                                                                                                                                                               PARQUE DAS COLINAS                                13273610SP7225VALINHOS                                          19  38695022                        FAZANI@TERRA.COM.BR                                                                                                49000000005000000500000000000000000N                                                                                                                                                                                                                                                                                  F
1F 321122490001851FABIO CAMPOS BUENO 26258327893                                                                                                                        BUENO TRANSPORT                                        082019062401                                                                                                                                2135201811275320202RUA                 DAS VITORIAS REGIAS                                         630                                                                                                                                                               JARDIM DAS VITORIAS REGIAS                        13273053SP7225VALINHOS                                          19  97099738                        bueno.f@bol.com.br                                                                                                 50000000000001000162018112720190624S                                                                                                                                                                                                                                                                                  F
1F 321136330001001SILVIO ALVES FERREIRA PIMENTA 04265019854                                                                                                             SILVIO ALVES FERREIRA PIMENTA                          022018112700                                                                                                                                2135201811278219999RUA                 MAXIMO PITON                                                83                                                                                                                                                                JARDIM SANTA ROSA                                 13275090SP7225VALINHOS                                          19  96885521                        silcont@gmail.com                                                                                                  50000000001000000152018112700000000S                                                                                                                                                                                                                                                                                  F
1F 321141620001471GIOVANNA CRISTINA ROYO 48744267860                                                                                                                    GIOVANNA ROYO                                          022018112700                                                                                                                                2135201811279602502AVENIDA             ONZE DE AGOSTO                                              845                                                                                                                                                               VILA CLAYTON                                      13276130SP7225VALINHOS                                          19  38262134                        GIOVANNA_ROYO1998@OUTLOOK.COM                                                                                      50000000000900000152018112700000000S                                                                                                                                                                                                                                                                                  F
1F 321147280001301KAROLINE MARIELE URBANO 43725972826                                                                                                                   CURSO BEM CUIDAR                                       022018112700                                                                                                                                2135201811278599699RUA                 AUGUSTO TASSI                                               210                                                                                                                                                               JARDIM CENTENARIO                                 13273586SP7225VALINHOS                                          19  99421776                        karoline.dpu@gmai.com                                                                                              50000000000500000152018112700000000S                                                                                                                                                                                                                                                                                  F
1F 321155640001661DANILO FONSECA SOLER 35913906829                                                                                                                      RETRATOS DE VALINHOS                                   022018112700                                                                                                                                2135201811275813100RUA                 JOSE AUGUSTO ROXO MOREIRA                                   119                                                                                                                                                               RESIDENCIAL SAO LUIZ                              13270450SP7225VALINHOS                                          19  39299411                        dan_danfs@hotmail.com                                                                                              50000000002900000152018112700000000S                                                                                                                                                                                                                                                                                  F
1F 321161730001661CULINARIA KIDS DE VALINHOS LTDA                                                                                                                       CULINARIA KIDS                                         022018112700                                                                                                                                2062201811275620102RUA                 PIRATININGA                                                 70/74                                                                                                                                                             VILA INDEPENDENCIA                                13276225SP7225VALINHOS                                          19  3869256619  99330818            ESCRBISSOTO@TERRA.COM.BR                                                                                           49000000005000000152018112700000000N                                                                                                                                                                                                                                                                                  F
1F 321162400001421CONNECTION PARTICIPACOES LTDA                                                                                                                                                                                022018112700                                                                                                                                2062201811276462000RUA                 FRANCISCO GLICERIO                                          1266  SALA  7                                                                                                                                                     VILA EMBARE                                       13271200SP7225VALINHOS                                          19  98480155                        CASECOMPANY@TERRA.COM.BR                                                                                           49000000100000000500000000000000000N                                                                                                                                                                                                                                                                                  F
1F 321168900001981TRIO GABRIEL PARTICIPACOES EIRELI                                                                                                                                                                            022018112700                                                                                                                                2305201811276463800RODOVIA             VISCONDE DE PORTO SEGURO                                    4569  LOTE  28                  QUADRAC                                                                                                                           CHACARAS SAO BENTO                                13278000SP7225VALINHOS                                          11  99864865                        EDUGABRIEL@TERRA.COM.BR                                                                                            65000000200000000500000000000000000N                                                                                                                                                                                                                                                                                  F
1F 321175620001061CARLOS EDUARDO PAIAO 29273489877                                                                                                                      ALLIANCE VALINHOS BJJ                                  022018112700                                                                                                                                2135201811278599699AVENIDA             INDEPENDENCIA                                               902   SALA                                                                                                                                                        VILA OLIVO                                        13276030SP7225VALINHOS                                          19  33054700                        carlospaiao123@gmail.com                                                                                           50000000001500000152018112700000000S                                                                                                                                                                                                                                                                                  F
1F 321203400001421MATHEUS HENRIQUE MORTENE 38120808851                                                                                                                  MATHEUS HENRIQUE MORTENE                               022018112700                                                                                                                                2135201811278599605RUA                 DOUTOR JOSE CARLOS DE PAULA                                 16    QUADRA 29;LOTE 16                                                                                                                                           CHACARAS SAO BENTO                                13278062SP7225VALINHOS                                          19  38813087                        mat_hm@hotmail.com                                                                                                 50000000003500000152018112700000000S                                                                                                                                                                                                                                                                                  F
1F 321215110001581BRUNO MICHEL FOSSATTO 37635865803                                                                                                                     BMF SUSPENSAO E MECANICA EM GERAL                      022018112800                                                                                                                                2135201811284520001RUA                 VEREADOR JACOB TURCATTI                                     644                                                                                                                                                               JARDIM SAO MARCOS                                 13272823SP7225VALINHOS                                          19  95266646                        995266646BMF@GMAIL.COM                                                                                             50000000001000000152018112800000000S                                                                                                                                                                                                                                                                                  F
1F 321218850001731HEMERTON RODRIGO DE ALMEIDA 09014002629                                                                                                               HEMERTON RODRIGO DE ALMEIDA                            022018112800                                                                                                                                2135201811283313999RUA                 CAMPOS SALLES                                               2035  EDIF 4;APT 58                                                                                                                                               VILA FAUSTINA II                                  13272350SP7225VALINHOS                                          19  41170285                        hemerton.eel@gmail.com                                                                                             50000000001000000152018112800000000S                                                                                                                                                                                                                                                                                  F
1F 321251320001361DX10 ALIMENTOS & COMERCIO VAREJISTA LTDA                                                                                                              CASA DA OFERTA                                         022018112800                                                                                                                                2062201811284712100AVENIDA             INDEPENDENCIA                                               80                                                                                                                                                                VILA OLIVO                                        13276030SP7225VALINHOS                                          19  3887335019  38873351            IRMAOSMEIRA@TERRA.COM.BR                                                                                           49000000010000000152018112800000000N                                                                                                                                                                                                                                                                                  F
1F 321253520001601LIFE RESIDENCIAL SENIOR LTDA                                                                                                                          LIFE RESIDENCIAL SENIOR                                022018112800                                                                                                                                2062201811288711502RUA                 PAULO SETUBAL                                               567                                                                                                                                                               VILA ANGELI                                       13271070SP7225VALINHOS                                          19  30446655                        MATHEUSPADUA@MTSCONSULTORIA.COM.BR                                                                                 49000000050000000100000000000000000N                                                                                                                                                                                                                                                                                  F
1F 321265430001461ADRIANA APARECIDA MARANGONI LEITE 16837325884                                                                                                                                                                022018112800                                                                                                                                2135201811288712300RUA                 ANTONIO DE CAMPOS                                           SN    QUADRA 2 ;LOTE 1                                                                                                                                            JARDIM SAO LUIZ                                   13272704SP7225VALINHOS                                          19  88648971                        marangoni2013@bol.com.br                                                                                           50000000001000000152018112800000000S                                                                                                                                                                                                                                                                                  F
1F 321304900001371ADRIANA FABIANO DE ANDRADE                                                                                                                                                                                   022018112800                                                                                                                                2135201811284781400RUA                 VINTE E UM DE DEZEMBRO                                      45                                                                                                                                                                CENTRO                                            13270070SP7225VALINHOS                                          19  3324650419  33246506            SC_CONTABILIDADE@GLOBO.COM                                                                                         50000000010000000152018112800000000N                                                                                                                                                                                                                                                                                  F
1F 321321000001681ROSEMEIRE FERREIRA MONTEIRO 10804034850                                                                                                               LC TUBULACOES INDUSTRIAIS E MEDICINAIS                 022018112800                                                                                                                                2135201811283321000AVENIDA             BENJAMIN DE PAULA FRANCA                                    1640  LOTE G1A                                                                                                                                                    VALE VERDE                                        13279173SP7225VALINHOS                                          19  92320634                        camilomonteiro@yahoo.com                                                                                           50000000010000000152018112800000000S                                                                                                                                                                                                                                                                                  F
1F 321327030001601SHEYLA GUALCHI 22685093893                                                                                                                            CANTINHO - DUBRA                                       022018112800                                                                                                                                2135201811285620103RUA                 JOSE MILANI                                                 304   TERREO                                                                                                                                                      VILA BISSOTO                                      13270200SP7225VALINHOS                                          19  32792064                        sheylinha15@outlook.com                                                                                            50000000002000000152018112800000000S                                                                                                                                                                                                                                                                                  F
1F 321372050001001J O V VENTURA PADARIA LTDA                                                                                                                            PADARIA NOVA JUREMA                                    022018112900                                                                                                                                2062201811294721102RUA                 PEDRO FAVRIN                                                184   SLJ                                                                                                                                                         JARDIM JUREMA                                     13272452SP7225VALINHOS                                          19  38496931                        CHCONTABIL@HOTMAIL.COM                                                                                             49000000001000000152018112900000000N                                                                                                                                                                                                                                                                                  F
1F 321402400001881ANDRE LUIZ DEMASI 26379640819                                                                                                                         TRANS DEMASI                                           022018112900                                                                                                                                2135201811294924800RUA                 MADRE MARIA DO CALVARIO                                     320                                                                                                                                                               JARDIM JUREMA                                     13272451SP7225VALINHOS                                          19  38490733                        andredemasi2@gmail.com                                                                                             50000000000500000152018112900000000S                                                                                                                                                                                                                                                                                  F
1F 321433690001401FERNANDO HENRIQUE DA SILVA FLORES 38596123873                                                                                                         AGUA PURA                                              022018113000                                                                                                                                2135201811304723700RUA                 DOUTOR ARMANDO COSTA MAGALHAES                              78                                                                                                                                                                VILA SANTO ANTONIO                                13270490SP7225VALINHOS                                          19  94019062                        fh739292@gmail.com                                                                                                 50000000005000000152018113000000000S                                                                                                                                                                                                                                                                                  F
1F 321435660001691JULIANA CRISTINA SUZUKI GOMES DA SILVA                                                                                                                                                                       022018112900                                                                                                                                2135201811298219999RUA                 ITA                                                         83                                                                                                                                                                JARDIM SAO BENTO DO RECREIO                       13274769SP7225VALINHOS                                          19  95337713                        JU.SUZUKI@HOTMAIL.COM                                                                                              50000000005000000152018112900000000N                                                                                                                                                                                                                                                                                  F
1F 321449650001441JESIANE M. Z. SOUZA CORRETORA DE IMOVEIS                                                                                                                                                                     022018113000                                                                                                                                2135201811306821801RUA                 PAULO PRADO                                                 393                                                                                                                                                               VILA GENOVEVA                                     13277410SP7225VALINHOS                                          19  3308107119  3308107219  32320094RAFAEL@BARRETOLEME.COM.BR                                                                                          50000000002000000152018113000000000N                                                                                                                                                                                                                                                                                  F
