1F 049899140001881SERGIO CAETANO FILHO                                                                                                                                  GRITTO CD DVD                                          082009101901                                                                                                                                2135200204114762800AVENIDA             BRASIL                                                      930   LOJA 1                                                                                                                                                      JD. SAO FELIPE                                    13273609SP7225VALINHOS                                          19  3871621119  3871895919  38716211veigaepostal@veigaepostal.com.br                                                                                   50000000000000000162007070120091019N                                                                                                                                                                                                                                                                                  F
1F 049904510001741DETECT CORRETORA DE SEGUROS LTDA                                                                                                                                                                             022005051400                                                                                                                                2062200203196622300RUA                 DOM BARRETO                                                 22                                                                                                                                                                VILA EMBARE                                       13271150SP7225VALINHOS                                          19  38692625            19  38692469                                                                                                                   49000000005000000152015010100000000N                                                                                                                                                                                                                                                                                  F
1F 049905160001811MARELLI MATERIAIS PARA ARTESANATO LTDA                                                                                                                                                                       082019060601                                                                                                                                2062200203184789001RUA                 ULYSSES PEDROSO DE OLIVEIRA FILHO                           321                                                                                                                                                               RES SAO LUIZ                                      13270393SP7225VALINHOS                                          19  38695633                                                                                                                                           49000000005000000152007070100000000N                                                                                                                                                                                                                                                                                  F
1F 049918380001451LN SERVICOS DE PINTURA LTDA                                                                                                                                                                                  042018102463                                                                                                                                2240200204034330404                    ANTONIO MATIAZZO                                            309                                                                                                                                                               SANTA ELISA                                       13275422SP7225VALINHOS                                          19  38591543            19  38712090                                                                                                                   49000000000000000100000000000000000N                                                                                                                                                                                                                                                                                  F
1F 049926940001411AUTO MECANICA REZENDE DE VALINHOS LTDA                                                                                                                AUTO MECANICA REZENDE                                  022005110300                                                                                                                                2062200201284530703AVENIDA             JOAO ANTUNES DOS SANTOS                                     52/56                                                                                                                                                             JARDIM PINHEIROS                                  13274290SP7225VALINHOS                                          19  38494562                        novacont@novacontassessoria.com.br                                                                                 49000000010000000152007070100000000N                                                                                                                                                                                                                                                                                  F
1F 049931770001971DENISE ROSA FORATTO                                                                                                                                                                                          082009090801                                                                                                                                2135200203289313100AVENIDA             ONZE DE AGOSTO                                              514   SALA 09 E 10                                                                                                                                                VILA CLAYTON                                      13276130SP7225VALINHOS                                          19  3871621119  3871895919  38716211veigaepostal@veigaepostal.com.br                                                                                   50000000000000000162007070120090908N                                                                                                                                                                                                                                                                                  F
1F 049932190001901DAVID A. C. ROMANETTO                                                                                                                                 ROMANETTO COMUNICACAO                                  082011013101                                                                                                                                2135200202187311400RUA                 PIRATININGA                                                 30                                                                                                                                                                INDEPENDENCIA                                     13276225SP7225VALINHOS                                                                                                                                                                                                 50000000000000000300000000000000000N                                                                                                                                                                                                                                                                                  F
1F 049940560001601ANTONIO JOSE FREITAS DOS SANTOS                                                                                                                                                                              082017020301                                                                                                                                2135200204094617600RUA                 AUGUSTA ZACHARIAS                                           55                                                                                                                                                                JD. NOVO HORIZONTE                                13272028SP7225VALINHOS                                          19  3871621119  3871895919  38716211VEIGAEPOSTAL@VEIGAEPOSTAL.COM.BR                                                                                   50000000000000000500000000000000000N                                                                                                                                                                                                                                                                                  F
1F 049953590001051PAULO S. SOBRINHO                                                                                                                                     CASA COUNTRY AGROPECUARIA E RACOES                     042018102463                                                                                                                                2135200204114789004RUA                 ARIOVALDO ANTONIO BOCATTE                                   80                                                                                                                                                                CH. SAO BENTO                                     13278041SP7225VALINHOS                                                                                                                                                                                                 50000000000000000500000000000000000N                                                                                                                                                                                                                                                                                  F
1F 049962550001071LAUDITEC LTDA                                                                                                                                         LAUDITEC                                               022003100400                                                                                                                                2062200202284753900RUA                 FIORAVANTE B MAGLIO                                         184         PREDIO AZUL                                                                                                                                           VILA NOVA VALINHOS                                13271260SP7225VALINHOS                                          19  3869251319  3869251319  38495449metodo.contabil@terrra.com.br                                                                                      49000000060000000362007070120081231N                                                                                                                                                                                                                                                                                  F
1F 049977240001021BONETO & BONETO FOTOGRAFIA S/C. LTDA                                                                                                                  BONETO FOTOGRAFIA                                      082018091101                                                                                                                                2240200203267420001RUA                 DAS PETUNIAS                                                343                                                                                                                                                               JD. VITORIAS REGIAS                               13273050SP7225VALINHOS                                                                                                                                                                                                 49000000000000000162007070120180911N                                                                                                                                                                                                                                                                                  F
1F 049977350001921CONDOMINIO RESIDENCIAL PORTAL DO LAGO                                                                                                                                                                        022002030700                                                                                                                                3085200203078112500RUA                 GERALDO GASPERI                                             695                                                                                                                                                               CHACARAS SAO BENTO                                13273609SP7225VALINHOS                                                                                                                                                                                                 19000000000000000500000000000000000N                                                                                                                                                                                                                                                                                  F
1F 050014400001871BOOT HOUSE CALCADOS E BOLSAS LTDA                                                                                                                                                                            022019051800                                                                                                                                2062200203014782201RUA                 VINTE E UM DE DEZEMBRO                                      79    TERREO                                                                                                                                                      CENTRO                                            13270070SP7225VALINHOS                                          11  36840721                                                                                                                                           49000000010000000100000000000000000N                                                                                                                                                                                                                                                                                  F
1F 050031110001751ANJUS COMERCIO E REPRESENTACAO LTDA                                                                                                                                                                          082017032101                                                                                                                                2062200204044679699RUA                 ANGELO RAYMUNDO SPEGLICH                                    12                                                                                                                                                                JD. MARACANA                                      13277581SP7225VALINHOS                                          19  3829001519  3829001519  38492192clausant_fiscal@dglnet.com.br                                                                                      49000000000000000100000000000000000N                                                                                                                                                                                                                                                                                  F
1F 050052990003522DANTUS AGROPECUARIA EIRELI                                                                                                                                                                                   022008070400                                                                                                                                2305200807040151201ESTRADA MUNICIPAL   MARIO COVAS                                                 S/N   LOTE: 2; LOTE: 2-A;                                                                                                                                         MACUCO                                            13279411SP7225VALINHOS                                          19  3213631619  3241496519  32414965ABBSCONTADORES@YAHOO.COM.BR                                                                                        05000000000000000500000000000000000                        00000000                                                                                                                                                                                                                                                   F
1F 050053390001021SANTA HELENA EMPREENDIMENTOS IMOBILIARIOS LTDA                                                                                                                                                               082008091001                                                                                                                                2240200203204110700AVENIDA             DOM NERY                                                    480   SALA 07                                                                                                                                                     SANTA CRUZ                                        13271170SP7225VALINHOS                                                                                                                                                                                                 49000000000000000100000000000000000N                                                                                                                                                                                                                                                                                  F
1F 050055210001551V & S ENGENHARIA LTDA                                                                                                                                 V & S ENGENHARIA S/C LTDA                              022005110300                                                                                                                                2240200105157112000RUA                 NICOLAU VINICIUS PARODI                                     340                                                                                                                                                               JARDIM MONTE VERDE                                13275052SP7225VALINHOS                                          19  38763104            19  37052222EDUJS@UOL.COM.BR                                                                                                   49000000000000000300000000000000000N                                                                                                                                                                                                                                                                                  F
1F 050070390001541EDISON JOSE ANDRIES                                                                                                                                                                                          082018110701                                                                                                                                2135200204124789001RUA                 DOMINGOS TORDIN                                             35                                                                                                                                                                JARDIM SANTA ROSA                                 13275095SP7225VALINHOS                                                                                                                                                                                                 50000000000000000100000000000000000N                                                                                                                                                                                                                                                                                  F
1F 050075380001411EMPREENDIMENTOS IMOBILIARIOS CANCIAN LTDA                                                                                                             EMPREENDIMENTOS IMOBILIARIOS CANCIAN LTDA              022002041600                                                                                                                                2062200204164110700RUA                 CAETANO FERRARI                                             363   CHACARA SANTA RITA                                                                                                                                          JD JUREMA                                         13272470SP7225VALINHOS                                          19  38697094                                                                                                                                           49000000000000000100000000000000000N                                                                                                                                                                                                                                                                                  F
1F 050077810001601INDIO CENTRO AUTOMOTIVO VALINHOS LTDA                                                                                                                 INDIO CENTRO AUTOMOTIVO                                042018102463                                                                                                                                2062200204164520001RUA                 CAETANO FERRARI                                             66                                                                                                                                                                JD. JUREMA                                        13272450SP7225VALINHOS                                          019 38695406            019 38497296                                                                                                                   49000000000000000162007070120081231N                                                                                                                                                                                                                                                                                  F
1F 050078180001501W.R. REPRESENTACOES VALINHOS S/C LTDA                                                                                                                 W. R. REPRESENTACOES VALINHOS                          082012112901                                                                                                                                2240200203044619200RUA                 INDAIATUBA                                                  337                                                                                                                                                               VILA JAIR                                         13276520SP7225VALINHOS                                          019 38695406            019 38497296                                                                                                                   49000000000000000100000000000000000N                                                                                                                                                                                                                                                                                  F
1F 050088560001271MARIA APARECIDA DA SILVA BENTO VALINHOS                                                                                                                                                                      042018092563                                                                                                                                2135200204094530703AVENIDA             PAULISTA                                                    522                                                                                                                                                               SAO CRISTOVAO                                     13276340SP7225VALINHOS                                                                                                                                                                                                 50000000000000000100000000000000000N                                                                                                                                                                                                                                                                                  F
1F 050089770001791KORTE ART SERVICOS DE PRE IMPRESSAO LTDA                                                                                                                                                                     022018101500                                                                                                                                2062200204181821100RUA                 JOSE ORESTES CASACIO                                        47                                                                                                                                                                JARDIM DAS FIGUEIRAS                              13275610SP7225VALINHOS                                          19  89493225            19  35780809KORTEARTMATRIZES@GMAIL.COM                                                                                         49000000005000000162007070120121231N                                                                                                                                                                                                                                                                                  F
1F 050094710001841MORAES & PONTES VALINHOS LTDA                                                                                                                                                                                022005110300                                                                                                                                2062200204188130300RUA                 ABRAHAO MARTINI                                             12                                                                                                                                                                JD. DAS FIGUEIRAS                                 13275615SP7225VALINHOS                                          019 38494093            019 38696200hlp@hiway.com.br                                                                                                   49000000000000000152019010100000000N                                                                                                                                                                                                                                                                                  F
1F 050097130001301CRONOTEC CRONOMETRAGEM COMPUTADORIZADA LTDA                                                                                                                                                                  082005091601                                                                                                                                2062200204054789099RUA                 NATALINO SPIANDORELLI                                       40                                                                                                                                                                JARDIM PRIMAVERA                                  13276070SP7225VALINHOS                                          19  32331871            019 32331871cronotec@globo.com                                                                                                 49000000000000000500000000000000000N                                                                                                                                                                                                                                                                                  F
1F 050101240002522STOQ SERV DISTRIBUIDORA DE ALIMENTOS LTDA                                                                                                                                                                    042018091863                                                                                                                                2062201208034639701RODOVIA             FLAVIO DE CARVALHO                                          1080                                                                                                                                                              JARDIM SAO PAULO                                  13273000SP7225VALINHOS                                          11  3599757111  3599757111  35998946vergiliorodrigues@uol.com.br                                                                                       49000000000000000162012010120151231                        00000000                                                                                                                                                                                                                                                   F
1F 050113910001631JULIO DIOTAIUTI FILHO                                                                                                                                 BODY HOUSE                                             082003032001                                                                                                                                2135200204124729699AVENIDA             ONZE DE AGOSTO                                              515                                                                                                                                                               VILA NEGRELO                                      13276130SP7225VALINHOS                                          19  38715387            19  38692032                                                                                                                   50000000000000000500000000000000000N                                                                                                                                                                                                                                                                                  F
1F 050114190001621JOSE CLEMENTE LIMA BIJUTERIAS                                                                                                                                                                                022002041900                                                                                                                                2135200204194789001RUA                 ANTONIO CARLOS                                              37                                                                                                                                                                CENTRO                                            13270005SP7225VALINHOS                                          19  3308107119  3308107219  32320094LEILA@BARRETOLEME.COM.BR                                                                                           50000000000000000182007070120181231N                                                                                                                                                                                                                                                                                  F
1F 050114190002432JOSE CLEMENTE LIMA BIJUTERIAS                                                                                                                                                                                082014101501                                                                                                                                2135201111214789001RUA                 ANTONIO CARLOS                                              37                                                                                                                                                                CENTRO                                            13270005SP7225VALINHOS                                          19  3308107119  3308107219  32320094contabil.barretoleme@uol.com.br                                                                                    50000000000000000182007070120181231                        00000000                                                                                                                                                                                                                                                   F
1F 050153680001471TRANSVIVA TRANSPORTES DE VALINHOS LTDA                                                                                                                TRANSVIVA LOCACAO E TRANSPORTES DE VALINHOS LTDA ME    022005110300                                                                                                                                2062200204164929902RUA                 LUIZA RODELA BRANDINI                                       347                                                                                                                                                               VILA SAO JOSE                                     13270293SP7225VALINHOS                                          19  3876310419  3876310419  38495449escritorio@setestrelas.com.br                                                                                      49000000200000000100000000000000000N                                                                                                                                                                                                                                                                                  F
1F 050153840001301ICRAD INDUSTRIA E COMERCIO LTDA                                                                                                                       ICRAD                                                  022005110300                                                                                                                                2062200204192949299RUA                 ANTONIO MOYSES                                              216                                                                                                                                                               VILA PAGANO                                       13277240SP7225VALINHOS                                          19  38497000                        CONTSENADOR@HOTMAIL.COM                                                                                            49000000000000000152007070100000000N                                                                                                                                                                                                                                                                                  F
1F 050185600001971EMBALAK SOLUCOES COMPLETAS - EMBALAGENS LIMITADA                                                                                                                                                             082010060101                                                                                                                                2062200204224619200RUA                 JOAO ARGENTONE                                              53    RESIDENCIAL FAZENDA SAO JOSE                                                                                                                                DOIS CORREGOS                                     13278186SP7225VALINHOS                                          19  38811596                        villacontabil@itelefonica.com.br                                                                                   49000000000000000100000000000000000N                                                                                                                                                                                                                                                                                  F
1F 050188150001111ERGONAV ENGENHARIA LTDA                                                                                                                               ERGONAV ENGENHARIA                                     082015081901                                                                                                                                2062200203157112000RUA                 FRANCISCO SPEGLISH                                          324                                                                                                                                                               RESIDENCIAL NOVA ERA                              13275652SP7225VALINHOS                                          19  32529558            011 45268414ERGONAV@TERRA.COM.BR                                                                                               49000000000000000300000000000000000N                                                                                                                                                                                                                                                                                  F
1F 050229790001121JOSE PEREIRA DIAS FILHO VALINHOS                                                                                                                                                                             082007111254                                                                                                                                2135200204224789099RUA                 OITO                                                        66                                                                                                                                                                RES.SANTA MARIA                                   13272822SP7225VALINHOS                                                                                                                                                                                                 50000000000000000162007070120071111N                                                                                                                                                                                                                                                                                  F
1F 050268620001071ELFI - INSTITUTO DE ENSINO LTDA                                                                                                                       ELFII                                                  082015080401                                                                                                                                2062200204228599605LARGO               SAO SEBASTIAO                                               233   SALA   11                                                                                                                                                   CENTRO                                            13270010SP7225VALINHOS                                          19  3829228419  3871506219  38292284eci_contabil@yahoo.com.br                                                                                          49000000000000000152009010100000000N                                                                                                                                                                                                                                                                                  F
1F 050278040001061CONDOMINIO RESIDENCIAL TERRAS DO ORIENTE                                                                                                                                                                     022005110300                                                                                                                                3085200204228112500ESTRADA             MUNICIPAL                                                   S/N                                                                                                                                                               JARDIM SAO MARCOS                                 13272000SP7225VALINHOS                                          19  33076837            19  33076837CLEUDE@ABCONDOMINIOS.COM.BR                                                                                        19000000000000000500000000000000000N                                                                                                                                                                                                                                                                                  F
1F 050286630001381MAEL VALINHOS REPRESENTACOES LTDA                                                                                                                                                                            042018102463                                                                                                                                2062200204224619200RUA                 SILVIO CESAR CIOTTO                                         173                                                                                                                                                               PARQUE DA COLINA                                  13273614SP7225VALINHOS                                                                                                                                                                                                 49000000000000000100000000000000000N                                                                                                                                                                                                                                                                                  F
1F 050307250001461GPASSOS BAR LTDA                                                                                                                                      GPASSOS BAR                                            022002050700                                                                                                                                2062200205075611203RUA                 ITALIA                                                      548                                                                                                                                                               VILA MARTINS                                      13270180SP7225VALINHOS                                          19  3871621119  3871895919  38716211veigaepostal@veigaepostal.com.br                                                                                   49000000000000000152007070100000000N                                                                                                                                                                                                                                                                                  F
1F 050307460001611JULIANA PIASON ATRA VALINHOS                                                                                                                          NUTRI - AGUA                                           022005043000                                                                                                                                2135200205084723700RUA                 OLIVIA BRUNELLI DE GASPARI                                  60                                                                                                                                                                SUB. PREVITALLE/POLI                              13272402SP7225VALINHOS                                          19  38716211            19  38716211POSTAL&VEIGA@LEXXA.COM.BR                                                                                          50000000000000000162007070120161231N                                                                                                                                                                                                                                                                                  F
1F 050316310001911COSSA & SOUTO COMERCIO DE CONFECCOES LTDA                                                                                                                                                                    082003010301                                                                                                                                2062200204184755502RUA                 21 DE DEZEMBRO                                              90                                                                                                                                                                CENTRO                                            13270070SP7225VALINHOS                                                                                                                                                                                                 49000000000000000500000000000000000N                                                                                                                                                                                                                                                                                  F
1F 050317510001991LONGHINI & PAGLIATTO LTDA                                                                                                                                                                                    082015020973                                                                                                                                2062200204124753900RUA                 JAGUARIUNA                                                  161                                                                                                                                                               JD. AMERICA                                       13276135SP7225VALINHOS                                                                                                                                                                                                 49000000000000000100000000000000000N                                                                                                                                                                                                                                                                                  F
1F 050317630001131BRUNA FAJARDO DA SILVA VALINHOS                                                                                                                                                                              042018102463                                                                                                                                2135200204264781400RUA                 XV DE NOVEMBRO                                              61    LOJA 1                                                                                                                                                      CENTRO                                            13270130SP7225VALINHOS                                                                                                                                                                                                 50000000000000000100000000000000000N                                                                                                                                                                                                                                                                                  F
1F 050319410001061EDELSTAHL INDUSTRIA E COMERCIO DE EQUIPAMENTOS LTDA                                                                                                                                                          022005050700                                                                                                                                2062200204302599399RODOVIA             MUNICIPAL DOS ANDRADAS                                      1662        UNIDADE 01                                                                                                                                            JARDIM LORENA                                     13277650SP7225VALINHOS                                          19  3272687119  3273660119  32736601FISCAL2@EMPRESAINTELIGENTE.COM.BR                                                                                  49000000500000000500000000000000000N                                                                                                                                                                                                                                                                                  F
1F 050324920001101INFINITCOM DESIGN E COMUNICACAO LTDA                                                                                                                                                                         082013041101                                                                                                                                2062200204267311400RUA                 FRANCISCO GLICERIO                                          738   SALA 03                                                                                                                                                     VILA NOVA VALINHOS                                13271200SP7225VALINHOS                                                                                                                                                                                                 49000000000000000500000000000000000N                                                                                                                                                                                                                                                                                  F
1F 050342990001191GOMES DO CARMO SERVICOS MEDICOS S/C LTDA                                                                                                                                                                     042018092563                                                                                                                                2240200204238630503RUA                 LAZARA DA CRUZ BARBOSA                                      340                                                                                                                                                               NOVA VALINHOS                                     13271240SP7225VALINHOS                                                                                                                                                                                                 49000000000000000500000000000000000N                                                                                                                                                                                                                                                                                  F
1F 050343960001011YANES COMERCIO DE GAS LTDA                                                                                                                            YANES COMERCIO DE GAS                                  022005110300                                                                                                                                2062200204024784900                    DR. ALFREDO ZACHARIAS                                       237   ESQ. ANTONIO MOYSES                                                                                                                                         VILA PAGANO                                       13277280SP7225VALINHOS                                          019 38695406            019 38497296fedocci@hiway.com.br                                                                                               49000000000000000500000000000000000N                                                                                                                                                                                                                                                                                  F
1F 050344070001531LOPES & LOPES AGROPECUARIA VALINHOS LTDA                                                                                                              SHOP DOG AGROPECUARIA SOARES                           082015020973                                                                                                                                2062200204024789004RUA                 VINTE E OITO DE MAIO                                        16                                                                                                                                                                CENTRO                                            13270050SP7225VALINHOS                                          019 38695406            019 38497296fedocci@hiway.com.br                                                                                               49000000000000000500000000000000000N                                                                                                                                                                                                                                                                                  F
1F 050346390001011CONDOMINIO COMERCIAL ITAMARACA MALL                                                                                                                   CONDOMINIO COMERCIAL ITAMARACA MALL                    022005110300                                                                                                                                3085200203158112500RUA                 PEDRO LEARDINI                                              400                                                                                                                                                               INVERNADA                                         13271651SP7225VALINHOS                                          19  38496941            19  38496941                                                                                                                   19000000000000000500000000000000000N                                                                                                                                                                                                                                                                                  F
1F 050366760001591CAROLINA BUFFO LIMOLI & CIA LTDA                                                                                                                                                                             082003100601                                                                                                                                2062200204225611201AVENIDA             ONZE DE AGOSTO                                              1335                                                                                                                                                              VILA BISSOTO                                      13270190SP7225VALINHOS                                                                                                                                                                                                 49000000000000000500000000000000000N                                                                                                                                                                                                                                                                                  F
1F 050393490001501CONDOMINIO EDIFICIO CATANZARO                                                                                                                         CONDOMINIO EDIFICIO CATA NZARO                         022001082800                                                                                                                                3085200108288112500AVENIDA             JOAQUIM ALVES CORREIA                                       267                                                                                                                                                               JD BELA VISTA                                     13277055SP7225VALINHOS                                                                                                                                                                                                 19000000000000000500000000000000000N                                                                                                                                                                                                                                                                                  F
1F 050398650001851PAULO CESAR RIBEIRO VALINHOS                                                                                                                          PEDRA LETRA                                            022005110300                                                                                                                                2135200103304789099RUA                 AMERICANA                                                   1026                                                                                                                                                              JARDIM IMPERIAL                                   13276340SP7225VALINHOS                                          19  38716313                                                                                                                                           50000000000000000162007070120151231N                                                                                                                                                                                                                                                                                  F
1F 050404170001001ORGPENHA VALINHOS SERVICOS LTDA                                                                                                                                                                              022003120600                                                                                                                                2062200204258211300AVENIDA             INDEPENDENCIA                                               1.072 SALA  01                                                                                                                                                    VILA OLIVO                                        13276030SP7225VALINHOS                                          11  29587944                29589798REL_PUBLICA@ORGPENHA.COM.BR                                                                                        49000000004000000172007070100000000N                                                                                                                                                                                                                                                                                  F
1F 050424240001321ANDREOTTI & BUCATTE ATIVIDADES FISICAS LTDA                                                                                                           LABORAL & FITNESS                                      082015100901                                                                                                                                2062200204309313100RUA                 AGOSTINHO CAPOVILLA                                         13                                                                                                                                                                BOM RETIRO I                                      13275200SP7225VALINHOS                                          19  96310827                        cesar_cha@uol.com.br                                                                                               49000000000500000152010010100000000N                                                                                                                                                                                                                                                                                  F
1F 050441040001111COBE CONSTRUCOES E EMPREENDIMENTOS LTDA.                                                                                                                                                                     022005110300                                                                                                                                2062200204234120400RUA                 LUIZ SPIANDORELLI NETO                                      30    CONJ  312                                                                                                                                                   PAIQUERE                                          13271570SP7225VALINHOS                                          19  3871888319  3849655219  38496552CONSTRUTORACOBE@UOL.COM.BR                                                                                         49000000050000000500000000000000000N                                                                                                                                                                                                                                                                                  F
1F 050442050001921A & L FASHION VALINHOS LTDA                                                                                                                                                                                  082016071901                                                                                                                                2062200204294781400RUA                 PAIQUERE                                                    1346                                                                                                                                                              JD. PAIQUERE                                      13271600SP7225VALINHOS                                                                                                                                                                                                 49000000000000000100000000000000000N                                                                                                                                                                                                                                                                                  F
1F 050462160001011NOVA ERA EMPREENDIMENTOS IMOBILIARIOS LTDA                                                                                                                                                                   082009061801                                                                                                                                2240200204234110700RUA                 SIRIO LIBANESA                                              128   FUNDOS                                                                                                                                                      VILA CLAYTON                                      13276100SP7225VALINHOS                                                                                                                                                                                                 49000000000000000100000000000000000N                                                                                                                                                                                                                                                                                  F
1F 050462800001921LORD REPRESENTACOES LTDA                                                                                                                                                                                     082009082501                                                                                                                                2240200107124619200RUA                 JOAO BISSOTTO FILHO                                         99    APTO 44 EDIFICIO GARCA                                                                                                                                      BOM RETIRO                                        13275410SP7225VALINHOS                                          19  38710011                        lcmessias@terra.com.br                                                                                             49000000006000000100000000000000000N                                                                                                                                                                                                                                                                                  F
1F 050468280001021J F SUN FEIRAS E EXPOSICOES LTDA                                                                                                                      J F SUN                                                022005110300                                                                                                                                2062200204114774100AVENIDA             JOAO ANTUNES DOS SANTOS                                     1088                                                                                                                                                              JARDIM PINHEIROS                                  13274290SP7225VALINHOS                                          19  3244634919  3849154013  32241828JETH@JFSUN.COM.BR                                                                                                  49000000020000000372007070100000000N                                                                                                                                                                                                                                                                                  F
1F 050527480001511TIP TECNOLOGIA LTDA.                                                                                                                                  TIP                                                    022005082700                                                                                                                                2062200205146209100RUA                 ELSO PREVITALE                                              900                                                                                                                                                               JARDIM ALTO DA COLINA                             13272300SP7225VALINHOS                                          19  30902255            098 2274664 RICARDO@TIPBRASIL.COM.BR                                                                                           49000000050000000500000000000000000N                                                                                                                                                                                                                                                                                  F
1F 050542110001201MURARO & FURLAN SERVICOS MEDICOS S/C LTDA                                                                                                                                                                    022002050900                                                                                                                                2240200205098650099RUA                 PARANA                                                      464                                                                                                                                                               VILA SANTANA                                      13274190SP7225VALINHOS                                                                                                                                                                                                 28000000000000000100000000000000000N                                                                                                                                                                                                                                                                                  F
1F 050552910001391SIAS - SISTEMA DE ASSESSORIA E AUDITORIA EM SEGURANCA DO TRABALHO LTDA                                                                                                                                       022002051600                                                                                                                                2240200205167119704RUA                 PIETRO STOPIGLIA                                            226                                                                                                                                                               PARQUE SANTANA                                    13274260SP7225VALINHOS                                          19  38715735                                                                                                                                           49000000002000000300000000000000000N                                                                                                                                                                                                                                                                                  F
1F 050576300001161GERANIO COMERCIAL LTDA                                                                                                                                GERANIO COMERCIAL                                      082011052501                                                                                                                                2062200205224781400AVENIDA             INDEPENDENCIA                                               80                                                                                                                                                                CENTRO                                            13276030SP7225VALINHOS                                          19  38716211            19  38716211POSTAL&VEIGA@LEXXA.COM.BR                                                                                          49000000000000000162007070120110525N                                                                                                                                                                                                                                                                                  F
1F 050577030001701ELZA FERNANDES-INDAIATUBA                                                                                                                                                                                    022002051400                                                                                                                                2135200205145620104AVENIDA             INDEPENDENCIA                                               1633                                                                                                                                                              JARDIM SAO JORGE                                  13277000SP7225VALINHOS                                          19  38698011            19  38713723contpiva@terra.com.br                                                                                              50000000000000000152007070100000000N                                                                                                                                                                                                                                                                                  F
1F 050590150001491VIDART                                                                                                                                                                                                       032009012218                                                                                                                                3999200106189430800ALAMEDA             ITATINGA                                                    1583                                                                                                                                                              JOAPIRANGA                                        13278480SP7225VALINHOS                                          19  35692385                                                                                                                                           16000000000000000500000000000000000N                                                                                                                                                                                                                                                                                  F
1F 050608220001811W.E.G. IMPRESSORAS LTDA                                                                                                                               W.E.G. IMPRESSORAS                                     022005110300                                                                                                                                2062200205169511800AVENIDA             ONZE DE AGOSTO                                              853                                                                                                                                                               CENTRO                                            13276130SP7225VALINHOS                                          19  38292193                                                                                                                                           49000000000000000100000000000000000N                                                                                                                                                                                                                                                                                  F
1F 050621400001081MAXXI CENTER COMERCIAL LTDA                                                                                                                           MAXXI CENTER                                           082005060101                                                                                                                                2062200204174689399                    HERMINIA OLIVO PAVAN                                        250                                                                                                                                                               PONTE ALTA                                        13276600SP7225VALINHOS                                          19  32673280            19  32673280                                                                                                                   49000000000000000100000000000000000N                                                                                                                                                                                                                                                                                  F
1F 050666490001291N CAMPOS COMERCIO CONFECCOES E BORDADOS LTDA                                                                                                                                                                 082019020601                                                                                                                                2062200204291412601AVENIDA             DOUTOR ALTINO GOUVEIA                                       237                                                                                                                                                               JARDIM PINHEIROS                                  13274350SP7225VALINHOS                                          19  3227091019  3227042219  32270422negrini@lexxa.com.br                                                                                               49000000000000000162007070120161231N                                                                                                                                                                                                                                                                                  F
1F 050708720001401AUTO POSTO MATRA LTDA                                                                                                                                                                                        082016122701                                                                                                                                2062200205274731800ESTRADA             MUNICIPAL                                                   18                                                                                                                                                                ESPIRITO SANTO                                    13270005SP7225VALINHOS                                          19  32552454            19  32552454                                                                                                                   49000000000000000100000000000000000N                                                                                                                                                                                                                                                                                  F
1F 050726120001031MARCOS A. VICENTIM VALINHOS                                                                                                                                                                                  022005100700                                                                                                                                2135200204194686902RUA                 VALDEMAR ALCIDES LOVIZARO                                   59                                                                                                                                                                CHACARAS SILVANIA                                 13271655SP7225VALINHOS                                          19  38691184                        cadastro@pisciotta.com.br                                                                                          50000000000000000152010010100000000N                                                                                                                                                                                                                                                                                  F
1F 050749600001101AXIS - MANUTENCAO DE EQUIPAMENTOS DE INFORMATICA SOCIEDADE SIMPLES LTDA                                                                                                                                      022005110300                                                                                                                                2240200204159511800RUA                 CARLOS PENTEADO STEVENSON                                   1059  CASA 164                                                                                                                                                    JARDIM RECANTO                                    13271510SP7225VALINHOS                                          19  32725747            19  32725747                                                                                                                   49000000000000000152007070100000000N                                                                                                                                                                                                                                                                                  F
1F 050753840001251VANGUARDA REFRATARIOS ESPECIAIS LTDA                                                                                                                                                                         022002052800                                                                                                                                2062200205282341900RUA                 LUIZ CARLOS BRUNELLO                                        407   : 435;                                                                                                                                                      CHACARAS SAO BENTO                                13278074SP7225VALINHOS                                          19  38813588                        VANGUARDA@VANGUARDA.COM.BR                                                                                         49000000040000000500000000000000000N                                                                                                                                                                                                                                                                                  F
1F 050773450001671EKILYBRIUM FARMACIA DE MANIPULACAO LTDA                                                                                                               EKILYBRIUM                                             082011031501                                                                                                                                2062200205224771702RUA                 ANA LEONIZIA DO AMARAL CAMARGO                              91                                                                                                                                                                CENTRO                                            13270150SP7225VALINHOS                                          19  3871621119  3871621119  38718959veigaepostal@veigaepostal.com.br                                                                                   49000000050000000162007070120110315N                                                                                                                                                                                                                                                                                  F
1F 050780780001421C. RAMALHO & FILHOS COMERCIO DE ROUPAS LTDA                                                                                                           CURTINDO A VIDA                                        082004072001                                                                                                                                2062200205294781400RUA                 TREZE DE MAIO                                               156                                                                                                                                                               CENTRO                                            13270020SP7225VALINHOS                                                                                                                                                                                                 49000000000000000500000000000000000N                                                                                                                                                                                                                                                                                  F
1F 050822690001881DIGIMETTA - INDUSTRIA E COMERCIO E SERVICOS DE SINALIZACAO LTDA                                                                                                                                              022005092400                                                                                                                                2062200205093299003RUA                 WALDOMIRO ROSSI                                             104                                                                                                                                                               JD NOVA ESPIRITO SANTO                            13273202SP7225VALINHOS                                          19  3272003719  3273347119  32720037vrcontabil@mpc.com.br                                                                                              49000000010000000152010010100000000N                                                                                                                                                                                                                                                                                  F
1F 050826110001401M. W. TRANSPORTE: FRETAMENTOS E LOCACAO DE VEICULOS LTDA                                                                                              MW                                                     082013120501                                                                                                                                2062200205204929902RUA                 JOSE BARBOSA DE OLIVEIRA                                    12                                                                                                                                                                VL.BOA ESPERANCA                                  13270382SP7225VALINHOS                                          19  38591449                                                                                                                                           49000000050000000100000000000000000N                                                                                                                                                                                                                                                                                  F
1F 050828490001751MARCELO MESTRINER VALINHOS                                                                                                                            MRD INFORMATICA                                        082016011801                                                                                                                                2135200205214751201RUA                 LAZARA DA CRUZ BARBOSA                                      403                                                                                                                                                               VILA NOVA VALINHOS                                13271240SP7225VALINHOS                                          19  38291171                        MRD@BR.INTER.NET                                                                                                   50000000000000000152007070100000000N                                                                                                                                                                                                                                                                                  F
1F 050831930001051ISILDA PURIFICACAO DOS SANTOS CARDOSO                                                                                                                 PIZZERIA CASTELANO                                     022005110300                                                                                                                                2135200205135611201AVENIDA             DOM NERY                                                    668                                                                                                                                                               VILA ANGELINA                                     13271170SP7225VALINHOS                                                                                                                                                                                                 50000000000000000162007070120151231N                                                                                                                                                                                                                                                                                  F
1F 050836190001201TECNOBRONZE LTDA                                                                                                                                                                                             022005110300                                                                                                                                2062200204082452100ESTRADA             DUILIO BELTRAMINI                                           7087  LOTE  CHACARAS SAO BENTO                                                                                                                                    COUNTRY CLUB                                      13278078SP7225VALINHOS                                          11  2059040311  2721511911  20590403                                                                                                                   49000000000000000300000000000000000N                                                                                                                                                                                                                                                                                  F
1F 050861580001401GUSTAVO NERI & CIA. LTDA.                                                                                                                                                                                    082005021101                                                                                                                                2062200205164619200RUA                 CEARA                                                       183                                                                                                                                                               PQ. MONTE VERDE                                   13274090SP7225VALINHOS                                                                                                                                                                                                 49000000000000000500000000000000000N                                                                                                                                                                                                                                                                                  F
1F 050862180001241CASA DA ESFIHA DOM NERY LTDA                                                                                                                          CASA DA ESFIHA DOM NERY                                082008032554                                                                                                                                2062200204225611203RUA                 DOM NERY                                                    933                                                                                                                                                               VILA CASSIA                                       13271170SP7225VALINHOS                                          19  3871621119  3871895919  38716211veigaepostal@veigaepostal.com.br                                                                                   49000000000000000100000000000000000N                                                                                                                                                                                                                                                                                  F
1F 050867180001661MADSEN - ASSISTENCIA TECNICA OPERACIONAL S/C LTDA                                                                                                                                                            082003032801                                                                                                                                2062200205228299799RUA                 CAIEIRAS                                                    56                                                                                                                                                                JARDIM PAULISTA                                   13276350SP7225VALINHOS                                                                                                                                                                                                 49000000000000000500000000000000000N                                                                                                                                                                                                                                                                                  F
1F 050867950001161M. RIBEIRO SERVICOS MEDICOS S/C LTDA                                                                                                                                                                         082009020901                                                                                                                                2240200205248650099RUA                 ANDRE TIENE                                                 123                                                                                                                                                               JARDIM NOVO MUNDO I                               13273040SP7225VALINHOS                                                                                                                                                                                                 28000000000000000100000000000000000N                                                                                                                                                                                                                                                                                  F
1F 050868010001351RUBENILSON SILVEIRA SOARES                                                                                                                            CAMPVEL                                                022005110300                                                                                                                                2135200205234530703AVENIDA             INDEPENDENCIA                                               2023                                                                                                                                                              JD SANTO ANTONIO                                  13277000SP7225VALINHOS                                          19  38541264            19  38541264maristela_borges@uol.com.br                                                                                        50000000000000000152010010100000000N                                                                                                                                                                                                                                                                                  F
