1F 069387700001661MICHELE PALMIERI GIMENEZ                                                                                                                              GIMENEZ REPRESENTACOES                                 082006121501                                                                                                                                2135200408104619200RUA                 CAMPINAS                                                    596                                                                                                                                                               JARDIM IMPERIAL                                   13276065SP7225VALINHOS                                                                                                                                                                                                 50000000000000000500000000000000000N                                                                                                                                                                                                                                                                                  F
1F 069538770001831ELEICOES 2004 CF - NOVA TEBAS - PR - COMITE FINANC MUN P/VEREADOR - PDT                                                                                                                                      082004123101                                                                                                                                3999200408319492800RUA                 GEMA RODRIGUES                                              46                                                                                                                                                                JARDIM SAO PEDRO                                  13270005SP7225VALINHOS                                                                                                                                                                                                 16000000000000000500000000000000000N                                                                                                                                                                                                                                                                                  F
1F 069546600001981TEM CONTABILIDADE EIRELI                                                                                                                                                                                     022004072000                                                                                                                                2313200407206920601RUA                 ANTONIO FIORAVANTI                                          6     SALA  1                                                                                                                                                     RESIDENCIAL SANTA GERTRUDES                       13272791SP7225VALINHOS                                          19  38713334                        PROCESSOS@TEMCONTABILIDADE.COM.BR                                                                                  65000000093700000552009010100000000N                                                                                                                                                                                                                                                                                  F
1F 069586210001691ALCENIR ANGELO MENDES                                                                                                                                 CLASSIC BIJUTERIAS                                     082018111401                                                                                                                                2135200407214789001RUA                 HIGYNO GUILHERME COSTATO                                    384                                                                                                                                                               JD.PINHEIROS                                      13274410SP7225VALINHOS                                          19  38492191            19  38492192clausant@dglnet.com.br                                                                                             50000000000000000162007070120151231N                                                                                                                                                                                                                                                                                  F
1F 069589650001781A.R.DE OLIVEIRA CAMPOS                                                                                                                                BELLAS ARTES METAL DESIGNERS                           082012020301                                                                                                                                2135200408184744001RUA                 CAMPOS SALLES                                               324                                                                                                                                                               SANTA CRUZ                                        13271000SP7225VALINHOS                                                                                                                                                                                                 50000000000000000162007070120120203N                                                                                                                                                                                                                                                                                  F
1F 069595810001701DB SECURITIZACAO DE CREDITOS LTDA.                                                                                                                    DB SECURITIZACAO                                       022004072700                                                                                                                                2062200407276492100RUA                 FIORAVANTE MENEGALDO                                        356   SALA  02                                                                                                                                                    VILA EL AIUB                                      13271115SP7225VALINHOS                                          19  3871055519  38710808            CMARQUES@TEMPUSCONTABIL.COM.BR                                                                                     49000000250000000582007070120130131N                                                                                                                                                                                                                                                                                  F
1F 069601590001341RAMOS JUNIOR INSTALACOES ELETRICAS LTDA                                                                                                               RAMOS JUNIOR                                           042019022763                                                                                                                                2062200408134321500RUA                 TREZE                                                       137                                                                                                                                                               JD SAO MARCOS                                     13272827SP7225VALINHOS                                          19  3871454419  38716525            abolicao@hiway.com.br                                                                                              49000000000000000100000000000000000N                                                                                                                                                                                                                                                                                  F
1F 069601710001491M.B. E MEDEIROS COMERCIO VAREJISTA DE BRINQUEDOS LTDA                                                                                                 PLANET GAMES                                           082016051801                                                                                                                                2062200408164763601RUA                 ANTONIO CARLOS                                              43                                                                                                                                                                CENTRO                                            13270005SP7225VALINHOS                                                                                                                                                                                                 49000000040000000152007070100000000N                                                                                                                                                                                                                                                                                  F
1F 069637660002392MUZAMBA TRANSPORTES LTDA                                                                                                                              MUZAMBA TRANSPORTES                                    082017040701                                                                                                                                2062201005254930202AVENIDA             GESSY LEVER                                                 969                                                                                                                                                               LENHEIRO                                          13272000SP7225VALINHOS                                          19  38497780                        TONHON@TERRA.COM.BR                                                                                                49000000000000000372008010100000000                        00000000                                                                                                                                                                                                                                                   F
1F 069644620001051JORGE P. DA E. ROCHA                                                                                                                                                                                         082005081001                                                                                                                                2135200408115611204ALAMEDA             ITAJUBA                                                     278                                                                                                                                                               DOIS CORREGOS                                     13278530SP7225VALINHOS                                          19  32564854                                                                                                                                           50000000000000000500000000000000000N                                                                                                                                                                                                                                                                                  F
1F 069648690001321V J P TRANSPORTES DE CARGAS LIMITADA                                                                                                                  V J P TRANSPORTES DE CARGAS                            022004081000                                                                                                                                2062200408104930202RUA                 QUATORZE                                                    193                                                                                                                                                               JARDIM SAO MARCOS                                 13272781SP7225VALINHOS                                          019 38695406            019 38497296                                                                                                                   49000000150000000152007070100000000N                                                                                                                                                                                                                                                                                  F
1F 069663170001631RIBEIRAO VERMELHO EMPREENDIMENTOS IMOBILIARIOS LTDA                                                                                                                                                          022004081800                                                                                                                                2062200408184110700RUA                 PAIQUERE                                                    465   CHAC.PIXOXO                                                                                                                                                 JARDIM PAIQUERE                                   13271600SP7225VALINHOS                                                                                                                                                                                                 49000000063000000100000000000000000N                                                                                                                                                                                                                                                                                  F
1F 069665130001381E-BUSINESS SOLUCOES E TECNOLOGIA LTDA                                                                                                                                                                        082006031501                                                                                                                                2062200408186209100AVENIDA             ONZE DE AGOSTO                                              736   SL.23 - ED.HORTENCIA                                                                                                                                        CENTRO                                            13276130SP7225VALINHOS                                                                                                                                                                                                 49000000000000000500000000000000000N                                                                                                                                                                                                                                                                                  F
1F 069672550001041JOSE LUIZ GIOPATO                                                                                                                                                                                            042018121863                                                                                                                                2135200408205611204RUA                 JOSE AVANCI                                                 28                                                                                                                                                                JD. ALTO DA COLINA                                13272306SP7225VALINHOS                                                                                                                                                                                                 50000000000000000162007070120081231N                                                                                                                                                                                                                                                                                  F
1F 069690010001251SR CONSULTORIA EMPRESARIAL LTDA                                                                                                                                                                              082009061001                                                                                                                                2062200408107020400RUA                 EMILIO ROMANETTI                                            13                                                                                                                                                                VILLAGE V ITAMARACA                               13278352SP7225VALINHOS                                          11  45878173                                                                                                                                           49000000000000000100000000000000000N                                                                                                                                                                                                                                                                                  F
1F 069701840001071ABSOLUTA SERVICOS DE APOIO ADMINISTRATIVO LTDA                                                                                                                                                               022004081100                                                                                                                                2062200408118211300RUA                 THOMAZ ANTONIO GONZAGA                                      25                                                                                                                                                                VILA PAPELAO                                      13276145SP7225VALINHOS                                          19  38696100                        CARLAPES@TERRA.COM.BR                                                                                              49000000003000000152011010100000000N                                                                                                                                                                                                                                                                                  F
1F 069707480001011MARIA ROSA PEREIRA OLIVEIRA                                                                                                                           ART E MODA - AVIAMENTOS EM GERAL                       022004080300                                                                                                                                2135200408034755502AVENIDA             MARIO FRANCO DE CAMARGO                                     12    QUADRA 21;LOTE 02 A                                                                                                                                         JARDIM SAO LUIZ                                   13272712SP7225VALINHOS                                          01  38710882            019 38710882allony@uol.com.br                                                                                                  50000000010000000152007070100000000S                                                                                                                                                                                                                                                                                  F
1F 069718620001481EDIFICIO PLATANO                                                                                                                                      EDIFICIO PLATANO                                       022004072700                                                                                                                                3085200407278112500RUA                 ANTONIA MOLINA  GUAIUME                                     59                                                                                                                                                                JARDIM PACAEMBU                                   13277730SP7225VALINHOS                                          19  38490727            19  38495449                                                                                                                   19000000000000000500000000000000000N                                                                                                                                                                                                                                                                                  F
1F 069737530001601LIMA & TEIXEIRA REPRESENTACOES COMERCIAIS LTDA                                                                                                                                                               082010122001                                                                                                                                2062200408304618499RUA                 LUIZ JOSE JULIATTO                                          36                                                                                                                                                                VILA GENOVEVA                                     13277411SP7225VALINHOS                                          19  3869338819  3869396619  38492712contabilidade@anselmietrovatti.com.br                                                                              49000000000000000162007070120100731N                                                                                                                                                                                                                                                                                  F
1F 069768210001441FAMA INDUSTRIA E COMERCIO DE FACAS DE CORTE E VINCO LTDA                                                                                                                                                     022004083000                                                                                                                                2062200408301629301RUA                 ANTONIO MOYSES                                              376                                                                                                                                                               VILA PAGANO                                       13277240SP7225VALINHOS                                          019 38710205            019 38710009                                                                                                                   49000000060000000162007070120151231N                                                                                                                                                                                                                                                                                  F
1F 069781230001881WP SERVICOS ADMINISTRATIVOS VALINHOS EIRELI                                                                                                                                                                  022004081900                                                                                                                                2305200408198211300RUA                 PAIQUERE                                                    1289  CASA  81                                                                                                                                                    JARDIM PAIQUERE                                   13271600SP7225VALINHOS                                          19  3871621119  3871895919  38716211PALARO@WPGAS.COM.BR                                                                                                65000000100000000352007070100000000N                                                                                                                                                                                                                                                                                  F
1F 069782990001301BDF EMPREENDIMENTOS IMOBILIARIOS LTDA                                                                                                                                                                        082005120201                                                                                                                                2062200409014110700RUA                 CARMELINA PREVITALE PERA                                    104   SALA 5                                                                                                                                                      JARDIM RIBEIRO                                    13270185SP7225VALINHOS                                                                                                                                                                                                 49000000000000000500000000000000000N                                                                                                                                                                                                                                                                                  F
1F 069794440001051VALICAO COMERCIO DE PRODUTOS AGRO-PECUARIOS LTDA                                                                                                      VALICAO                                                082016110301                                                                                                                                2062200409034789004RUA                 VEREADOR FERNANDO SPADACCIA                                 6     LOJA 2                                                                                                                                                      JD. DAS PALMEIRAS                                 13273062SP7225VALINHOS                                          019 32770434            019 32770434                                                                                                                   49000000000000000100000000000000000N                                                                                                                                                                                                                                                                                  F
1F 069794670001011R.J.BERMUDES                                                                                                                                          FRUTOS DA TERRA ESPECIARIAS E ALIMENTOS                082005111601                                                                                                                                2135200409034712100RUA                 XV DE NOVEMBRO                                              179   SALA 2                                                                                                                                                      CENTRO                                            13270130SP7225VALINHOS                                                                                                                                                                                                 50000000000000000500000000000000000N                                                                                                                                                                                                                                                                                  F
1F 069796020001191ARTEFLEXO DO BRASIL - CLICHES ESPECIAIS LTDA                                                                                                          ARTEFLEXO                                              042018092563                                                                                                                                2062200409011821100AVENIDA             INDEPENDENCIA                                               1901  LOTEAMENTO                                                                                                                                                  SANTA MARINA                                      13274350SP7225VALINHOS                                          19  38715062            19  38711742                                                                                                                   49000000010000000562007070120081231N                                                                                                                                                                                                                                                                                  F
1F 069800580001251ASSOCIACAO DA TERCEIRA IDADE DE VALINHOS                                                                                                                                                                     022004082600                                                                                                                                3999200408269430800RUA                 ANTONIO CARLOS                                              474                                                                                                                                                               CENTRO                                            13270005SP7225VALINHOS                                          19  38716211            19  38716211CONTATO@BERTONIEOLIVEIRA.COM.BR                                                                                    16000000000000000500000000000000000N                                                                                                                                                                                                                                                                                  F
1F 069813400001271REGINA SATIKO YOSHIKAWA CATALANO                                                                                                                      AM VEICULOS                                            082005112501                                                                                                                                2135200409084511102RODOVIA             MUNICIPAL DOS ANDRADAS                                      3190                                                                                                                                                              SUB. ATILIO GARBUI                                13277650SP7225VALINHOS                                          19  38716211            19  38716211veigaepostal@veigaepostal.com.br                                                                                   50000000000000000500000000000000000N                                                                                                                                                                                                                                                                                  F
1F 069813750001661COMERCIAL BANDEIRANTES DE PNEUS E RODAS LTDA                                                                                                          COMERCIAL BANDEIRANTES                                 022004082500                                                                                                                                2062200408254530703RUA                 WALDEMAR SALVERI                                            114                                                                                                                                                               VALE VERDE                                        13279015SP7225VALINHOS                                                                                                                                                                                                 49000000000000000162009010120101231N                                                                                                                                                                                                                                                                                  F
1F 069846770001981MARIA SALOME DE SIQUEIRA PEQUENO                                                                                                                      STUDIO S                                               082008020754                                                                                                                                2135200408234781400RUA                 PAIQUERE                                                    1336                                                                                                                                                              JARDIM PAIQUERE                                   13271600SP7225VALINHOS                                          11  9969201919  3869338819  38492712contabilidade@anselmietrovatti.com.br                                                                              50000000000000000162007070120080207N                                                                                                                                                                                                                                                                                  F
1F 069863460002782JERVECE MAZETTO                                                                                                                                       LOCAGUINCHO                                            022011080300                                                                                                                                2135201108037719599AVENIDA             GESSY LEVER                                                 915   CASA  76                                                                                                                                                    BAIRRO LENHEIRO                                   13272000SP7225VALINHOS                                          19  3849693119  3849693119  38591382chileno.fiscal@hotmail.com                                                                                         50000000000000000172018010100000000                        00000000                                                                                                                                                                                                                                                   F
1F 069875550001551FONTE SANTA TEREZA EMPREENDIMENTOS E PARTICIPACOES LTDA.                                                                                                                                                     082016020301                                                                                                                                2062200408096810201RUA                 DOZE DE OUTUBRO                                             650   SALA  1                                                                                                                                                     VILA SANTANA                                      13274125SP7225VALINHOS                                          19  38696524                                                                                                                                           49000000000000000500000000000000000N                                                                                                                                                                                                                                                                                  F
1F 069893140001451CONDOMINIO RESIDENCIAL VILA BRASILIANA                                                                                                                CONDOMINIO RESIDENCIAL VILA BRASILIANA                 022004080700                                                                                                                                3085200408078112500RUA                 ADHEMAR DE BARROS                                           703                                                                                                                                                               JARDIM PAIQUERE                                   13270600SP7225VALINHOS                                          019 38696644            019 38696644visaoimobiliaria@visaoimobiliaria.com.br                                                                           19000000000000000500000000000000000N                                                                                                                                                                                                                                                                                  F
1F 069893280001691CONDOMINIO EDIFICIO ARAUCARIA                                                                                                                         CONDOMINIO EDIFICIO ARAUCARIA                          022004041500                                                                                                                                3085200404158112500RUA                 GUILHERME MAMPRIM                                           845                                                                                                                                                               JD PINHEIROS                                      13274450SP7225VALINHOS                                          019 38696644            019 38696644visaoimobiliaria@visaoimobiliaria.com.br                                                                           19000000000000000500000000000000000N                                                                                                                                                                                                                                                                                  F
1F 069893450001041IMAGEM E COR INDUSTRIA E COMERCIO DE CLICHES E MATRIZES LTDA                                                                                                                                                 022004081800                                                                                                                                2062200408182869100RUA                 JOAQUIM DA SILVA MOREIRA                                    116         96-B                                                                                                                                                  JARDIM PINHEIROS                                  13274310SP7225VALINHOS                                          19  38499060            19  38499060paulocesar@clicherlux.com.br                                                                                       49000000012000000562007070120151231N                                                                                                                                                                                                                                                                                  F
1F 069916790003762GBR COMERCIO DE COSMETICOS LTDA                                                                                                                       HAIR COMPANY                                           022011061500                                                                                                                                2062201106159602501RUA                 LUIZ SPIANDORELLI NETO (LULA)                               161         LUC 26                    SHOPPING VALINHOS                                                                                                           LOTEAMENTO PAIQUERE                               13271570SP7225VALINHOS                                          19  3836604019  3836604019  38366040modelo@sider.net                                                                                                   49000000000000000172007070100000000                        00000000                                                                                                                                                                                                                                                   F
1F 069919890001291FERREIRA & BALTAZAR VIDEO-LOCADORA LTDA                                                                                                                                                                      022004082400                                                                                                                                2062200408247722500RUA                 DOZE DE OUTUBRO                                             759                                                                                                                                                               SANTANA                                           13274125SP7225VALINHOS                                                                                                                                                                                                 49000000005000000162007070120181231N                                                                                                                                                                                                                                                                                  F
1F 069966960001341FORWARD EMPREENDIMENTOS EIRELI                                                                                                                                                                               022004082400                                                                                                                                2305200408246462000RUA                 DOUTOR FERNANDO LEITE FERRAZ                                444                                                                                                                                                               PARQUE TERRANOVA                                  13270640SP7225VALINHOS                                          19  96066114            19  38912372RODRIGO@PACCKSEVEN.COM.BR                                                                                          65000000800000000500000000000000000N                                                                                                                                                                                                                                                                                  F
1F 069991350001991VALVERDE AGRO-AMBIENTAL LTDA.                                                                                                                         VALVERDE AGRO-AMBIENTAL                                022004090900                                                                                                                                2062200409097112000RUA                 NICOLAU VINICIUS PARODI                                     660                                                                                                                                                               PQ. MONTE VERDE                                   13275052SP7225VALINHOS                                          19  38591727                        AEM_BRUNELLO@HOTMAIL.COM                                                                                           49000000020000000500000000000000000N                                                                                                                                                                                                                                                                                  F
1F 069993260001501SPI INDUSTRIA E COMERCIO DE PRODUTOS AUTOMOTIVOS LTDA                                                                                                                                                        022012010600                                                                                                                                2062200408092945000AVENIDA             BENJAMIN DE PAULA FRANCA                                    604   SALA  03                                                                                                                                                    VALE VERDE                                        13279074SP7225VALINHOS                                          19  3885208119  3885208119  38852081excel.1@terra.com.br                                                                                               49000000050000000500000000000000000N                                                                                                                                                                                                                                                                                  F
1F 069993710001051NYX FITNESS INDUSTRIA E COMERCIO DE EQUIPAMENTOS PARA MUSCULACAO LTDA                                                                                 NYX FITNESS                                            042018121863                                                                                                                                2062200409082593400AVENIDA             DR. ALTINO GOUVEIA                                          237                                                                                                                                                               JD PINHEIROS                                      13274350SP7225VALINHOS                                                                                                                                                                                                 49000000000000000500000000000000000N                                                                                                                                                                                                                                                                                  F
1F 070000240001901MARINEL VARIEDADES NACIONAIS E IMPORTADOS LTDA                                                                                                                                                               082015020973                                                                                                                                2062200404194729699RUA                 DAS GARDENIAS                                               185                                                                                                                                                               JD. PARAISO                                       13273350SP7225VALINHOS                                                                                                                                                                                                 49000000000000000500000000000000000N                                                                                                                                                                                                                                                                                  F
1F 070017760001751RESIDENCIAL MOINHO VELHO EMPREENDIMENTOS IMOBILIARIOS LTDA                                                                                                                                                   022004091400                                                                                                                                2062200409146810203RUA                 PEDRO LEARDINI                                              442                                                                                                                                                               CH.SILVANIA                                       13271651SP7225VALINHOS                                                                                                                                                                                                 05000001250000000500000000000000000N                                                                                                                                                                                                                                                                                  F
1F 070044910001981ATW AGENCIA DE VIAGENS E TURISMO LTDA                                                                                                                 WTA DE VINHEDO                                         042018121863                                                                                                                                2062200409097911200AVENIDA             ONZE DE AGOSTO                                              514   SALA 02                                                                                                                                                     VILA  CLAYTON                                     13276130SP7225VALINHOS                                                                                                                                                                                                 49000000000000000100000000000000000N                                                                                                                                                                                                                                                                                  F
1F 070049810001941CONDOMINIO EDIFICIO JEQUITIBA                                                                                                                         CONDOMINIO EDIFICIO JEQUITIBA                          022004080200                                                                                                                                3085200408028112500RUA                 ANTONIA MOLINA GUAIUME                                      13    LOTE 5 A - QUADRA B                                                                                                                                         JARDIM PACAEMBU                                   13277730SP7225VALINHOS                                          19  21038450            019 38696644ANAKEL@ANAKEL.COM.BR                                                                                               19000000000000000500000000000000000N                                                                                                                                                                                                                                                                                  F
1F 070050170001801THIAGO SCHVAGER ROVATTI PEDRAS                                                                                                                                                                               022004091400                                                                                                                                2135200409144744005AVENIDA             INDEPENDENCIA                                               1830                                                                                                                                                              VILA PAGANO                                       13277000SP7225VALINHOS                                                                                                                                                                                                 50000000000000000152015010100000000N                                                                                                                                                                                                                                                                                  F
1F 070092220001141MAGALI ORTEGA CHELINI SOLUCOES EM ENSINO LTDA                                                                                                                                                                082007053101                                                                                                                                2062200406098599699RUA                 BARAO DE MAUA                                               563                                                                                                                                                               CENTRO                                            13276080SP7225VALINHOS                                                                                                                                                                                                 49000000000000000100000000000000000N                                                                                                                                                                                                                                                                                  F
1F 070128990001011AGNUS-DEI MATERIAIS ELETRICOS E ELETRONICOS LTDA                                                                                                                                                             082012030601                                                                                                                                2062200408234753900RUA                 CAMPINAS                                                    59    SALA 3                                                                                                                                                      JARDIM PLANALTO                                   13276065SP7225VALINHOS                                          19  3871621119  3871895919  38716211veigaepostal@veigaepostal.com.br                                                                                   49000000000000000162008010120120306N                                                                                                                                                                                                                                                                                  F
1F 070138350001251A.C.NAKANO                                                                                                                                                                                                   082010081301                                                                                                                                2135200409176399200RUA                 JOSE LAZARETTI                                              25                                                                                                                                                                JD.DOS MANACAS                                    13273090SP7225VALINHOS                                                                                                                                                                                                 50000000000000000162007070120100813N                                                                                                                                                                                                                                                                                  F
1F 070155370001741VIVACAR VEICULOS E MOTORES LTDA                                                                                                                                                                              032015012621                                                                                                                                2062200409014511103RUA                 JOAO PREVITALLI                                             70                                                                                                                                                                VILA GESSY                                        13272400SP7225VALINHOS                                                                                                                                                                                                 49000000000000000100000000000000000N                                                                                                                                                                                                                                                                                  F
1F 070157100001341CRISTIANO DE SOUZA PASTELARIA                                                                                                                                                                                082015020973                                                                                                                                2135200409155611203RUA                 SUMARE                                                      105                                                                                                                                                               VILA SAO CRISTOVAO                                13276490SP7225VALINHOS                                                                                                                                                                                                 50000000000000000500000000000000000N                                                                                                                                                                                                                                                                                  F
1F 070157810001371G.F.C. EMPREENDIMENTOS IMOBILIARIOS LTDA                                                                                                                                                                     022004092100                                                                                                                                2062200409214110700AVENIDA             INDEPENDENCIA                                               748                                                                                                                                                               JARDIM BELA VISTA                                 13276030SP7225VALINHOS                                                                                                                                                                                                 49000000200000000100000000000000000N                                                                                                                                                                                                                                                                                  F
1F 070163340001001SOLUCAO NATURAL TELEMARKETING LTDA                                                                                                                    SOLUCAO NATURAL                                        042018121863                                                                                                                                2062200405288220200RUA                 SANTAREM                                                    359                                                                                                                                                               PARQUE PORTUGAL                                   13273266SP7225VALINHOS                                                                                                                                                                                                 49000000000000000500000000000000000N                                                                                                                                                                                                                                                                                  F
1F 070164680001131GISELE MARIA DOS SANTOS REFEICOES                                                                                                                                                                            042018121863                                                                                                                                2135200409145620101RUA                 ANGELO BARBISAN                                             405                                                                                                                                                               JD MARACANA                                       13277590SP7225VALINHOS                                                                                                                                                                                                 50000000000000000100000000000000000N                                                                                                                                                                                                                                                                                  F
1F 070165860001211CLEONICE CARVALHO DA SILVA                                                                                                                                                                                   042018121863                                                                                                                                2135200409215611203RUA                 DEZ                                                         S/N                                                                                                                                                               JD. SAMAMBAIA                                     13272758SP7225VALINHOS                                          019 38715312            019 38715312                                                                                                                   50000000000000000100000000000000000N                                                                                                                                                                                                                                                                                  F
1F 070169920001941JOAO VICENTE DONIZETE PEREIRA                                                                                                                                                                                082007102901                                                                                                                                2135200409154712100RUA                 ULISSES PEDROSO DE OLIVEIRA FILHO                           338   SALA 02                                                                                                                                                     RES. SAO LUIZ                                     13270400SP7225VALINHOS                                          19  38765756            19  38761786contabilsaoluis@uol.com.br                                                                                         50000000000000000162007070120071029N                                                                                                                                                                                                                                                                                  F
1F 070192700001931AUTO POSTO KAPRI LTDA.                                                                                                                                AUTO POSTO KAPRI                                       022004091000                                                                                                                                2062200409104731800RUA                 DON NERY                                                    926                                                                                                                                                               AR ANTONIO BISSOTO                                13271170SP7225VALINHOS                                          11  23482359                        SOCIETARIO@MSCHMIDTCONTABIL.COM.BR                                                                                 49000000202000000500000000000000000N                                                                                                                                                                                                                                                                                  F
1F 070192790003662R.M.A.F. WAKIZAKA                                                                                                                                     PHOTOCELL                                              022005103100                                                                                                                                2135200510314752100RUA                 ANTONIO CARLOS                                              117                                                                                                                                                               CENTRO                                            13270005SP7225VALINHOS                                          19  38732677            19  38732677fortesproc@uol.com.br                                                                                              50000000000000000152009010100000000                        00000000                                                                                                                                                                                                                                                   F
1F 070202050001881HEPTA SERVICOS AUXILIARES DE ESCRITORIO LTDA                                                                                                          HEPTA                                                  022004091400                                                                                                                                2062200409148211300RUA                 GENERAL OSORIO                                              658                                                                                                                                                               VILA NOVA VALINHOS                                13271130SP7225VALINHOS                                                                                                                                                                                                 49000000003600000152007070100000000N                                                                                                                                                                                                                                                                                  F
1F 070202790001141VISION WORLD TELECON ELETRONICOS LTDA                                                                                                                 MICHIGAN DO BRASIL                                     022004092200                                                                                                                                2062200409224651601ESTRADA             DUILIO BELTRAMINI                                           7451                                                                                                                                                              CHACARAS SAO BENTO                                13278078SP7225VALINHOS                                          19  38715062                        ESCRITORIOINDEPENDENCIA@UOL.COM.BR                                                                                 49000000110000000162018010120181231N                                                                                                                                                                                                                                                                                  F
1F 070208910001971CAROLINA CAMOLEZI CONSTRUCOES LTDA                                                                                                                    CAROLINA CAMOLEZI CONSTRUCOES                          022004092200                                                                                                                                2062200409224744099RUA                 GERVASIO JOSE MARCHIORI                                     251                                                                                                                                                               NOVA VALINHOS                                     13271300SP7225VALINHOS                                          19  3871621119  3871895919  38716211veigaepostal@veigaepostal.com.br                                                                                   49000000001000000162011010120151231N                                                                                                                                                                                                                                                                                  F
1F 070234340001561ERIKA SUNIGA DE OLIVEIRA                                                                                                                              APICE ARTES GRAFICAS                                   032015012621                                                                                                                                2135200409171813099RUA                 ALEXANDRE HUMBERTO MOLETTA                                  609                                                                                                                                                               JARDIM PINHEIROS                                  13274340SP7225VALINHOS                                                                                                                                                                                                 50000000000000000100000000000000000N                                                                                                                                                                                                                                                                                  F
1F 070235510001101CALHEIRANA COMERCIO DE VIDROS LTDA                                                                                                                    VIDRO BOX & CIA                                        022004091600                                                                                                                                2062200409164744005AVENIDA             DOS ESPORTES                                                423   SALA 1 TERREO                                                                                                                                               VILA BISSOTO                                      13270210SP7225VALINHOS                                          19  3869620019  38292147            junior@hlpcontabilidade.com.br                                                                                     49000000003000000162007070120081231N                                                                                                                                                                                                                                                                                  F
1F 070252180001401ANTONIA OLIVEIRA DA CUNHA                                                                                                                             BAZAR PREDILETO                                        022004092100                                                                                                                                2135200409214713002AVENIDA             PRESIDENTE TANCREDO NEVES                                   123                                                                                                                                                               PARQUE DAS COLINAS                                13273610SP7225VALINHOS                                          19  3829548819  9232302219  38295488CONTABILIDADE@ANSELMIETROVATTI.COM.BR                                                                              50000000000000000152007070100000000N                                                                                                                                                                                                                                                                                  F
1F 070267930001671CARLOS ROBERTO TOFOLO                                                                                                                                                                                        042018121863                                                                                                                                2135200409165611203ALAMEDA             MARIANA PRUDENTE CORREA                                     240                                                                                                                                                               SAO BENTO                                         13278064SP7225VALINHOS                                          19  3871174219  38715062            escritorioindependencia@uol.com.br                                                                                 50000000000000000162007070120080101N                                                                                                                                                                                                                                                                                  F
1F 070273440001331A. DE O. VILELA BEBEDOUROS                                                                                                                            DISTRIBUDORA VALINHENSE                                082006110101                                                                                                                                2135200409144669999RUA                 ISAURA APARECIDA O.BARBOSA TERINE                           221   JD ITAPUA                                                                                                                                                   CECAP                                             13273105SP7225VALINHOS                                                                                                                                                                                                 50000000000000000500000000000000000N                                                                                                                                                                                                                                                                                  F
1F 070286030004932PRO-FORMULA QUIMIOTERAPICA LTDA                                                                                                                                                                              022016082200                                                                                                                                2062201608224771702RUA                 BARTOLOMEU BUENO DA SILVA (PORTAL DO ANHANGUERA)            433         457 E 477           COND  PORTAL ANHANGUERA                                                                                                           MACUCO                                            13279392SP7225VALINHOS                                          11  50546499                        MARICI@PROFORMULA.COM.BR                                                                                           49000000000000000500000000000000000                        00000000                                                                                                                                                                                                                                                   F
1F 070346260001681LE VILLAGE EMPREENDIMENTOS IMOBILIARIOS LTDA.                                                                                                                                                                022004092300                                                                                                                                2062200409234110700RUA                 ANTONIO JOSE BUTIGNOL                                       108   SALA 4                                                                                                                                                      CENTRO                                            13270170SP7225VALINHOS                                          019 38692600            019 38692600                                                                                                                   49000000000000000500000000000000000N                                                                                                                                                                                                                                                                                  F
1F 070352510001501BR JUNIOR COMERCIO DE MATERIAIS DE SEGURANCA E SERVICOS DE PORTARIA E LIMPEZA LTDA                                                                    VIG PORT LTDA EPP                                      022004093000                                                                                                                                2062200409304752100RUA                 ROMANO BALDIN                                               201   SALA  01                                                                                                                                                    JARDIM SAO FELIPE                                 13274030SP7225VALINHOS                                          19  38492191            19  38492192DPCLAUSANT@DGLNET.COM.BR                                                                                           49000000005000000352007070100000000N                                                                                                                                                                                                                                                                                  F
1F 070353590001431S R TURCATTI                                                                                                                                          ACONCHEGO COLCHOES                                     082012101854                                                                                                                                2135200410044754702AVENIDA             BENJAMIN DE PAULA FRANCA                                    1138                                                                                                                                                              VALE VERDE                                        13279173SP7225VALINHOS                                          19  32333903                        gemama@ig.com.br                                                                                                   50000000015000000162007070120121018N                                                                                                                                                                                                                                                                                  F
1F 070361910001901TRANSFORMA CENTRO DE BELEZA LTDA                                                                                                                      TRANSFORMA CENTRO DE BELEZA                            082008012901                                                                                                                                2062200408239602502RUA                 PAIQUERE                                                    1560  SALA 2                                                                                                                                                      JD.PAIQUERE                                       13271600SP7225VALINHOS                                          19  38691477                                                                                                                                           49000000000000000162008010120080129N                                                                                                                                                                                                                                                                                  F
1F 070380050001521CLINICA MEDICA CARVALHO & NASSER LTDA                                                                                                                                                                        022004100500                                                                                                                                2240200410058630503RUA                 NILO TORDIN                                                 850                                                                                                                                                               RESIDENCIAL FAZENDA SAO JOSE                      13278141SP7225VALINHOS                                          19  38695022            19  38695022mariadocarmo.fazani@escritoriofazani.com.br                                                                        49000000005000000100000000000000000N                                                                                                                                                                                                                                                                                  F
1F 070382780001051BASSANI & DANTAS CONSULTORIA LTDA.                                                                                                                                                                           022004081100                                                                                                                                2240200408117490101RUA                 PAULO PRADO                                                 576                                                                                                                                                               VILA GENOVEVA                                     13277410SP7225VALINHOS                                          19  38293989                        tbd@uol.com.br                                                                                                     49000000000000000100000000000000000N                                                                                                                                                                                                                                                                                  F
1F 070388670001851CERON & AMARAL LTDA                                                                                                                                   CRISTAL PRESENTES                                      082015030301                                                                                                                                2062200409244713002RUA                 ANTONIO CARLOS                                              43                                                                                                                                                                CENTRO                                            13270005SP7225VALINHOS                                          019 38497777                                                                                                                                           49000000000000000162007070120150303N                                                                                                                                                                                                                                                                                  F
1F 070402370001451J. L. TORDIN SERVICOS DE INFORMATICA LTDA                                                                                                                                                                    022004082000                                                                                                                                2062200408209511800RUA                 GUILHERME OLIVO                                             522                                                                                                                                                               PARQUE TERRANOVA                                  13270710SP7225VALINHOS                                          19  3871531219  38696287            valtriani@superig.com.br                                                                                           49000000000000000152007070100000000N                                                                                                                                                                                                                                                                                  F
1F 070405180001061DAMASIO & PREVITALLI LANCHONETE LTDA                                                                                                                  BIROSKA LANCHONETE                                     022004100600                                                                                                                                2062200410065611203RUA                 CLARK                                                       2061  AREA DE LAZER                                                                                                                                               MACUCO                                            13279900SP7225VALINHOS                                                                                                                                                                                                 49000000000000000152007070100000000N                                                                                                                                                                                                                                                                                  F
1F 070411100001401ELITE ENGENHARIA LTDA                                                                                                                                 ELITE                                                  022004090800                                                                                                                                2062200409087112000VIA                 MARGINAL A RUA OROZIMBO MAIA                                876   FUNDOS                                                                                                                                                      SANTANA                                           13274000SP7225VALINHOS                                          19  34068804                        t2brasil@terra.com.br                                                                                              49000000020000000100000000000000000N                                                                                                                                                                                                                                                                                  F
1F 070416360001201VALINHOS EMPREENDIMENTOS IMOBILIARIOS LTDA                                                                                                                                                                   022004092900                                                                                                                                2062200409296810201RUA                 ANTONIO CARLOS                                              68    SALA  03                                                                                                                                                    CENTRO                                            13270005SP7225VALINHOS                                          19  38692566                        escrbissoto@terra.com.br                                                                                           49000000030000000500000000000000000N                                                                                                                                                                                                                                                                                  F
1F 070430460001371ESTHER MARINA BONK PALMA                                                                                                                              BONK PALMA                                             042018121863                                                                                                                                2135200409274672900RUA                 SAO PAULO                                                   467   SALA B                                                                                                                                                      VILA SANTANA                                      13274115SP7225VALINHOS                                                                                                                                                                                                 50000000000000000162007070120121231N                                                                                                                                                                                                                                                                                  F
1F 070436900001051RODOLFO LUIZ FERREIRA                                                                                                                                 PADRAO PNEUS & SERVICOS AUTOMOTIVOS                    022004101300                                                                                                                                2135200410134520006RUA                 CAMPOS SALLES                                               902                                                                                                                                                               VILA CORVINI                                      13272350SP7225VALINHOS                                          19  38716211            19  38716211veigaepostal@veigaepostal.com.br                                                                                   50000000000000000352007070100000000N                                                                                                                                                                                                                                                                                  F
1F 070447340001111CELSO EDUARDO JOSE GIARDELLO                                                                                                                          AGROPECUARIA SANTANA                                   042018092563                                                                                                                                2135200410084789004RUA                 MINAS GERAIS                                                200                                                                                                                                                               JARDIM CELANI                                     13274080SP7225VALINHOS                                          19  38711167                        ecr@ecr.srv.br                                                                                                     50000000000000000162007070120081231N                                                                                                                                                                                                                                                                                  F
1F 070447740001631DAVANTI TECNOLOGIA DA INFORMACAO LTDA                                                                                                                                                                        082015020973                                                                                                                                2062200410086204000RUA                 ORLANDO MARRONI                                             11    APTO 94                                                                                                                                                     ALTO BOA VISTA                                    13272101SP7225VALINHOS                                          19  32349215            19  32349215                                                                                                                   49000000000000000100000000000000000N                                                                                                                                                                                                                                                                                  F
1F 070454350001001CLAUDEMIR VICENTIN BICICLETARIA                                                                                                                       BICICLETARIA BARAO BIKE                                082006110801                                                                                                                                2135200410044763603RUA                 JOSE CARLOS FERRARI                                         54                                                                                                                                                                RESID. SANTA MARIA                                13272810SP7225VALINHOS                                          19  38716211            19  38716211veigaepostal@veigaepostal.com.br                                                                                   50000000000000000100000000000000000N                                                                                                                                                                                                                                                                                  F
1F 070471630001791NACARATO & JUNQUEIRA LTDA.                                                                                                                            STUDIO 54                                              082015020973                                                                                                                                2062200410077020400ALAMEDA             JOAO MENDES JUNIOR                                          436                                                                                                                                                               VALE DO ITAMARACA                                 13278043SP7225VALINHOS                                                                                                                                                                                                 49000000000000000500000000000000000N                                                                                                                                                                                                                                                                                  F
