1F 084085250001721VIDENCE FUNILARIA E PINTURA LTDA                                                                                                                      VIDENCE                                                022006092700                                                                                                                                2062200609274520001RUA                 GUILHERME MAMPRIM                                           1351                                                                                                                                                              JARDIM PINHEIROS                                  13274450SP7225VALINHOS                                          19  3871621119  3871895919  38716211VIDENCEFUNILARIAPINTURA@GMAIL.COM                                                                                  49000000020000000152019010100000000N                                                                                                                                                                                                                                                                                  F
1F 084091030001111C. LOPES & LOPES LIMITADA                                                                                                                             ASL EVENTOS                                            022006103100                                                                                                                                2062200610314756300RUA                 GABRIEL GIARDELLI                                           54                                                                                                                                                                JARDIM NOVO MUNDO                                 13273031SP7225VALINHOS                                          19  3871621119  3871895919  38716211CLAUDINEI@ASLEVENTOS.COM.BR                                                                                        49000000010000000152007070100000000N                                                                                                                                                                                                                                                                                  F
1F 084100970001121OLE BRASIL SOCIETY QUADRA ESPORTIVA LIMITADA                                                                                                          OLE BRASIL                                             022006102000                                                                                                                                2062200610205611203AVENIDA             ROSA BELMIRO RAMOS                                          730   CHAC.BERNARDI                                                                                                                                               JARDIM SAO PEDRO                                  13275400SP7225VALINHOS                                          19  38710523                        FERNANDO@OLEBRASILSOCETY.COM.BR                                                                                    49000000100000000152007070100000000N                                                                                                                                                                                                                                                                                  F
1F 084125820001251AMARO ROCCO AUTOMODELISMO DE FENDA LTDA                                                                                                                                                                      022006102400                                                                                                                                2062200610247721700RUA                 JULIO SPIANDORELLI                                          228                                                                                                                                                               SANTA MARINA                                      13277116SP7225VALINHOS                                          19  38480554            19  38764490ROCCORACEWAY@UOL.COM.BR                                                                                            49000000010000000172007070100000000N                                                                                                                                                                                                                                                                                  F
1F 084162370001601DIANA FERREIRA DA SILVA PASTELARIA                                                                                                                                                                           022006092600                                                                                                                                2135200609265611203RUA                 DOUTOR CANDIDO FERREIRA                                     163   SALA 01                                                                                                                                                     CENTRO                                            13270040SP7225VALINHOS                                          19  38497000                        contsenador@hotmail.com                                                                                            50000000010000000152007070100000000N                                                                                                                                                                                                                                                                                  F
1F 084194080001041EDIFICIO CABREUVA                                                                                                                                     EDIFICIO CABREUVA                                      022004110800                                                                                                                                3085200411088112500RUA                 DOIS                                                        64                                                                                                                                                                PONTE ALTA                                        13277653SP7225VALINHOS                                          19  32320711                        chpadm@mpcnet.com.br                                                                                               19000000000000000500000000000000000N                                                                                                                                                                                                                                                                                  F
1F 084194440001781PRAGMA CONSULTING ASSESSORIA E CONSULTORIA EIRELI                                                                                                     PRAGMA CONSULTING                                      022006102700                                                                                                                                2305200610277020400ESTRADA MUNICIPAL   DO RONCAGLIA                                                370         C. SAO JOAQUIM                                                                                                                                        RONCAGLIA                                         13272721SP7225VALINHOS                                          19  38003500            19  38671344FISCAL@PRAGMAWORLD.NET                                                                                             65000000120000000562007070120110531N                                                                                                                                                                                                                                                                                  F
1F 084195440001021DUSOLINA GRAPEIA GAGLIOLI E OUTROS                                                                                                                                                                           022006091800                                                                                                                                4120200609180133404ESTRADA             HUM                                                         362   SITIO SAO PEDRO                                                                                                                                             CONTRY CLUB                                       13278041SP7225VALINHOS                                          19  3846970419  3876104619  38761046sindvinhedo.rural@superig.com.br                                                                                   59000000000000000500000000000000000N                                                                                                                                                                                                                                                                                  F
1F 084202410001001RPSO PARTICIPACOES SOCIETARIAS LTDA                                                                                                                                                                          022006110700                                                                                                                                2062200611076810201RUA                 ANTONIO MADIA FILHO                                         53    SALA 1                                                                                                                                                      CENTRO                                            13276010SP7225VALINHOS                                          19  3869316819  3869316819  38693168contabilidade@anselmietrovatti.com.br                                                                              49000000008000000500000000000000000N                                                                                                                                                                                                                                                                                  F
1F 084239050001861MADIA & FEIJO LTDA.                                                                                                                                                                                          022006100400                                                                                                                                2240200610047490199RUA                 CARLOS PENTEADO STEVENSON                                   1059  CASA  138                                                                                                                                                   JARDIM RECANTO                                    13271510SP7225VALINHOS                                          19  38291571                        LAURA.FEIJO@EVIDENCIAS.COM.BR                                                                                      49000000004000000500000000000000000N                                                                                                                                                                                                                                                                                  F
1F 084240210004992SALLES E SALLES - COMERCIO DE ALIMENTOS E BEBIDAS EIRELI                                                                                                                                                     082011052301                                                                                                                                2305200810105611204RUA                 LUIZ SPIANDORELLI NETO (LULA)                               161   LOJA  02                                                                                                                                                    PAIQUERE                                          13271570SP7225VALINHOS                                          19  33728300                        contafisc@contafisc.com.br                                                                                         65000000000000000182007070120180724                        00000000                                                                                                                                                                                                                                                   F
1F 084253660001141ADRIANA S. MORAIS ROUPAS                                                                                                                              REPETEKA                                               032013050821                                                                                                                                2135200608034781400RUA                 DOUTOR CANDIDO FERREIRA                                     374         SALA 2                                                                                                                                                CENTRO                                            13270040SP7225VALINHOS                                          19  38497960                        ecgarcia@dglnet.com.br                                                                                             50000000002000000152007070100000000N                                                                                                                                                                                                                                                                                  F
1F 084262900001411KAZUMI IMANISHI                                                                                                                                                                                              022006111000                                                                                                                                4120200611100133499ESTRADA             LINO GIOVANI BRUGNOLI                                       SN    SITIO SAO JUDAS TADEU II                                                                                                                                    MACUCO                                            13279406SP7225VALINHOS                                          19  38813074                                                                                                                                           59000000000000000500000000000000000N                                                                                                                                                                                                                                                                                  F
1F 084278440001251CLAUDIO DE SOUZA MENDONCA                                                                                                                             CLAUDIO DE SOUZA MENDONCA - ME                         042018121863                                                                                                                                2135200610314781400AVENIDA             ONZE DE AGOSTO                                              564                                                                                                                                                               VILA NEGRELLO                                     13270020SP7225VALINHOS                                          19  38715062                        escritorioindependencia@uol.com.br                                                                                 50000000010000000100000000000000000N                                                                                                                                                                                                                                                                                  F
1F 084279840001011MARIANA C. DE RESENDE CANTINA                                                                                                                         CANTINA DO CASTELO                                     082018062901                                                                                                                                2135200611035620103RUA                 JOSE PISCIOTTA                                              111                                                                                                                                                               VILA NOVA VALINHOS                                13270300SP7225VALINHOS                                          19  3869540619  38497296            adcon.assessoria@terra.com.br                                                                                      50000000015000000162008010120180629N                                                                                                                                                                                                                                                                                  F
1F 084285660002012CARLOS ALBERTO PREVITALE E OUTROS                                                                                                                                                                            022006112000                                                                                                                                4120200611200121101RODOVIA             DOS AGRICULTORES                                            SN    SITIO PREVITALE                                                                                                                                             JARDIM PORTUGAL                                   13273250SP7225VALINHOS                                          19  38714740                                                                                                                                           59000000000000000500000000000000000                        00000000                                                                                                                                                                                                                                                   F
1F 084286550001771ARMAZEM AVENIDA LTDA                                                                                                                                                                                         042018121863                                                                                                                                2062200611064712100RUA                 FRANCISCO JULIATO                                           3000                                                                                                                                                              VALE VERDE                                        13279000SP7225VALINHOS                                          19  38497000                        contsenador@hotmail.com                                                                                            49000000010000000162007070120141231N                                                                                                                                                                                                                                                                                  F
1F 084286890001611P. L. ENGENHARIA E CONSULTORIA ELETRICA LTDA                                                                                                                                                                 022006110600                                                                                                                                2062200611067112000RUA                 NILO TORDIN                                                 1187                                                                                                                                                              LOTEAMENTO RESIDENCIAL FAZENDA SAO JOSE           13278141SP7225VALINHOS                                          19  37339544            19  32130648FISCAL@BORTOLOTTOCONTABIL.COM.BR                                                                                   49000000005000000100000000000000000N                                                                                                                                                                                                                                                                                  F
1F 084303870001281FGR FOMENTO MERCANTIL LTDA.                                                                                                                                                                                  082016090901                                                                                                                                2062200610106491300RUA                 LUIZ DE OLIVEIRA SOUZA                                      507                                                                                                                                                               LOTEAMENTO RESIDENCIAL NOVA ITALIA                13271390SP7225VALINHOS                                          19  3871015719  38712122            fgrfomento@uol.com.br                                                                                              49000000100000000100000000000000000N                                                                                                                                                                                                                                                                                  F
1F 084309010002062JOELSON RIBEIRO DOS SANTOS                                                                                                                                                                                   022009052700                                                                                                                                4120200905270133499CHÁCARA             SOL NASCENTE                                                S/N                                                                                                                                                               MACUCO                                            13279411SP7225VALINHOS                                          19  38813509                                                                                                                                           59000000000000000500000000000000000                        00000000                                                                                                                                                                                                                                                   F
1F 084319230001001MARCOS ALEXANDRE PEREIRA                                                                                                                                                                                     022006101800                                                                                                                                2135200610184751201RUA                 JOSE DE SALLES PUPO                                         46                                                                                                                                                                JARDIM JUREMA                                     13272473SP7225VALINHOS                                          19  3289091119  3289742819  32894456eniocc@terra.com.br                                                                                                50000000010000000100000000000000000N                                                                                                                                                                                                                                                                                  F
1F 084319860001661F.M.D REPRESENTACOES LTDA                                                                                                                                                                                    082011110901                                                                                                                                2062200610194773300RUA                 VEREADOR WALTER OBNER WOELZKE                               609   CASA 19                                                                                                                                                     JD DAS PALMEIRAS                                  13273060SP7225VALINHOS                                          19  3254163019  32535737            PRISCILA@AYUSOEASSOCIADOS.COM.BR                                                                                   49000000005000000100000000000000000N                                                                                                                                                                                                                                                                                  F
1F 084320890002582UP! ALIMENTOS LTDA. - EM LIQUIDACAO                                                                                                                                                                          082012090601                                                                                                                                2062200709131043100AVENIDA             GESSY LEVER                                                 99    SALA  C                                                                                                                                                     LENHEIRO                                          13272000SP7225VALINHOS                                          47  32494650            47  32494650juriai@perdigao.com.br                                                                                             13000000000000000500000000000000000                        00000000                                                                                                                                                                                                                                                   F
1F 0843213100015012 PL COMERCIO DE PRODUTOS AGROPECUARIOS LTDA                                                                                                          2 PL - PRODUTOS DE PRIMEIRA LINHA                      082008082601                                                                                                                                2062200610114789004ALAMEDA             FLAVIA                                                      89                                                                                                                                                                DOIS CORREGOS                                     13278180SP7225VALINHOS                                          19  3871621119  3871895919  38716211veigaepostal@veigaepostal.com.br                                                                                   49000000010000000100000000000000000N                                                                                                                                                                                                                                                                                  F
1F 084331360001051VIA VITORIA INDUSTRIA DE PRODUTOS ALIMENTICIOS EIRELI                                                                                                                                                        042019032063                                                                                                                                2305200611061094500RUA                 DOZE DE OUTUBRO                                             213                                                                                                                                                               VILA SANTANA                                      13274125SP7225VALINHOS                                          19  38297500                        CONTAS@VIAVITORIA.IND.BR                                                                                           65000000100000000562007070120101031N                                                                                                                                                                                                                                                                                  F
1F 084365580001261I & R REPRESENTACOES LTDA.                                                                                                                            I & R REPRESENTACOES                                   082015020973                                                                                                                                2240200611084618499RUA                 ERNO TOTHI                                                  841                                                                                                                                                               JARDIM SANTA HELENA                               13273000SP7225VALINHOS                                          19  8176199345  3037288845  30374888rodrigocbranco@ig.com.br                                                                                           49000000005000000500000000000000000N                                                                                                                                                                                                                                                                                  F
1F 084365960001891MULTI FRUITS IMPORTACAO E EXPORTACAO LTDA                                                                                                             MULTI FRUITS                                           042018121863                                                                                                                                2062200611104633801RUA                 DAS GARDENIAS                                               75                                                                                                                                                                PARQUE CECAP                                      13273350SP7225VALINHOS                                          19  3233449919  3232360019  32333111siegfried.dussmann@terra.com.br                                                                                    49000000045000000500000000000000000N                                                                                                                                                                                                                                                                                  F
1F 084366430001941JOSE SILVA SANTOS CONSTRUCAO CIVIL                                                                                                                                                                           022006092200                                                                                                                                2135200609224120400RUA                 DOS ITALIANOS                                               350                                                                                                                                                               PARQUE NOVA SUICA                                 13271415SP7225VALINHOS                                          19  38691477                        orcadeci@hiway.com.br                                                                                              50000000050000000362009010120181231N                                                                                                                                                                                                                                                                                  F
1F 084373910001181EPAMINONIMO SOUZA SANTOS                                                                                                                              LAVA CAR DO ALEMAO                                     082011080101                                                                                                                                2135200611064530703AVENIDA             DOS ESTADOS                                                 86    SANTANA                                                                                                                                                     VILA D'AGOSTINHO                                  13274170SP7225VALINHOS                                          19  3871621119  3871895919  38716211veigaepostal@veigaepostal.com.br                                                                                   50000000010000000162007070120110801N                                                                                                                                                                                                                                                                                  F
1F 084412570001901MARIO ADEMIR RONCAGLIA                                                                                                                                                                                       022006111400                                                                                                                                4120200611140133499RUA                 JOAO PREVITALE                                              2720                                                                                                                                                              JARDIM ALTO DA COLINA                             13272315SP7225VALINHOS                                          19  38717502                                                                                                                                           59000000000000000500000000000000000N                                                                                                                                                                                                                                                                                  F
1F 084424730001501RAIMUNDO PAULO DOS SANTOS E OUTROS                                                                                                                                                                           082018053037                                                                                                                                4120200611160133499RUA                 YOSHIDA TOMIYOSHI                                           S/N   CHACARA NAZARETH                                                                                                                                            MACUCO                                            13279401SP7225VALINHOS                                          19  38814018                                                                                                                                           59000000000000000500000000000000000N                                                                                                                                                                                                                                                                                  F
1F 084427870001531FRANCISCO SOARES MACEDO                                                                                                                                                                                      022006102500                                                                                                                                4120200610250133499CHACARA             POLINAR                                                     S/N   CX POSTAL 412                                                                                                                                               MACUCO                                            13271000SP7225VALINHOS                                          19  91887150                                                                                                                                           59000000000000000500000000000000000N                                                                                                                                                                                                                                                                                  F
1F 084440720001301MAURICIO LEITE VICENTINI                                                                                                                                                                                     022006111600                                                                                                                                4120200611160133499RUA                 FONTE MECIA                                                 14    CHACARA SAO PEDRO                                                                                                                                           CAPUAVA                                           13273160SP7225VALINHOS                                          19  38717151                                                                                                                                           59000000000000000500000000000000000N                                                                                                                                                                                                                                                                                  F
1F 084441990001591BORDINHON & OLIVEIRA COMERCIO E SERVICOS DE INFORMATICA                                                                                                                                                      082008060554                                                                                                                                2062200610264751201AVENIDA             ROSA BELMIRO RAMOS                                          225                                                                                                                                                               RIBEIRO                                           13275400SP7225VALINHOS                                          19  3871531219  3869628719  38696287valtriani@superig.com.br                                                                                           49000000010000000100000000000000000N                                                                                                                                                                                                                                                                                  F
1F 084442520001111ANTONIO FORTUNATO TREVIZAM                                                                                                                                                                                   082012091701                                                                                                                                2135200609184789099RUA                 SAMUEL FRAGOSO COIMBRA                                      211                                                                                                                                                               NOVA VALINHOS                                     13271280SP7225VALINHOS                                          19  3829001519  3871251019  38492191clausant@dglnet.com.br                                                                                             50000000003000000100000000000000000N                                                                                                                                                                                                                                                                                  F
1F 084464180001391ED TECH COMERCIO E SERVICOS DE INFORMATICA LTDA                                                                                                                                                              082016031701                                                                                                                                2062200610234751201AVENIDA             JOAO ANTUNES DOS SANTOS                                     219                                                                                                                                                               JARDIM PINHEIROS                                  13274290SP7225VALINHOS                                          19  3871531219  3869628719  38696287valtriani@superig.com.br                                                                                           49000000010000000152007070100000000N                                                                                                                                                                                                                                                                                  F
1F 084472310001501MADALENA MILANEZE PREVITALE                                                                                                                                                                                  022006112000                                                                                                                                4120200611200133499SÍTIO               SAO JOSE                                                    S/N                                                                                                                                                               RONCAGLIA                                         13272721SP7225VALINHOS                                          19  38714740                                                                                                                                           59000000000000000500000000000000000N                                                                                                                                                                                                                                                                                  F
1F 084476260001521GERALDO MANOEL DE OLIVEIRA E OUTRA                                                                                                                                                                           022006112100                                                                                                                                4120200611210133499RUA                 MAURA PERRUCCI DE NOCE                                      S/N   CHACARA SANTA TEREZINHA                                                                                                                                     MACUCO                                            13279459SP7225VALINHOS                                          19  38811985                                                                                                                                           59000000000000000500000000000000000N                                                                                                                                                                                                                                                                                  F
1F 084477310001911MATEUS APARECIDO MOZER E OUTROS                                                                                                                                                                              022006112100                                                                                                                                4120200611210133499RUA                 FONTE MECIA                                                 S/N   CHACARA DAS GARCAS                                                                                                                                          VILA CAPUAVA                                      13273160SP7225VALINHOS                                          19  38494559                                                                                                                                           59000000000000000500000000000000000N                                                                                                                                                                                                                                                                                  F
1F 084488340001761MEDICAL CENTER OFFICE ROOM S/S LTDA                                                                                                                   MEDICAL CENTER OFFICE RROM CAMPO GRANDES/S LTDA        022006110900                                                                                                                                2240200611098630503RUA                 FIORAVANTE BASILIO MAGLIO                                   71                                                                                                                                                                NOVA VALINHOS                                     13271260SP7225VALINHOS                                          19  33277121            19  38716211ADM@VECTORCONTROL.AGR.BR                                                                                           49000000010000000500000000000000000N                                                                                                                                                                                                                                                                                  F
1F 084509460001611WILSON ROBERTO MIRANDA & CIA LTDA                                                                                                                                                                            022006110700                                                                                                                                2062200611076311900RUA                 CEZAR TRIVELLATO                                            84                                                                                                                                                                JD NOVO MUNDO I                                   13273034SP7225VALINHOS                                          19  38497000                        contsenador@hotmail.com                                                                                            49000000010000000152008010100000000N                                                                                                                                                                                                                                                                                  F
1F 084511510001781ASSOCIACAO DOS MULADEIROS DE VALINHOS                                                                                                                                                                        022006101900                                                                                                                                3999200610199430800RUA                 JOAO PREVITALE                                              300                                                                                                                                                               BOA VISTA                                         13272400SP7225VALINHOS                                          19  3869338819  3869396619  38492712contabilidade@anselmietrovatti.com.br                                                                              16000000000000000500000000000000000N                                                                                                                                                                                                                                                                                  F
1F 084518160001431ORLANDO FRANCO DE MORAIS E OUTROS                                                                                                                                                                            082014052137                                                                                                                                4120200611140133499CHÁCARA             SANTO AGOSTINHO                                             S/N                                                                                                                                                               JARDIM PORTUGAL                                   13273250SP7225VALINHOS                                          19  78022403                                                                                                                                           59000000000000000500000000000000000N                                                                                                                                                                                                                                                                                  F
1F 084548890001991IGREJA EVANGELICA PENTECOSTAL BETEL                                                                                                                   IGREJA EVANGELICA PENTECOSTAL BETEL                    022006111300                                                                                                                                3999200611139491000RUA                 MARIO OLIVO                                                 411                                                                                                                                                               JARDIM MARACANA                                   13277540SP7225VALINHOS                                          19  3869540619  39295413            contabilidade.jair@terra.com.br                                                                                    16000000000000000500000000000000000N                                                                                                                                                                                                                                                                                  F
1F 084557860001431SCHERY - CONSTRUCAO CIVIL LTDA                                                                                                                                                                               022006111600                                                                                                                                2062200611164120400AVENIDA             JOAQUIM ALVES CORREA                                        2984  SALA  6 E 7                                                                                                                                                 JARDIM SANTO ANTONIO                              13277055SP7225VALINHOS                                          19  38698011            19  38713723PIVA@PIVACONTABILIDADE.COM.BR                                                                                      49000000060000000300000000000000000N                                                                                                                                                                                                                                                                                  F
1F 084572130001591MAURICIO BAZETTO PECAS VEICULOS                                                                                                                       GLAUCAR SERVICOS AUTOMOTIVOS                           082009122301                                                                                                                                2135200609264530703RUA                 FIORAVANTE MENEGALDO                                        384   ESQ.C/AVENIDA DON NERY                                                                                                                                      VILE EL AIUB                                      13271115SP7225VALINHOS                                          19  3869540619  38497296            adcon.assessoria@terra.com.br                                                                                      50000000025000000162007070120091223N                                                                                                                                                                                                                                                                                  F
1F 084591200001631MARIO SERGIO MAZINI                                                                                                                                                                                          022006111700                                                                                                                                2135200611174930202RUA                 BARCELOS                                                    118                                                                                                                                                               PARQUE PORTUGAL                                   13273275SP7225VALINHOS                                          19  3871621119  3871895919  38716211veigaepostal@veigaepostal.com.br                                                                                   50000000010000000162007070120171231N                                                                                                                                                                                                                                                                                  F
1F 084598090001981ASSOCIACAO DE ARTESAOS E ARTISTAS PLASTICOS DE VALINHOS                                                                                               A.A.A.P.V.                                             022006111600                                                                                                                                3999200611169430800RUA                 ITALIA                                                      50                                                                                                                                                                CENTRO                                            13270180SP7225VALINHOS                                          19  3871621119  3871895919  38716211veigaepostal@veigaepostal.com.br                                                                                   16000000000000000500000000000000000N                                                                                                                                                                                                                                                                                  F
1F 084614420001471JOAQUIM FERREIRA DE QUEIROZ E OUTRA                                                                                                                                                                          022006112400                                                                                                                                4120200611240133499RUA                 NOBURU HIRAYAMA                                             S/N   CHACARA HAYASHI                                                                                                                                             MACUCO                                            13279454SP7225VALINHOS                                          19  38811529                                                                                                                                           59000000000000000500000000000000000N                                                                                                                                                                                                                                                                                  F
1F 084640700001021HIPICA ALPHA EMPREENDIMENTOS IMOBILIARIOS LTDA                                                                                                                                                               022006111600                                                                                                                                2062200611164110700RUA                 CARMELINA PREVITALE PERA                                    104   SALA 5                                                                                                                                                      JARDIM RIBEIRO                                    13270185SP7225VALINHOS                                          19  3869151619  3869151619  38691516aet@anselmietrovatti.com.br                                                                                        05000000360000000500000000000000000N                                                                                                                                                                                                                                                                                  F
1F 084646570001111EDIFICIO CAMBUI                                                                                                                                       EDIFICIO CAMBUI                                        022005020700                                                                                                                                3085200502078112500RUA                 DOIS                                                        40                                                                                                                                                                PONTE ALTA                                        13277653SP7225VALINHOS                                          19  32320711                        chpadm@mpcnet.com.br                                                                                               19000000000000000500000000000000000N                                                                                                                                                                                                                                                                                  F
1F 084679270001481RM STRAPAZZON REPRESENTACOES COMERCIAIS LTDA.                                                                                                         RM REPRESENTACOES                                      022006110900                                                                                                                                2062200611094618499RUA                 FIORAVANTE AGNELLO                                          1558                                                                                                                                                              JD.MARIA ILYDIA                                   13272006SP7225VALINHOS                                          19  38712027                        RENATO.STRAPAZZON@GMAIL.COM                                                                                        49000000001000000500000000000000000N                                                                                                                                                                                                                                                                                  F
1F 084679650001091ICS - INTERMEDIACAO E CONSULTORIA DE NEGOCIOS LTDA.                                                                                                                                                          022006112100                                                                                                                                2062200611217490104RUA                 IRIO GIARDELLI                                              47    : TORRE JEQUITIBA; CONJ: 606; COND: VERTICE;                                                                                                                LOTEAMENTO PAIQUERE                               13271565SP7225VALINHOS                                          19  3327412519  33274126            EDGAR-ICS@MPC.COM.BR                                                                                               49000000020000000500000000000000000N                                                                                                                                                                                                                                                                                  F
1F 084708480001961WORLDCARGO DO BRASIL LTDA                                                                                                                             WORLDCARGO GSA DO BRASIL                               022006111700                                                                                                                                2062200611174689399RUA                 OTTO WALTER                                                 31    LOTE  5                   TERREO                                                                                                                            VILA PROGRESSO                                    13277061SP7225VALINHOS                                          19  38811910            19  32343020OLAVO@WORLDCARGO.COM.BR                                                                                            49000000150000000100000000000000000N                                                                                                                                                                                                                                                                                  F
1F 084737560001601ESPORTE CLUBE JUREMA                                                                                                                                                                                         022006091400                                                                                                                                3999200609149312300RUA                 SILVIO ALCANTARA                                            450                                                                                                                                                               JUREMA                                            13272455SP7225VALINHOS                                          19  38714264                        ecgarcia@dglnet.com.br                                                                                             16000000000000000500000000000000000N                                                                                                                                                                                                                                                                                  F
1F 084738140004062ORALCORP - SERVICOS ODONTOLOGICOS INTEGRADA LTDA                                                                                                      AM ODONTOLOGIA                                         022011051100                                                                                                                                2062201105118630504AVENIDA             INDEPENDENCIA                                               705                                                                                                                                                               VILA OLIVO                                        13276030SP7225VALINHOS                                          19  38698110                        ORAL.MATRIZ@OUTLOOK.COM                                                                                            49000000000000000552018010100000000                        00000000                                                                                                                                                                                                                                                   F
1F 084758460001901COUTINHO AQUARIOS PEIXES ORNAMENTAIS LTDA                                                                                                             AQUA SHOW                                              042018121863                                                                                                                                2062200610234789004RUA                 DOM NERY                                                    328                                                                                                                                                               SANTA CRUZ                                        13271170SP7225VALINHOS                                          19  3871020519  3871497219  38710009esc@stoantonio.com                                                                                                 49000000010000000162007070120141231N                                                                                                                                                                                                                                                                                  F
1F 084758940001881SANTO CANSIAN                                                                                                                                                                                                022006112800                                                                                                                                4120200611280133499RUA                 CAMPOS SALLES                                               S/N   SITIO SAO PEDRO                                                                                                                                             JARDIM JUREMA                                     13272477SP7225VALINHOS                                          19  38715545                                                                                                                                           59000000000000000500000000000000000N                                                                                                                                                                                                                                                                                  F
1F 084760980001601SUPRIHEALTH SUPRIMENTOS MEDICOS LTDA                                                                                                                                                                         022006100700                                                                                                                                2062200610074645101RUA                 LUIZ CARLOS BRUNELLO                                        620   SALA: 1;                                                                                                                                                    CHACARAS SAO BENTO                                13278074SP7225VALINHOS                                          12  39341211            12  39341211DOC@ASCONNET.COM.BR                                                                                                49000007206270000500000000000000000N                                                                                                                                                                                                                                                                                  F
1F 084763450001281FERNANDA DOS SANTOS SILVA & CIA LTDA                                                                                                                                                                         042018121863                                                                                                                                2062200611174722901RUA                 DOUTOR ERALDO AURELIO FRANZESE                              638                                                                                                                                                               JARDIM PAIQUERE                                   13271608SP7225VALINHOS                                          19  38497000                        contsenador@hotmail.com                                                                                            49000000010000000162007070120141231N                                                                                                                                                                                                                                                                                  F
1F 084782120001901JOSINEIA FABIANO - NOSSA SENHORA APARECIDA                                                                                                                                                                   022006101900                                                                                                                                4120200610190133499ESTRADA             MUNICIPAL MARIO COVAS                                       S/N   CHACARA NOSSA SENHORA APARECIDA                                                                                                                             MACUCO                                            13279411SP7225VALINHOS                                          19  38491224                        CAMPALFRUTAS@TERRA.COM.BR                                                                                          59000000000000000500000000000000000N                                                                                                                                                                                                                                                                                  F
1F 084783580001361LUIZ ROBERTO FABIANO - SITIO EFESIOS                                                                                                                                                                         022006101100                                                                                                                                4120200610110133499RUA                 WALDEMAR LAZARETTI                                          S/N   SITIO EFESIOS                                                                                                                                               MACUCO                                            13279407SP7225VALINHOS                                          19  3849122419  78505582            CAMPALFRUTAS@TERRA.COM.BR                                                                                          59000000000000000500000000000000000N                                                                                                                                                                                                                                                                                  F
1F 084794650001891LEONILDO CENCAO E OUTROS                                                                                                                                                                                     022006081400                                                                                                                                4120200608140133499CHÁCARA             SANTA TEREZINHA                                             S/N                                                                                                                                                               MACUCO                                            13279411SP7225VALINHOS                                          19  38813374                                                                                                                                           59000000000000000500000000000000000N                                                                                                                                                                                                                                                                                  F
1F 084809290001771ANTONIO COSTA CASTELHANO E OUTROS                                                                                                                                                                            022006120100                                                                                                                                4120200612010133499ESTRADA             LINO GIOVANNI BRUGNOLI                                      S/N   CHACARA SAO JOAO                                                                                                                                            MACUCO                                            13279406SP7225VALINHOS                                          19  38698048                                                                                                                                           59000000000000000500000000000000000N                                                                                                                                                                                                                                                                                  F
1F 084809790001541RUI ANTONIO BLATTNER                                                                                                                                                                                         022006120100                                                                                                                                4120200612010133499RUA                 FONTE MECIA                                                 S/N   CHACARA SAO SEBASTIAO LOTE 31                                                                                                                               VILA CAPUAVA                                      13273160SP7225VALINHOS                                          19  32783005                                                                                                                                           59000000000000000500000000000000000N                                                                                                                                                                                                                                                                                  F
1F 084810190001091ANESIO JOAO BARDUCHI E OUTROS                                                                                                                                                                                022006112100                                                                                                                                4120200611210133499RODOVIA             VISCONDE DE PORTO SEGURO                                    S/N   CHACARA SAO PAULO                                                                                                                                           SITIO RECREIO DOS CAFEZAIS                        13278327SP7225VALINHOS                                          19  38812270                                                                                                                                           59000000000000000500000000000000000N                                                                                                                                                                                                                                                                                  F
1F 084839180001401JOSE GILBERTO LEME PIRES E OUTRA                                                                                                                                                                             082012070337                                                                                                                                4120200612010133499RUA                 CLARK                                                       S/N   CHACARA WADA                                                                                                                                                MACUCO                                            13279400SP7225VALINHOS                                          19  38811477                                                                                                                                           59000000000000000500000000000000000N                                                                                                                                                                                                                                                                                  F
1F 084858080001181VICTORIO LUCIO                                                                                                                                                                                               082011022437                                                                                                                                4120200612040133499ESTRADA             LINO GIOVANNI BRUGNOLI                                      S/N   CHACARA ARCO IRIS                                                                                                                                           MACUCO                                            13279406SP7225VALINHOS                                          19  38812343                                                                                                                                           59000000000000000500000000000000000N                                                                                                                                                                                                                                                                                  F
1F 084858580001031SONIA APARECIDA LUCIO CHIQUETANO                                                                                                                                                                             022006120400                                                                                                                                4120200612040133499ESTRADA             LINO GIOVANNI BRUGNOLI                                      S/N   CHACARA ARCO IRIS                                                                                                                                           MACUCO                                            13279406SP7225VALINHOS                                          19  32685989                                                                                                                                           59000000000000000500000000000000000N                                                                                                                                                                                                                                                                                  F
1F 084898760001551MRP REPRESENTACAO COMERCIAL LTDA                                                                                                                                                                             042018102463                                                                                                                                2062200611284619200RUA                 VERONICA GIAVONE                                            96                                                                                                                                                                JARDIM DO LAGO                                    13277503SP7225VALINHOS                                          19  3871531219  3869628719  38696287kelifreitas@yahoo.com.br                                                                                           49000000001000000100000000000000000N                                                                                                                                                                                                                                                                                  F
1F 084903650001531MARIA SILVIA CONTRI CARNEIRO                                                                                                                                                                                 082018110501                                                                                                                                2135200611244616800RUA                 SAMUEL FRAGOSO COIMBRA                                      422   SALA  01                                                                                                                                                    VILA NOVA VALINHOS                                13271280SP7225VALINHOS                                          19  38691372                        MSC_CARNEIRO@HOTMAIL.COM                                                                                           50000000001000000100000000000000000N                                                                                                                                                                                                                                                                                  F
1F 084914970001081FOOD SERVICE COMPANY BUSINESS CURSOS E TREINAMENTOS EM CULINARIA LTDA.                                                                                                                                       022006112800                                                                                                                                2062200611288599699RUA                 SAMUEL FRAGOSO COIMBRA                                      434   SALA  108                                                                                                                                                   VILA NOVA VALINHOS                                13271280SP7225VALINHOS                                          19  3849089419  3849745011  38497450ADRI.GOURMET@TERRA.COM.BR                                                                                          49000000010000000100000000000000000N                                                                                                                                                                                                                                                                                  F
1F 084928890001831JLG ASSESSORIA EMPRESARIAL LTDA.                                                                                                                      JLG ASSESSORIA EMPRESARIAL                             082017020201                                                                                                                                2062200612047020400RUA                 PAULO FERNANDO TETTI DE BARROS                              118                                                                                                                                                               CHACARAS SAO BENTO                                13278063SP7225VALINHOS                                          19  3871621119  3829895919  38294716VEIGAEPOSTAL@VEIGAEPOSTAL.COM.BR                                                                                   49000000010000000300000000000000000N                                                                                                                                                                                                                                                                                  F
1F 084984650001261MARIO KIMBARA                                                                                                                                                                                                082019060337                                                                                                                                4120200612060133499CHACARA             CAMPO DE OURO                                               S/N                                                                                                                                                               MACUCO                                            13279453SP7225VALINHOS                                          19  38811465                                                                                                                                           59000000000000000500000000000000000N                                                                                                                                                                                                                                                                                  F
1F 084984880001301JOJY KINPARA                                                                                                                                                                                                 022006120600                                                                                                                                4120200612060133499CHACARA             TRES MARIAS                                                 S/N                                                                                                                                                               MACUCO                                            13279453SP7225VALINHOS                                          19  38811667                                                                                                                                           59000000000000000500000000000000000N                                                                                                                                                                                                                                                                                  F
1F 084999710001301JOSE EDRO                                                                                                                                                                                                    022006120700                                                                                                                                4120200612070133499RUA                 JOAO PREVITALE                                              1525  SITIO SAO DOMINGOS                                                                                                                                          JARDIM ALTO DA COLINA                             13272315SP7225VALINHOS                                          19  3869171619  38715769                                                                                                                               59000000000000000500000000000000000N                                                                                                                                                                                                                                                                                  F
1F 085004470001311MAURO RAGAZZI                                                                                                                                                                                                022006120700                                                                                                                                4120200612070133499ESTRADA             LINO GIOVANNI BRUGNOLI                                      SN    CHACARA DOCURA                                                                                                                                              MACUCO                                            13279406SP7225VALINHOS                                          19  38811796                                                                                                                                           59000000000000000500000000000000000N                                                                                                                                                                                                                                                                                  F
1F 085006010001751ALCINDO RAGAZZI                                                                                                                                                                                              082014070737                                                                                                                                4120200612070133499ESTRADA             LINO GIOVANNI BRUGNOLI                                      SN    CHACARA SANTO ANTONIO                                                                                                                                       MACUCO                                            13279406SP7225VALINHOS                                          19  38811113                                                                                                                                           59000000000000000500000000000000000N                                                                                                                                                                                                                                                                                  F
1F 085008000001831JOAQUIM TORREZIN E OUTROS                                                                                                                                                                                    022006102400                                                                                                                                4120200610240133499CHACARA             SANTA REGINA                                                SN    CASA                                                                                                                                                        MACUCO                                            13279451SP7225VALINHOS                                          19  3881145919  38714845                                                                                                                               59000000000000000500000000000000000N                                                                                                                                                                                                                                                                                  F
1F 085009090001101EIJI NAKAMURA E OUTROS                                                                                                                                                                                       022006120700                                                                                                                                4120200612070133499ESTRADA             NOBURU HIRAYAMA                                             SN    CHACARA CENTRAL                                                                                                                                             MACUCO                                            13279454SP7225VALINHOS                                          19  3234291719  32780875                                                                                                                               59000000000000000500000000000000000N                                                                                                                                                                                                                                                                                  F
1F 085031600001651ANTONIO CARLOS TORREZIN E OUTRO                                                                                                                                                                              022006102400                                                                                                                                4120200610240133499RUA                 NOBURO HIRAYAMA                                             S/N   SITIO SANTA REGINA                                                                                                                                          MACUCO                                            13279454SP7225VALINHOS                                          19  3871656619  38714845                                                                                                                               59000000000000000500000000000000000N                                                                                                                                                                                                                                                                                  F
1F 085048580001031NAISSANCE REPRESENTACOES COMERCIAIS E ASSESSORIA EM SOFTWARE LTDA.                                                                                                                                           082015041501                                                                                                                                2062200612014618499RUA                 ARNAUD ALVES DE SOUZA                                       108                                                                                                                                                               LOT.RES.ANA CAROLINA                              13273608SP7225VALINHOS                                          19  38695633            19  38712090rafhorie@dglnet.com.br                                                                                             49000000002000000100000000000000000N                                                                                                                                                                                                                                                                                  F
1F 085050810001931EXECUTY COMERCIO DE PLANTAS LTDA                                                                                                                      EXECUTY                                                022006112800                                                                                                                                2062200611288130300AVENIDA             LINO BUZATTO                                                445                                                                                                                                                               JARDIM PINHEIROS                                  13274440SP7225VALINHOS                                          19  39296488            19  38696200hlpcont@uol.com.br                                                                                                 49000000002000000152007070100000000N                                                                                                                                                                                                                                                                                  F
