1F 159896610001691ELEICAO 2012 MARLI ROSA DELANEGRA VEREADOR                                                                                                                                                                   082012123101                                                                                                                                4090201207059492800RUA                 Nove                                                        263                                                                                                                                                               Jd. Sao Marcos                                    13272823SP7225VALINHOS                                          0   0                   0   0                                                                                                                          51000000000000000500000000000000000N                                                                                                                                                                                                                                                                                  F
1F 159904040001471ELEICAO 2012 AMELIO BORIN JUNIOR VEREADOR                                                                                                                                                                    082012123101                                                                                                                                4090201207059492800RUA                 AUGUSTO GUSTAVO STERZEK                                     75                                                                                                                                                                JD ITAPUA                                         13273102SP7225VALINHOS                                          0   0                   0   0       AMELIOBORIN@YAHOO.COM.BR                                                                                           51000000000000000500000000000000000N                                                                                                                                                                                                                                                                                  F
1F 159925980001101ELEICAO 2012 ROSA HELENA MANALI VEREADOR                                                                                                                                                                     082012123101                                                                                                                                4090201207059492800RUA                 SAMUEL FRAGOSO DE COIMBRA                                   395   CASA                                                                                                                                                        V N VALINHOS                                      13271280SP7225VALINHOS                                          0   0                   0   0       ROSA.H21@HOTMAIL.COM                                                                                               51000000000000000500000000000000000N                                                                                                                                                                                                                                                                                  F
1F 159943090001111ELEICAO 2012 JULIO CESAR PEDRO VEREADOR                                                                                                                                                                      082012123101                                                                                                                                4090201207059492800RUA                 CONSTANTINO OLIVO                                           94                                                                                                                                                                JD BOA VISTA                                      13272110SP7225VALINHOS                                          0   0                   0   0                                                                                                                          51000000000000000500000000000000000N                                                                                                                                                                                                                                                                                  F
1F 159960860001211ELEICAO 2012 JOSE FRANCISCO VIEIRA SANT ANA VEREADOR                                                                                                                                                         082012123101                                                                                                                                4090201207059492800RUA                 Antonio Frederico Ozanan                                    41                                                                                                                                                                Vila Colega                                       13272404SP7225VALINHOS                                          0   0                   0   0                                                                                                                          51000000000000000500000000000000000N                                                                                                                                                                                                                                                                                  F
1F 159960870001761ELEICAO 2012 JOSE ARMANDO VALDEVINO VEREADOR                                                                                                                                                                 082012123101                                                                                                                                4090201207059492800RODOVIA             FLAVIO DE CARVALHO                                          1195  CA C61                                                                                                                                                      CAPUAVA                                           13273000SP7225VALINHOS                                          0   0                   0   0       TURBALE@YAHOO.COM.BR                                                                                               51000000000000000500000000000000000N                                                                                                                                                                                                                                                                                  F
1F 159961600001001ELEICAO 2012 ELVIRA DI FELICE VEREADOR                                                                                                                                                                       082012123101                                                                                                                                4090201207059492800RUA                 Luiz Bissoto                                                662   BL B31 AP 23                                                                                                                                                Jd.Bom Retiro                                     13275900SP7225VALINHOS                                          0   0                   0   0       elvira.difelice@yahoo.com.br                                                                                       51000000000000000500000000000000000N                                                                                                                                                                                                                                                                                  F
1F 159964340001601ELEICAO 2012 VALDEMIR CORBANO VEREADOR                                                                                                                                                                       082012123101                                                                                                                                4090201207059492800RUA                 ELSON PREVITALE                                             905   CASA                                                                                                                                                        ALTO DA COLINA                                    13272300SP7225VALINHOS                                          0   0                   0   0       VALDEMIR.CORBANO@AESAPAR.COM                                                                                       51000000000000000500000000000000000N                                                                                                                                                                                                                                                                                  F
1F 159972290001101ELEICAO 2012 WALTER BARBOSA VEREADOR                                                                                                                                                                         082012123101                                                                                                                                4090201207059492800AVENIDA             VICE PREFEITO ANESIO CAPOVILA                               79    CASA 101                                                                                                                                                    CAPUAVA                                           13272181SP7225VALINHOS                                          0   0                   0   0       WALTERBARBOSA@CORREIOS.NET.BR                                                                                      51000000000000000500000000000000000N                                                                                                                                                                                                                                                                                  F
1F 159978210001111ELEICAO 2012 MARIA ELIZABETH ALVES PEREIRA ADAID VEREADOR                                                                                                                                                    082012123101                                                                                                                                4090201207059492800ESTRADA             Jequitiba                                                   1750  Casa 253                                                                                                                                                    Pinheiro                                          13274610SP7225VALINHOS                                          0   0                   0   0       refmat@hotmail.com                                                                                                 51000000000000000500000000000000000N                                                                                                                                                                                                                                                                                  F
1F 159978800001901ELEICAO 2012 NIVALDO VICENTE CASTOR VEREADOR                                                                                                                                                                 082012123101                                                                                                                                4090201207059492800RUA                 Antonio Betim                                               173                                                                                                                                                               Jd. America II                                    13272303SP7225VALINHOS                                          0   0                   0   0       nivaldovicente@yahoo.com.br                                                                                        51000000000000000500000000000000000N                                                                                                                                                                                                                                                                                  F
1F 159979130001001ELEICAO 2012 MARCOS LUIZ JULIATTO VEREADOR                                                                                                                                                                   082012123101                                                                                                                                4090201207059492800ALAMEDA             Gaivotas                                                    2                                                                                                                                                                 Clube de Campo Valinhos                           13272741SP7225VALINHOS                                          0   0                   0   0                                                                                                                          51000000000000000500000000000000000N                                                                                                                                                                                                                                                                                  F
1F 159988770001901ELEICAO 2012 MARIA DE LOURDES ASSIS DA SILVA VEREADOR                                                                                                                                                        082012123101                                                                                                                                4090201207059492800RUA                 JORGE MATOAN REZENDE                                        63    CASA 2                                                                                                                                                      VALE VERDE                                        13279090SP7225VALINHOS                                          0   0                   0   0       MLOURDESASSIS@BOL.COM.BR                                                                                           51000000000000000500000000000000000N                                                                                                                                                                                                                                                                                  F
1F 159992810001051ELEICAO 2012 MOISES MARCOLINO DA SILVA VEREADOR                                                                                                                                                              082012123101                                                                                                                                4090201207059492800RUA                 Paulo Trombeta                                              43                                                                                                                                                                Jd. Bom Retiro                                    13275240SP7225VALINHOS                                          0   0                   0   0                                                                                                                          51000000000000000500000000000000000N                                                                                                                                                                                                                                                                                  F
1F 159994460001491ELEICAO 2012 ANTONIO CARLOS TRISTAO VEREADOR                                                                                                                                                                 082012123101                                                                                                                                4090201207059492800RUA                 Visconde de Cairu                                           267                                                                                                                                                               Centro                                            13276280SP7225VALINHOS                                          0   0                   0   0                                                                                                                          51000000000000000500000000000000000N                                                                                                                                                                                                                                                                                  F
1F 160007500001011ELEICAO 2012 EDMILSON VANDERLEI BARBARINI VEREADOR                                                                                                                                                           082012123101                                                                                                                                4090201207059492800RUA                 Frederico Juliato                                           127                                                                                                                                                               Jd. Santa Marina                                  13277123SP7225VALINHOS                                          0   0                   0   0       ebarbarini@ig.com.br                                                                                               51000000000000000500000000000000000N                                                                                                                                                                                                                                                                                  F
1F 160007520001921ELEICAO 2012 ESMAEL MAGALHAES DE SANTANA VEREADOR                                                                                                                                                            082012123101                                                                                                                                4090201207059492800RUA                 Amim Sabie                                                  13                                                                                                                                                                Vl. Boa ESperanca                                 13270370SP7225VALINHOS                                          0   0                   0   0       santana.valinhos@hotmail.com                                                                                       51000000000000000500000000000000000N                                                                                                                                                                                                                                                                                  F
1F 160007560001701ELEICAO 2012 MOACIR MORESSO VEREADOR                                                                                                                                                                         082012123101                                                                                                                                4090201207059492800RUA                 JAGUARIUNA                                                  121   CASA                                                                                                                                                        VILA SAO CRISTOVAO                                13276135SP7225VALINHOS                                          0   0                   0   0                                                                                                                          51000000000000000500000000000000000N                                                                                                                                                                                                                                                                                  F
1F 160007580001601ELEICAO 2012 ADEMIR DE JESUS CARVALHO VEREADOR                                                                                                                                                               082012123101                                                                                                                                4090201207059492800RUA                 Domingos Tordin                                             191                                                                                                                                                               Jd. Santa Rosa                                    13275095SP7225VALINHOS                                          0   0                   0   0       ademirjesuscarvalho@yahoo.com                                                                                      51000000000000000500000000000000000N                                                                                                                                                                                                                                                                                  F
1F 160019930001561ELEICAO 2012 WILSON VANDERLEI VENTURA VEREADOR                                                                                                                                                               082012123101                                                                                                                                4090201207059492800AVENIDA             VICE PREFEITO ANESIO CAPOVILA                               688   CA 106                                                                                                                                                      CAPUAVA                                           13272181SP7225VALINHOS                                          0   0                   0   0       AS.VENTURA@TERRA.COM.BR                                                                                            51000000000000000500000000000000000N                                                                                                                                                                                                                                                                                  F
1F 160019940001091ELEICAO 2012 CLAUDIR GONCALVES DE SOUZA VEREADOR                                                                                                                                                             082012123101                                                                                                                                4090201207059492800RUA                 Italia                                                      895   Fundos                                                                                                                                                      Centro                                            13270180SP7225VALINHOS                                          0   0                   0   0                                                                                                                          51000000000000000500000000000000000N                                                                                                                                                                                                                                                                                  F
1F 160019950001451ELEICAO 2012 MARILENE APARECIDA DOS SANTOS VEREADOR                                                                                                                                                          082012123101                                                                                                                                4090201207059492800RUA                 Ana Sabie                                                   88                                                                                                                                                                Colina dos Pinheiros                              13274510SP7225VALINHOS                                          0   0                   0   0       marilene_snt@hotmail.com                                                                                           51000000000000000500000000000000000N                                                                                                                                                                                                                                                                                  F
1F 160020030001021ELEICAO 2012 JOSELENE SILVA DE SOUSA VEREADOR                                                                                                                                                                082012123101                                                                                                                                4090201207059492800RUA                 Ferdinando Borin                                            375                                                                                                                                                               Jd. Alto da Boa Vista                             13272100SP7225VALINHOS                                          0   0                   0   0       joselene@souzapradoservico.com                                                                                     51000000000000000500000000000000000N                                                                                                                                                                                                                                                                                  F
1F 160024910001401ELEICAO 2012 ELAINE ADRIANA RAUL VEREADOR                                                                                                                                                                    082012123101                                                                                                                                4090201207059492800AVENIDA             Independencia                                               800   apto 71                                                                                                                                                     Vila Olivo                                        13276030SP7225VALINHOS                                          0   0                   0   0       driraul@bol.com.br                                                                                                 51000000000000000500000000000000000N                                                                                                                                                                                                                                                                                  F
1F 160033950001161ELEICAO 2012 MARIA FERNANDES DO NASCIMENTO VEREADOR                                                                                                                                                          082012123101                                                                                                                                4090201207059492800RUA                 CEARA                                                       287   CASA                                                                                                                                                        VILA SANTANA                                      13274090SP7225VALINHOS                                          0   0                   0   0                                                                                                                          51000000000000000500000000000000000N                                                                                                                                                                                                                                                                                  F
1F 160040440001201ELEICAO 2012 GERSON SOARES GOMES VEREADOR                                                                                                                                                                    082012123101                                                                                                                                4090201207059492800RUA                 Silvestre Chiari                                            632                                                                                                                                                               Nova Era                                          13275250SP7225VALINHOS                                          0   0                   0   0       gerson.gomes@aasp.org.br                                                                                           51000000000000000500000000000000000N                                                                                                                                                                                                                                                                                  F
1F 160040450001741ELEICAO 2012 JOSE EDILSON LOURENCO VEREADOR                                                                                                                                                                  082012123101                                                                                                                                4090201207059492800RUA                 Jose Ronvattto                                              Lote 4Qd C                                                                                                                                                        Pedra Verde                                       13275536SP7225VALINHOS                                          0   0                   0   0       edilfumaca@hotmail.com                                                                                             51000000000000000500000000000000000N                                                                                                                                                                                                                                                                                  F
1F 160041260001741ELEICAO 2012 PEDRO PIRES DE CAMPOS NETO VEREADOR                                                                                                                                                             082012123101                                                                                                                                4090201207059492800RUA                 Carlos Penteado Stevenson                                   700   QD G CASA 120                                                                                                                                               Chacara Silvania                                  13271510SP7225VALINHOS                                          0   0                   0   0       pcamposneto@yahoo.com.br                                                                                           51000000000000000500000000000000000N                                                                                                                                                                                                                                                                                  F
1F 160041410001121ELEICAO 2012 GERSON REVELINO OLIVA VEREADOR                                                                                                                                                                  082012123101                                                                                                                                4090201207059492800RUA                 VR.REINALDO ROSSI FILHO                                     18    CASA                                                                                                                                                        VL.UNIAO                                          13275640SP7225VALINHOS                                          0   0                   0   0       GE_COOP@HOTMAIL.COM                                                                                                51000000000000000500000000000000000N                                                                                                                                                                                                                                                                                  F
1F 160043170001361ELEICAO 2012 ISAIAS PEDRO CARDOSO VEREADOR                                                                                                                                                                   082012123101                                                                                                                                4090201207059492800RUA                 Cristiano Volkart                                           392                                                                                                                                                               Vila Clayton                                      13276005SP7225VALINHOS                                          0   0                   0   0       isaiaspc@gmail.com                                                                                                 51000000000000000500000000000000000N                                                                                                                                                                                                                                                                                  F
1F 160045270001241ELEICAO 2012 ANDREA CONCEICAO DO PRADO MANALI VEREADOR                                                                                                                                                       082012123101                                                                                                                                4090201207059492800RUA                 CARLOS PENTEADO STEVENSON                                   700   CASA 56                                                                                                                                                     JD RECANTO                                        13271510SP7225VALINHOS                                          0   0                   0   0       ANDREA.MANALI@HOTMAIL.COM                                                                                          51000000000000000500000000000000000N                                                                                                                                                                                                                                                                                  F
1F 160045290001131ELEICAO 2012 PEDRO APARECIDO MARQUEZI DA SILVA VEREADOR                                                                                                                                                      082012123101                                                                                                                                4090201207059492800RUA                 Francisco de Castro Junior                                  42                                                                                                                                                                Jd. Pinheiros                                     13274460SP7225VALINHOS                                          0   0                   0   0       silvana.marquezi@terra.com.br                                                                                      51000000000000000500000000000000000N                                                                                                                                                                                                                                                                                  F
1F 160049980001321ELEICAO 2012 JULIO TANAKA VEREADOR                                                                                                                                                                           082012123101                                                                                                                                4090201207059492800RUA                 Eunice Aparecida Baroni                                     807                                                                                                                                                               Chacara Sao Bento                                 13278050SP7225VALINHOS                                          0   0                   0   0       julio.tanaka@adv.oabsp.org.br                                                                                      51000000000000000500000000000000000N                                                                                                                                                                                                                                                                                  F
1F 160051690001741ELEICAO 2012 SOLANGE PAULA DA SILVA DE ALBUQUELQUE VEREADOR                                                                                                                                                  082012123101                                                                                                                                4090201207059492800RUA                 LOURENCO BARBISAN                                           99    LT 16 QD B                                                                                                                                                  JD PANORAMA                                       13277440SP7225VALINHOS                                          0   0                   0   0       SOL.ALBUQUE@HOTMAIL.COM                                                                                            51000000000000000500000000000000000N                                                                                                                                                                                                                                                                                  F
1F 160053750001841ELEICAO 2012 VALDIR PEREIRA VEREADOR                                                                                                                                                                         082012123101                                                                                                                                4090201207059492800RUA                 SAFIRAS                                                     14    AL QD K                                                                                                                                                     JD NOVA PALMARES                                  13275582SP7225VALINHOS                                          0   0                   0   0       VALDIROBAMA@HOTMAIL.COM                                                                                            51000000000000000500000000000000000N                                                                                                                                                                                                                                                                                  F
1F 160053910001771ELEICAO 2012 APARECIDO PEREIRA DA SILVA VEREADOR                                                                                                                                                             082012123101                                                                                                                                4090201207059492800RUA                 Treze                                                       102                                                                                                                                                               Jd. Sao Marcos                                    13272827SP7225VALINHOS                                          0   0                   0   0                                                                                                                          51000000000000000500000000000000000N                                                                                                                                                                                                                                                                                  F
1F 160054480001381ELEICAO 2012 SILVANA LOPES BRAGA ARAUJO VEREADOR                                                                                                                                                             082012123101                                                                                                                                4090201207059492800RUA                 ANA FACHILLI FABINI                                         84    CASA                                                                                                                                                        JD JUREMA                                         13272454SP7225VALINHOS                                          0   0                   0   0       SILVANALOPESBRAGA@HOTMAIL.COM                                                                                      51000000000000000500000000000000000N                                                                                                                                                                                                                                                                                  F
1F 160054740001661ELEICAO 2012 CESAR ROCHA ANDRADE DA SILVA VEREADOR                                                                                                                                                           082012123101                                                                                                                                4090201207059492800RUA                 JOAO PREVITALLI                                             788   CA CX2                                                                                                                                                      STA CRUZ                                          13272400SP7225VALINHOS                                          0   0                   0   0       CESARROCHA@UPANIMAIS.ORG.BR                                                                                        51000000000000000500000000000000000N                                                                                                                                                                                                                                                                                  F
1F 160054780001441ELEICAO 2012 MARA HELIANA ROSSANE CECCHERINI VEREADOR                                                                                                                                                        082012123101                                                                                                                                4090201207059492800AVENIDA             Dr. Antonio Bento Ferrz                                     215   LT 59                                                                                                                                                       Country Club                                      13278160SP7225VALINHOS                                          0   0                   0   0       mara_as09@hotmail.com                                                                                              51000000000000000500000000000000000N                                                                                                                                                                                                                                                                                  F
1F 160054930001921ELEICAO 2012 LINDINIR GABRIEL DE OLIVEIRA ANDRADE JUNIOR VEREADOR                                                                                                                                            082012123101                                                                                                                                4090201207059492800RUA                 Goias                                                       540                                                                                                                                                               Vila Santana                                      13274140SP7225VALINHOS                                          0   0                   0   0       juninhoandrade@uol.com.br                                                                                          51000000000000000500000000000000000N                                                                                                                                                                                                                                                                                  F
1F 160059430001471ELEICAO 2012 EVA TEIXEIRA SOUSA VEREADOR                                                                                                                                                                     082012123101                                                                                                                                4090201207059492800AVENIDA             Joao Antunes dos Santos                                     781                                                                                                                                                               Jd. Pinheiros                                     13274290SP7225VALINHOS                                          0   0                   0   0       evinhasousa2012@hotmail.com                                                                                        51000000000000000500000000000000000N                                                                                                                                                                                                                                                                                  F
1F 160061050001981ELEICAO 2012 ADAILTON CEZAR CIPOLLI FONSECA JUNIOR VEREADOR                                                                                                                                                  082012123101                                                                                                                                4090201207059492800ESTRADA             JEQUITIBA                                                   SN    KM 14 QD15 LT17                                                                                                                                             PINHEIRO                                          13274610SP7225VALINHOS                                          0   0                   0   0       ORTHODENTAL@UOL.COM.BR                                                                                             51000000000000000500000000000000000N                                                                                                                                                                                                                                                                                  F
1F 160066220001671ELEICAO 2012 MARCIA CRISTINA TRISTAO BASTOS DUARTE BROCCHI VEREADOR                                                                                                                                          082012123101                                                                                                                                4090201207059492800RUA                 Angelo Capovilla                                            175                                                                                                                                                               Jd. America                                       13276390SP7225VALINHOS                                          0   0                   0   0       duarte.marcinha@gmail.com                                                                                          51000000000000000500000000000000000N                                                                                                                                                                                                                                                                                  F
1F 160066330001471ELEICAO 2012 HERMINIO ANTONIO DE LIMA VEREADOR                                                                                                                                                               082012123101                                                                                                                                4090201207059492800RUA                 Cinco                                                       SN    Lote 12 QD E                                                                                                                                                Jd. Nova Palmares II                              13275616SP7225VALINHOS                                          0   0                   0   0                                                                                                                          51000000000000000500000000000000000N                                                                                                                                                                                                                                                                                  F
1F 160073520001091ELEICAO 2012 ODAIR PELISSARI VEREADOR                                                                                                                                                                        082012123101                                                                                                                                4090201207059492800RUA                 Lourenco Barbisan                                           283                                                                                                                                                               Jd. Panorama                                      13277440SP7225VALINHOS                                          0   0                   0   0       skorfs@ig.com.br                                                                                                   51000000000000000500000000000000000N                                                                                                                                                                                                                                                                                  F
1F 160073740001791ELEICAO 2012 JAIR AUGUSTO DO CARMO VEREADOR                                                                                                                                                                  082012123101                                                                                                                                4090201207059492800ALAMEDA             Bagda                                                       21                                                                                                                                                                Condominio Terras do Oriente                      13272400SP7225VALINHOS                                          0   0                   0   0       drjair.adv@uol.com.br                                                                                              51000000000000000500000000000000000N                                                                                                                                                                                                                                                                                  F
1F 160076220001811ELEICAO 2012 JOSE HENRIQUE CONTI VEREADOR                                                                                                                                                                    082012123101                                                                                                                                4090201207059492800RUA                 EMILIO ROMANETTI                                            1359  CASA                                                                                                                                                        COND.VILAGIO VISCONDI DE ITAMARACA                13278352SP7225VALINHOS                                          0   0                   0   0       jhconti@uol.com.br                                                                                                 51000000000000000500000000000000000N                                                                                                                                                                                                                                                                                  F
1F 160082730001121ELEICAO 2012 ELAINE CRISTINE KIEFER GUERRA VEREADOR                                                                                                                                                          082012123101                                                                                                                                4090201207059492800RUA                 Petunias                                                    360                                                                                                                                                               Jd. Vitoria Regia                                 13273050SP7225VALINHOS                                          0   0                   0   0       elainekguerra@hotmail.com                                                                                          51000000000000000500000000000000000N                                                                                                                                                                                                                                                                                  F
1F 160084790001421ELEICAO 2012 MARIA APARECIDA SANTANA VEREADOR                                                                                                                                                                082012123101                                                                                                                                4090201207059492800AVENIDA             Lino Buzato                                                 645                                                                                                                                                               Jd. Pinheiros                                     13274440SP7225VALINHOS                                          0   0                   0   0                                                                                                                          51000000000000000500000000000000000N                                                                                                                                                                                                                                                                                  F
1F 160085220001701ELEICAO 2012 FABIANA CANTARANI JULIATO VEREADOR                                                                                                                                                              082012123101                                                                                                                                4090201207059492800RUA                 DOS PORTUGUESES                                             322   CASA                                                                                                                                                        PQ.NOVA SUICA                                     13271414SP7225VALINHOS                                          0   0                   0   0       F-JULI@HOTMAIL.COM                                                                                                 51000000000000000500000000000000000N                                                                                                                                                                                                                                                                                  F
1F 160085640001001ELEICAO 2012 CLEBER ANTONIO SACCA VEREADOR                                                                                                                                                                   082012123101                                                                                                                                4090201207059492800RUA                 RAPHAEL DIAS DE SOUZA                                       41    RES A C II                                                                                                                                                  LOT ANA CAROLINA                                  13273651SP7225VALINHOS                                          0   0                   0   0       CLEBER.SACCA@HOTMAIL.COM                                                                                           51000000000000000500000000000000000N                                                                                                                                                                                                                                                                                  F
1F 160086150001021ELEICAO 2012 JOSE ROBERTO COELHO VEREADOR                                                                                                                                                                    082012123101                                                                                                                                4090201207059492800RUA                 JOAO BISSOTO FILHO                                          755   CASA                                                                                                                                                        BRO ORTIZES                                       13275410SP7225VALINHOS                                          0   0                   0   0       BETOCOELHOVALINHOS@HOTMAIL.COM                                                                                     51000000000000000500000000000000000N                                                                                                                                                                                                                                                                                  F
1F 160089760001401ELEICAO 2012 AURELICE SENTALIN VALVERDE VEREADOR                                                                                                                                                             082012123101                                                                                                                                4090201207059492800RUA                 Guilherme Mamprim                                           837   apto 03                                                                                                                                                     Jd. Pinheiros                                     13274450SP7225VALINHOS                                          0   0                   0   0       sentalinvalverde@hotmail.com                                                                                       51000000000000000500000000000000000N                                                                                                                                                                                                                                                                                  F
1F 160092370001731ELEICAO 2012 AILTON CESAR DA SILVA VEREADOR                                                                                                                                                                  082012123101                                                                                                                                4090201207059492800AVENIDA             AV.ANGELINA LACAVA BONANI                                   565   BL M AP43                                                                                                                                                   PQ DAS COLINAS                                    13273620SP7225VALINHOS                                          0   0                   0   0       ailtom.bruno@hotmail.com                                                                                           51000000000000000500000000000000000N                                                                                                                                                                                                                                                                                  F
1F 160095670001691ELEICAO 2012 DELFINA SABINO DE LIMA VEREADOR                                                                                                                                                                 082012123101                                                                                                                                4090201207059492800RUA                 Antonio Frederico Ozanan                                    41                                                                                                                                                                Vila Colega                                       13272404SP7225VALINHOS                                          0   0                   0   0                                                                                                                          51000000000000000500000000000000000N                                                                                                                                                                                                                                                                                  F
1F 160107130001761ELEICAO 2012 JOSE OSVALDO CAVALCANTE BELONI VEREADOR                                                                                                                                                         082012123101                                                                                                                                4090201207059492800RUA                 Abrantes                                                    4     Qd T                                                                                                                                                        Parque Portugal                                   13273282SP7225VALINHOS                                          0   0                   0   0                                                                                                                          51000000000000000500000000000000000N                                                                                                                                                                                                                                                                                  F
1F 160107980001921ELEICAO 2012 FABRICIO LEITE BIZARRI VEREADOR                                                                                                                                                                 082012123101                                                                                                                                4090201207059492800RUA                 HORACIO AMARAL                                              411   CASA                                                                                                                                                        JD PINHEIROS                                      13274360SP7225VALINHOS                                          0   0                   0   0       FABRICIOBIZARRI@HOTMAIL.COM                                                                                        51000000000000000500000000000000000N                                                                                                                                                                                                                                                                                  F
1F 160111070001751ELEICAO 2012 GERALDO DOS SANTOS DA SILVA VEREADOR                                                                                                                                                            082012123101                                                                                                                                4090201207059492800RUA                 Marino Antonio F. Polidoro                                  228                                                                                                                                                               Jd. America II                                    13272500SP7225VALINHOS                                          0   0                   0   0                                                                                                                          51000000000000000500000000000000000N                                                                                                                                                                                                                                                                                  F
1F 160124140001701ELEICAO 2012 DENIS CARLOS TORRES VEREADOR                                                                                                                                                                    082012123101                                                                                                                                4090201207059492800RUA                 Manoel Augusto                                              105                                                                                                                                                               Jd. America II                                    13272511SP7225VALINHOS                                          0   0                   0   0       dctnet@hotmail.com                                                                                                 51000000000000000500000000000000000N                                                                                                                                                                                                                                                                                  F
1F 160124750001381ELEICAO 2012 ANA MARIA DA SILVA VEREADOR                                                                                                                                                                     082012123101                                                                                                                                4090201207059492800RUA                 Antonio Lucas Falsarella                                    60                                                                                                                                                                Jd. Elisa                                         13275544SP7225VALINHOS                                          0   0                   0   0                                                                                                                          51000000000000000500000000000000000N                                                                                                                                                                                                                                                                                  F
1F 160131960001991ELEICAO 2012 VAGNER ALVES DE SOUZA VEREADOR                                                                                                                                                                  082012123101                                                                                                                                4090201207059492800RUA                 Eng. Antonio Mayr                                           380                                                                                                                                                               Jd. Panorama                                      13277460SP7225VALINHOS                                          0   0                   0   0       falecom@vagneralves.com.br                                                                                         51000000000000000500000000000000000N                                                                                                                                                                                                                                                                                  F
1F 160135020001971ELEICAO 2012 PAULO ROBERTO RODRIGUES VEREADOR                                                                                                                                                                082012123101                                                                                                                                4090201207059492800RUA                 Vico Levreiro                                               154                                                                                                                                                               Jd. Manacas                                       13273070SP7225VALINHOS                                          0   0                   0   0       paulopontepreta@hotmail.com                                                                                        51000000000000000500000000000000000N                                                                                                                                                                                                                                                                                  F
1F 160135770001781ELEICAO 2012 TIMOTEO BISPO DA SILVA VEREADOR                                                                                                                                                                 082012123101                                                                                                                                4090201207059492800RUA                 LINDOIA                                                     353   FD                                                                                                                                                          VILA SAO CRISTOVAO                                13276550SP7225VALINHOS                                          0   0                   0   0       TIMOTEOBISPO@HOTMAIL.COM                                                                                           51000000000000000500000000000000000N                                                                                                                                                                                                                                                                                  F
1F 160138300001931ELEICAO 2012 EDILSON BRUSCALIN VEREADOR                                                                                                                                                                      082012123101                                                                                                                                4090201207059492800RUA                 Imperatriz Maria Leopoldina                                 80                                                                                                                                                                Jd. Santo Antonio                                 13277020SP7225VALINHOS                                          0   0                   0   0       rp.edilson@gmail.com                                                                                               51000000000000000500000000000000000N                                                                                                                                                                                                                                                                                  F
1F 160138360001601ELEICAO 2012 ESTERINA LINARES VEREADOR                                                                                                                                                                       082012123101                                                                                                                                4090201207059492800RUA                 Quinze                                                      44                                                                                                                                                                Jd. Sao Marcos                                    13272829SP7225VALINHOS                                          0   0                   0   0                                                                                                                          51000000000000000500000000000000000N                                                                                                                                                                                                                                                                                  F
1F 160147450001401ELEICAO 2012 MARCIA APARECIDA TERNOSKE DOS SANTOS VEREADOR                                                                                                                                                   082012123101                                                                                                                                4090201207059492800AVENIDA             Remo Oscar Beseggio                                         365   BL 1 AP 22                                                                                                                                                  Parque CECAP                                      13273649SP7225VALINHOS                                          0   0                   0   0       marciaeleandro@hotmail.com                                                                                         51000000000000000500000000000000000N                                                                                                                                                                                                                                                                                  F
1F 160149310001891ELEICAO 2012 RODRIGO VIEIRA BRAGA FAGNANI VEREADOR                                                                                                                                                           082012123101                                                                                                                                4090201207059492800RUA                 Magnolias                                                   14                                                                                                                                                                CECAP                                             13273047SP7225VALINHOS                                          0   0                   0   0                                                                                                                          51000000000000000500000000000000000N                                                                                                                                                                                                                                                                                  F
1F 160151680001001ELEICAO 2012 ADRIANA APARECIDA IMBRUNITO VEREADOR                                                                                                                                                            082012123101                                                                                                                                4090201207059492800RUA                 Beja                                                        29    QD N                                                                                                                                                        Pq. Portugal                                      13273268SP7225VALINHOS                                          0   0                   0   0                                                                                                                          51000000000000000500000000000000000N                                                                                                                                                                                                                                                                                  F
1F 160154910001841ELEICAO 2012 FRANKLIN DUARTE DE LIMA VEREADOR                                                                                                                                                                082012123101                                                                                                                                4090201207059492800RUA                 LAURINDO MANZATTO                                           Q5 L26CASA                                                                                                                                                        SANTA GERTRUDES                                   13272794SP7225VALINHOS                                          0   0                   0   0       FRANKLINEDFISICA@YAHOO.COM.BR                                                                                      51000000000000000500000000000000000N                                                                                                                                                                                                                                                                                  F
1F 160155360001101ELEICAO 2012 LIANDRA ROVERE VEREADOR                                                                                                                                                                         082012123101                                                                                                                                4090201207059492800RUA                 ELIANA DE CASTRO                                            52    BL 3 AP 12                                                                                                                                                  PRQ MONTE VERDE                                   13275060SP7225VALINHOS                                          0   0                   0   0       LIANDRA.ROVERE@HOTMAIL.COM                                                                                         51000000000000000500000000000000000N                                                                                                                                                                                                                                                                                  F
1F 160155990001771ELEICAO 2012 MICHEL ROBERTO CONDE VEREADOR                                                                                                                                                                   082012123101                                                                                                                                4090201207059492800RUA                 Ricardo Giusepe Venturini                                   11                                                                                                                                                                Jd. Bom Retiro II                                 13275352SP7225VALINHOS                                          0   0                   0   0       nichelnegahouse@hotmail.com                                                                                        51000000000000000500000000000000000N                                                                                                                                                                                                                                                                                  F
1F 160156320001691ELEICAO 2012 EDUARDO TRISTAO DOS SANTOS VEREADOR                                                                                                                                                             082012123101                                                                                                                                4090201207059492800RUA                 Indaiatuba                                                  137                                                                                                                                                               Sao Cristovao                                     13276520SP7225VALINHOS                                          0   0                   0   0                                                                                                                          51000000000000000500000000000000000N                                                                                                                                                                                                                                                                                  F
1F 160174310001091ELEICAO 2012 CINTIA PESCE VEREADOR                                                                                                                                                                           082012123101                                                                                                                                4090201207059492800AVENIDA             Independencia                                               311                                                                                                                                                               Vila Olivo                                        13276030SP7225VALINHOS                                          0   0                   0   0       cintia.pesce@hotmail.com                                                                                           51000000000000000500000000000000000N                                                                                                                                                                                                                                                                                  F
1F 160177400001701ELEICAO 2012 NATALIA PINHEIRO DOMINAS ANDRADE VEREADOR                                                                                                                                                       082012123101                                                                                                                                4090201207059492800RUA                 ROVERE TROMBETTA                                            27    CASA                                                                                                                                                        JD MARACANA                                       13277584SP7225VALINHOS                                          0   0                   0   0       NA.PDANDRADE@HOTMAIL.COM                                                                                           51000000000000000500000000000000000N                                                                                                                                                                                                                                                                                  F
1F 160177590001171ELEICAO 2012 MARIA DE FATIMA SANTOS VEREADOR                                                                                                                                                                 082012123101                                                                                                                                4090201207059492800AVENIDA             GESSY LEVER                                                 915   CA222                                                                                                                                                       JD SAO FRANCISCO                                  13272000SP7225VALINHOS                                          0   0                   0   0       ENF.FATIMA@HOTMAIL.COM                                                                                             51000000000000000500000000000000000N                                                                                                                                                                                                                                                                                  F
1F 160180330001071ELEICAO 2012 MICHEL FERREIRA LODIS VEREADOR                                                                                                                                                                  082012123101                                                                                                                                4090201207059492800RUA                 MIGUEL BUSATO                                               168                                                                                                                                                               JD JUREMA                                         13272460SP7225VALINHOS                                          0   0                   0   0       MICHELLODIS@GMAIL.COM                                                                                              51000000000000000500000000000000000N                                                                                                                                                                                                                                                                                  F
1F 160184690001981ELEICAO 2012 EMERSON DE SOUZA GOMES VEREADOR                                                                                                                                                                 082012123101                                                                                                                                4090201207059492800RUA                 Joao Bissoto Filho                                          SN    cx 766                                                                                                                                                      Ortizes                                           13275410SP7225VALINHOS                                          0   0                   0   0                                                                                                                          51000000000000000500000000000000000N                                                                                                                                                                                                                                                                                  F
1F 160189270001991ELEICAO 2012 DANIELE CANTARANI VEREADOR                                                                                                                                                                      082012123101                                                                                                                                4090201207059492800RUA                 LUIZ JOSE JULIATTO                                          69    CASA                                                                                                                                                        VL.GENOVEVA                                       13277411SP7225VALINHOS                                          0   0                   0   0       DANI_RODRIGUES13@HOTMAIL.COM                                                                                       51000000000000000500000000000000000N                                                                                                                                                                                                                                                                                  F
1F 160207770001581ELEICAO 2012 SEBASTIAO DE NAZARE RAMOS VEREADOR                                                                                                                                                              082012123101                                                                                                                                4090201207059492800RUA                 Primo Zanella                                               260   Fundos                                                                                                                                                      Jd. America II                                    13272504SP7225VALINHOS                                          0   0                   0   0                                                                                                                          51000000000000000500000000000000000N                                                                                                                                                                                                                                                                                  F
1F 160221460001781ELEICAO 2012 ANTONIO MOSQUETO TOM SANTOS VEREADOR                                                                                                                                                            082012123101                                                                                                                                4090201207059492800RUA                 Senador Feijo                                               105                                                                                                                                                               Centro                                            13270110SP7225VALINHOS                                          0   0                   0   0       noticiasvalinhos@gmail.com                                                                                         51000000000000000500000000000000000N                                                                                                                                                                                                                                                                                  F
1F 160266250001621ELEICAO 2012 DULCIDIO SANTANA CHAVES VEREADOR                                                                                                                                                                082012123101                                                                                                                                4090201207059492800RUA                 Luiz Zanivan Filho                                          356                                                                                                                                                               Shangrila                                         13272450SP7225VALINHOS                                          0   0                   0   0                                                                                                                          51000000000000000500000000000000000N                                                                                                                                                                                                                                                                                  F
1F 160274950001821ELEICAO 2012 DARCI DUQUE VERGILIO VEREADOR                                                                                                                                                                   082012123101                                                                                                                                4090201207059492800RUA                 Italo Bordini                                               473                                                                                                                                                               Jd. do Lago                                       13277520SP7225VALINHOS                                          0   0                   0   0       dalphagesso@bol.com.br                                                                                             51000000000000000500000000000000000N                                                                                                                                                                                                                                                                                  F
1F 160305440001361ELEICAO 2012 ANJULUMAR ARAUJO SILVA VEREADOR                                                                                                                                                                 082012123101                                                                                                                                4090201207059492800RUA                 Paulo Trombeta                                              29    Fundos                                                                                                                                                      Jd. Bom Retiro                                    13275240SP7225VALINHOS                                          0   0                   0   0                                                                                                                          51000000000000000500000000000000000N                                                                                                                                                                                                                                                                                  F
