1F 102148380001311PHARMATRONIC INDUSTRIA E COMERCIO LTDA                                                                                                                PHARMATRONIC                                           082015051101                                                                                                                                2062200806061099607RUA                 DOZE DE OUTUBRO                                             540                                                                                                                                                               VILA SANTANA                                      13274125SP7225VALINHOS                                          19  3849477719  3849729619  38497296atendimento@adcononline.cnt.br                                                                                     49000000050000000152008060600000000N                                                                                                                                                                                                                                                                                  F
1F 102148380002122PHARMATRONIC INDUSTRIA E COMERCIO LTDA                                                                                                                                                                       082010040954                                                                                                                                2062200907164663000RUA                 DOZE DE OUTUBRO                                             540                                                                                                                                                               VILA SANTANA                                      13274125SP7225VALINHOS                                          15  3237119515  3227953815  32279538orgcontabilsrc@uol.com.br                                                                                          49000000000000000152008060600000000                        00000000                                                                                                                                                                                                                                                   F
1F 102177140001001ALESPORT ASSESSORIA ESPORTIVA LTDA.                                                                                                                                                                          082017040401                                                                                                                                2062200807229319199RUA                 JOSE ORESTES CASACIO                                        118                                                                                                                                                               JARDIM PARQUE DAS FIGUEIRAS                       13275610SP7225VALINHOS                                          11  4521623311  4521623311  45216233oalianca@terra.com.br                                                                                              49000000004000000100000000000000000N                                                                                                                                                                                                                                                                                  F
1F 102192090001021TACIANE REPRESENTACOES EIRELI                                                                                                                         A.D COMERCIAL                                          022006100400                                                                                                                                2305200610044613300RUA                 PEDRO DE LUCCA                                              22    BOX   2                   APT   44                                                                                                                          PARQUE FLORENCE                                   13277618SP7225VALINHOS                                          11  40332885            11  21458851ATC.CONT@TERRA.COM.BR                                                                                              65000000096000000152015010100000000N                                                                                                                                                                                                                                                                                  F
1F 102193590001081JOSE CARLOS TORDIN PRIMO                                                                                                                                                                                     022008072800                                                                                                                                4120200807280133499CHﾃ，ARA             LENHEIRO                                                    S/N                                                                                                                                                               VILA CAPUAVA                                      13273157SP7225VALINHOS                                          19  38496826                                                                                                                                           59000000000000000500000000000000000N                                                                                                                                                                                                                                                                                  F
1F 102201960001831L D B G COMERCIO DE MATERIAIS PARA ARTESANATO LTDA                                                                                                                                                           082011090901                                                                                                                                2062200807114789001AVENIDA             JOAQUIM ALVES CORREA                                        2833                                                                                                                                                              JARDIM S JORGE                                    13277055SP7225VALINHOS                                          19  3871454419  3871652519  38716525abolicao@hiway.com.br                                                                                              49000000020000000162008071120110909N                                                                                                                                                                                                                                                                                  F
1F 102209570003692614 INTERIOR LINHA S.A.                                                                                                                               BIGTV                                                  082009043002                                                                                                                                2054200808277739099RUA                 LOURENCO FERRARI                                            387   SALA  01                                                                                                                                                    JARDIM DOS MANACAS                                13273071SP7225VALINHOS                                          11  2246490311  2246492011  22464931s_porto@flash.net.br                                                                                               10000000000000000500000000000000000                        00000000                                                                                                                                                                                                                                                   F
1F 102220600001021EMPORIO SANTA MARIA MOVEIS E DECORACOES LIMITADA                                                                                                      EMPORIO SANTA MARIA MOVEIS E DECORACOES                082014080501                                                                                                                                2062200807174754701RUA                 SILVIO CONCON                                               99                                                                                                                                                                JARDIM RIBEIRO                                    13270140SP7225VALINHOS                                          19  3871621119  3871895919  38716211veigaepostal@veigaepostal.com.br                                                                                   49000000100000000162008071720140805N                                                                                                                                                                                                                                                                                  F
1F 102262910001941ALB - SOLUCOES EM TECNOLOGIA DA INFORMACAO LTDA                                                                                                       ALB - SOLUCOES EM TI                                   042018121863                                                                                                                                2062200807186204000RUA                 LUIZ BISSOTO                                                662   APT   22                  BLOCO A06                                                                                                                         JARDIM BOM RETIRO I                               13275900SP7225VALINHOS                                          19  3949202219  96355812            ceciliacontabilidade@yahoo.com.br                                                                                  49000000003000000100000000000000000N                                                                                                                                                                                                                                                                                  F
1F 102280510001291IVETE LUTAIF SAYEG E OUTROS                                                                                                                                                                                  022008072300                                                                                                                                4120200807230133499CHﾃ，ARA             CAPUAVA                                                     S/N                                                                                                                                                               CAPUAVA                                           13273144SP7225VALINHOS                                          11  8836058                                                                                                                                            59000000000000000500000000000000000N                                                                                                                                                                                                                                                                                  F
1F 102293210001161DMD SOLUTIONS SISTEMAS DE AR E AMBIENTES CONTROLADOS EIRELI                                                                                                                                                  022008072200                                                                                                                                2305200807222824101RUA                 ANTONIO RAPOSO TAVARES (PORTAL DO ANHANGUERA)               93    SALA  01                  LOTE  02                  QUADRAC                                                                                                 MACUCO                                            13279390SP7225VALINHOS                                          19  41170760            19  41170760NUCLEO@NUCLEOCONTABIL.COM.BR                                                                                       65000000079000000162018010120181231N                                                                                                                                                                                                                                                                                  F
1F 102296910001531M T PROJETOS DE INFORMATICA LIMITADA                                                                                                                  DUPLATEC TECNOLOGIA E SERVICOS                         082009122401                                                                                                                                2062200807256204000ESTRADA             MUNICIPAL                                                   481         UNIDADE 1                                                                                                                                             CAPUAVA                                           13272181SP7225VALINHOS                                          19  3871621119  3871895919  38716211veigaepostal@veigaepostal.com.br                                                                                   49000000020000000100000000000000000N                                                                                                                                                                                                                                                                                  F
1F 102302810001221JOHN WILLIAM HENNESSEY                                                                                                                                                                                       022008071100                                                                                                                                2135200807114744001RUA                 ANTENOR BERGAMO                                             520                                                                                                                                                               LOTEAMENTO RESIDENCIAL PARQUE DOS COCAIS          13273250SP7225VALINHOS                                          19  3871621119  3871895919  38716211veigaepostal@veigaepostal.com.br                                                                                   50000000010000000162008071120161231N                                                                                                                                                                                                                                                                                  F
1F 102304890001411HILL COMERCIO ATACADISTA DE EMBALAGENS EIRELI                                                                                                                                                                042018121863                                                                                                                                2305200807214686902RUA                 RUI BARBOSA                                                 249   SALA  1                                                                                                                                                     CHACARA DARCY                                     13270340SP7225VALINHOS                                          19  2513009019  2513009019  32415763hill.eletronicos@hotmail.com                                                                                       65000000200000000162008072120081231N                                                                                                                                                                                                                                                                                  F
1F 102309220001491CAFETERIA E TABACARIA ''CAFE .COM''  LTDA.                                                                                                            CEFETERIA E TABACARIA ''CAFE .COM''                    022008071800                                                                                                                                2062200807185611203RUA                 XV DE NOVEMBRO                                              47                                                                                                                                                                CENTRO                                            13270130SP7225VALINHOS                                          19  3869801119  3869860919  38713723alessandra@pivacontabilidade.com.br                                                                                49000000030000000152008071800000000N                                                                                                                                                                                                                                                                                  F
1F 102309700001371FCF - CENTRO DE TREINAMENTO FISICO LTDA                                                                                                               CENTRO DE TREINAMENTO PERSONALIZADO PERSONAL FIT       022008072400                                                                                                                                2062200807249313100RUA                 PAIQUERE                                                    1597                                                                                                                                                              JARDIM PAIQUERE                                   13271600SP7225VALINHOS                                          19  33273001            19  38716211FABIANA@PERSONALFIT.COM.BR                                                                                         49000000010000000152012010100000000N                                                                                                                                                                                                                                                                                  F
1F 102332850001641JONAS COMERCIO DE AREIA E PEDRA LTDA.                                                                                                                                                                        022008072500                                                                                                                                2062200807254744004AVENIDA             ROSA BELMIRO RAMOS                                          SN    CASA  277                                                                                                                                                   ORTIZES                                           13275400SP7225VALINHOS                                          19  38695633            19  38712090RAFAEL@ESCRITORIOVALINHENSE.COM.BR                                                                                 49000000010000000152008072500000000N                                                                                                                                                                                                                                                                                  F
1F 102335450001001RONCAGLIA EMPREENDIMENTOS IMOBILIARIOS LTDA.                                                                                                                                                                 022008072800                                                                                                                                2062200807286810201RUA                 BRASILIA                                                    306                                                                                                                                                               VILA SONIA                                        13274008SP7225VALINHOS                                          19  38711181                                                                                                                                           49000000640000000500000000000000000N                                                                                                                                                                                                                                                                                  F
1F 102359640001721PORTAL FORTUNA LTDA                                                                                                                                   FORTUNA                                                082015072101                                                                                                                                2062200807287319003RUA                 DOM JOAO VI                                                 442                                                                                                                                                               JARDIM SANTO ANTONIO                              13277040SP7225VALINHOS                                          19  3871621119  3871895919  38716211VEIGAEPOSTAL@VEIGAEPOSTAL.COM.BR                                                                                   49000000003000000152008072800000000N                                                                                                                                                                                                                                                                                  F
1F 102380710001801VITORI - COMERCIO DE PECAS AUTOMOTIVAS E SERVICOS DE BORRACHARIA LTDA                                                                                                                                        022008061900                                                                                                                                2062200806194530703RUA                 CAMPOS SALLES                                               S/N   LOTE  38 - G              QUADRA2                                                                                                                           CHACARA DAS NACOES                                13272350SP7225VALINHOS                                          19  38497000                        contsenador@hotmail.com                                                                                            49000000010000000152008061900000000N                                                                                                                                                                                                                                                                                  F
1F 102380800001711JOSE RAGAZZI                                                                                                                                                                                                 022008070700                                                                                                                                4120200807070133499CHﾃ，ARA             BOM JESUS                                                   S/N   CXPST 344                                                                                                                                                   MACUCO                                            13279451SP7225VALINHOS                                          19  38811490                                                                                                                                           59000000000000000500000000000000000N                                                                                                                                                                                                                                                                                  F
1F 102390730001941AMARANTE SERVICOS DE INFORMATICA LTDA                                                                                                                                                                        022008061800                                                                                                                                2062200806189511800ALAMEDA             DAS GOIABEIRAS                                              19                                                                                                                                                                PARQUE VALINHOS                                   13274704SP7225VALINHOS                                          11  41987456                        processos@contabilidadeunipress.com.br                                                                             49000000005000000152018010100000000N                                                                                                                                                                                                                                                                                  F
1F 102398320001191ANDRE GIACULLO LANCHONETE LTDA                                                                                                                                                                               042018121863                                                                                                                                2062200807285611203RUA                 ARIOVALDO ANTONIO BUCATTE                                   345                                                                                                                                                               CHACARAS SAO BENTO                                13278041SP7225VALINHOS                                          19  38812183                        hpozzuto@hotmail.com                                                                                               49000000010000000162008072820141231N                                                                                                                                                                                                                                                                                  F
1F 102460990001601RAILDA B DO NASCIMENTO POUSADA                                                                                                                        POUSADA A CASA E SUA                                   042018121863                                                                                                                                2135200806245510801RUA                 RUI BARBOSA                                                 583                                                                                                                                                               JARDIM PRIMAVERA                                  13270340SP7225VALINHOS                                          19  3849477719  3849729619  38497296atendimento@adcononline.cnt.br                                                                                     50000000010000000162010010120141231N                                                                                                                                                                                                                                                                                  F
1F 102461110001361MELLO & MONTEIRO CORRETORA DE SEGUROS LTDA                                                                                                                                                                   022008073100                                                                                                                                2062200807316622300RUA                 DOM BARRETO                                                 22    SALA  1                                                                                                                                                     EMBARE                                            13271150SP7225VALINHOS                                          19  38692625                                                                                                                                           49000000005000000152015010100000000N                                                                                                                                                                                                                                                                                  F
1F 102461820001391MAYCON APARECIDO DA SILVA INFORMATICA                                                                                                                 PONTO COM INFORMATICA                                  022008072400                                                                                                                                2135200807244751201RUA                 DOUTOR CANDIDO FERREIRA                                     163   SALA  04                                                                                                                                                    CENTRO                                            13270040SP7225VALINHOS                                          19  3849477719  3849729619  38497296atendimento@adcononline.cnt.br                                                                                     50000000010000000162018010120181231N                                                                                                                                                                                                                                                                                  F
1F 102462750001631ISAIAS LUIS DOS SANTOS VIDROS                                                                                                                                                                                022008051900                                                                                                                                2135200805194785799RUA                 CAMPOS SALLES                                               1694                                                                                                                                                              JARDIM JUREMA                                     13272477SP7225VALINHOS                                          19  38497000                        contsenador@hotmail.com                                                                                            50000000010000000152009010100000000N                                                                                                                                                                                                                                                                                  F
1F 102500810001311MAURICIO PASCOA                                                                                                                                       BAR NOSSA SENHORA APARECIDA                            082018070601                                                                                                                                2135200807255611204RUA                 JOAQUIM DA SILVA MOREIRA                                    150                                                                                                                                                               JARDIM PINHEIROS                                  13274310SP7225VALINHOS                                          19  38718453                        contess@contess.cnt.br                                                                                             50000000010000000162016010120180706N                                                                                                                                                                                                                                                                                  F
1F 102503040001601NEGRELO & PELEGATI LTDA                                                                                                                                                                                      022008080100                                                                                                                                2062200808019313100RUA                 SAMUEL FRAGOSO COIMBRA                                      346                                                                                                                                                               VILA NOVA VALINHOS                                13271280SP7225VALINHOS                                          19  83839143            19  38715442EDPELEGATI@TERRA.COM.BR                                                                                            49000000005000000152008080100000000N                                                                                                                                                                                                                                                                                  F
1F 102508990001541LUGANO BIOMEDICA- COMERCIO DE PRODUTOS HOSPITALARES LTDA                                                                                              LUGANO BIOMEDICA                                       022008072400                                                                                                                                2062200807244645101RUA                 EUGENIO FRANCESCHINI                                        25    SALA  21                                                                                                                                                    CENTRO                                            13270080SP7225VALINHOS                                          19  3294545419  3294541219  32945454soma@soma-assessoria.com.br                                                                                        49000000020000000352016010100000000N                                                                                                                                                                                                                                                                                  F
1F 102515180001511JEAN CARLOS PIMENTEL BARBOSA                                                                                                                          AUTO MECANICA CARLINHOS                                022008072400                                                                                                                                2135200807244520001AVENIDA             JOAO ANTUNES DOS SANTOS                                     956   SALA: COMERCIAL;                                                                                                                                            JARDIM PINHEIROS                                  13274290SP7225VALINHOS                                          19  38718360                        DELUCCACONTABILIDADE@YAHOO.COM.BR                                                                                  50000000010000000162008072420171231N                                                                                                                                                                                                                                                                                  F
1F 102515620001611MAURICIO BERNARDI E OUTROS                                                                                                                                                                                   022008080400                                                                                                                                4120200808040133499CHﾃ，ARA             ALPINA                                                      S/N                                                                                                                                                               CHACARAS ALPINAS                                  13274465SP7225VALINHOS                                          19  38691728                                                                                                                                           59000000000000000500000000000000000N                                                                                                                                                                                                                                                                                  F
1F 102538770001481SPA SHOPPING VALINHOS - CLINICA ESTETICA LTDA.                                                                                                                                                               042018102463                                                                                                                                2062200807169602502RUA                 LUIZ SPIANDORELLI NETO                                      47    SALA  2                   EDIF  JEQUITIBA                                                                                                                   JARDIM PAIQUERE                                   13271570SP7225VALINHOS                                          19  30446657            19  37052880CONSULTECCONTABILIDADE@BOL.COM.BR                                                                                  49000000388000000162009010120151231N                                                                                                                                                                                                                                                                                  F
1F 102539770001741R&T COMERCIO DE PRODUTOS OTICOS E RELOGIOS EIRELI                                                                                                     CHILLI BEANS                                           022008080400                                                                                                                                2305200808044774100RUA                 PAIQUERE                                                    206         QUIOSQUE N 102            PISO 1                    Q.102                                                                                             JARDIM PAIQUERE                                   13271600SP7225VALINHOS                                          19  81812669                        RICARDO@OTICAELIS.COM.BR                                                                                           65000000120000000152019010100000000N                                                                                                                                                                                                                                                                                  F
1F 102548670001271DESENVOLVER E TREINAMENTOS LTDA                                                                                                                                                                              042018102463                                                                                                                                2062200808018599699RUA                 EUCLIDES DA CUNHA                                           28                                                                                                                                                                JD PRIMAVERA                                      13270330SP7225VALINHOS                                          11  32270066            11  33132317tecnofis@terra.com.br                                                                                              49000000010000000162008080120151231N                                                                                                                                                                                                                                                                                  F
1F 102552980001341DEVANIR GONCALVES                                                                                                                                                                                            022008080700                                                                                                                                4120200808070133499RECANTO             D & J                                                       S/N   CXPST 249                                                                                                                                                   VILA CAPUAVA                                      13273160SP7225VALINHOS                                          19  38714465                                                                                                                                           59000000000000000500000000000000000N                                                                                                                                                                                                                                                                                  F
1F 102564130001951CAP VALINHOS COMERCIO DE AUTO PECAS LTDA                                                                                                                                                                     022008080400                                                                                                                                2062200808044530703RUA                 TREZE DE MAIO                                               824                                                                                                                                                               VILA OLIVO                                        13276020SP7225VALINHOS                                          19  38294400                        CENTRALVALINHOS@TERRA.COM.BR                                                                                       49000000100000000352008080400000000N                                                                                                                                                                                                                                                                                  F
1F 102564260001641CARTONAGEM EMBALARTE LTDA                                                                                                                                                                                    022008031300                                                                                                                                2062200803131731100RUA                 MARCILIO ANIBAL                                             55    LOTE  43                  QUADRAB                         LOT. PAQ. DOS COCAIS                                                                              ESPIRITO SANTO                                    13270005SP7225VALINHOS                                          19  38497000                        contsenador@hotmail.com                                                                                            49000000010000000152008031300000000N                                                                                                                                                                                                                                                                                  F
1F 102566100001041MAR - CIANO COMERCIO E SERVICOS DE PISCINAS LTDA                                                                                                                                                             022008072300                                                                                                                                2062200807234744005RUA                 ANGELO BARBISAN                                             26                                                                                                                                                                JARDIM MARACANA                                   13277590SP7225VALINHOS                                          19  38497001                        contsenador@hotmail.com                                                                                            49000000020000000152008072300000000N                                                                                                                                                                                                                                                                                  F
1F 102580150003702PENIEL PARK ESTACIONAMENTO E SERVICOS LTDA                                                                                                            ENGEPARK VALLET & PARKING                              022017060700                                                                                                                                2062201706075223100AVENIDA             DOUTOR ANTONIO BENTO FERRAZ                                 215   LOTE  41                                                                                                                                                    DOIS CORREGOS                                     13278160SP7225VALINHOS                                          11  47268490                        INOVCONTABIL@INOVCONTABIL.COM                                                                                      49000000000000000162008072820181231                        00000000                                                                                                                                                                                                                                                   F
1F 102592260002462ARISTIDES DOS SANTOS                                                                                                                                                                                         022014080700                                                                                                                                4120201408070133499RUA                 CAMPOS SALLES                                               1373  : CHACARA SAO JOSE;                                                                                                                                         VILA FAUSTINA II                                  13272350SP7225VALINHOS                                          19  38715537                                                                                                                                           59000000000000000500000000000000000                        00000000                                                                                                                                                                                                                                                   F
1F 102596450002882MULTIVAC DO BRASIL SISTEMAS PARA EMBALAGEM  EIRELI                                                                                                                                                           022009062300                                                                                                                                2305200906234686902RUA                 MARTINHO LEARDINE                                           306   QUADRAA                   LOTE  8                                                                                                                           CHACARAS SILVANIA                                 13271650SP7225VALINHOS                                          19  3795082341  3221777719  37950823THOMAS.GAMP@BR.MULTIVAC.COM                                                                                        05000000000000000500000000000000000                        00000000                                                                                                                                                                                                                                                   F
1F 102603520001301JOSE RAIMUNDO DOS SANTOS E OUTROS                                                                                                                                                                            022008080700                                                                                                                                4120200808070133499CHﾃ，ARA             BOM DIA                                                     S/N                                                                                                                                                               MACUCO                                            13279411SP7225VALINHOS                                          19  38490773                                                                                                                                           59000000000000000500000000000000000N                                                                                                                                                                                                                                                                                  F
1F 102606610001001ARRAYANES COMERCIO IMPORTACAO E EXPORTACAO DE PRODUTOS INFANTIS EIRELI                                                                                                                                       022008080400                                                                                                                                2305200808044759899RUA                 DR LUIS SPIANDORELLI NETO                                   60    SALA  308                                                                                                                                                   JARDIM PAIQUERE                                   13271570SP7225VALINHOS                                          19  3871621119  3871895919  38716211FINANCEIRO@ITTE.COM.BR                                                                                             65000000100000000152013010100000000N                                                                                                                                                                                                                                                                                  F
1F 102623020001911MARCELO LUCHETTI VIEIRA                                                                                                                               ITALYWORLD BRASILE                                     082010031701                                                                                                                                2135200807304614100RUA                 ANTONIO CARLOS                                              31    SALA  03                                                                                                                                                    CENTRO                                            13270005SP7225VALINHOS                                          18  38212607                        escdiametro@uol.com.br                                                                                             50000000015000000100000000000000000N                                                                                                                                                                                                                                                                                  F
1F 102634660001331LUVISARI CAMPOS COMERCIO E SERVICOS DE INFORMATICA LIMITADA                                                                                           RLC COMERCIO E SERVICOS DE INFORMATICA                 082010010801                                                                                                                                2062200807154751201ESTRADA             MUNICIPAL DO RONCAGLIA                                      450         CASA 103                                                                                                                                              CONDOMINIO RESIDENCIAL SAO JOAQUIM                13270970SP7225VALINHOS                                          19  3871621119  3871895919  38716211veigaepostal@veigaepostal.com.br                                                                                   49000000010000000162008071520100108N                                                                                                                                                                                                                                                                                  F
1F 102639460001021BARBISAN E DELAIN BAR LIMITADA                                                                                                                        RIC BAR                                                082013070101                                                                                                                                2062200807175611204RUA                 LOURENCO FERRARI                                            295         ESQ. C/LUIZ DE F.PIN                                                                                                                                  RESIDENCIAL FONTE NOVA                            13273071SP7225VALINHOS                                          19  3869540619  39295413            contabilidade.jair@terra.com.br                                                                                    49000000005000000162008071720130701N                                                                                                                                                                                                                                                                                  F
1F 102640010001051MINERACAO CAMPOS DOURADOS LTDA                                                                                                                                                                               082017060601                                                                                                                                2062200807180724301RUA                 IRIO GIARDELLI                                              47    SALA  601                 COND  VERTICE                                                                                                                     JARDIM PAIQUERE                                   13271570SP7225VALINHOS                                          19  3327851819  3327734619  33278518chico.azevedo@gfexpl.com                                                                                           49000000001000000500000000000000000N                                                                                                                                                                                                                                                                                  F
1F 102640850001791JULIO BIANCHIN PELEGATI                                                                                                                               CLICHERIA PELEGATI NORDESTE                            022008072800                                                                                                                                2135200807288211300RUA                 MODESTA POLLI MARTINS                                       72                                                                                                                                                                VILA NORMA                                        13270280SP7225VALINHOS                                          19  38710205                                                                                                                                           50000000010000000162017010120171231N                                                                                                                                                                                                                                                                                  F
1F 102641060001561SILVA E BERNAL MODAS LTDA                                                                                                                                                                                    022008072900                                                                                                                                2062200807294781400AVENIDA             DR HEITOR PENTEADO                                          95                                                                                                                                                                CENTRO                                            13270060SP7225VALINHOS                                          19  32325886                        alinenovasol@hotmail.com                                                                                           49000000010000000152008072900000000N                                                                                                                                                                                                                                                                                  F
1F 102679740001901LEBRE COMERCIO DE ALIMENTOS LTDA                                                                                                                      SUSHI & CIA                                            022008080400                                                                                                                                2062200808045611201RUA                 PEDRO LEARDINI                                              356         360                                                                                                                                                   C.R.C.VILA TOSCANA                                13271651SP7225VALINHOS                                          11  7840155219  3829435019  38294350contabilidade@anselmietrovatti.com.br                                                                              49000000030000000152019010100000000N                                                                                                                                                                                                                                                                                  F
1F 102682590001711ROWANA RESTAURANTE E PIZZARIA LTDA.                                                                                                                   CAFE E RESTAURANTE ACONCHEGO                           082017010601                                                                                                                                2062200808055611201AVENIDA             DOS ESPORTES                                                542                                                                                                                                                               VILA BISSOTO                                      13270210SP7225VALINHOS                                          11  50833594            11  39693594assessoria-contabil@uol.com.br                                                                                     49000000050000000152008080500000000N                                                                                                                                                                                                                                                                                  F
1F 102682770001531LEONILDA BERNINI DA COSTA MARCIANO                                                                                                                    POSTE PADRAO PRONTO                                    022008080500                                                                                                                                2135200808054744099RUA                 VITALIANO PELEGATTI                                         431                                                                                                                                                               PONTE ALTA                                        13277640SP7225VALINHOS                                          14  81645277            19  38714544LEO.PADRAO@YAHOO.COM.BR                                                                                            50000000025000000162008080520151231N                                                                                                                                                                                                                                                                                  F
1F 102683290001911I D C SISTEMAS INTELIGENTES DE GERENCIAMENTO DE ACESSOS LTDA                                                                                          IDC SIGA                                               022008051500                                                                                                                                2062200805154321500RUA                 ANGELO CAPOVILA                                             353   SALA  02                  LOTE  9                   QUADRAC                                                                                                 JARDIM AMERICA                                    13276390SP7225VALINHOS                                          19  3869409019  3327888019  38694090CONTATO@IDCSIGA.COM.BR                                                                                             49000000010000000152008051500000000N                                                                                                                                                                                                                                                                                  F
1F 102690880001031ASSOCIACAO DOS GUARDAS MUNICIPAIS DE VALINHOS - AGMV                                                                                                  ASSOCIACAO DOS GUARDAS MUNICIPAIS DE VALINHOS - AGMV   022019051600                                                                                                                                3999200808019499500RUA                 CARLOS ORSI                                                 289                                                                                                                                                               ALTO DA COLINA                                    13272303SP7225VALINHOS                                          19  38496004            19  38496004afreaza@superig.com.br                                                                                             16000000000000000500000000000000000N                                                                                                                                                                                                                                                                                  F
1F 102694910001241L.G.L.CONSULTORIA EM GESTAO EMPRESARIAL LTDA                                                                                                                                                                 082012091701                                                                                                                                2062200808067020400RUA                 ANTONIO CARLOS                                              68    SALA  3A                                                                                                                                                    CENTRO                                            13270005SP7225VALINHOS                                          19  38692566                        leilaglima@hotmail.com                                                                                             49000000002000000100000000000000000N                                                                                                                                                                                                                                                                                  F
1F 102710140001011ELEICAO 2008 NEUSA HELENA ALVES VEREADOR                                                                                                                                                                     082008123101                                                                                                                                4090200808169492800RUA                 RUA LUIZ BISSOTO                                            662   ATO 04 - BLOCO A 12                                                                                                                                         VILA Sﾃグ JOAQUIM                                  13275110SP7225VALINHOS                                          0   0                   0   0                                                                                                                          51000000000000000500000000000000000N                                                                                                                                                                                                                                                                                  F
1F 102718030001341EDNA FAVARO                                                                                                                                                                                                  032015012621                                                                                                                                2135200808044771701AVENIDA             JOAO ANTUNES DOS SANTOS                                     295                                                                                                                                                               JARDIM PINHEIROS                                  13274290SP7225VALINHOS                                          19  3871531219  3869628719  38696287valtriani@superig.com.br                                                                                           50000000015000000152008080400000000N                                                                                                                                                                                                                                                                                  F
1F 102729510001731MARCELO DANIEL PEDROSO ELETRICA                                                                                                                                                                              042018102463                                                                                                                                2135200808124321500RUA                 ADOLPHO MARIO BARDUCHI                                      11                                                                                                                                                                JD S FRANCISCO                                    13272154SP7225VALINHOS                                          19  8127225519  38698049            vicentta@hotmail.com                                                                                               50000000003000000162008081220141231N                                                                                                                                                                                                                                                                                  F
1F 102748900001831VESGUERBER COMERCIO DE PECAS E SERVICOS LTDA                                                                                                          DUBAI AR CONDICIONADO                                  022008072800                                                                                                                                2062200807289529199RUA                 DOUTOR CANDIDO FERREIRA                                     360                                                                                                                                                               CENTRO                                            13270040SP7225VALINHOS                                          19  38692513            19  38495449METODO.CONTABIL@TERRA.COM.BR                                                                                       49000000010000000100000000000000000N                                                                                                                                                                                                                                                                                  F
1F 102821520001881FELIX & MAZZO LIMITADA                                                                                                                                BAR FONTE NOVA                                         042018102463                                                                                                                                2062200807315611204RUA                 DAS ACACIAS                                                 1026                                                                                                                                                              PARQUE CECAP                                      13273390SP7225VALINHOS                                          19  3871621119  3871895919  38716211veigaepostal@veigaepostal.com.br                                                                                   49000000010000000162008073120151231N                                                                                                                                                                                                                                                                                  F
1F 102825480001251C. A. BORDIN & BORDIN LIMITADA                                                                                                                                                                               082017092201                                                                                                                                2062200808128219999AVENIDA             INDEPENDENCIA                                               840                                                                                                                                                               JARDIM PRIMAVERA                                  13276030SP7225VALINHOS                                          19  3871621119  3871895919  38716211veigaepostal@veigaepostal.com.br                                                                                   49000000010000000152008081200000000N                                                                                                                                                                                                                                                                                  F
1F 102839610001041AB IMPORTADORA & EXPORTADORA LTDA                                                                                                                     AB TRADE                                               022018122000                                                                                                                                2062200807084762800RUA                 DOS ALECRINS                                                389                                                                                                                                                               PARQUE CECAP                                      13273400SP7225VALINHOS                                          19  92017997                        ANTONIO.D.BRITO@HOTMAIL.COM                                                                                        49000000020000000162008070820111231N                                                                                                                                                                                                                                                                                  F
1F 102839950001071VALISHOP COMERCIO VAREJISTA DE ELETRONICOS E ASSISTENCIA TECNICA LTDA                                                                                 VALISHOP                                               032015012621                                                                                                                                2062200808124753900RUA                 DOM NERY                                                    844   SALA  3                                                                                                                                                     JARDIM RIBEIRO                                    13271170SP7225VALINHOS                                          19  3871454419  3871652519  38716525abolicao@hiway.com.br                                                                                              49000000006000000162008081220101231N                                                                                                                                                                                                                                                                                  F
1F 102840190001601RRC - CONFECCOES DE CARIMBOS LTDA                                                                                                                                                                            032014062621                                                                                                                                2062200808048299703AVENIDA             INDEPENDENCIA                                               1911  SALA  02                                                                                                                                                    JARDIM SANTO ANTONIO                              13277000SP7225VALINHOS                                          19  32410192            19  32438277acf@fassoli.com.br                                                                                                 49000000010000000152008080400000000N                                                                                                                                                                                                                                                                                  F
1F 102875410001041ANTONIO TROMBETTA                                                                                                                                                                                            022008081400                                                                                                                                4120200808140119999ESTRADA             CRT 278 C5 S/N                                              S/N   CXPST 4056 CEP.13271-970                                                                                                                                    CH ALPINAS                                        13270005SP7225VALINHOS                                          19  3869573319  2122443219  38697074claudia@vivamotors.com.br                                                                                          59000000000000000500000000000000000N                                                                                                                                                                                                                                                                                  F
1F 102886320001561STOP DESPACHANTE IMOBILIARIO LTDA                                                                                                                     STOP CRED                                              022008080800                                                                                                                                2062200808088211300RUA                 EUGENIO FRANCESCHINI                                        48          SALA 01                                                                                                                                               CENTRO                                            13270080SP7225VALINHOS                                          19  93970773                        CARLOS-LOVATO@BOL.COM.BR                                                                                           49000000005000000152008080800000000N                                                                                                                                                                                                                                                                                  F
1F 102905650001041WILSON LEOPOLDO DA SILVA JUNIOR                                                                                                                                                                              022008081200                                                                                                                                2135200808124511102RUA                 ROSA GIARDELLI MANPRIN                                      39                                                                                                                                                                JARDIM RIBEIRO                                    13270160SP7225VALINHOS                                          19  32347896                        VICENTE@TECLA.COM.BR                                                                                               50000000005000000152008081200000000N                                                                                                                                                                                                                                                                                  F
1F 102911240001271CONDOMINIO EDIFICIO CEDRO ROSA                                                                                                                                                                               022008061800                                                                                                                                3085200806188112500RUA                 ITALO BORDINI                                               820                                                                                                                                                               JARDIM PACAEMBU                                   13277520SP7225VALINHOS                                          19  3271212219  3271212219  32712190                                                                                                                   19000000000000000500000000000000000N                                                                                                                                                                                                                                                                                  F
1F 102911830001031ADEMIR J.H.N.PINO                                                                                                                                     CAMP-PALET                                             082019052801                                                                                                                                2135200808044744002RUA                 DOS CORREIOS                                                S/N   LOTE  2                   QUADRAI                                                                                                                           CHACARAS JOAPIRANGA                               13279403SP7225VALINHOS                                          19  3869338819  3869396619  38492712contabilidade@anselmietrovatti.com.br                                                                              50000000010000000162008080420181231N                                                                                                                                                                                                                                                                                  F
1F 102911910001411JIU & XU BAZAR LTDA                                                                                                                                                                                          082010100701                                                                                                                                2062200808204713002RUA                 ANTON IO CARLOS                                             206                                                                                                                                                               CENTRO                                            13270005SP7225VALINHOS                                          19  38656572            19  38494949mapdelucca@doctordata.com.br                                                                                       49000000088000000162008082020101007N                                                                                                                                                                                                                                                                                  F
1F 102912990001341THEORIA TECNOLOGIA DA INFORMACAO LTDA                                                                                                                 THEORIA TI                                             022008082000                                                                                                                                2062200808209511800RUA                 IRIO GIARDELLI                                              47    COND  207                       VERTICE             COND  2                                                                                                 LOTEAMENTO PAIQUERE                               13271565SP7225VALINHOS                                          19  38715106            19  38862062EDNALDO.FAVARO@PLUS-TI.COM.BR                                                                                      49000000005000000152012010100000000N                                                                                                                                                                                                                                                                                  F
1F 102914360001301CHESTER FURUMOTO DE ALMEIDA                                                                                                                                                                                  082014052701                                                                                                                                2135200807319609208ALAMEDA             ITAJUBA                                                     2236                                                                                                                                                              JOAPIRANGA                                        13278530SP7225VALINHOS                                          19  32732506                        sidney_farina@uol.com.br                                                                                           50000000005000000100000000000000000N                                                                                                                                                                                                                                                                                  F
1F 102915200001541TAMISO & CIA LTDA                                                                                                                                                                                            022008080700                                                                                                                                2062200808078299799ALAMEDA             GUADALUPE                                                   227                                                                                                                                                               CONDOMINIO RESIDENCIAL TERRAS DO CARIBE           13272843SP7225VALINHOS                                          19  96191159                        LGTAMISO@ICLOUD.COM                                                                                                49000000001000000152017010100000000N                                                                                                                                                                                                                                                                                  F
1F 102925250001001ADILSON BOSCO AGUIAR TEIXEIRA                                                                                                                                                                                022008082200                                                                                                                                4120200808220133410CHﾃ，ARA             VIVENDA 16                                                  S/N                                                                                                                                                               VILA CAPUAVA                                      13273146SP7225VALINHOS                                          19  3241665819  38717145                                                                                                                               59000000000000000500000000000000000N                                                                                                                                                                                                                                                                                  F
1F 102927400001001DULCE ELIAS BEYRUTI                                                                                                                                                                                          022008082200                                                                                                                                4120200808220133499Sﾃ控IO               SAO JOSE                                                    250                                                                                                                                                               PAIQUERE                                          13271600SP7225VALINHOS                                          11  38858100                                                                                                                                           59000000000000000500000000000000000N                                                                                                                                                                                                                                                                                  F
1F 102931280001441BRUNO GUIMARAES MORENO                                                                                                                                JBC FERRAMENTARIA                                      022008052100                                                                                                                                2135200805212543800AVENIDA             GESSY LEVER                                                 984                                                                                                                                                               LENHEIRO                                          13272000SP7225VALINHOS                                          19  7406066119  3849154019  38718583BRUNOJBC@BOL.COM.BR                                                                                                50000000015000000152008052100000000N                                                                                                                                                                                                                                                                                  F
1F 102936200001101TOMEKITI GOTO                                                                                                                                                                                                022008082500                                                                                                                                4120200808250133499Sﾃ控IO               SANTA ROSA                                                  S/N                                                                                                                                                               MACUCO                                            13279452SP7225VALINHOS                                          19  38811198                                                                                                                                           59000000000000000500000000000000000N                                                                                                                                                                                                                                                                                  F
1F 102937900001021DUARTE & CORTES REPRESENTACAO COMERCIAL DE PRODUTOS ALIMENTICIOS LTDA                                                                                                                                        022008082000                                                                                                                                2062200808204617600ALAMEDA             CARTUM                                                      331   COND: TERRAS DO ORIENTE;                                                                                                                                    CONDOMINIO RESIDENCIAL TERRAS DO ORIENTE          13272868SP7225VALINHOS                                          19  38129100            19  38129109ECIN@ECIN.COM.BR                                                                                                   49000000005000000152018010100000000N                                                                                                                                                                                                                                                                                  F
1F 102962600001001ESTILO SILK & SIGN MARKETING DESIGN LTDA                                                                                                              ESTILO COMUNICACAO VISUAL                              082018111301                                                                                                                                2062200808114329101AVENIDA             GUARANI                                                     122                                                                                                                                                               VILA COQUEIRO                                     13276040SP7225VALINHOS                                          19  38695617                        ELTON@ESTILOCOMUNICACAO.COM.BR                                                                                     49000000010000000162008081120151231N                                                                                                                                                                                                                                                                                  F
1F 102990510002092WMC NEGOCIOS IMOBILIARIOS EIRELI                                                                                                                      CBX BRASIL SERVICOS EIRELI - ME                        082016021101                                                                                                                                2305201403288211300RUA                 DR ANIBAL LELIS MIRANDA                                     35    SALA  8                                                                                                                                                     VILA EMBARE                                       13271180SP7225VALINHOS                                          11  28939638                        w.civitanova@cbxsp.com.br                                                                                          65000000000000000162016010120181231                        00000000                                                                                                                                                                                                                                                   F
1F 102996040001341J.L.P.S.P.E. EMPREENDIMENTOS E PARTICIPACOES LTDA.                                                                                                                                                           082009032402                                                                                                                                2062200808208532500ALAMEDA             MARIA TEREZA                                                2.000 SALA  01                                                                                                                                                    DOIS CORREGOS                                     13278181SP7225VALINHOS                                          11  32546499                                                                                                                                           05000000000500000500000000000000000N                                                                                                                                                                                                                                                                                  F
1F 103000290001421GIARDINI CONSULTORIA EMPRESARIAL LTDA.                                                                                                                GIARDINI CONSULTORIA EMPRESARIAL                       082017020201                                                                                                                                2062200808147820500AVENIDA             GESSY LEVER                                                 915   CASA: 92;                                                                                                                                                   LENHEIRO                                          13272000SP7225VALINHOS                                          19  3871621119  3829895919  38294716VEIGAEPOSTAL@VEIGAEPOSTAL.COM.BR                                                                                   49000000250000000100000000000000000N                                                                                                                                                                                                                                                                                  F
