1F 118405040001361LUIS EDUARDO STRUC IATI 35050620813                                                                                                                                                                          082014052801                                                                                                                                2135201004204322301RUA                 DOUTOR ALFREDO ZACHARIAS                                    842                                                                                                                                                               VILA PAGANO                                       13277280SP7225VALINHOS                                          19  32360664                        caraterpuritano@gmail.com                                                                                          50000000000001000152010042000000000S                                                                                                                                                                                                                                                                                  F
1F 118411350001041VLADIMIR COLIN 12082129829                                                                                                                                                                                   022010042000                                                                                                                                2135201004204399103RUA                 LINDOIA                                                     346                                                                                                                                                               VILA SAO CRISTOVAO                                13276550SP7225VALINHOS                                          19  38691259                        vladimir-colin@hotmail.com                                                                                         50000000000001000152010042000000000S                                                                                                                                                                                                                                                                                  F
1F 118416860001601ANTONIO DE ASSIS LEBRAO NETO 05342581826                                                                                                                                                                     022010042100                                                                                                                                2135201004214399103AVENIDA             PRESIDENTE TANCREDO NEVES                                   1258                                                                                                                                                              PARQUE DAS COLINAS                                13273610SP7225VALINHOS                                          19  38490642                        vladimir-colin@hotmail.com                                                                                         50000000000001000152010042100000000S                                                                                                                                                                                                                                                                                  F
1F 118426700001711STEP7 SOLUCOES TECNICAS E EDUCACAO PROFISSIONAL LTDA.                                                                                                 STEP7                                                  082011042901                                                                                                                                2062201004147020400RUA                 ELYDIO ANTONIO MOLETTA                                      61    COND  VILLAGE VISCONDE          DE ITAMARACA                                                                                                                RECREIO DOS CAFEZAIS                              13278357SP7225VALINHOS                                          19  8157092819  8157092819  81570928EDGARD@VAL.FLASH.TV.BR                                                                                             49000000005000000100000000000000000N                                                                                                                                                                                                                                                                                  F
1F 118452870001771LUCIANO SOARES DA SILVA PINTURAS PREDIAIS                                                                                                                                                                    022010041300                                                                                                                                2135201004134330404RUA                 ITAJAI                                                      157   LOTE  18                  QUADRAH                   CASA  A                                                                                                 FAZENDA HOTEL SAO BENTO                           13270005SP7225VALINHOS                                          19  38698049                        servicoshelpvalinhos@yahoo.com.br                                                                                  50000000003000000152010041300000000N                                                                                                                                                                                                                                                                                  F
1F 118463530001231CONTRATCH PARTICIPACOES E EMPREENDIMENTOS S.A.                                                                                                                                                               082018101701                                                                                                                                2054201003126462000RUA                 CATHARINA FARSARELLA GALLEGO                                126         SALA 02                                                                                                                                               COUNTRY CLUB                                      13278073SP7225VALINHOS                                          19  3327873919  38698638            escritoriocontabil_souzabuten@ig.com.br                                                                            16000000190000000500000000000000000N                                                                                                                                                                                                                                                                                  F
1F 118499720001711JOSE SILVA DOS SANTOS REPRESENTACOES                                                                                                                                                                         022010031800                                                                                                                                2135201003184646001RUA                 DAS VITORIAS REGIAS                                         520                                                                                                                                                               JARDIM DAS VITORIAS REGIAS                        13273053SP7225VALINHOS                                          19  38749965                        ngconta@terra.com.br                                                                                               50000000015000000100000000000000000N                                                                                                                                                                                                                                                                                  F
1F 118499860001951SOUZA & SOUZA SERVICOS DE INFORMATICA LTDA                                                                                                                                                                   022010020200                                                                                                                                2062201002029511800RUA                 JOSE CARLOS FERRARI                                         550                                                                                                                                                               SANTA GERTRUDES                                   13272810SP7225VALINHOS                                          19  38497000                        contsenador@hotmail.com                                                                                            49000000010000000152010020200000000N                                                                                                                                                                                                                                                                                  F
1F 118533020001291EMERSON COLOMBO 30648997839                                                                                                                           ARCONTERMICA REFRIGERACAO                              022010042300                                                                                                                                2135201004234322302RUA                 FREDERICO BUGIM                                             5                                                                                                                                                                 JARDIM SAO LUIZ                                   13272705SP7225VALINHOS                                          19  33275049                        contato@arcontermica.com.br                                                                                        50000000005000000152010042300000000S                                                                                                                                                                                                                                                                                  F
1F 118537760001701ROSA APARECIDA IACONA SALCINES 01046281895                                                                                                                                                                   022010042400                                                                                                                                2135201004248230001ALAMEDA             ITATUBA                                                     1295  CASA                                                                                                                                                        JOAPIRANGA                                        13278520SP7225VALINHOS                                          19  38712503                        kekaeventos@yahoo.com.br                                                                                           50000000000001000152010042400000000S                                                                                                                                                                                                                                                                                  F
1F 118551890001101CHANCELLER COIFFEUR TRATAMENTO DE BELEZA LTDA                                                                                                                                                                022010041600                                                                                                                                2062201004169602501RUA                 LAZARA DA CRUZ BARBOSA                                      154                                                                                                                                                               VILA NOVA VALINHOS                                13271240SP7225VALINHOS                                          19  38696456                        chancellerhair@hotmail.com                                                                                         49000000020000000352010041600000000N                                                                                                                                                                                                                                                                                  F
1F 118561070001521MAURICIO NASSER MASCHIETTO 32211780857                                                                                                                                                                       082010093001                                                                                                                                2135201004267990200RUA                 ANTONIO CARLOS BRIGEIRO                                     78                                                                                                                                                                CHACARAS SAO BENTO                                13278040SP7225VALINHOS                                          19  38811802                        mauricionasser@bol.com.br                                                                                          50000000000001000162010042620100930S                                                                                                                                                                                                                                                                                  F
1F 118561180001321OLIVEIRA JUNIOR SUPLEMENTOS ALIMENTARES LTDA                                                                                                          MS SUPLEMENTOS                                         082017060601                                                                                                                                2062201004164729699RUA                 CAMPOS SALLES                                               443                                                                                                                                                               SANTA CRUZ                                        13272350SP7225VALINHOS                                          19  3829280219  3829280219  38292802ms_suplementos@hotmail.com                                                                                         49000000010000000152010041600000000N                                                                                                                                                                                                                                                                                  F
1F 118564470001831ROMISA APARECIDA AUGUSTO MARQUES 27822611852                                                                                                                                                                 022010042600                                                                                                                                2135201004269602501RUA                 ISMAEL EVANGELISTA                                          00    LOTE 1 - QUADRA E                                                                                                                                           JARDIM ALTO DA BOA VISTA                          13272114SP7225VALINHOS                                          19  38294784                        atualvalinhos@uol.com.br                                                                                           50000000000001000152010042600000000S                                                                                                                                                                                                                                                                                  F
1F 118601040001921LUIZ DANIEL COLIN 07958228805                                                                                                                                                                                022010042600                                                                                                                                2135201004264399103RUA                 FERMINIO BERGAMO                                            65                                                                                                                                                                JARDIM RECANTO DOS PASSAROS II                    13272097SP7225VALINHOS                                          19  38715565                        colin.const@hotmail.com                                                                                            50000000000001000152010042600000000S                                                                                                                                                                                                                                                                                  F
1F 118626480001931JAQUELINE REGINA DOS SANTOS 28499822886                                                                                                                                                                      022010042700                                                                                                                                2135201004279602501RUA                 OROZIMBO MAIA                                               410                                                                                                                                                               VILA SONIA                                        13274000SP7225VALINHOS                                          19  92148787                        jaque_rs@hotmail.com                                                                                               50000000000001000152010042700000000S                                                                                                                                                                                                                                                                                  F
1F 118631050001901CM1 EMPREENDIMENTO IMOBILIARIO LTDA                                                                                                                   PROJETO FELICITA                                       022010030300                                                                                                                                2062201003034110700RUA                 ANTONIO CARLOS                                              196   ANDAR 5                   SALA  51                                                                                                                          CENTRO                                            13270005SP7225VALINHOS                                          19  97794616                        cesar_mayer@terra.com.br                                                                                           49000000150000000500000000000000000N                                                                                                                                                                                                                                                                                  F
1F 118638800001461JURICK LAVA RAPIDO E LANCHONETE LTDA                                                                                                                  LAVA RAPIDO RICCAR                                     082017060901                                                                                                                                2062201004234530703RUA                 ITALIA                                                      308                                                                                                                                                               JARDIM RIBEIRO                                    13270180SP7225VALINHOS                                          19  3871621119  3871895919  38716211veigaepostal@veigaepostal.com.br                                                                                   49000000020000000152010042300000000N                                                                                                                                                                                                                                                                                  F
1F 118639390034642INSTITUTO MEGA DE INTEGRACAO SOCIAL                                                                                                                   INSTITUTO MEGA DE INTEGRACAO SOCIAL                    042018122163                                                                                                                                3999201107219430800RUA                 ROSA GIARDELLI MAMPRIM                                      39                                                                                                                                                                JARDIM RIBEIRO                                    13270160SP7225VALINHOS                                          19  33010165                                                                                                                                           16000000000000000500000000000000000                        00000000                                                                                                                                                                                                                                                   F
1F 118661290001011MICHAEL FERNANDO COLIN 37975928844                                                                                                                                                                           022010042700                                                                                                                                2135201004274399103RUA                 LINDOIA                                                     346                                                                                                                                                               VILA SAO CRISTOVAO                                13276550SP7225VALINHOS                                          16  38691259                        maicon_colin@hotmail.com                                                                                           50000000000001000152010042700000000S                                                                                                                                                                                                                                                                                  F
1F 118675930001041ARSIF - TREINAMENTO E ASSESSORIA EM SEGURANCA DO TRABALHO LTDA                                                                                        ARSIF TREINAMENTOS                                     022010041900                                                                                                                                2062201004197490199RUA                 VEREADOR ANTONIO FERRARI                                    6                                                                                                                                                                 JARDIM ITAPUA                                     13273117SP7225VALINHOS                                          19  38715883                        atualvalinhos@uol.com.br                                                                                           49000000010000000500000000000000000N                                                                                                                                                                                                                                                                                  F
1F 118736000001801THIAGO HENRIQUE DE MELO AZALIN                                                                                                                        ATHOS TRANSPORTES                                      022010040500                                                                                                                                2135201004054930202RUA                 OSCAR CONSTANTINO RODRIGUES                                 26    SLJ                                                                                                                                                         JARDIM ITAPUA                                     13273112SP7225VALINHOS                                          19  32944294            19  32944294thiagoazalin@hotmail.com                                                                                           50000000005000000162010040520181231N                                                                                                                                                                                                                                                                                  F
1F 118737710001001PROPLAST INDUSTRIA DE EMBALAGENS LTDA                                                                                                                 PROPLAST INDUSTRIA DE EMBALAGENS LTDA                  022010040600                                                                                                                                2062201004062222600ESTRADA MUNICIPAL   MARIO COVAS                                                 641   BRCAO: 236; LOTE: 10; QUADRA: B;                                                                                                                            MACUCO                                            13279411SP7225VALINHOS                                          19  32553358                        DPROCESSOS@ORGCARVALHO.COM.BR                                                                                      49000000030000000300000000000000000N                                                                                                                                                                                                                                                                                  F
1F 118740660001271VALERIA BASSO DOS SANTOS & CIA LTDA                                                                                                                                                                          082017080201                                                                                                                                2062201001048599604RUA                 ABRANTES                                                    263                                                                                                                                                               PQ PORTUGAL                                       13273282SP7225VALINHOS                                          19  38497001                        contsenador@hotmail.com                                                                                            49000000010000000152010010400000000N                                                                                                                                                                                                                                                                                  F
1F 118756190001661JOSE CARLOS DE FREITAS DIAS 12065034831                                                                                                                                                                      022010042900                                                                                                                                2135201004294330403RUA                 ANGELO RAYMUNDO SPEGLICH                                    15    FUNDOS                                                                                                                                                      JARDIM MARACANA                                   13277581SP7225VALINHOS                                          19  38716211                        veigaepostal@veigaepostal.com.br                                                                                   50000000000001000152010042900000000S                                                                                                                                                                                                                                                                                  F
1F 118763180002382POLO PARTICIPACOES E EMPREENDIMENTOS LTDA.                                                                                                                                                                   022011072000                                                                                                                                2062201107206462000RODOVIA             COMENDADOR GUILHERME MAMPRIN                                S/N   COND  VILLAGE SANS SOUCI        CASA 30                                                                                                                     DOIS CORREGOS                                     13278900SP7225VALINHOS                                          11  55053324                        croberto@planerj.com.br                                                                                            49000000000000000500000000000000000                        00000000                                                                                                                                                                                                                                                   F
1F 118776530001701LANCHONETE PELEGRINELLI LTDA                                                                                                                                                                                 082018113001                                                                                                                                2062201004195611203RUA                 SILVIO CONCON                                               139   QUADRA4                   LOTE  18                                                                                                                          CENTRO                                            13271170SP7225VALINHOS                                          19  32992212                        ESCRITORIOCONTABIL@IG.COM.BR                                                                                       49000000015000000162010041920171231N                                                                                                                                                                                                                                                                                  F
1F 118791820001391STUDIOMIX GUARU ACADEMIA DE DANCA LTDA                                                                                                                STUDIOMIX                                              022010042700                                                                                                                                2062201004278592901RUA                 DR ADHEMAR DE BARROS                                        316                                                                                                                                                               PARQUE TERRANOVA                                  13270600SP7225VALINHOS                                          19  38497261                        studiomixguaru@studiomixguaru.com.br                                                                               49000000020000000152010042700000000N                                                                                                                                                                                                                                                                                  F
1F 118797630001701CAPOVILLA COMUNICACAO ESTRATEGICA LIMITADA                                                                                                            CAPOVILLA COMUNICACAO ESTRATEGICA                      022010042600                                                                                                                                2062201004268299799ESTRADA             DO JEQUITIBA                                                999   CASA  388                 COND  PORTAL DO JEQUITIBA                                                                                                         PINHEIRO                                          13274610SP7225VALINHOS                                          19  3871621119  3871895919  38716211PATYCAPOVILLA@GMAIL.COM                                                                                            49000000020000000152010042600000000N                                                                                                                                                                                                                                                                                  F
1F 118803320001241ROSA APARECIDA LEANDRO TARGA 16176832802                                                                                                              FISIO SPA                                              082018072301                                                                                                                                2135201004309602502RUA                 IGNACIO SPADACCIA                                           349                                                                                                                                                               VILA SANTO ANTONIO                                13270520SP7225VALINHOS                                          19  38348832                        rosaltarga@uol.com.br                                                                                              50000000000001000162010043020180723S                                                                                                                                                                                                                                                                                  F
1F 118821700001631ORISVALDO OLIVEIRA DOS SANTOS E OUTRA                                                                                                                                                                        022010043000                                                                                                                                4120201004300133499ESTRADA             MUNICIPAL MARIO COVAS                                       S/N         CHAC. SOL NASCENTE                                                                                                                                    MACUCO                                            13279411SP7225VALINHOS                                          19  78125398                                                                                                                                           59000000000000000500000000000000000N                                                                                                                                                                                                                                                                                  F
1F 118822760001671EDENILSON COLIN 25856468821                                                                                                                                                                                  082018020167                                                                                                                                2135201004304399103RUA                 ANTONIETA BARBOSA                                           28                                                                                                                                                                JARDIM UNIAO                                      13275643SP7225VALINHOS                                          19  38493593                                                                                                                                           50000000000001000162010043020180201S                                                                                                                                                                                                                                                                                  F
1F 118898350001601HADASSA MODAS E ACESSORIOS LTDA                                                                                                                                                                              022010042700                                                                                                                                2062201004274781400RUA                 XV DE NOVEMBRO                                              163   LOJA                                                                                                                                                        CENTRO                                            13270130SP7225VALINHOS                                          19  3849320319  8196829419  38295488contabilidade@anselmietrovatti.com.br                                                                              49000000010000000362010042720161231N                                                                                                                                                                                                                                                                                  F
1F 118910520001111JULIA KOMOTO TORDIN & CIA LTDA                                                                                                                                                                               082013123002                                                                                                                                2062201004265620101AVENIDA             DOUTOR JOSE PAGANO BRUNDO                                   65                                                                                                                                                                VILA PAGANO                                       13277210SP7225VALINHOS                                          19  38492562                        ATENDE.FISCAL@TERRA.COM.BR                                                                                         49000000005000000362010042620131230N                                                                                                                                                                                                                                                                                  F
1F 118944650001501CONDOMINIO EDIFICIO AROEIRA                                                                                                                           CONDOMINIO EDIFICIO AROEIRA                            022006012300                                                                                                                                3085200601238112500RUA                 ROSINA FOLEGATTI FERRARI                                    11                                                                                                                                                                JARDIM SANTA CECILIA                              13277670SP7225VALINHOS                                          19  38696644                        CONDOMINIOS@VISAOIMOBILIARIA.COM.BR                                                                                19000000000000000500000000000000000N                                                                                                                                                                                                                                                                                  F
1F 118946400001091E.V.A. - CONSULTORIA EM NEGOCIOS LTDA.                                                                                                                E.V.A.                                                 042019022763                                                                                                                                2240201004057020400AVENIDA             JOAQUIM ALVES CORREIA                                       4436                                                                                                                                                              PARQUE NOVA SUICA                                 13271430SP7225VALINHOS                                          19  38799100                                                                                                                                           49000000200000000500000000000000000N                                                                                                                                                                                                                                                                                  F
1F 118949770001161NEDENILSON REIS DO PRADO 25295036804                                                                                                                  BAR DO PE                                              082012121001                                                                                                                                2135201005045611204RUA                 VALMIR ANTONIO CAPELARI                                     478                                                                                                                                                               JARDIM MARIA ROSA                                 13273550SP7225VALINHOS                                          19  38716211                        veigaepostal@veigaepostal.com.br                                                                                   50000000000001000152010050400000000S                                                                                                                                                                                                                                                                                  F
1F 118954010001731AMS COMERCIO DE EMBALAGENS LTDA                                                                                                                                                                              042019022763                                                                                                                                2062201004284789099RUA                 LOURENCO FERRARI                                            413                                                                                                                                                               JARDIM DOS MANACAS                                13273071SP7225VALINHOS                                          19  3869448219  3871557619  38692248NRVICENTINI@UOL.COM.BR                                                                                             49000000020000000362010042820121231N                                                                                                                                                                                                                                                                                  F
1F 118954750001001P6 EMPREENDIMENTOS E ADMINISTRACAO IMOBILIARIA LTDA.                                                                                                                                                         022010040500                                                                                                                                2062201004056810202RUA                 ALMIRANTE BARROSO                                           25    SALA  8                                                                                                                                                     VILA NEGRELLO                                     13276210SP7225VALINHOS                                          19  33278841                        INESJPS@GMAIL.COM                                                                                                  49000002049752000500000000000000000N                                                                                                                                                                                                                                                                                  F
1F 118956710001841L.C. LONGUI SERVICOS ADMINISTRATIVOS LTDA                                                                                                                                                                    082011081001                                                                                                                                2062201004238219901AVENIDA             VICE PREFEITO ANESIO CAPOVILLA                              79    CASA  96                  COND  RESIDENCIAL ITAPEMA                                                                                                         CECAP                                             13272181SP7225VALINHOS                                          19  38715442                                                                                                                                           49000000005000000162010042320110810N                                                                                                                                                                                                                                                                                  F
1F 118968120001831ELIAS GUEDES DE OLIVEIRA 27720222857                                                                                                                                                                         022010050500                                                                                                                                2135201005054930202RUA                 VICENTE ROSSI                                               225                                                                                                                                                               RESIDENCIAL SAO LUIZ                              13270460SP7225VALINHOS                                          19  38713136                                                                                                                                           50000000000001000152010050500000000S                                                                                                                                                                                                                                                                                  F
1F 119005270001991NEUSA MARIA MAMPRIN STOPIGLIA 21494610809                                                                                                                                                                    022010050500                                                                                                                                2135201005058230001RUA                 LUIZ DE OLIVEIRA SOUZA                                      182                                                                                                                                                               LOTEAMENTO RESIDENCIAL NOVA ITALIA                13271390SP7225VALINHOS                                          19  38713429                                                                                                                                           50000000000001000152010050500000000S                                                                                                                                                                                                                                                                                  F
1F 119017570001721GEL SOLUTION TECNOLOGIA DA INFORMACAO LTDA                                                                                                                                                                   082015121501                                                                                                                                2062201004276204000RUA                 ALVARO MARTINI                                              59                                                                                                                                                                COLINA DOS PINHEIROS                              13274500SP7225VALINHOS                                          19  35780800            19  35780809messias@messiascontabilidade.com.br                                                                                49000000010000000500000000000000000N                                                                                                                                                                                                                                                                                  F
1F 119025940001421MARCIA VEDOVATTO GOMES 17200917818                                                                                                                                                                           022010050600                                                                                                                                2135201005064761003RUA                 DAS PETUNIAS                                                134   ANDAR 2                                                                                                                                                     JARDIM DAS VITORIAS REGIAS                        13273050SP7225VALINHOS                                          19  38716711                        robertobrindes@uol.com.br                                                                                          50000000000001000152010050600000000S                                                                                                                                                                                                                                                                                  F
1F 119071240001711GRAFICA DROVEN EIRELI                                                                                                                                 GRAFICA DROVEN                                         022010050300                                                                                                                                2305201005031813001RUA                 JOAO PREVITALE                                              2330                                                                                                                                                              JD. SAMAMBAIA                                     13272315SP7225VALINHOS                                          19  39296500            19  38712489JODROVETTO@GMAIL.COM                                                                                               65000000100000000152010050300000000N                                                                                                                                                                                                                                                                                  F
1F 119093900001331ANTONIO ALVES DE CARVALHO NETO                                                                                                                                                                               082017020101                                                                                                                                2135201005035611203AVENIDA             INDEPENDENCIA                                               1                                                                                                                                                                 JARDIM SANTO ANTONIO                              13277000SP7225VALINHOS                                          19  32541652            19  32541652pldcontabilidade@hotmail.com                                                                                       50000000015000000162010050320141231N                                                                                                                                                                                                                                                                                  F
1F 119131190001711CLAUDIO RAMASINI 24886104886                                                                                                                                                                                 082018020167                                                                                                                                2135201005094321500RUA                 ANTONIO PEIXOTO                                             171   QUADRA D;LOTE 16                                                                                                                                            PARQUE DAS COLINAS                                13273641SP7225VALINHOS                                          19  38494756                        CLAUDIORAMASINI@IG.COM.BR                                                                                          50000000000001000162010050920180201S                                                                                                                                                                                                                                                                                  F
1F 119140650001691DANIELA ROCHA DE SOUZA TOCALINO 30278552803                                                                                                           EDUCA+ ACOMPANHAMENTO ESCOLAR                          082016061401                                                                                                                                2135201005108599699RUA                 MODESTA POLLI MARTINS                                       218                                                                                                                                                               VILA NORMA                                        13270280SP7225VALINHOS                                          19  38716211                        veigaepostal@veigaepostal.com.br                                                                                   50000000000001000152010051000000000S                                                                                                                                                                                                                                                                                  F
1F 119178150001561ANA PAULA BRANDINO 29313826801                                                                                                                                                                               082013020501                                                                                                                                2135201005109609208RUA                 DOS AMARILIS                                                498                                                                                                                                                               PARQUE CECAP                                      13273420SP7225VALINHOS                                          19  38292008                        ana_annybr@hotmail.com                                                                                             50000000000001000152010051000000000S                                                                                                                                                                                                                                                                                  F
1F 119179400001661KELLY APARECIDA LIDORIO 31476706867                                                                                                                                                                          022010051000                                                                                                                                2135201005109609208AVENIDA             DOS ESPORTES                                                396                                                                                                                                                               VILA BISSOTO                                      13270210SP7225VALINHOS                                          19  91045463                        kellidorio@hotmail.com                                                                                             50000000000001000152010051000000000S                                                                                                                                                                                                                                                                                  F
1F 119194350001501FLAVIA KOMOTO SAWADA & CIA LTDA                                                                                                                                                                              082013123002                                                                                                                                2062201004275620101RUA                 JOSE SOLIDARIO PEDROSO                                      31                                                                                                                                                                VILA EL AIUB                                      13271120SP7225VALINHOS                                          19  38492562                        ATENDE.FISCAL@TERRA.COM.BR                                                                                         49000000005000000362010042720131230N                                                                                                                                                                                                                                                                                  F
1F 119211360001501ROMERO DA SILVA 25861765880                                                                                                                                                                                  082018020167                                                                                                                                2135201005117319003RUA                 OITO                                                        25    CASA                                                                                                                                                        JARDIM SAO MARCOS                                 13272822SP7225VALINHOS                                          19  81827846                                                                                                                                           50000000000001000162010051120180201S                                                                                                                                                                                                                                                                                  F
1F 119229130001811SUELI APARECIDA DE ASSIS 11536076899                                                                                                                  SAMM CONFECCAO                                         022010051100                                                                                                                                2135201005111412602RUA                 ABOLICAO                                                    197                                                                                                                                                               VILA ANGELI                                       13271090SP7225VALINHOS                                          19  38861965                        andreia.viotto@hotmail.com                                                                                         50000000000001000152010051100000000S                                                                                                                                                                                                                                                                                  F
1F 119255560001051ANA CAROLINA LEAL E SILVA 01405255307                                                                                                                 CALLAN PERSONALIZADOS                                  022010051100                                                                                                                                2135201005111749400RODOVIA             FLAVIO DE CARVALHO                                          1431                                                                                                                                                              JARDIM SAO PAULO                                  13273000SP7225VALINHOS                                          19  83229078                        carolleal@msn.com                                                                                                  50000000025000000152010051100000000S                                                                                                                                                                                                                                                                                  F
1F 119256700001351FELIPE G.G SPANHOLETO SERVICOS ADMINISTRATIVOS                                                                                                                                                               042018121863                                                                                                                                2135201004128219999RUA                 GERMANO VON ZUBEN                                           37                                                                                                                                                                JARDIM DOS MANACAS                                13273080SP7225VALINHOS                                          19  38494777            19  38497296atendimento@adcononline.cnt.br                                                                                     50000000005000000162010041220141231N                                                                                                                                                                                                                                                                                  F
1F 119256720001241IOV - CLINICA MEDICA LTDA                                                                                                                             CLINICA FOCCUS                                         022010042700                                                                                                                                2062201004278630502AVENIDA             JOAQUIM ALVES CORREA                                        4803                                                                                                                                                              PARQUE NOVA SUICA                                 13271430SP7225VALINHOS                                          19  32444171            19  38713723CLINICA.FOCCUS@GMAIL.COM                                                                                           49000000002000000100000000000000000N                                                                                                                                                                                                                                                                                  F
1F 119281480001071NOVO CONCEITO REFEICOES INDUSTRIAIS LTDA                                                                                                                                                                     022010042600                                                                                                                                2062201004265620101AVENIDA             DOUTOR JOSE PAGANO BRUNDO                                   65    FUNDOS                                                                                                                                                      VILA PAGANO                                       13277210SP7225VALINHOS                                          19  38298000                        MARILIZA.DALBEN@NTGOURMET.COM.BR                                                                                   49000000093700000352010042600000000N                                                                                                                                                                                                                                                                                  F
1F 119327260001891VIA MAGICA REPRESENTACOES COMERCIAIS LTDA                                                                                                                                                                    022010050400                                                                                                                                2062201005044618401RUA                 DOS FRANCESES                                               486                                                                                                                                                               PARQUE NOVA SUICA                                 13271410SP7225VALINHOS                                          19  38491616                        zgalloz@uol.com.br                                                                                                 49000000001000000152019010100000000N                                                                                                                                                                                                                                                                                  F
1F 119338870001971FERNANDA FERREIRA DE SOUZA COBRANCAS                                                                                                                  FERNANDA FERREIRA DE SOUZA COBRANCAS                   022010040500                                                                                                                                2135201004058291100ESTRADA             MUNICIPAL                                                   401                                                                                                                                                               CAPUAVA                                           13272181SP7225VALINHOS                                          11  48153033            11  48153033kleber@kscontabil.srv.br                                                                                           50000000005000000152010040500000000N                                                                                                                                                                                                                                                                                  F
1F 119357010001391J. BORGES PERES                                                                                                                                                                                              082010080901                                                                                                                                2135201005074781400RUA                 ELSO PREVITALE                                              950                                                                                                                                                               JARDIM ALTO DA COLINA                             13272300SP7225VALINHOS                                          19  3871621119  3871895919  38716211veigaepostal@veigaepostal.com.br                                                                                   50000000050000000300000000000000000N                                                                                                                                                                                                                                                                                  F
1F 119396550001461DFJ GESTAO EMPRESARIAL LTDA                                                                                                                                                                                  082012082001                                                                                                                                2062201005077020400RUA                 CARLOS PENTEADO STEVENSON                                   1059  CASA  158                 COND  RESID. MILLENNIUM                                                                                                           JARDIM RECANTO                                    13271510SP7225VALINHOS                                          19  3829536019  3829536019  38295360clausant@dglnet.com.br                                                                                             49000000005000000300000000000000000N                                                                                                                                                                                                                                                                                  F
1F 119396760001611ASSOCIACAO DOS PROPRIETARIOS E MORADORES NO LOTEAMENTO JARDIM FIORELA                                                                                 ASSOCIACAO JARDIM FIORELA                              022019060500                                                                                                                                3999200906299499500RUA                 HUM                                                         S/N   LOTE  JARDIM FIORELA                                                                                                                                        PONTE ALTA                                        13277734SP7225VALINHOS                                          19  38710205                                                                                                                                           16000000000000000500000000000000000N                                                                                                                                                                                                                                                                                  F
1F 119399390001321NATIVO RIBEIRO DOS SANTOS 18780913873                                                                                                                                                                        022010051400                                                                                                                                2135201005143314707RUA                 DEZESSETE                                                   151                                                                                                                                                               JARDIM SAO MARCOS                                 13272831SP7225VALINHOS                                          19  38694547                        ribeirorefrigeracao@gmail.com                                                                                      50000000000001000152010051400000000S                                                                                                                                                                                                                                                                                  F
1F 119416780001951M. M. N. A. TRANSPORTES LTDA                                                                                                                                                                                 022010031600                                                                                                                                2062201003164930202RUA                 HUM                                                         24                                                                                                                                                                VILA VITORIA                                      13272750SP7225VALINHOS                                          19  3871531219  3869628719  38696287kelifreitas@yahoo.com.br                                                                                           49000000040000000162010031620181231N                                                                                                                                                                                                                                                                                  F
1F 119417110001871TANIA VIEIRA DA CRUZ                                                                                                                                                                                         022010041900                                                                                                                                2135201004194330499RUA                 DAS ACACIAS                                                 570                                                                                                                                                               PARQUE CECAP                                      13273390SP7225VALINHOS                                          19  38691019            19  38715312FREITAS.ASSESSORIACONTABIL@GMAIL.COM                                                                               50000000010000000152010041900000000N                                                                                                                                                                                                                                                                                  F
1F 119434260001031ADEMAR DA SILVA E OUTRA                                                                                                                                                                                      022010051400                                                                                                                                4120201005140121102CHCARA             SANTANNA                                                    S/N                                                                                                                                                               PONTE ALTA                                        13277660SP7225VALINHOS                                          19  38711312                                                                                                                                           59000000000000000500000000000000000N                                                                                                                                                                                                                                                                                  F
1F 119445020001971NRG & TECH - DESENVOLVIMENTO DE TECNOLOGIAS LTDA.                                                                                                     NRG & TECH                                             082017041301                                                                                                                                2062201005107210000RUA                 PADRE MANOEL GUINAUT                                        26    PAVMTOINFERIOR - SALA 03                                                                                                                                    CENTRO                                            13270030SP7225VALINHOS                                          19  9774781519  3871021219  38710808vagnerconcon@gmail.com                                                                                             49000000003000000300000000000000000N                                                                                                                                                                                                                                                                                  F
1F 119450130001501MMY - MATERIAIS DE CONSTRUCOES LTDA                                                                                                                   RENOVA                                                 022010051000                                                                                                                                2062201005104744099RUA                 PEDRO GABETTA                                               18                                                                                                                                                                JARDIM MARIA ROSA                                 13273551SP7225VALINHOS                                          19  3434505819  3422574619  34331119nappi@organizacaonappi.com.br                                                                                      49000000015000000162010051020181231N                                                                                                                                                                                                                                                                                  F
1F 119459690001511IVO MEZINI 51330296915                                                                                                                                                                                       022010051400                                                                                                                                2135201005149602501RUA                 TREZE DE MAIO                                               543   SALA 02                                                                                                                                                     VILA OLIVO                                        13276020SP7225VALINHOS                                          19  39296441                        guilherme@escritoriojair.com.br                                                                                    50000000000001000152010051400000000S                                                                                                                                                                                                                                                                                  F
1F 119463270001771MARCIO ROGERIO JACINTHO 09704492839                                                                                                                                                                          022010051500                                                                                                                                2135201005154330404RUA                 SALVADOR MARTINS PINTOR                                     161                                                                                                                                                               RESIDENCIAL SANTA MARIA                           13272812SP7225VALINHOS                                          19  97009085                                                                                                                                           50000000000001000152010051500000000S                                                                                                                                                                                                                                                                                  F
1F 119464000001001DRAULO EMIR BRESSANI RIBEIRA 11942048807                                                                                                                                                                     082013032601                                                                                                                                2135201005154330404RUA                 AMERICO BONETTO                                             204                                                                                                                                                               COLINA DOS PINHEIROS                              13274590SP7225VALINHOS                                          19  38290305                                                                                                                                           50000000000001000152010051500000000S                                                                                                                                                                                                                                                                                  F
1F 119467360001731MARLENE QUEIROZ 72155698887                                                                                                                           BUFFET ATENAS                                          022010051500                                                                                                                                2135201005158230001RUA                 JOAO BROCANELLI                                             521                                                                                                                                                               CHACARAS SAO BENTO                                13278043SP7225VALINHOS                                          19  38716211                        MARLENE@BUFFETATENAS.COM.BR                                                                                        50000000050000000352010051500000000S                                                                                                                                                                                                                                                                                  F
1F 119481950001121EUROPA EMPREENDIMENTOS IMOBILIARIOS SPE LTDA                                                                                                                                                                 022010050600                                                                                                                                2062201005064110700RUA                 JOSE DE OLIVEIRA                                            144                                                                                                                                                               CHACARA SILVANIA                                  13271653SP7225VALINHOS                                          19  33851683                        esmeralda-contabil@uol.com.br                                                                                      05000000900000000500000000000000000N                                                                                                                                                                                                                                                                                  F
1F 119504650001201PESSIN INSTALACOES E MANUTENCOES ELETRICAS LTDA                                                                                                                                                              082013090401                                                                                                                                2062201005074321500RUA                 JOAO PREVITALLI                                             2780        CASA 264                                                                                                                                              SANTA CRUZ                                        13272400SP7225VALINHOS                                          19  3871621119  38718959            veigaepostal@veigaepostal.com.br                                                                                   49000000001000000162010050720130904N                                                                                                                                                                                                                                                                                  F
1F 119548700001161WJR ASSESSORIA CONTABIL LTDA                                                                                                                                                                                 022010050700                                                                                                                                2062201005076920601RUA                 CAMPOS SALLES                                               355                                                                                                                                                               SANTA CRUZ                                        13271000SP7225VALINHOS                                          19  3869338819  3869396619  38492712contabilidade@anselmietrovatti.com.br                                                                              49000000003000000152010050700000000N                                                                                                                                                                                                                                                                                  F
1F 119591430001411ANDERSON LUIZ DOS SANTOS 33136137809                                                                                                                                                                         022010051800                                                                                                                                2135201005184520001RUA                 DAS GARDENIAS                                               325                                                                                                                                                               PARQUE CECAP                                      13273350SP7225VALINHOS                                          19  38697269                        suse@gimenezcontabil.com.br                                                                                        50000000000001000152010051800000000S                                                                                                                                                                                                                                                                                  F
1F 119618620001051MOURIQUE CONSULTORIA EMPRESARIAL - LTDA                                                                                                                                                                      082014011401                                                                                                                                2062201005047020400RUA                 DOS JAPONESES                                               83                                                                                                                                                                PARQUE NOVA SUICA                                 13271440SP7225VALINHOS                                          19  3869801119  3869860919  38713723alessandra@pivacontabilidade.com.br                                                                                49000000001000000100000000000000000N                                                                                                                                                                                                                                                                                  F
1F 119629840001081EMERSON HENRIQUE XAVIER MECANICA                                                                                                                      CENTRO AUTOMOTIVO INDIO                                022010032600                                                                                                                                2135201003264520001RUA                 JOAO PREVITALLI                                             2364                                                                                                                                                              JARDIM SAMAMBAIA                                  13272400SP7225VALINHOS                                          19  38710772            19  38710772atualvalinhos@uol.com.br                                                                                           50000000010000000152010032600000000N                                                                                                                                                                                                                                                                                  F
1F 119636660001611TRANS DORFF TRANSPORTES E LOCACAO LTDA                                                                                                                TRANS DORFF                                            022010051300                                                                                                                                2062201005134929902RUA                 JOSE APARECIDO BARBARINI                                    56                                                                                                                                                                JARDIM DO LAGO                                    13277501SP7225VALINHOS                                          19  3871621119  3871895919  38716211veigaepostal@veigaepostal.com.br                                                                                   49000000240000000152018010100000000N                                                                                                                                                                                                                                                                                  F
1F 119637930001601D.A.PEREIRA TRANSPORTADORA LTDA                                                                                                                                                                              022010043000                                                                                                                                2062201004304930202RUA                 LUIZ DE QUEIROZ GUIMARAES                                   S/N   LOTE  34-1                      SITIO CANAA                                                                                                                 REFORMA AGRARIA                                   13270005SP7225VALINHOS                                          19  38497000                        contsenador@hotmail.com                                                                                            49000000010000000152010043000000000N                                                                                                                                                                                                                                                                                  F
1F 119667820001341LUIZ A. DANTE MARMORE                                                                                                                                                                                        022010010400                                                                                                                                2135201001044744005RODOVIA             MUNICIPAL DOS ANDRADAS                                      3190  QUADRAB1                  QUADRA000B                                                                                                                        SANTA ESCOLASTICA                                 13277650SP7225VALINHOS                                          19  3871621119  3871895919  38716211veigaepostal@veigaepostal.com.br                                                                                   50000000040000000162014010120181231N                                                                                                                                                                                                                                                                                  F
1F 119686450001391GABRIELA FERREIRA DE GODOY                                                                                                                            GABIKASA UTILIDADES DOMESTICAS                         082010073001                                                                                                                                2135201005174759899RUA                 ANTONIO CARLOS                                              380                                                                                                                                                               VILA OLIVO                                        13276000SP7225VALINHOS                                          19  32298764                        jasmimcontabilidade@bol.com.br                                                                                     50000000005000000162010051720100730N                                                                                                                                                                                                                                                                                  F
1F 119698450001061PAPERENG DWG ENGENHARIA LTDA                                                                                                                          METODO DWG                                             022010051200                                                                                                                                2062201005127112000RUA                 FIORAVANTE B MAGLIO                                         228   SALA  01                                                                                                                                                    VILA NOVA VALINHOS                                13271260SP7225VALINHOS                                          19  38717514            19  38495449METODO.CONTABIL@TERRA.COM.BR                                                                                       49000000005000000300000000000000000N                                                                                                                                                                                                                                                                                  F
