1F 296562440001091VALMIR PINHEIRO DA SILVA 05165223884                                                                                                                                                                         022018020800                                                                                                                                2135201802081821100AVENIDA             VICE-PREFEITO ANESIO CAPOVILLA SITIOS FRUTAL                688   CASA 66                                                                                                                                                     CAPUAVA                                           13272181SP7225VALINHOS                                          19  32444740                        valmirpf1963@gmail.com                                                                                             50000000001000000152018020800000000S                                                                                                                                                                                                                                                                                  F
1F 296565230001721NELSON PINTO RIBEIRO JUNIOR 01172121800                                                                                                                                                                      022018020800                                                                                                                                2135201802087319002RUA                 LUIZ CAETANO                                                489                                                                                                                                                               PARQUE LAUSANNE                                   13271785SP7225VALINHOS                                          19  38695633                                                                                                                                           50000000005000000152018020800000000S                                                                                                                                                                                                                                                                                  F
1F 296589660001001GISELI MARY COLLETO 21583339876                                                                                                                       GMC ARQUITETURA                                        022018020800                                                                                                                                2135201802088219999ESTRADA             DO JEQUITIBA                                                999   CASA 371                                                                                                                                                    PINHEIRO                                          13274610SP7225VALINHOS                                          19  41170370                        giseli@gmc.arq.br                                                                                                  50000000001000000152018020800000000S                                                                                                                                                                                                                                                                                  F
1F 296596770001181HORACIO ARAO MARGARIDO 26936993800                                                                                                                    MARGARIDO - MANUTENCAO DE JARDINS                      022018020800                                                                                                                                2135201802088130300RUA                 BARCELOS                                                    34CA2                                                                                                                                                             JARDIM PORTUGAL                                   13273275SP7225VALINHOS                                          19  41170042                        margaridojardinagem@gmail.com                                                                                      50000000005000000152018020800000000S                                                                                                                                                                                                                                                                                  F
1F 296599280001641GLAUCIA FERREIRA FRANCO MATIAS 33237852821                                                                                                            LELE PERFUMES E CIA                                    022018020800                                                                                                                                2135201802084772500RUA                 CARLOS GABETTA                                              SN    LOTE 24 QUADRA A                                                                                                                                            JARDIM JUREMA                                     13272476SP7225VALINHOS                                          19  38716780                        GMF_2213@HOTMAIL.COM                                                                                               50000000000001000152018020800000000S                                                                                                                                                                                                                                                                                  F
1F 296603580001221EDVALDO ROCHA DE SOUZA 40804229899                                                                                                                    EDYTRASPORTES                                          082018031301                                                                                                                                2135201802095320202ALAMEDA             ITATINGA                                                    1151  APT 26                                                                                                                                                      JOAPIRANGA                                        13278480SP7225VALINHOS                                          19  38295335                        edirochasouza@hotmail.com                                                                                          50000000000300000162018020920180313S                                                                                                                                                                                                                                                                                  F
1F 296604300001111A. C. DA CUNHA                                                                                                                                        PARADISE PROMOCOES DE VENDAS                           022018020900                                                                                                                                2135201802097319002RUA                 ANTONIO FIORAVANTI                                          S/N   LOTE  13                  QUADRA1                                                                                                                           LOTEAMENTO RESIDENCIAL SANTA GERTRUDES            13272791SP7225VALINHOS                                          19  3299104619  93048160            PARADISEALIMENTOS@GMAIL.COM                                                                                        50000000001000000152018020900000000N                                                                                                                                                                                                                                                                                  F
1F 296608120001451LUCIENE LUZIA DE SOUZA 18201328892                                                                                                                    REDE CASA DO FRANGO E CIA                              022018020900                                                                                                                                2135201802095620104RUA                 SILVESTRE CHIARI                                            44                                                                                                                                                                JARDIM BOM RETIRO                                 13275250SP7225VALINHOS                                          19  38712874                        casadofrango9@gmail.com                                                                                            50000000005000000152018020900000000S                                                                                                                                                                                                                                                                                  F
1F 296613970001441SILVA BORIN SOCIEDADE INDIVIDUAL DE ADVOCACIA                                                                                                                                                                022018013100                                                                                                                                2321201801316911701ALAMEDA             ITAMBE                                                      34                                                                                                                                                                JOAPIRANGA                                        13278470SP7225VALINHOS                                          19  38691477                        ORCADECI@ORCADECI.COM.BR                                                                                           65000000010000000552018013100000000N                                                                                                                                                                                                                                                                                  F
1F 296617610001761REINALDO BORGES MACHADO 45650420882                                                                                                                   MACHADO E MACHADO                                      022018020900                                                                                                                                2135201802094399103RUA                 WALDOMIRO ROSSI                                             186                                                                                                                                                               LOTEAMENTO NOVA ESPIRITO SANTO                    13273202SP7225VALINHOS                                          19  38715605                        rafael.tofolo@hotmail.com                                                                                          50000000001000000152018020900000000S                                                                                                                                                                                                                                                                                  F
1F 296643260001031PEDRO HENRIQUE CATELANO PEREIRA 43375348819                                                                                                           PEDRINHO BARBER                                        022018020900                                                                                                                                2135201802099602501RUA                 OSWALDO DE ROCCO                                            175                                                                                                                                                               JARDIM SAO MARCOS                                 13272828SP7225VALINHOS                                          19  38692757                        PAULO_HP20089@YAHOO.COM.BR                                                                                         50000000002000000152018020900000000S                                                                                                                                                                                                                                                                                  F
1F 296675900001921DEVINHALE DISTRIBUIDORA DE GAS EIRELI                                                                                                                 DISTRIBUIDORA DE GAS SAO MARCOS VALINHOS               022018020900                                                                                                                                2305201802094784900RUA                 JOAO PREVITALLE                                             2278                                                                                                                                                              SANTA CRUZ                                        13272400SP7225VALINHOS                                          19  38971941                        CONTABILE@CONTABILE.COM.BR                                                                                         65000000100000000152018020900000000N                                                                                                                                                                                                                                                                                  F
1F 296676770001601PEDRO HENRIQUE DIAS ARANHA 41906546800                                                                                                                CARANGUEJO STORE                                       082018051601                                                                                                                                2135201802091340599ALAMEDA             COZUMEL                                                     47                                                                                                                                                                CONDOMINIO RESIDENCIAL TERRAS DO CARIBE           13272842SP7225VALINHOS                                          19  92532720                        phdaranha@gmail.com                                                                                                50000000004000000162018020920180516S                                                                                                                                                                                                                                                                                  F
1F 296677750001051UNITPARTS PARTICIPACOES - EIRELI                                                                                                                                                                             022018020900                                                                                                                                2305201802096462000AVENIDA             ONZE DE AGOSTO                                              1369                                                                                                                                                              JARDIM RIBEIRO                                    13270190SP7225VALINHOS                                          19  38711167                        RLBENTO@UOL.COM.BR                                                                                                 65000000100000000500000000000000000N                                                                                                                                                                                                                                                                                  F
1F 296678640001431RESTAURANTE RANCHO ARIZONA LTDA                                                                                                                       RANCHO ARIZONA                                         022018020900                                                                                                                                2062201802095611201ESTRADA             MUNICIPAL DO CLUBE DE CAMPO VALINHOS                        1020                                                                                                                                                              JARDIM SAO BENTO DO RECREIO                       13274776SP7225VALINHOS                                          19  3871621119  3871895919  38716211RANCHOARIZONACONTATO@HOTMAIL.COM                                                                                   49000000010000000152018020900000000N                                                                                                                                                                                                                                                                                  F
1F 296692280001501ANA LUIZA MONTEIRO 38579617839                                                                                                                        ANA MONTEIRO STORE                                     022018020900                                                                                                                                2135201802094781400RUA                 LOURENCO FERRARI                                            584                                                                                                                                                               JARDIM DOS MANACAS                                13273071SP7225VALINHOS                                          19  38692287                        ana.luizalm2@gmail.com                                                                                             50000000000500000152018020900000000S                                                                                                                                                                                                                                                                                  F
1F 296696630001851PRESCILLA DE SOUZA 08582767986                                                                                                                        RB TRANSPORTES                                         022018021000                                                                                                                                2135201802104930202RUA                 EDUARDO LUIZ DA COSTA LOBO                                  11    APT 03                                                                                                                                                      LOTEAMENTO PEDRA VERDE                            13275537SP7225VALINHOS                                          19  98766464                        prescillasouza@icloud.com                                                                                          50000000005000000152018021000000000S                                                                                                                                                                                                                                                                                  F
1F 296698600001021CESAR ALEXANDRE MARINANGELO 20172936870                                                                                                               CBC BOMBAS                                             022018021000                                                                                                                                2135201802107739099RUA                 DAS AVENCAS                                                 214                                                                                                                                                               PARQUE CECAP                                      13273440SP7225VALINHOS                                          19  38495036                        cesargemeos2011@hotmail.com                                                                                        50000000050000000152018021000000000S                                                                                                                                                                                                                                                                                  F
1F 296712620001601JANAINA THEREZA SIQUEIRA DE JESUS BARROS 30088911870                                                                                                  VILAREJO BAUNILHA                                      022018021100                                                                                                                                2135201802118230001RUA                 JULIA LOVISARO VICENTINI (NONA)                             100   BLOCO 33;APT 33                                                                                                                                             SITIOS FRUTAL                                     13273220SP7225VALINHOS                                          19  32991969                        vilarejobaunilha@gmail.com                                                                                         50000000002000000152018021100000000S                                                                                                                                                                                                                                                                                  F
1F 296714690001341RITA DE CASSIA MARIANO GOMES 01649606605                                                                                                              G SOLUCOES                                             022018021100                                                                                                                                2135201802114773300RUA                 LUIZ BISSOTO                                                240   BLOCO 5;APT 118                                                                                                                                             JARDIM SANTA ROSA                                 13275110SP7225VALINHOS                                          19  38292650                        ritagsolucoes@yahoo.com.br                                                                                         50000000001000000152018021100000000S                                                                                                                                                                                                                                                                                  F
1F 296759170001781CLAUDIA SOUTO DALMEDICO 38571334811                                                                                                                   CS MARKETING E COMUNICACAO INTEGRADA                   022018021400                                                                                                                                2135201802147319002RUA                 DOS CRISANTEMOS                                             96                                                                                                                                                                PARQUE CECAP                                      13273380SP7225VALINHOS                                          19  33279383                        claudiasoutod@hotmail.com                                                                                          50000000001000000152018021400000000S                                                                                                                                                                                                                                                                                  F
1F 296805510001251ELIANE FERREIRA DE BRITO MORAES 28001006808                                                                                                           ULLARO MODAS E ACESSORIOS                              022018021400                                                                                                                                2135201802144781400RUA                 DOUTOR CANDIDO FERREIRA                                     198                                                                                                                                                               CENTRO                                            13270040SP7225VALINHOS                                          19  25152407                        elianefbg@hotmail.com                                                                                              50000000005000000152018021400000000S                                                                                                                                                                                                                                                                                  F
1F 296847510001561WILLIAN BURLE DE LIMA 36846912835                                                                                                                     WB INFO                                                082019072401                                                                                                                                2135201802154759899RUA                 LINDOIA                                                     78    FUNDOS                                                                                                                                                      VILA SAO CRISTOVAO                                13276550SP7225VALINHOS                                          19  38715291                        willianmlkdb@gmail.com                                                                                             50000000020000000162018021520190724S                                                                                                                                                                                                                                                                                  F
1F 296857900001781FRANCIELE DE OLIVEIRA BITENCOURT RAMOS 34435014866                                                                                                    AGNELA ROUPAS E ACESSORIOS                             022018021500                                                                                                                                2135201802154781400RUA                 ANTONIO CARLOS                                              568                                                                                                                                                               CENTRO                                            13270005SP7225VALINHOS                                          19  92796993                                                                                                                                           50000000005000000152018021500000000S                                                                                                                                                                                                                                                                                  F
1F 296861790001641BRUNO MARTINI SOCIEDADE INDIVIDUAL DE ADVOCACIA                                                                                                                                                              022018012300                                                                                                                                2321201801236911701RUA                 PEDRO CARLOS CAGLIARI                                       66                                                                                                                                                                VILA SANTO ANTONIO                                13270500SP7225VALINHOS                                          19  81079036                        BRUNO.MARTINI@ADV.OABSP.ORG.BR                                                                                     65000000001000000552018012300000000N                                                                                                                                                                                                                                                                                  F
1F 296864810001121RURAL CLIMA - GERENCIAMENTO DE PALESTRAS LTDA                                                                                                         RURAL CLIMA PALESTRAS                                  022018021500                                                                                                                                2062201802158599604RUA                 ANGELO TRENTO                                               31    CASA  16                  COND  VILLAGE MONET                                                                                                               JARDIM ALTO DA BOA VISTA                          13272103SP7225VALINHOS                                          19  38716525                        ABOLICAO@HIWAY.COM.BR                                                                                              49000000010000000152018021500000000N                                                                                                                                                                                                                                                                                  F
1F 296907330001871ASSOCIACAO CULTURAL COMUNITARIA VV8                                                                                                                                                                          022017113000                                                                                                                                3999201711306022501AVENIDA             INVERNADA                                                   1647  SALA  05                                                                                                                                                    PARQUE NOVA SUICA                                 13271450SP7225VALINHOS                                          19  38494463                        ADMIN@EGSERVICOSCONTABEIS.COM.BR                                                                                   16000000000000000500000000000000000N                                                                                                                                                                                                                                                                                  F
1F 296924350001261JEFFERSON LUIS DOMINGUES DE SOUSA 34083612827                                                                                                         DLARA E SOUSA INFORMATICA                              082018051301                                                                                                                                2135201802154751201RUA                 VICENTE ROSSI                                               225   FUNDOS                                                                                                                                                      RESIDENCIAL SAO LUIZ                              13270460SP7225VALINHOS                                          19  74058387                        domingues.jld@gmail.com                                                                                            50000000002000000162018021520180513S                                                                                                                                                                                                                                                                                  F
1F 296927500001531ADONIAS DA SILVA 27647173855                                                                                                                          TUTA SERRALHERIA                                       022018021500                                                                                                                                2135201802152542000RUA                 JOAO BISSOTTO FILHO                                         1181  APT 905;BLOCO B;EDIF MONZA;COND Veron                                                                                                                       ORTIZES                                           13275410SP7225VALINHOS                                          19  83007377                        TUTASERRALHERIA@GMAIL.COM                                                                                          50000000005000000152018021500000000S                                                                                                                                                                                                                                                                                  F
1F 296928380001751FABIANA CRISTINA MARTINS MARCON 37244510837                                                                                                           LOOPING DESIGN                                         082018050701                                                                                                                                2135201802155811500RUA                 MINAS GERAIS                                                254                                                                                                                                                               JARDIM CELANI                                     13274080SP7225VALINHOS                                          19  38696905                        fabimarcon18@gmail.com                                                                                             50000000000050000162018021520180507S                                                                                                                                                                                                                                                                                  F
1F 296967610001011ELIANA FERNANDES CANDIDO 27288143848                                                                                                                  UNIAGUA                                                022018021600                                                                                                                                2135201802164723700AVENIDA             JOAQUIM ALVES CORREA                                        3350                                                                                                                                                              RESIDENCIAL SAO LUIZ                              13270400SP7225VALINHOS                                          19  38691863                        eliana_transporte@hotmail.com                                                                                      50000000001000000152018021600000000S                                                                                                                                                                                                                                                                                  F
1F 296997360001811TATIANE RODRIGUES DA SILVA 29866101886                                                                                                                TATY RODRIGUES - CONFEITARIA ARTESANAL                 082018063001                                                                                                                                2135201802161093701AVENIDA             VICE-PREFEITO ANESIO CAPOVILLA SITIOS FRUTAL                1000  BLOCO 3;APT 61                                                                                                                                              CAPUAVA                                           13272181SP7225VALINHOS                                          19  88091629                        tatysum@hotmail.com                                                                                                50000000001000000162018021620180630S                                                                                                                                                                                                                                                                                  F
1F 297003300001711FERNANDA CONTIERI 24856028839                                                                                                                                                                                022018021600                                                                                                                                2135201802161359600RUA                 DOS JAPONESES                                               154                                                                                                                                                               PARQUE NOVA SUICA                                 13271440SP7225VALINHOS                                          19  38711742                        independencia_erika@hotmail.com                                                                                    50000000002000000152018021600000000S                                                                                                                                                                                                                                                                                  F
1F 297005760001431C&C MARQUES - CONSULTORIA E TREINAMENTO EM GESTAO EMPRESARIAL EIRELI                                                                                                                                         022018021600                                                                                                                                2305201802168599604RODOVIA             FLAVIO DE CARVALHO                                          1618  SALA  01                                                                                                                                                    JARDIM SAO PAULO                                  13273000SP7225VALINHOS                                          19  32557666                        ADM1@COLISEUCONTABILIDADE.COM.BR                                                                                   65000000095400000152018021600000000N                                                                                                                                                                                                                                                                                  F
1F 297022640001791R OSTON CORRETORA DE SEGUROS LTDA                                                                                                                     OSTON SEGUROS                                          022018021600                                                                                                                                2062201802166622300RUA                 SILVIO CONCON                                               91                                                                                                                                                                JARDIM RIBEIRO                                    13270140SP7225VALINHOS                                          11  50511392                        MARCIA@MSSCONTABIL.COM.BR                                                                                          49000000070000000152018021600000000N                                                                                                                                                                                                                                                                                  F
1F 297079230001601LUIZ FERNANDO MARCON 13762600856                                                                                                                      FMW TORNEARIA                                          022018021900                                                                                                                                2135201802192539001RUA                 GLORIA                                                      0     QUADRA SUBD;LOTE 1-B - VILA ARLINDA                                                                                                                         JARDIM RIBEIRO                                    13270151SP7225VALINHOS                                          19  32990656                        claudiaatualvalinhos@uol.com.br                                                                                    50000000002000000152018021900000000S                                                                                                                                                                                                                                                                                  F
1F 297096420001461PARQUE DE ENTRETENIMENTO PLANET JUMP LTDA                                                                                                             PLANET JUMP PARK                                       022018021900                                                                                                                                2062201802199329899RUA                 PAIQUERE                                                    200   LOJA  LUC 025                                                                                                                                               JARDIM PAIQUERE                                   13271600SP7225VALINHOS                                          13  97182114                        ATENDIMENTO@ANDREOLICONTABIL.COM.BR                                                                                49000000050000000500000000000000000N                                                                                                                                                                                                                                                                                  F
1F 297097930001021DIEGO DE OLIVEIRA ANDRADE 42354177895                                                                                                                 DJ CONSTRUCAO CIVIL                                    022018021900                                                                                                                                2135201802194399103RUA                 JULIA LOVISARO VICENTINI (NONA)                             100   BLOCO 29;APT 14                                                                                                                                             SITIOS FRUTAL                                     13273220SP7225VALINHOS                                          19  38497093                        DIOLIVEIRAANDRADE@GMAIL.COM                                                                                        50000000001000000152018021900000000S                                                                                                                                                                                                                                                                                  F
1F 297125480001461JOFFRE ANACLETO DO NASCIMENTO 14150851883                                                                                                             JO JARDINAGEM                                          022018021900                                                                                                                                2135201802198130300RUA                 CAMPOS SALLES                                               2035  CONJ Ao 56 blc 01                                                                                                                                           VILA FAUSTINA II                                  13272350SP7225VALINHOS                                          19  96937639                        joffre.a.nascimento@houtmail.com                                                                                   50000000000020000152018021900000000S                                                                                                                                                                                                                                                                                  F
1F 297160930001371ROSANGELA GOMES DA ROCHA                                                                                                                                                                                     022018021900                                                                                                                                2135201802194741500RUA                 CAMPOS SALLES                                               983                                                                                                                                                               VILA FAUSTINA II                                  13272350SP7225VALINHOS                                          19  39295331                        FREITAS.ASSESSORIACONTABIL@GMAIL.COM                                                                               50000000001000000100000000000000000N                                                                                                                                                                                                                                                                                  F
1F 297161960001051ANA PAULA DE SALLES PUPO 30477736882                                                                                                                                                                         022018021900                                                                                                                                2135201802194751201RUA                 ROMEU CHIMINASSO                                            730   BLOCO D;APT 44                                                                                                                                              CHACARA DAS NACOES                                13272588SP7225VALINHOS                                          19  32444971                        anapaula.pupo@hotmail.com                                                                                          50000000000100000152018021900000000S                                                                                                                                                                                                                                                                                  F
1F 297164680001691JOAO DOS SANTOS SILVA SERVICOS ADMINISTRATIVOS                                                                                                                                                               082019053001                                                                                                                                2135201802198219999RUA                 BRASILINO MONHOLLI                                          45                                                                                                                                                                LOTEAMENTO RESIDENCIAL ANA CAROLINA               13273606SP7225VALINHOS                                          19  97049797                        PATRICIA_JOAO11@HOTMAIL.COM                                                                                        50000000000100000300000000000000000N                                                                                                                                                                                                                                                                                  F
1F 297187420001391ANITA DE FREITAS ARAUJO 39580340803                                                                                                                   ANITA ENGLISH TEACHER                                  022018021900                                                                                                                                2135201802198599699RUA                 ROSINA FOLEGATTI FERRARI                                    40    APT 14                                                                                                                                                      JARDIM SANTA CECILIA                              13277670SP7225VALINHOS                                          19  81644895                        anitadefa@hotmail.com                                                                                              50000000001000000152018021900000000S                                                                                                                                                                                                                                                                                  F
1F 297208760001941APICE COMERCIO DE ROUPAS E SERVICOS ESPECIALIZADOS EIRELI                                                                                                                                                    022018022000                                                                                                                                2305201802204781400RUA                 DOUTOR ADHEMAR DE BARROS                                    458                                                                                                                                                               JARDIM EUROPA                                     13270600SP7225VALINHOS                                          19  38711742            19  38711742ESCRITORIOINDEPENDENCIA@UOL.COM.BR                                                                                 65000000096000000152018022000000000N                                                                                                                                                                                                                                                                                  F
1F 297273080001151AMERICA SERVICOS ADMINISTRATIVOS E GESTAO FINANCEIRA - EIRELI                                                                                         AMERICA SERVICOS ADMINISTRATIVOS E GESTAO FINANCEIRA   022018022000                                                                                                                                2305201802207020400RUA                 LUIZ SPIANDORELLI NETO (LULA)                               60    EDIF  PAINEIRAS           ANDAR 4                   SALA  402                                                                                               LOTEAMENTO PAIQUERE                               13271570SP7225VALINHOS                                          19  38491485                        MARCIO.PISCIOTTA@PVTEC.COM.BR                                                                                      65000000095400000300000000000000000N                                                                                                                                                                                                                                                                                  F
1F 297273740001951CARLOS AUGUSTO CARVALHO JUNIOR                                                                                                                                                                               022018021500                                                                                                                                4120201802150119999ALAMEDA             CARLOS DE CARVALHO VIEIRA BRAGA                             SN          1LOTE 13 QUADRA E                                                                                                                                     CHACARAS ALPINA                                   13274465SP7225VALINHOS                                          19  91875855                                                                                                                                           59000000000000000500000000000000000N                                                                                                                                                                                                                                                                                  F
1F 297275120001361FREITAS & GIACULLO LTDA                                                                                                                                                                                      022018022000                                                                                                                                2062201802204663000RUA                 ELIANA DE CASTRO                                            51                                                                                                                                                                JARDIM MONTE VERDE                                13275060SP7225VALINHOS                                          19  92739869                        FREITAS.GIACULLO@GMAIL.COM                                                                                         49000000100000000152018022000000000N                                                                                                                                                                                                                                                                                  F
1F 297275360001951AUTO PECAS CAMPOS SALLES VALINHOS LTDA                                                                                                                                                                       022018022000                                                                                                                                2062201802204530703RUA                 CAMPOS SALLES                                               569                                                                                                                                                               VILA SAO SEBASTIAO                                13271000SP7225VALINHOS                                          19  91628833                        TOSSINICONT@UOL.COM.BR                                                                                             49000000040000000152018022000000000N                                                                                                                                                                                                                                                                                  F
1F 297275840001831DANIEL ROBERTO OSHIRO                                                                                                                                 GOT IT                                                 022018022000                                                                                                                                2135201802206201501RUA                 IRMA LAZARA FIORINI (LOTEAMENTO RESIDENCIAL MADRE           29    COND  MADRE MARIA VILAC                                                                                                                                     RONCAGLIA                                         13272730SP7225VALINHOS                                          19  4118006719  35151200            CONTATO@EFICIENCIAECONFIANCA.COM.BR                                                                                50000000010000000152018022000000000N                                                                                                                                                                                                                                                                                  F
1F 297301700001031MARILZA FERNANDES REINALDI 16863433885                                                                                                                DERMOTECNICA MICROPIGMENTACAO                          022018022000                                                                                                                                2135201802204742300RUA                 FERDINANDO BORIN                                            375   APT 11 BL A                                                                                                                                                 JARDIM ALTO DA BOA VISTA                          13272100SP7225VALINHOS                                          19  39295760                        dermotecnica@gmail.com                                                                                             50000000005000000152018022000000000S                                                                                                                                                                                                                                                                                  F
1F 297332630001911DELCIO COUTINHO DE FREITAS 04503141899                                                                                                                                                                       022018022100                                                                                                                                2135201802215611204RUA                 CAMPOS SALLES                                               2228                                                                                                                                                              VILA FAUSTINA II                                  13272350SP7225VALINHOS                                          19  38716211                        veigaepostal@veigaepostal.com.br                                                                                   50000000005000000152018022100000000S                                                                                                                                                                                                                                                                                  F
1F 297357050001391WN BARROS PIZZARIA LTDA                                                                                                                               PIZZARIA OREGANO                                       022018022100                                                                                                                                2062201802215611201RUA                 ISAURA APARECIDA OLIVEIRA BARBOSA TERINI                    333                                                                                                                                                               JARDIM ITAPUA                                     13273105SP7225VALINHOS                                          19  38492545            19  33273998WILLIANBARROS23@HOTMAIL.COM                                                                                        49000000100000000152018022100000000N                                                                                                                                                                                                                                                                                  F
1F 297358800001261ASTI NEGOCIOS E PARTICIPACOES LTDA                                                                                                                                                                           022018022100                                                                                                                                2062201802216462000VIA                 VENETO (VILA ROMANA)                                        349   LOTE  43                                                                                                                                                    NACOES                                            13278260SP7225VALINHOS                                          11  45878852                        FELLICCONSULTORIA@GMAIL.COM                                                                                        49000000045000000500000000000000000N                                                                                                                                                                                                                                                                                  F
1F 297423420001691ZL CONSULTORIA EMPRESARIAL EIRELI                                                                                                                                                                            022018022100                                                                                                                                2305201802217020400RUA                 TREZE DE MAIO                                               133   SALA  32                  EDIF  MILANO                                                                                                                      CENTRO                                            13270020SP7225VALINHOS                                          19  97672338                        LUIZ@LUIZDEGOIS.COM.BR                                                                                             65000000095400000152018022100000000N                                                                                                                                                                                                                                                                                  F
1F 297427750001141JOSIANE CRISTINE CORREA CAPOVILLA 36448475842                                                                                                                                                                022018022100                                                                                                                                2135201802218130300RUA                 ROMEU CHIMINASSO                                            730   APT 144 - BL RESEDA                                                                                                                                         CHACARA DAS NACOES                                13272588SP7225VALINHOS                                          19  81295707                                                                                                                                           50000000015000000152018022100000000S                                                                                                                                                                                                                                                                                  F
1F 297441120001391PAULO SERGIO BETONTE 35622778816                                                                                                                      P&B CORRETORA DE CONSORCIOS E PRODUTOS FINANCEIROS     022018022100                                                                                                                                2135201802217319002RUA                 THOME DE SOUZA                                              130                                                                                                                                                               JARDIM SANTO ANTONIO                              13277022SP7225VALINHOS                                          19  33277161                        paulobetonteconsorcios@gmail.com                                                                                   50000000001000000152018022100000000S                                                                                                                                                                                                                                                                                  F
1F 297446140001601ANTONIO CARLOS BARBOSA ALVES 82525315200                                                                                                              BARBOSA COZINHAS                                       082019050301                                                                                                                                2135201802215611201RUA                 DAS MAGNOLIAS                                               39                                                                                                                                                                JARDIM NOVO MUNDO                                 13273047SP7225VALINHOS                                          91  92445174                        aa9665756@gmail.com                                                                                                50000000030000000162018022120190503S                                                                                                                                                                                                                                                                                  F
1F 297446180001481WILLIAM MONTEIRO FRANCISCO 38025385876                                                                                                                WMF TRANSPORTE EXECUTIVO                               082019052901                                                                                                                                2135201802214929902RUA                 NADYR APARECIDA STORANI DA SILVA                            431                                                                                                                                                               JARDIM SAO MARCOS                                 13272822SP7225VALINHOS                                          19  39296748                        willianmfrancisco@gmail.com                                                                                        50000000002000000162018022120190529S                                                                                                                                                                                                                                                                                  F
1F 297447780509682IGREJA UNIVERSAL DO REINO DE DEUS                                                                                                                                                                            022005092400                                                                                                                                3220199604199491000AVENIDA             ONZE DE AGOSTO                                              1275                                                                                                                                                              CENTRO                                            13270080SP7225VALINHOS                                          11  3321892411  3321877211  33218924essouza@universalsp.com.br                                                                                         16000000000000000500000000000000000                        00000000                                                                                                                                                                                                                                                   F
1F 297447788740812IGREJA UNIVERSAL DO REINO DE DEUS                                                                                                                                                                            022015081100                                                                                                                                3220201508119491000RUA                 ISAURA APARECIDA OLIVEIRA BARBOSA TERINI                    319                                                                                                                                                               JARDIM ITAPUA                                     13273105SP7225VALINHOS                                          11  33218756                        VVANDERLEY@UNIVERSAL.ORG.BR                                                                                        16000000000000000500000000000000000                        00000000                                                                                                                                                                                                                                                   F
1F 297447788812902IGREJA UNIVERSAL DO REINO DE DEUS                                                                                                                                                                            022015100900                                                                                                                                3220201510099491000RUA                 CAETANO FERRARI                                             61                                                                                                                                                                JARDIM JUREMA                                     13272470SP7225VALINHOS                                          11  33218756                        VVANDERLEY@UNIVERSAL.ORG.GR                                                                                        16000000000000000500000000000000000                        00000000                                                                                                                                                                                                                                                   F
1F 297472090001031MAYCON ALEKSANDER GIMENES DE OLIVEIRA 26622537895                                                                                                     BM ENTREGAS                                            022018022200                                                                                                                                2135201802225320202RUA                 HORACIO AMARAL                                              338                                                                                                                                                               JARDIM PINHEIROS                                  13274360SP7225VALINHOS                                          19  33274473                        maycon.mg@gmail.com                                                                                                50000000000100000152018022200000000S                                                                                                                                                                                                                                                                                  F
1F 297500820001731ADEMITO PEREIRA DE ALENCAR 65817508168                                                                                                                ADM PEREIRA                                            022018022200                                                                                                                                2135201802225320202RUA                 DOUTOR ALFREDO ZACHARIAS                                    842   BLOCO 2;APT 12B                                                                                                                                             VILA PAGANO                                       13277280SP7225VALINHOS                                          19  95264724                        marcosanalista01@gmail.com                                                                                         50000000005000000152018022200000000S                                                                                                                                                                                                                                                                                  F
1F 297519860001131VALDELICE DOS ANJOS 28453359890                                                                                                                       BARBEARIA BARBA NEGRA                                  022018022200                                                                                                                                2135201802229602501RUA                 ITAIU                                                       137   CASA 3                                                                                                                                                      JARDIM SAO BENTO DO RECREIO                       13274756SP7225VALINHOS                                          11  99608921                                                                                                                                           50000000005000000152018022200000000S                                                                                                                                                                                                                                                                                  F
1F 297535850001001ALB CONSULT LTDA                                                                                                                                      ALB CONSULT                                            022018022200                                                                                                                                2062201802227020400RUA                 TOM JOBIM                                                   505A  SALA  2                                                                                                                                                     VALE VERDE                                        13279106SP7225VALINHOS                                          19  3871621119  3871895919  38716211A.BLANCO@MORROWSODALI.COM                                                                                          49000000010000000152018022200000000N                                                                                                                                                                                                                                                                                  F
1F 297536760001381VICTOR LUIZ BERSAN                                                                                                                                                                                           022018022200                                                                                                                                2135201802227500100AVENIDA             JOAQUIM ALVES CORREA                                        4233                                                                                                                                                              RESIDENCIAL SAO LUIZ                              13270400SP7225VALINHOS                                          19  3871621119  3871895919  38716211CLINICAVICTORBERSAN.VET@HOTMAIL.COM                                                                                50000000010000000152018022200000000N                                                                                                                                                                                                                                                                                  F
1F 297538420001041EDCHI ALBERTH ALVARENGA                                                                                                                               ALVARENGA NEGOCIOS IMOBILIARIOS                        022018022200                                                                                                                                2135201802226821801RUA                 JOSE ELIAS DE OLIVEIRA ANDRADE                              51    FUNDOS                                                                                                                                                      RESIDENCIAL SAO LUIZ                              13270430SP7225VALINHOS                                          19  95601711                        EDCHI.ALVARENGA@GMAIL.COM                                                                                          50000000005000000152018022200000000N                                                                                                                                                                                                                                                                                  F
1F 297558630001501RAPHAEL SCUPINARI VECCHI 35084535886                                                                                                                  RUSH INFO                                              022018022200                                                                                                                                2135201802228219999RUA                 DOS LIRIOS                                                  298                                                                                                                                                               PARQUE CECAP                                      13273330SP7225VALINHOS                                          19  38491528                        rsvecchi@hotmail.com                                                                                               50000000001000000152018022200000000S                                                                                                                                                                                                                                                                                  F
1F 297572850001911PAULO SERGIO VISENTINI 06856046839                                                                                                                    VISENTINI                                              022018022200                                                                                                                                2135201802227319002RUA                 DAS ARARAS                                                  158                                                                                                                                                               JARDIM PAIQUERE                                   13271606SP7225VALINHOS                                          19  93523664                        paulo@bigconcreto.com.br                                                                                           50000000003500000152018022200000000S                                                                                                                                                                                                                                                                                  F
1F 297600760001051I.S.P. ENGENHARIA E PROJETOS EIRELI                                                                                                                   PARRO ENGENHARIA E PROJETOS                            022018022200                                                                                                                                2305201802227111100RUA                 JOAO BISSOTTO FILHO                                         1181  APT   1705                      TORRE SICILIA                                                                                                               ORTIZES                                           13275410SP7225VALINHOS                                          19  33250425                        SAULO@ALOUANCONTABIL.COM.BR                                                                                        65000000100000000152018022200000000N                                                                                                                                                                                                                                                                                  F
1F 297602550001341ROBINSON LUIZ FRANCO DE MORAES                                                                                                                                                                               022018022200                                                                                                                                2135201802226821801RUA                 AMELIA BUCIOLI VALENTE                                      7                                                                                                                                                                 JARDIM PANORAMA                                   13277430SP7225VALINHOS                                          19  3871621119  3871895919  38716211ROBINSON@GAMAVE.COM.BR                                                                                             50000000005000000152018022200000000N                                                                                                                                                                                                                                                                                  F
1F 297614940001091MARIO TATSUYA MIYAZAKI 03245536844                                                                                                                                                                           022018022300                                                                                                                                2135201802235819100RUA                 ITALO BORDINI                                               624   CASA                                                                                                                                                        JARDIM DO LAGO                                    13277520SP7225VALINHOS                                          19  38295360                        claudio@claudiosantimaria.com.br                                                                                   50000000001000000152018022300000000S                                                                                                                                                                                                                                                                                  F
1F 297636110001731LUIZ FELIPE CARNEIRO LOURENCO LEITE 34050629852                                                                                                                                                              022018022300                                                                                                                                2135201802235819100RUA                 PROFESSOR RICHARD TROMBETTA                                 220   CASA                                                                                                                                                        VALE VERDE                                        13279080SP7225VALINHOS                                          19  38295360                        claudio@claudiosantimaria.com.br                                                                                   50000000001000000152018022300000000S                                                                                                                                                                                                                                                                                  F
1F 297660640001801MARIANA RIBEIRO 47881055863                                                                                                                           MP DESIGNER E INTERIORES                               082018032801                                                                                                                                2135201802239529105RUA                 MANOEL DOS SANTOS MARTA                                     323   CASA 23                                                                                                                                                     CHACARA DAS NACOES                                13272580SP7225VALINHOS                                          19  87669603                        paterno.or@gmail.com                                                                                               50000000001000000162018022320180328S                                                                                                                                                                                                                                                                                  F
1F 297668780001141ANA PAULA PEREIRA DA SILVA SOARES 26590775842                                                                                                         BELLA LUNA BOUTIQUE                                    022018022300                                                                                                                                2135201802234781400RUA                 ELSO PREVITALE                                              645   CASA 291                                                                                                                                                    JARDIM ALTO DA COLINA                             13272300SP7225VALINHOS                                          19  38692731                        bellalunaboutique@outlook.com.br                                                                                   50000000002000000152018022300000000S                                                                                                                                                                                                                                                                                  F
1F 297669140001401SHOPTELBRAS COMERCIO DE CAMERAS DE SEGURANCA ELETRONICA E AUTOMACAO BRASIL LTDA                                                                       SHOPTELBRAS                                            022018022300                                                                                                                                2062201802234759899RUA                 MINAS GERAIS                                                155   SALA  3                                                                                                                                                     JARDIM CELANI                                     13274080SP7225VALINHOS                                          19  32444053                        SHOPTELBRAS@SHOPTELBRAS.COM.BR                                                                                     49000000060000000152018022300000000N                                                                                                                                                                                                                                                                                  F
1F 297669470001901M&M COMERCIO E SERVICOS DE MOTOPECAS LTDA                                                                                                             MOTOCENTER                                             022018022300                                                                                                                                2062201802234541206RUA                 TREZE DE MAIO                                               878                                                                                                                                                               VILA OLIVO                                        13276020SP7225VALINHOS                                          19  92078273                        JOANA.KLIMA23@GMAIL.COM                                                                                            49000000030000000152018022300000000N                                                                                                                                                                                                                                                                                  F
1F 297672420001971WILSON DOUGLAS ALVES 38911589802                                                                                                                      WA TREINAMENTOS                                        022018022300                                                                                                                                2135201802238599604RUA                 JULIA LOVISARO VICENTINI (NONA)                             100   APT 24;BLOCO 33                                                                                                                                             SITIOS FRUTAL                                     13273220SP7225VALINHOS                                          19  38716211                        veigaepostal@veigaepostal.com.br                                                                                   50000000005000000152018022300000000S                                                                                                                                                                                                                                                                                  F
1F 297674870001141BEATRIZ PEGORARI FILIGOI                                                                                                                                                                                     022018022300                                                                                                                                2135201802234669999RUA                 DAS MAGNOLIAS                                               9                                                                                                                                                                 JARDIM NOVO MUNDO                                 13273047SP7225VALINHOS                                          19  95869715                        MAFILIGOI@BOL.COM.BR                                                                                               50000000010000000152018022300000000N                                                                                                                                                                                                                                                                                  F
1F 297694420001891AYSLAN SCASSA VIANINI 42548995801                                                                                                                     AS EXPRESS                                             022018022300                                                                                                                                2135201802235320202RUA                 LUIZ BARBISAN                                               252   APT 21                                                                                                                                                      JARDIM DO LAGO                                    13277511SP7225VALINHOS                                          19  33277638                        Asexpress@outlook.com.br                                                                                           50000000002000000152018022300000000S                                                                                                                                                                                                                                                                                  F
1F 297701990001191THIAGO COSTA FERREIRA 29268971895                                                                                                                     MUSICAL THITO COSTA                                    022018022400                                                                                                                                2135201802248592903RUA                 GUIDO TORDIN                                                06                                                                                                                                                                JARDIM BOM RETIRO                                 13275356SP7225VALINHOS                                          19  33973464                        thitoguitar@gmail.com                                                                                              50000000002500000152018022400000000S                                                                                                                                                                                                                                                                                  F
1F 297711080001601FERNANDA DE SOUZA BELLI 36933265846                                                                                                                                                                          022018022400                                                                                                                                2135201802245320201AVENIDA             JOAQUIM ALVES CORREA                                        898   APT 11                                                                                                                                                      JARDIM SANTO ANTONIO                              13277055SP7225VALINHOS                                          19  91377442                        ferbelli@gmail.com                                                                                                 50000000000500000152018022400000000S                                                                                                                                                                                                                                                                                  F
1F 297715850001251FLAVIO JOSE ALVES FERREIRA 11923948873                                                                                                                FERREIRA VARIEDADES                                    022018022500                                                                                                                                2135201802254713002RUA                 CINCO                                                       99    LOTE 1;QUADRA F                                                                                                                                             JARDIM NOVA PALMARES II                           13275708SP7225VALINHOS                                          19  33273805                        voflavio@yahoo.com.br                                                                                              50000000010000000152018022500000000S                                                                                                                                                                                                                                                                                  F
