1F 585777840001031BENATTI & BENATTI LTDA                                                                                                                                VALIMOTOS PECAS E SERVICOS                             042018121863                                                                                                                                2062198802014530701AVENIDA             DOS ESPORTES                                                21                                                                                                                                                                CENTRO                                            13270210SP7225VALINHOS                                                                                                                                                                                                 49000000000000000100000000000000000N                                                                                                                                                                                                                                                                                  F
1F 585777840002862BENATTI & BENATTI LTDA                                                                                                                                VALIMOTOS PECAS E SERVICOS                             042018121863                                                                                                                                2062199006134530701AVENIDA             DOS ESPORTES                                                21                                                                                                                                                                CENTRO                                            13270210SP7225VALINHOS                                                                                                                                                                                                 49000000000000000100000000000000000                        00000000                                                                                                                                                                                                                                                   F
1F 585786000001111BORDINI BAR E MERCEARIA LTDA                                                                                                                                                                                 081988012901                                                                                                                                2062198801295611203AVENIDA             JOAO ANTUNES DO SANTOS                                      406                                                                                                                                                               JARDIM PINHEIRO                                   13273609SP7225VALINHOS                                                                                                                                                                                                 49000000000000000500000000000000000N                                                                                                                                                                                                                                                                                  F
1F 585813070001031FONTEGAS COMERCIO DE GAS LTDA                                                                                                                         FONTEGAS                                               082018081601                                                                                                                                2062198801294784900AVENIDA             INVERNADA                                                   913                                                                                                                                                               VILA FAUSTINA II                                  13271450SP7225VALINHOS                                                                                                                                                                                                 49000000000000000100000000000000000N                                                                                                                                                                                                                                                                                  F
1F 585814710001101COLEMA COMERCIO DE LENHA E MADEIRA LTDA                                                                                                                                                                      081988082901                                                                                                                                2062198801294744001RUA                 VICENTE DE PAULA BAUMAN                                     60                                                                                                                                                                JD PRIMAVERA                                      13273609SP7225VALINHOS                                                                                                                                                                                                 49000000000000000500000000000000000N                                                                                                                                                                                                                                                                                  F
1F 585868350001551DDR MATERIAIS DE CONSTRUCAO LTDA                                                                                                                      EBENEZER                                               081994011701                                                                                                                                2062198802114744001AVENIDA             INDEPENDENCIA                                               1890                                                                                                                                                              CHACARA MAURIS                                    13276030SP7225VALINHOS                                                                                                                                                                                                 49000000000000000500000000000000000N                                                                                                                                                                                                                                                                                  F
1F 585896980001021LOURENCON E BARROSO PAPELARIA LTDA                                                                                                                    BAZAR BIO                                              022004012300                                                                                                                                2062198802244761003RUA                 PROF ALICE NONATO                                           73                                                                                                                                                                V PROGRESSO                                       13273609SP7225VALINHOS                                                                                                                                                                                                 49000000005000000152007070100000000N                                                                                                                                                                                                                                                                                  F
1F 585920980001011VALTER GOBATO                                                                                                                                         ALFA COMERCIO E SERVICOS                               082008081801                                                                                                                                2135198802114774100RUA                 FRANCISCO GLICERIO                                          1775                                                                                                                                                              COLINAS DO SOL                                    13271200SP7225VALINHOS                                                                                                                                                                                                 50000000000000000100000000000000000N                                                                                                                                                                                                                                                                                  F
1F 585928090001301PAULO EDUARDO CUNHA                                                                                                                                   CORPO & CIA                                            081996043001                                                                                                                                2135198802118888888AVENIDA             DOS ESPORTES                                                486   SALA 7                                                                                                                                                      CENTRO                                            13270210SP7225VALINHOS                                                                                                                                                                                                 50000000000000000500000000000000000N                                                                                                                                                                                                                                                                                  F
1F 585935590001521DUPATEX COMERCIO DE TECIDOS LTDA                                                                                                                                                                             022005110300                                                                                                                                2062198802134641901AVENIDA             LUIZ BASSETTO                                               155                                                                                                                                                               COLINAS DOS ALAMOS                                13271773SP7225VALINHOS                                          19  32379445                        TADEUBONALDO@YAHOO.COM.BR                                                                                          49000000200000000500000000000000000N                                                                                                                                                                                                                                                                                  F
1F 585975760001681ANGELO VALDEZ & FILHO LTDA                                                                                                                                                                                   082015020973                                                                                                                                2062198802177810800RUA                 ANTONIA C.ZACHARIAS                                         37                                                                                                                                                                JARDIM UNIAO                                      13273609SP7225VALINHOS                                                                                                                                                                                                 49000000000000000500000000000000000N                                                                                                                                                                                                                                                                                  F
1F 586039940001101EMBAVAL COMERCIO E REPRESENTACOES DE EMBALAGENS LTDA                                                                                                                                                         081989040701                                                                                                                                2062198802224689399ESTRADA             MUNICIPAL DOS RAMOS                                         451                                                                                                                                                               ORTIZES                                           13273609SP7225VALINHOS                                                                                                                                                                                                 49000000000000000500000000000000000N                                                                                                                                                                                                                                                                                  F
1F 586040260001291NOVO TEMPO DESENV DE SIST E COM DE SUPRIMENTOS LTDA                                                                                                                                                          081992123101                                                                                                                                2062198802224789007RUA                 ABOLICAO                                                    421                                                                                                                                                               SANTA CRUZ                                        13271090SP7225VALINHOS                                                                                                                                                                                                 49000000000000000500000000000000000N                                                                                                                                                                                                                                                                                  F
1F 586121020001481C S TOZZI ALIMENTOS                                                                                                                                   C S TOZZI ALIMENTOS                                    022003100400                                                                                                                                2135198803021091101AVENIDA             LINO BUZATTO                                                409                                                                                                                                                               JARDIM PINHEIROS                                  13274440SP7225VALINHOS                                          16  37243538                        contabil@contabilcruzeiro.com.br                                                                                   50000000090000000152010010100000000N                                                                                                                                                                                                                                                                                  F
1F 586122190001211MERCEARIA RIBEIRO-NICOLAU LTDA                                                                                                                                                                               081989080401                                                                                                                                2062198803034712100RUA                 ABOLICAO                                                    306                                                                                                                                                               SANTA CRUZ                                        13271090SP7225VALINHOS                                                                                                                                                                                                 49000000000000000500000000000000000N                                                                                                                                                                                                                                                                                  F
1F 586344030001721SOLUSAN COMERCIO E REPRESENTACOES LTDA                                                                                                                                                                       082008123171                                                                                                                                2062198802254781400RUA                 PAULO SETUBAL                                               506                                                                                                                                                               NOVA VALINHOS                                     13271070SP7225VALINHOS                                                                                                                                                                                                 49000000000000000500000000000000000N                                                                                                                                                                                                                                                                                  F
1F 586402770001691MARIA ODETE SILVA GOULART VALINHOS                                                                                                                    BELLA GEMA REFEICOES                                   082008123171                                                                                                                                2135198803075612100RUA                 LUIZ OSTANELLI                                              390                                                                                                                                                               PQ DAS COLINAS                                    13273612SP7225VALINHOS                                                                                                                                                                                                 50000000000000000500000000000000000N                                                                                                                                                                                                                                                                                  F
1F 586434790001641TRANSDEODORO TRANSPORTES LTDA                                                                                                                         TRANSDEODORO                                           082008123171                                                                                                                                2062198803014930201AVENIDA             DOS ESPORTES                                                942                                                                                                                                                               CENTRO                                            13270210SP7225VALINHOS                                                                                                                                                                                                 49000000000000000500000000000000000N                                                                                                                                                                                                                                                                                  F
1F 586439410001231PAULU'S MODA JOVEM LTDA                                                                                                                                                                                      082008123171                                                                                                                                2062198803024781400RUA                 JOSE MILANI                                                 37                                                                                                                                                                CENTRO                                            13270200SP7225VALINHOS                                                                                                                                                                                                 49000000000000000500000000000000000N                                                                                                                                                                                                                                                                                  F
1F 586444360001011UNEFER PRODUTOS SIDERURGICOS LTDA                                                                                                                                                                            081992022401                                                                                                                                2062198803034744001RUA                 B                                                           78                                                                                                                                                                PONTE ALTA                                        13273609SP7225VALINHOS                                                                                                                                                                                                 49000000000000000500000000000000000N                                                                                                                                                                                                                                                                                  F
1F 586463810001601MARCOS DA COSTA VALINHOS                                                                                                                                                                                     082008123171                                                                                                                                2135198803011623400LOTEAMENTO          SITIO RECREIO SILVANIA                                      S/N   LOTE 01 QD A                                                                                                                                                RECREIO SILVANIA                                  13273609SP7225VALINHOS                                                                                                                                                                                                 50000000000000000100000000000000000N                                                                                                                                                                                                                                                                                  F
1F 586574610001111FARMACIA POPULAR DE VALINHOS LTDA                                                                                                                     FARMACIA POPULAR                                       081991010201                                                                                                                                2062198803104771701AVENIDA             DOS ESPORTES                                                931                                                                                                                                                               CENTRO                                            13270210SP7225VALINHOS                                                                                                                                                                                                 49000000000000000500000000000000000N                                                                                                                                                                                                                                                                                  F
1F 586598630001551H B LATHES LTDA                                                                                                                                       H.B.LATHES                                             042018121863                                                                                                                                2062198803082829199RUA                 LUIZ CARLOS BRUNELLO                                        376                                                                                                                                                               DISTR INDUSTRIAL                                  13278074SP7225VALINHOS                                                                                                                                                                                                 49000000000000000100000000000000000N                                                                                                                                                                                                                                                                                  F
1F 586611170001041INDUSTRIA E COMERCIO DE CARVAO LIMPINHO LTDA                                                                                                                                                                 081992121501                                                                                                                                2062198803082399101RUA                 GENESIA GIMENES ARICO                                       126                                                                                                                                                               PONTE ALTA                                        13277643SP7225VALINHOS                                                                                                                                                                                                 49000000000000000500000000000000000N                                                                                                                                                                                                                                                                                  F
1F 586617030001401SOLANGE DA SILVA EVANGELISTA                                                                                                                          BLOCOS EVANGELISTA                                     042018121863                                                                                                                                2135198803082330302ESTRADA             TRINTA E TRES                                               530   CH SAO BENTO                                                                                                                                                CHACARA SAO BENTO                                 13273609SP7225VALINHOS                                                                                                                                                                                                 50000000000000000100000000000000000N                                                                                                                                                                                                                                                                                  F
1F 586637660001361CELSO ANTONIO PAFARO                                                                                                                                  ODONTEC-SERVICOS TECNICOS                              042018102463                                                                                                                                2135198803084773300RUA                 JOAO PREVITALLE                                             75                                                                                                                                                                VERA CRUZ                                         13272400SP7225VALINHOS                                                                                                                                                                                                 50000000000000000100000000000000000N                                                                                                                                                                                                                                                                                  F
1F 586697300001601SILVESTRE FERREIRA DE ALMEIDA VALINHOS                                                                                                                BAR DO DESMNTELO                                       081989052202                                                                                                                                2135198803085611203RUA                 CAMPOS SALLES                                               1306                                                                                                                                                              VILA COLEGA                                       13272350SP7225VALINHOS                                                                                                                                                                                                 50000000000000000500000000000000000N                                                                                                                                                                                                                                                                                  F
1F 586755470001771SEBASTIAO GASPARINO SOBRINHO                                                                                                                          FASELE COMERCIO E REPRESENTACOES                       082008123171                                                                                                                                2135198803174781400RUA                 LUIZ BISSOTO                                                389                                                                                                                                                               VILA SAO JOAQUIM                                  13275110SP7225VALINHOS                                                                                                                                                                                                 50000000000000000500000000000000000N                                                                                                                                                                                                                                                                                  F
1F 586779310001091YOU ENGENHARIA LTDA                                                                                                                                                                                          082011083101                                                                                                                                2062198803167112000ALAMEDA             ITAHIM                                                      S/N   QUADRAE                   LOTE  7                                                                                                                           JOAPIRANGA                                        13278510SP7225VALINHOS                                          19  32433566                        ricardo.franco@hotmail.com                                                                                         49000000020000000500000000000000000N                                                                                                                                                                                                                                                                                  F
1F 586821130001021RODO FORT SISTEMA INTEGRADO DE TRANSPORTES LTDA                                                                                                       RODO FORT                                              022005110300                                                                                                                                2062198803154930202RUA                 R 2                                                         186                                                                                                                                                               VALE VERDE                                        13273609SP7225VALINHOS                                                                                                                                                                                                 49000000285000000500000000000000000N                                                                                                                                                                                                                                                                                  F
1F 586863790001151CAIO PERRI PARTICIPACAO E ADMINISTRACAO LTDA                                                                                                                                                                 042018102463                                                                                                                                2062198803146462000                    LOC  CHACARA                                                111   COND V SANS SOUCI                                                                                                                                           SEDE                                              13273609SP7225VALINHOS                                                                                                                                                                                                 49000000000000000500000000000000000N                                                                                                                                                                                                                                                                                  F
1F 586928640001001SERRALHERIA IRMAOS FERREIRA LTDA                                                                                                                                                                             042018102463                                                                                                                                2062198803102542000RUA                 VICENTE ANGELO BISSOTO                                      677                                                                                                                                                               JD JUREMA                                         13272453SP7225VALINHOS                                                                                                                                                                                                 49000000000000000562007070120081231N                                                                                                                                                                                                                                                                                  F
1F 586934170001671CASCO ARTEFATOS DE MADEIRA LTDA                                                                                                                       CASCO                                                  082008123171                                                                                                                                2062198803114744001RUA                 DUQUE DE CAXIAS                                             32                                                                                                                                                                SANTA CRUZ                                        13271140SP7225VALINHOS                                                                                                                                                                                                 49000000000000000500000000000000000N                                                                                                                                                                                                                                                                                  F
1F 586956930001641PAULO RICARDO VENTURINI                                                                                                                               MECANICA IMPERIAL                                      082008123171                                                                                                                                2135198803104530701RUA                 CAMPINAS                                                    S/N   CRUZ.COM R.ITATIBA                                                                                                                                          JARDIM IMPERIAL                                   13276065SP7225VALINHOS                                                                                                                                                                                                 50000000000000000500000000000000000N                                                                                                                                                                                                                                                                                  F
1F 586960220001181LAERCIO MITICA                                                                                                                                        BAR CONCORDIA                                          042018102463                                                                                                                                2135198803105611203RUA                 MARINO COSTA TERRA                                          2321                                                                                                                                                              STA ESCOLASTICA                                   13273609SP7225VALINHOS                                                                                                                                                                                                 50000000000000000100000000000000000N                                                                                                                                                                                                                                                                                  F
1F 586989860001031JOSE LUIZ SANTOS DE MELLO                                                                                                                                                                                    022005110300                                                                                                                                2135198803188299799RUA                 SETE DE SETEMBRO                                            164   SALA 2                                                                                                                                                      CENTRO                                            13270100SP7225VALINHOS                                                                                                                                                                                                 50000000000000000100000000000000000N                                                                                                                                                                                                                                                                                  F
1F 587085460001811DARCI V. CAZELLA                                                                                                                                      ART BLOCOS                                             022005110300                                                                                                                                2135198803242330302AVENIDA             BENJAMIN DE PAULA FRANCA                                    0           ESQUINA C/ RUA JULIO      BARCHESI N 191                                                                                                              VALE VERDE                                        13279173SP7225VALINHOS                                          19  3881148919  3881276719  2300926 artblocos@artblocos.com.br                                                                                         50000000000000000352007070100000000N                                                                                                                                                                                                                                                                                  F
1F 587469670001051CVC CONSTRUTORA LTDA                                                                                                                                                                                         081991090501                                                                                                                                2062198804054120400RUA                 ULISSES P OLIVEIRA FLHO                                     90    A                                                                                                                                                           SAO LUIZ                                          13273609SP7225VALINHOS                                                                                                                                                                                                 49000000000000000500000000000000000N                                                                                                                                                                                                                                                                                  F
1F 587572200001441HAMILTON BRUNO                                                                                                                                                                                               082008123171                                                                                                                                2135198803308888888RUA                 TRES                                                        S/N   BL.A17 AP.24 M.PINH                                                                                                                                         BOM RETIRO                                        13273609SP7225VALINHOS                                                                                                                                                                                                 50000000000000000500000000000000000N                                                                                                                                                                                                                                                                                  F
1F 587599600001101LUIZ EDUARDO MONTEIRO                                                                                                                                                                                        082008123171                                                                                                                                2135198803308888888                    LOC  AUTO ESTRADA ANHANGUERA                                5355                                                                                                                                                              DOIS CORREGOS                                     13273609SP7225VALINHOS                                                                                                                                                                                                 50000000000000000500000000000000000N                                                                                                                                                                                                                                                                                  F
1F 587599940001041FLORENCE AUTO POSTO LTDA                                                                                                                                                                                     022003103100                                                                                                                                2062198803304731800RUA                 CAMPOS SALES                                                853                                                                                                                                                               JDM FAUSTINA II                                   13270005SP7225VALINHOS                                          19  3242925719  3241871119  32421836estecondeus@terra.com.br                                                                                           49000000190000000500000000000000000N                                                                                                                                                                                                                                                                                  F
1F 587693730001011GALLI GESSO COMERCIO DE GESSO LTDA                                                                                                                    GALLI GESSO                                            022004082800                                                                                                                                2062198804214744005AVENIDA             DOUTOR JOSE PAGANO BRUNDO                                   60                                                                                                                                                                VILA PAGANO                                       13277210SP7225VALINHOS                                          19  38710205                        esc@stoantonio.com                                                                                                 49000000010000000152007070100000000N                                                                                                                                                                                                                                                                                  F
1F 587758180001661NOLYNTEX DO BRASIL COMERCIAL QUIMICA E TEXTIL LTDA                                                                                                                                                           082008123171                                                                                                                                2062198804284689302RUA                 CASEMIRO DE ABREU                                           269                                                                                                                                                               JARDIM IMPERIAL                                   13273609SP7225VALINHOS                                                                                                                                                                                                 49000000000000000500000000000000000N                                                                                                                                                                                                                                                                                  F
1F 587758420001031DUILIO BELTRAMINI                                                                                                                                     LOJA DO PINTOR COMERCIO E SERVICOS                     082008123171                                                                                                                                2135198804124744001AVENIDA             11 DE AGOSTO                                                522                                                                                                                                                               RIGESA                                            13273609SP7225VALINHOS                                                                                                                                                                                                 50000000000000000500000000000000000N                                                                                                                                                                                                                                                                                  F
1F 587759090001001ORLANDO SIGNORETTO                                                                                                                                    AS COM DE EMBALAGENS FRUTAS                            042018121863                                                                                                                                2135198804124729601RUA                 LUIZ ANGELI                                                 102                                                                                                                                                               JD PINHEIROS                                      13274400SP7225VALINHOS                                                                                                                                                                                                 50000000000000000100000000000000000N                                                                                                                                                                                                                                                                                  F
1F 587765350002102INTERCAMBIO VEICULOS LTDA                                                                                                                                                                                    022010122200                                                                                                                                2062201012227711000RUA                 CAMPOS SALLES                                               715                                                                                                                                                               VILA SAO SEBASTIAO                                13271000SP7225VALINHOS                                          19  38063686                        edna@kodyve.com.br                                                                                                 49000000000000000500000000000000000                        00000000                                                                                                                                                                                                                                                   F
1F 587774260001361WILSON JOSE ROSA                                                                                                                                      TAPECARIA ALIANCA                                      082008123171                                                                                                                                2135198804124723700RUA                 CAPIVARI                                                    110                                                                                                                                                               S.CRISTOVAO                                       13276540SP7225VALINHOS                                                                                                                                                                                                 50000000000000000500000000000000000N                                                                                                                                                                                                                                                                                  F
1F 587852050001001MACEDO & ESCOBAR LTDA                                                                                                                                                                                        081991041701                                                                                                                                2062198804194774100RUA                 AGOSTINHO CAPOVILLA                                         609                                                                                                                                                               BOM RETIRO                                        13275200SP7225VALINHOS                                                                                                                                                                                                 49000000000000000500000000000000000N                                                                                                                                                                                                                                                                                  F
1F 587869300001001MARCOS ANTONIO GOMES VALINHOS                                                                                                                         IRASHAI MASSE                                          082008123171                                                                                                                                2135198804209602501AVENIDA             DON NERY                                                    254                                                                                                                                                               CENTRO                                            13273609SP7225VALINHOS                                                                                                                                                                                                 50000000000000000500000000000000000N                                                                                                                                                                                                                                                                                  F
1F 587884490001461KOTON ROUPAS E ACESSORIOS LTDA                                                                                                                                                                               082008123171                                                                                                                                2062198804224781400RUA                 ANTONIO JOSE BUTIGNOL                                       128                                                                                                                                                               CENTRO                                            13270170SP7225VALINHOS                                                                                                                                                                                                 49000000000000000500000000000000000N                                                                                                                                                                                                                                                                                  F
1F 587907830001341JOAO PEDRO JULIATO                                                                                                                                                                                           082008123171                                                                                                                                2135198804144729601RUA                 DAS AVENCAS                                                 344                                                                                                                                                               JARDIM PARAISO                                    13273440SP7225VALINHOS                                                                                                                                                                                                 50000000000000000500000000000000000N                                                                                                                                                                                                                                                                                  F
1F 587939440001431N R TERRAPLANAGEM LTDA                                                                                                                                                                                       082008123171                                                                                                                                2062198804088888888ESTRADA             MUN.A FAZENDA SANTANA                                             SITIO PLANALTO                                                                                                                                              PONTE ALTA                                        13273609SP7225VALINHOS                                                                                                                                                                                                 49000000000000000500000000000000000N                                                                                                                                                                                                                                                                                  F
1F 588115480001001ORLANDO TURINI FIBRAS                                                                                                                                 FIBRATUR INDUSTRIA E COMERCIO                          022019010300                                                                                                                                2135198804154689399RUA                 CAMPOS SALLES                                               2400                                                                                                                                                              JD AMERICA II                                     13272350SP7225VALINHOS                                          19  38497001                        contsenador@hotmail.com                                                                                            50000000010000000100000000000000000N                                                                                                                                                                                                                                                                                  F
1F 588225860001501MUCCI & SANTOS LTDA                                                                                                                                                                                          082008123171                                                                                                                                2062198805095612100AVENIDA             DOS ESPORTES                                                445                                                                                                                                                               CENTRO                                            13270210SP7225VALINHOS                                                                                                                                                                                                 49000000000000000500000000000000000N                                                                                                                                                                                                                                                                                  F
1F 588232870001301DISTRIBUIDORA FABITOS DE PRODUTOS ALIMENTICIOS LTDA                                                                                                                                                          082008123171                                                                                                                                2062198805108888888AVENIDA             DR ALTINO GOUVEIA                                           851                                                                                                                                                               JARDIM PINHEIROS                                  13273609SP7225VALINHOS                                                                                                                                                                                                 49000000000000000500000000000000000N                                                                                                                                                                                                                                                                                  F
1F 588252250001671L F CARVALHO                                                                                                                                                                                                 082008123171                                                                                                                                2135198805065611203AVENIDA             JOAO ANTUNES SANTOS                                         689                                                                                                                                                               JARDIM PINHEIROS                                  13273609SP7225VALINHOS                                                                                                                                                                                                 50000000000000000500000000000000000N                                                                                                                                                                                                                                                                                  F
1F 588280540001201VERA SANDRA PIMENTEL DA COSTA                                                                                                                         CASTOR ENGENHARIA E COMERCIO                           082008123171                                                                                                                                2135198805044744001RUA                 CARMELINA P PERA                                            68                                                                                                                                                                CENTRO                                            13273609SP7225VALINHOS                                                                                                                                                                                                 50000000000000000500000000000000000N                                                                                                                                                                                                                                                                                  F
1F 588306130001361PRO COR INDUSTRIALIZACAO DE PIGMENTOS EIRELI                                                                                                                                                                 022005072200                                                                                                                                2305198805052099199ALAMEDA             ITAJUBA                                                     2626  GALPAO2                                                                                                                                                     JOAPIRANGA                                        13278530SP7225VALINHOS                                          11  40762612            11  40761287LEGALIZACAO@VANCREICONTABIL.COM.BR                                                                                 65000000260000000500000000000000000N                                                                                                                                                                                                                                                                                  F
1F 588322960001971PAES E DOCES NOVA ROMA DE VALINHOS LTDA                                                                                                                                                                      022005110300                                                                                                                                2062198805094721102RUA                 MADALENA LAMARINO                                           215                                                                                                                                                               JD DO LAGO                                        13273609SP7225VALINHOS                                                                                                                                                                                                 49000000020000000152007070100000000N                                                                                                                                                                                                                                                                                  F
1F 588433680001001STRABELLO & RODRIGUES LTDA                                                                                                                            WILCAR PECAS E SERVICOS                                022000122300                                                                                                                                2062198805064520001RUA                 DUQUE DE CAXIAS                                             32                                                                                                                                                                SANTA CRUZ                                        13271140SP7225VALINHOS                                                                                                                                                                                                 49000000000000000152007070100000000N                                                                                                                                                                                                                                                                                  F
1F 588460800001801ANTONIO JOSUE RIBEIRO & CIA LTDA                                                                                                                                                                             082003102901                                                                                                                                2062198804285611203RUA                 DAS GARDENIAS                                               463                                                                                                                                                               JARDIM PARAISO                                    13273350SP7225VALINHOS                                                                                                                                                                                                 49000000000000000500000000000000000N                                                                                                                                                                                                                                                                                  F
1F 588490680001201ROBERTO PINTO DA FONSECA                                                                                                                              AUTO MECANICA PARAISO                                  022005110300                                                                                                                                2135198804274520001RUA                 DAS GARDENIAS                                               95                                                                                                                                                                JD PARAISO                                        13273350SP7225VALINHOS                                                                                                                                                                                                 50000000000000000152007070100000000N                                                                                                                                                                                                                                                                                  F
1F 588537480001171PIOVESANA & PIOVESANA LTDA                                                                                                                            ESTACIONAMENTO PAULISTA                                081990100101                                                                                                                                2062198804224511103RUA                 SAO CARLOS                                                  6                                                                                                                                                                 JARDIM PAULISTA                                   13276134SP7225VALINHOS                                                                                                                                                                                                 49000000000000000500000000000000000N                                                                                                                                                                                                                                                                                  F
1F 588543080001841SEBASTIAO JOAQUIM DA SILVA VALINHOS                                                                                                                   BAR E MERCEARIA DO TIAO                                081992010601                                                                                                                                2135198806025611203RUA                 PEDRO FAVRIN                                                178                                                                                                                                                               JD.JUREMA                                         13272452SP7225VALINHOS                                                                                                                                                                                                 50000000000000000500000000000000000N                                                                                                                                                                                                                                                                                  F
1F 588543240001771JOSE VIEIRA SOUZA VALINHOS                                                                                                                            BAR E MERCEARIA ALVORADA                               082002081601                                                                                                                                2135198806025611203RUA                 HIGYNO G.COSTATO                                            380                                                                                                                                                               JD.PINHEIROS                                      13273609SP7225VALINHOS                                                                                                                                                                                                 50000000000000000500000000000000000N                                                                                                                                                                                                                                                                                  F
1F 588566910001001JOSE ANTONIO STOPIGLIA                                                                                                                                                                                       081993123101                                                                                                                                2135198806014712100RUA                 JOSE GUIRALDELO                                             127                                                                                                                                                               JARDIM PINHEIROS                                  13273609SP7225VALINHOS                                                                                                                                                                                                 50000000000000000500000000000000000N                                                                                                                                                                                                                                                                                  F
1F 588637540001551BBR-LOCACAO DE MAQUINAS OPERATRIZES LTDA                                                                                                                                                                     082015031201                                                                                                                                2062198806027739099RUA                 SETE DE SETEMBRO                                            229   APT   20                                                                                                                                                    CENTRO                                            13270100SP7225VALINHOS                                          19  38695633            19  38712090                                                                                                                   49000000050000000152007070100000000N                                                                                                                                                                                                                                                                                  F
1F 588643310001501MALEX INSTALACOES DE LABORATORIOS LTDA                                                                                                                                                                       081991121901                                                                                                                                2062198806019529102RUA                 GUERINO FIORIN                                              485                                                                                                                                                               TERRA NOVA                                        13270680SP7225VALINHOS                                                                                                                                                                                                 49000000000000000500000000000000000N                                                                                                                                                                                                                                                                                  F
1F 588670110001531CONSTRUTORA BANDINA LTDA                                                                                                                                                                                     022001122200                                                                                                                                2062198805254120400AVENIDA             ONZE DE AGOSTO                                              1.451 SALA  507 A               EDIF  ELLOPAR                                                                                                                     JARDIM RIBEIRO                                    13270190SP7225VALINHOS                                          19  38494655            19  35780800ANAPAULA@BANDINA.COM.BR                                                                                            49000000500000000500000000000000000N                                                                                                                                                                                                                                                                                  F
1F 588689020001241CARLOS EDUARDO NADELMAN                                                                                                                               CLICHERIA CADU                                         022002121400                                                                                                                                2135198805252219600RUA                 MODESTA POLLI MARTINS                                       218                                                                                                                                                               CASTELO                                           13270280SP7225VALINHOS                                                                                                                                                                                                 50000000000000000352007070100000000N                                                                                                                                                                                                                                                                                  F
1F 588812850001051COMERCIAL TORRE LTDA                                                                                                                                                                                         082008123171                                                                                                                                2062198805114729601RUA                 GENERAL OSORIO                                              26                                                                                                                                                                SANTA CRUZ                                        13271130SP7225VALINHOS                                                                                                                                                                                                 49000000000000000500000000000000000N                                                                                                                                                                                                                                                                                  F
1F 588813010001511SILVIA APARECIDA GUIZANI DE SOUZA                                                                                                                     MERCADINHO MANDAKI                                     022005110300                                                                                                                                2135198805114712100RUA                 WALDIR BERNARDINETTI                                        291         A                                                                                                                                                     LOTEAMENTO SHANGRILA                              13272421SP7225VALINHOS                                          19  38495595            19  32374294ERICA_KRIKA@HOTMAIL.COM                                                                                            50000000008000000152007070100000000S                                                                                                                                                                                                                                                                                  F
1F 588838280001151JULIATO & OLIVEIRA VALINHOS LTDA                                                                                                                      AUTO MECANICA E FUNILARIA PLANALTO                     082008123171                                                                                                                                2062198805104530701AVENIDA             JOAQUIM ALVES CORREA                                        136   FUNDOS                                                                                                                                                      JARDIM PLANALTO                                   13273609SP7225VALINHOS                                                                                                                                                                                                 49000000000000000100000000000000000N                                                                                                                                                                                                                                                                                  F
1F 588855910001011JOAQUIM DOS SANTOS VALINHOS                                                                                                                           BAR LANCHONETE E MERCEARIA PARAISO                     082007102201                                                                                                                                2135198805045611203RUA                 DAS GARDENIAS                                               253                                                                                                                                                               JD PARAISO                                        13273350SP7225VALINHOS                                                                                                                                                                                                 50000000000000000162007070120071022N                                                                                                                                                                                                                                                                                  F
1F 588856170001111WILSON MAXIMIANO VALINHOS                                                                                                                                                                                    082010082354                                                                                                                                2135198805048888888RUA                 AGOSTINHO CAPOVILLA                                         15                                                                                                                                                                BOM RETIRO I                                      13275200SP7225VALINHOS                                                                                                                                                                                                 50000000000000000100000000000000000N                                                                                                                                                                                                                                                                                  F
1F 588859480001511TARELHO & FORNER DA SILVA MERCEARIA LTDA                                                                                                              MERCEARIA PQ.DAS FIGUEIRAS                             042018121863                                                                                                                                2062198804294712100RUA                 JOAO BISSOTO FILHO                                          1395/A                                                                                                                                                            ORTIZES                                           13273609SP7225VALINHOS                                          19  38497001                        CONTSENADOR@HOTMAIL.COM                                                                                            49000000002000000162007070120081231N                                                                                                                                                                                                                                                                                  F
1F 588876880001531J.P. FIRMINO FILHO                                                                                                                                    ELETROMOTRIZ ELETROTECNICA                             022004123100                                                                                                                                2135198805103314711AVENIDA             PAULISTA                                                    560   CASA  ESQUI. R. MOGI MIRIM                                                                                                                                  SAO CRISTOVAO                                     13276340SP7225VALINHOS                                          19  3871807919  3871174219  38715062adaopiva@ecicontabil.com.br                                                                                        50000000000000000152019010100000000N                                                                                                                                                                                                                                                                                  F
1F 588878030001901OZELIO BISCARDI NETO-VALINHOS                                                                                                                         FRANGO FRIOS E LATICINIOS BOM APETITE                  081990073001                                                                                                                                2135198805104712100RUA                 ANTONIO CARLOS                                              236                                                                                                                                                               CENTRO                                            13270005SP7225VALINHOS                                                                                                                                                                                                 50000000000000000500000000000000000N                                                                                                                                                                                                                                                                                  F
1F 588915320001461MARIA APARECIDA TAROZO ZANUTIM                                                                                                                        SLIGS CONFECCOES                                       022005110300                                                                                                                                2135198805171412603ALAMEDA             CARLOS DE CARVALHO VIEIRA BRAGA                             3463  LOTE 22;QUADRA B                                                                                                                                            CHACARAS ALPINA                                   13274465SP7225VALINHOS                                          19  32541186            19  32415763ecfreire@terra.com.br                                                                                              50000000004000000152007070100000000S                                                                                                                                                                                                                                                                                  F
1F 588953920001841MANTEIN MANUTENCAO ELETRICA INDUSTRIAL LTDA                                                                                                                                                                  082008123171                                                                                                                                2062198805168888888RUA                 CLAUDINO PEREIRA                                            58                                                                                                                                                                VILA FAUSTINA II                                  13272361SP7225VALINHOS                                                                                                                                                                                                 49000000000000000500000000000000000N                                                                                                                                                                                                                                                                                  F
1F 588997410001361GLAUCO DIAS DE MELO                                                                                                                                                                                          082008123171                                                                                                                                2135198805168888888RUA                 PEDRO ALVARES CABRAL                                        106   APTO 1                                                                                                                                                      JARDIM PLANALTO                                   13277010SP7225VALINHOS                                                                                                                                                                                                 50000000000000000100000000000000000N                                                                                                                                                                                                                                                                                  F
1F 589119910002252COMERCIAL SAVIAN VINHEDO LTDA                                                                                                                                                                                081990013101                                                                                                                                2062198805124784900AVENIDA             DOS ESPORTES                                                850                                                                                                                                                               CENTRO                                            13270210SP7225VALINHOS                                                                                                                                                                                                 49000000000000000500000000000000000                        00000000                                                                                                                                                                                                                                                   F
1F 589377980001821TANIA DE FATIMA TRENTO NUEVO                                                                                                                                                                                 081989022801                                                                                                                                2135198805238888888RUA                 ABOLICAO                                                    48                                                                                                                                                                VERA CRUZ                                         13271090SP7225VALINHOS                                                                                                                                                                                                 50000000000000000500000000000000000N                                                                                                                                                                                                                                                                                  F
