1F 248524410001801FABIANA MITIKO ISHIZAWA 28834111826                                                                                                                   GEL'AMOUR GELATINERIA                                  022016052300                                                                                                                                2135201605235620104RUA                 PARANA                                                      617                                                                                                                                                               VILA D'AGOSTINHO                                  13274190SP7225VALINHOS                                          19  38714129                        fabianaishi@hotmail.com                                                                                            50000000003000000152016052300000000S                                                                                                                                                                                                                                                                                  F
1F 248536220001201SAMUEL IANSEN 25546382848                                                                                                                                                                                    082017092001                                                                                                                                2135201605235612100RUA                 PIRACICABA                                                  348                                                                                                                                                               JARDIM BELA VISTA                                 13276295SP7225VALINHOS                                          19  38692211                        FREITAS.ASSESSORIACONTABIL@GMAIL.COM                                                                               50000000010000000152016052300000000S                                                                                                                                                                                                                                                                                  F
1F 248539280001871THIAGO ALEXANDRE ROVERE 25491523879                                                                                                                   STUDIO RC FOTO E VIDEO VALINHOS                        022016052300                                                                                                                                2135201605237420001RUA                 ROMEU CHIMINASSO                                            730   APT D63                                                                                                                                                     CHACARA DAS NACOES                                13272588SP7225VALINHOS                                          19  33077251                        thiago.rovere@gmail.com                                                                                            50000000001000000152016052300000000S                                                                                                                                                                                                                                                                                  F
1F 248542550001801ROSA MARIA RIBEIRO MOREIRA 02435585896                                                                                                                ROSA MOREIRA SERVICOS                                  022016052300                                                                                                                                2135201605235620102RUA                 JOAQUIM SIMOES SALGUEIRO                                    39                                                                                                                                                                PINHEIRO                                          13274600SP7225VALINHOS                                          19  38718712                        rl-moreira@uol.com.br                                                                                              50000000000100000152016052300000000S                                                                                                                                                                                                                                                                                  F
1F 248547750001921MARTA FERREIRA VIEIRA 31906429820                                                                                                                                                                            022016052300                                                                                                                                2135201605239700500RUA                 AGOSTINHO FERRARI                                           36    CASA                                                                                                                                                        RESIDENCIAL SANTA MARIA                           13272811SP7225VALINHOS                                          19  38497372                        marta.f.calisto@Hotmail.com                                                                                        50000000000050000152016052300000000S                                                                                                                                                                                                                                                                                  F
1F 248549090001751CVO CORRETORA DE SEGUROS LTDA                                                                                                                                                                                022016052300                                                                                                                                2062201605236622300RUA                 COELHO NETO                                                 50    SALA  03                                                                                                                                                    BELA VISTA                                        13276075SP7225VALINHOS                                          19  96547169                        CESARVALDO1@GMAIL.COM                                                                                              49000000020000000152016052300000000N                                                                                                                                                                                                                                                                                  F
1F 248569030001371ROBERTO LOURENCO DE JESUS 33269231806                                                                                                                                                                        022016052300                                                                                                                                2135201605234330404RUA                 CAMPOS SALLES                                               1182                                                                                                                                                              VILA FAUSTINA II                                  13272350SP7225VALINHOS                                          19  38495886                                                                                                                                           50000000002000000152016052300000000S                                                                                                                                                                                                                                                                                  F
1F 248574780001091DANIELA REGA SENATORE 13802158890                                                                                                                     PRESERVAVERDE LAVAGENS AUTOMOTIVAS A SECO E SERVICOS   022016052300                                                                                                                                2135201605234520005ESTRADA MUNICIPAL   DO RONCAGLIA                                                450   CASA 147                                                                                                                                                    RONCAGLIA                                         13272721SP7225VALINHOS                                          19  38493404                        daniregasentore@gmail.com                                                                                          50000000001000000152016052300000000S                                                                                                                                                                                                                                                                                  F
1F 248581590001001KATHERINE PEREZ SANCHES BARBA 34613886880                                                                                                                                                                    082016060901                                                                                                                                2135201605233212400RUA                 JOAO BISSOTTO FILHO                                         99    BLOCO 3;APT 24                                                                                                                                              ORTIZES                                           13275410SP7225VALINHOS                                          19  32992515                        katherinepsbarba@gmail.com                                                                                         50000000000100000152016052300000000S                                                                                                                                                                                                                                                                                  F
1F 248593850001051SORAIA ALVES BARCELOS 29036517877                                                                                                                     CONFIANCE ASSESSORIA                                   022016052300                                                                                                                                2135201605238219999RUA                 ARNALDO LUIZ CAMARGO                                        56                                                                                                                                                                JARDIM MARIA ROSA                                 13273553SP7225VALINHOS                                          19  38492595                        soraia.barcelos@contabilconfiance.com.br                                                                           50000000010000000152016052300000000S                                                                                                                                                                                                                                                                                  F
1F 248620170001161WESLEY NEVES ALVES 38349633808                                                                                                                        W.F VAREJAO E MERCEARIA                                082017041301                                                                                                                                2135201605234712100RUA                 ANDRE RUBENS FERRARI                                        13                                                                                                                                                                JARDIM PACAEMBU                                   13277730SP7225VALINHOS                                          19  92278407                        alves.wesley@hotmail.com                                                                                           50000000001500000152016052300000000S                                                                                                                                                                                                                                                                                  F
1F 248637330002072NPV COMERCIO ELETRONICO EIRELI                                                                                                                        INOVE ACESSORIOS                                       022017022400                                                                                                                                2305201702244752100RUA                 LUIZ SPIANDORELLI NETO (LULA)                               161   QUIOSQQ-201                                                                                                                                                 LOTEAMENTO PAIQUERE                               13271570SP7225VALINHOS                                          11  84768010                        FABIO.ARAUJO.SILVA76@GMAIL.COM                                                                                     65000000000000000152016052000000000                        00000000                                                                                                                                                                                                                                                   F
1F 248701140001501MARIA DO CARMO ROMERA                                                                                                                                                                                        022016052400                                                                                                                                2135201605248219999RUA                 GIUSEPE GARIBALDI BUTIGNOL                                  242                                                                                                                                                               VILA MOLETTA                                      13272046SP7225VALINHOS                                          19  3829116319  33278413            maria.romer04@gmail.com                                                                                            50000000005000000152016052400000000S                                                                                                                                                                                                                                                                                  F
1F 248722220001621ADRIANO FRANCO DE PONTES 25557032843                                                                                                                  FRANCO INFORMATICA                                     022016052500                                                                                                                                2135201605256190699RUA                 SEBASTIAO BARBARINI                                         38                                                                                                                                                                JARDIM SAO PEDRO                                  13275430SP7225VALINHOS                                          19  33275865                        afcpontes@ig.com.br                                                                                                50000000002000000152016052500000000S                                                                                                                                                                                                                                                                                  F
1F 248765570001591BENEDITO GOMES FERREIRA 05367001840                                                                                                                   FUNILARIA FERREIRA                                     022016052500                                                                                                                                2135201605254520002RUA                 JOAO BISSOTTO FILHO                                         641   FUNDOS                                                                                                                                                      ORTIZES                                           13275410SP7225VALINHOS                                          19  38291599                        edina.assessoriacontabil@gmail.com                                                                                 50000000015000000152016052500000000S                                                                                                                                                                                                                                                                                  F
1F 248784880001121KATIA ROGERIA MARTINS PEREIRA 14438000823                                                                                                             KS CERIMONIAL E EVENTOS                                022016052500                                                                                                                                2135201605258230001ESTRADA MUNICIPAL   DO RONCAGLIA                                                450   CASA 219                                                                                                                                                    RONCAGLIA                                         13272721SP7225VALINHOS                                          19  38292501                        katia@ksceventos.com.br                                                                                            50000000002000000152016052500000000S                                                                                                                                                                                                                                                                                  F
1F 248785090001081ARTISTIK COMERCIO E REPRESENTACAO LTDA                                                                                                                                                                       022016052500                                                                                                                                2062201605254761003RUA                 SAO CARLOS                                                  19                                                                                                                                                                VILA RAMACIOTTI                                   13276134SP7225VALINHOS                                          19  8187089019  30375728            SUPORTE@CONTA3.COM.BR                                                                                              49000000100000000352016052500000000N                                                                                                                                                                                                                                                                                  F
1F 248799190001651JOSE FELIPE BORCY BARRANCOS INFORMATICA                                                                                                               POLLUX TECHONOLGY                                      022016052500                                                                                                                                2135201605256209100ALAMEDA             ITATINGA                                                    2479                                                                                                                                                              JOAPIRANGA                                        13278480SP7225VALINHOS                                          19  38695406                        GUILHERME@ESCRITORIOJAIR.COM.BR                                                                                    50000000010000000162016052520181231N                                                                                                                                                                                                                                                                                  F
1F 248839050001151ENRICO BERTINI SALDIVA 34003089863                                                                                                                    TELEFONIA INTELIGENTE                                  082018062801                                                                                                                                2135201605274752100RUA                 JULIA LOVISARO VICENTINI (NONA)                             100                                                                                                                                                               SITIOS FRUTAL                                     13273220SP7225VALINHOS                                          19  38495098                        enrico@telefoniainteligente.com.br                                                                                 50000000001000000162016052720180628S                                                                                                                                                                                                                                                                                  F
1F 248865630001971LUCIMARA APARECIDA DE ANDRADE 33754540823                                                                                                             ANDRADE E BORGES SERVICOS ME                           082016052801                                                                                                                                2135201605274782202RUA                 MILITAO MATIAZZO                                            14                                                                                                                                                                JARDIM BOM RETIRO                                 13275211SP7225VALINHOS                                          19  89580201                        maapan27@hotmail.com                                                                                               50000000020000000152016052700000000S                                                                                                                                                                                                                                                                                  F
1F 248868380001921JESSICA BATISTA DA SILVA 39926062873                                                                                                                  BRANDKIT PUBLICIDADE E PROPAGANDA                      022016052800                                                                                                                                2135201605287319003RUA                 IRIO GIARDELLI                                              47    APT 201;ANDAR terre                                                                                                                                         LOTEAMENTO PAIQUERE                               13271565SP7225VALINHOS                                          19  98210163                        jessicabatsilva@gamil.com                                                                                          50000000005000000152016052800000000S                                                                                                                                                                                                                                                                                  F
1F 248871330001901CRISTIANE HARUMI NAKAMURA 24618883880                                                                                                                 CRIS NAKAMURA                                          022016052800                                                                                                                                2135201605281412602RUA                 PAIQUERE                                                    430                                                                                                                                                               JARDIM PAIQUERE                                   13271600SP7225VALINHOS                                          19  97391560                        cristianeharumi@yahoo.com.br                                                                                       50000000001000000152016052800000000S                                                                                                                                                                                                                                                                                  F
1F 248872870001811LUCIMARA APARECIDA DE ANDRADE 33754540823                                                                                                             ANDRADE E BORGES PRESTACOES DE SERVICOS ME             082016060501                                                                                                                                2135201605287911200RUA                 MILITAO MATIAZZO                                            14                                                                                                                                                                JARDIM BOM RETIRO                                 13275211SP7225VALINHOS                                          19  89580201                        maapan27@hotmail.com                                                                                               50000000002000000152016052800000000S                                                                                                                                                                                                                                                                                  F
1F 248881490001171LEANDRO SILVA DOS ANJOS 22055160869                                                                                                                   LD CENTRO AUTOMOTIVO                                   022016052900                                                                                                                                2135201605294520001RUA                 ESPIRITO SANTO                                              25    BRCAO                                                                                                                                                       VILA D'AGOSTINHO                                  13274180SP7225VALINHOS                                          19  38716211                        veigaepostal@veigaepostal.com.br                                                                                   50000000005000000152016052900000000S                                                                                                                                                                                                                                                                                  F
1F 248910030001201NOE SILVA NETO 08283941640                                                                                                                            NOE SILVA NETO                                         022016053000                                                                                                                                2135201605303313999RUA                 JOAO BISSOTTO FILHO                                         980   BLOCO 6;APT 22                                                                                                                                              ORTIZES                                           13275410SP7225VALINHOS                                          35  99511785                        noesilvaneto@yahoo.com.br                                                                                          50000000001000000152016053000000000S                                                                                                                                                                                                                                                                                  F
1F 248924470001801JOSE ORLANDO JESUS PARNAYBA 72026030804                                                                                                               PETECA PENA DE PATO                                    082018012901                                                                                                                                2135201605304763601RUA                 DAS AVENCAS                                                 174                                                                                                                                                               PARQUE CECAP                                      13273440SP7225VALINHOS                                          19  96741408                        jose.parnayba@icloud.com                                                                                           50000000000030000152016053000000000S                                                                                                                                                                                                                                                                                  F
1F 248929650001021MGR GESTAO DE IMOVEIS E PARTICIPACOES EIRELI                                                                                                                                                                 022016053000                                                                                                                                2305201605306810201RUA                 MANOEL DOS SANTOS MARTA                                     323   CASA  24                                                                                                                                                    CHACARA DAS NACOES                                13272580SP7225VALINHOS                                          19  33972659                        RUI@RUIGERALDES.ADV.BR                                                                                             65000000100000000500000000000000000N                                                                                                                                                                                                                                                                                  F
1F 248932380001511S&R DREAMS EMPREENDIMENTOS LTDA                                                                                                                       S&R DREAMS                                             022016052800                                                                                                                                2062201605286810201ALAMEDA             BASILEIA (LOT. RESID. Z. DORF)                              36    QUADRAB                   LOTE  13                                                                                                                          NACOES                                            13271793SP7225VALINHOS                                          62  98071522            62  30991455RAFAELBRANDINO@GMAIL.COM                                                                                           49000003000000000500000000000000000N                                                                                                                                                                                                                                                                                  F
1F 248934770001011JOSE AILTON DOS SANTOS 26965220813                                                                                                                    JOSE                                                   022016053000                                                                                                                                2135201605304399103AVENIDA             MARIO FRANCO DE CAMARGO                                     12                                                                                                                                                                JARDIM SAO LUIZ                                   13272712SP7225VALINHOS                                          11  25678765                                                                                                                                           50000000010000000152016053000000000S                                                                                                                                                                                                                                                                                  F
1F 248939980001691ASSOCIACAO DOS PROPRIETARIOS DO RESIDENCIAL VIVENDA DAS PITANGUEIRAS                                                                                  RESIDENCIAL VIVENDA DAS PITANGUEIRAS                   022016050500                                                                                                                                3999201605059499500RUA                 TRES                                                        S/N         GLEBA 8                                                                                                                                               BOSQUE DOS EUCALIPTOS                             13272593SP7225VALINHOS                                          19  38496941                                                                                                                                           16000000000000000500000000000000000N                                                                                                                                                                                                                                                                                  F
1F 248946140001221FRANZ B&B 2 EMPREENDIMENTOS IMOBILIARIOS SPE LTDA                                                                                                                                                            022016053000                                                                                                                                2062201605304110700RUA                 IRIO GIARDELLI                                              47    SALA  701                                                                                                                                                   LOTEAMENTO PAIQUERE                               13271565SP7225VALINHOS                                          19  91570100                        NCAE40@HOTMAIL.COM                                                                                                 05000000003000000500000000000000000N                                                                                                                                                                                                                                                                                  F
1F 248950010001001ALESSANDRO OLIVEIRA SOUZA 25663944826                                                                                                                                                                        082017063001                                                                                                                                2135201605304330404RUA                 JULIA LOVISARO VICENTINI (NONA)                             100   BLOCO 16;APT 51                                                                                                                                             SITIOS FRUTAL                                     13273220SP7225VALINHOS                                          19  93807779                                                                                                                                           50000000001000000152016053000000000S                                                                                                                                                                                                                                                                                  F
1F 248964350001241MARIO SERGIO FURLAN 06861473839                                                                                                                       ROSE FOODS                                             082019052701                                                                                                                                2135201605305620104RUA                 ARMANDO FURLAN                                              132                                                                                                                                                               JARDIM CENTENARIO                                 13273581SP7225VALINHOS                                          19  38716211                        veigaepostal@veigaepostal.com.br                                                                                   50000000005000000162016053020190527S                                                                                                                                                                                                                                                                                  F
1F 248970100001301AUREO LAVINAS                                                                                                                                                                                                022016053000                                                                                                                                2135201605304617600ESTRADA MUNICIPAL   DO RONCAGLIA                                                450   CASA  514                                                                                                                                                   RONCAGLIA                                         13272721SP7225VALINHOS                                          24  92966343                        AUREOLAVINAS@YAHOO.COM.BR                                                                                          50000000005000000162016053020181231N                                                                                                                                                                                                                                                                                  F
1F 248970170001511MACHE ADMINISTRACAO DE BENS LTDA                                                                                                                                                                             022016053000                                                                                                                                2062201605306810202RUA                 ISABEL DE ABREU PINHEIRO                                    117                                                                                                                                                               SITIO RECREIO DOS CAFEZAIS                        13278324SP7225VALINHOS                                          19  38715523                        WTMACARI@UOL.COM.BR                                                                                                49000002323935000500000000000000000N                                                                                                                                                                                                                                                                                  F
1F 248977090001081EDENILSON CESAR YANSEN 27298148842                                                                                                                    DE PERFOMANCE PARTS                                    022016053000                                                                                                                                2135201605304530703RUA                 CARLOS GABETTA                                              65                                                                                                                                                                JARDIM JUREMA                                     13272476SP7225VALINHOS                                          19  38492131                        edenilsonyansen@gmail.com                                                                                          50000000000500000152016053000000000S                                                                                                                                                                                                                                                                                  F
1F 249044700001481FABIO DE CARVALHO 31538179873                                                                                                                                                                                022016053100                                                                                                                                2135201605319511800RUA                 EDER AGUINALDO BUCATI                                       155                                                                                                                                                               LOTEAMENTO NOVA ESPIRITO SANTO                    13273207SP7225VALINHOS                                          19  82137473                        fbc_fabio@yahoo.com.br                                                                                             50000000000500000152016053100000000S                                                                                                                                                                                                                                                                                  F
1F 249060030001571SAMANTA VICENTIN 32429205890                                                                                                                                                                                 082017120601                                                                                                                                2135201605319313100ALAMEDA             AMABILE ANDREOLI PONTES                                     190                                                                                                                                                               VALE DO ITAMARACA                                 13278402SP7225VALINHOS                                          19  97916077                        sa_v8@outlook.com                                                                                                  50000000001000000152016053100000000S                                                                                                                                                                                                                                                                                  F
1F 249063820001851SQUARE APOIO ADMINISTRATIVO EIRELI                                                                                                                    SQUARE APOIO ADMINISTRATIVO EIRELI                     022016053100                                                                                                                                2305201605318211300ESTRADA             MUNICIPAL DO CLUBE DE CAMPO VALINHOS                        S/N   KM    14                  QUADRA14                  LOTE  78                                                                                                JARDIM SAO BENTO DO RECREIO                       13274776SP7225VALINHOS                                          19  3871621119  3871895919  38716211VEIGAEPOSTAL@VEIGAEPOSTAL.COM.BR                                                                                   65000000090000000152016053100000000N                                                                                                                                                                                                                                                                                  F
1F 249064090001301ELLOPAR AMBIENTAL E PARTICIPACOES LTDA                                                                                                                ELLOPAR AMBIENTAL                                      022016053100                                                                                                                                2062201605317490199AVENIDA             ONZE DE AGOSTO                                              1451  SALA  410                                                                                                                                                   JARDIM RIBEIRO                                    13270190SP7225VALINHOS                                          19  37513030                                                                                                                                           49000002500000000500000000000000000N                                                                                                                                                                                                                                                                                  F
1F 249064670001631LUCIANE ANDREA ROSSI                                                                                                                                                                                         022016053100                                                                                                                                2135201605318211300RUA                 JOAO PREVITALLE                                             2760  LOTE  126                                                                                                                                                   SANTA CRUZ                                        13272400SP7225VALINHOS                                          15  32192323                        LEGALIZACAO@DGA.COM.BR                                                                                             50000000005000000152016053100000000N                                                                                                                                                                                                                                                                                  F
1F 249066660001711MCT 100 EMPREENDIMENTOS IMOBILIARIOS LTDA                                                                                                                                                                    022016053100                                                                                                                                2062201605316810203AVENIDA             JOAQUIM ALVES CORREA                                        3668                                                                                                                                                              JARDIM SANTO ANTONIO                              13277055SP7225VALINHOS                                          19  3327500219  3327500419  33275004FINANCEIRO@CP4ENGENHARIA.COM.BR                                                                                    05000000015000000500000000000000000N                                                                                                                                                                                                                                                                                  F
1F 249067320001031WANDER FABIO CONDOTTA                                                                                                                                 MONKEY BARBER SHOP                                     022016053100                                                                                                                                2135201605319602501AVENIDA             ONZE DE AGOSTO                                              544                                                                                                                                                               VILA CLAYTON                                      13276130SP7225VALINHOS                                          19  33273777            19  33273777MONKEYBARBERSHOPBRAZIL@GMAIL.COM                                                                                   50000000010000000152016053100000000N                                                                                                                                                                                                                                                                                  F
1F 249117920001141PRISCILA SANTOS DA SILVA 33437057804                                                                                                                                                                         022016060100                                                                                                                                2135201606019602501RUA                 HORACIO AMARAL                                              975                                                                                                                                                               JARDIM PINHEIROS                                  13274360SP7225VALINHOS                                          19  88938867                        pgdcsantos@gmail.com                                                                                               50000000001000000152016060100000000S                                                                                                                                                                                                                                                                                  F
1F 249119750001301TANIA MARA EVARISTO MOUMESO 06854927889                                                                                                               MOUMESO TREINAMENTO E COACHING                         022016060100                                                                                                                                2135201606018599604ESTRADA             DO JEQUITIBA KM 14                                          SN    COND                                                                                                                                                        JARDIM SAO BENTO DO RECREIO                       13274900SP7225VALINHOS                                          19  81342244                        tmemoumeso@uol.com.br                                                                                              50000000000100000152016060100000000S                                                                                                                                                                                                                                                                                  F
1F 249121740001991SANDRA MARA MARQUES 13805706898                                                                                                                       VICTORIA FASHION                                       082016082901                                                                                                                                2135201606014781400RUA                 ANTONIO FIORAVANTI                                          45    LOTE 45;QUADRA 2                                                                                                                                            LOTEAMENTO RESIDENCIAL SANTA GERTRUDES            13272791SP7225VALINHOS                                          19  41171001                        marquessandramara@gmail.com                                                                                        50000000001000000152016060100000000S                                                                                                                                                                                                                                                                                  F
1F 249131750001581ALINE SOUSA DOS SANTOS 02662281359                                                                                                                                                                           022016060100                                                                                                                                2135201606014399103RUA                 DYONIZIO CAPOVILLA - BIJU                                   125                                                                                                                                                               COLINA DOS PINHEIROS                              13274560SP7225VALINHOS                                          19  97974470                                                                                                                                           50000000001000000152016060100000000S                                                                                                                                                                                                                                                                                  F
1F 249140320001601GABRIEL GALVAO MONTEIRO 23610941855                                                                                                                   BOLETIM OSOTOGARI PRODUCOES                            022016060100                                                                                                                                2135201606017420004RUA                 FERNANDO CAPELATO                                           114                                                                                                                                                               PARQUE FLORENCE                                   13277614SP7225VALINHOS                                          19  38692074                        ga_monteiro01@hotmail.com                                                                                          50000000001000000152016060100000000N                                                                                                                                                                                                                                                                                  F
1F 249141140001051FABIANA DE LIMA 28062506843                                                                                                                           STUDIO FACINI                                          022016060100                                                                                                                                2135201606019602501RUA                 FRANCISCO GLICERIO                                          1177  SALA 3                                                                                                                                                      VILA EMBARE                                       13271200SP7225VALINHOS                                          19  83640464                        studiofacini@gmail.com                                                                                             50000000004000000152016060100000000S                                                                                                                                                                                                                                                                                  F
1F 249146830001501SPARTA VINHEDO COMERCIO DE PRODUTOS ALIMENTICIOS LTDA                                                                                                                                                        082019041001                                                                                                                                2062201606014637199ESTRADA             DUILIO BELTRAMINI                                           6935  SALA  01                                                                                                                                                    CHACARAS SAO BENTO                                13278078SP7225VALINHOS                                          11  39646000                        SEGATO@SEGATOCONSULTORIA.COM.BR                                                                                    49000000010000000562017010120190410N                                                                                                                                                                                                                                                                                  F
1F 249168150001831JOSE FERREIRA DOS SANTOS COMERCIO DE VEICULOS                                                                                                                                                                022016060100                                                                                                                                2135201606014511102RUA                 HIGYNO GUILHERME COSTATO                                    354                                                                                                                                                               JARDIM PINHEIROS                                  13274410SP7225VALINHOS                                          19  38591312                        ADM@UNIFIELASSESSORIA.COM.BR                                                                                       50000000010000000152016060100000000N                                                                                                                                                                                                                                                                                  F
1F 249168940001221M.L. BARCELOS CONSULTORIA DE NEGOCIOS EMPRESARIAIS                                                                                                    YIELD CONSULTORIA DE NEGOCIOS EMPRESARIAIS             022016060100                                                                                                                                2135201606018291100RUA                 ALEXANDRE HUMBERTO MOLETTA                                  205   SALA  01                                                                                                                                                    JARDIM PINHEIROS                                  13274340SP7225VALINHOS                                          19  32074020                        MAGNO_BARCELLOS@UOL.COM.BR                                                                                         50000000005000000152016060100000000N                                                                                                                                                                                                                                                                                  F
1F 249169470001051L&S COMERCIO DE PRODUTOS PARA PISCINAS E JARDINS LTDA                                                                                                 HIDRO VALE PISCINAS                                    022016060100                                                                                                                                2062201606014744005RUA                 PAIQUERE                                                    1570                                                                                                                                                              JARDIM PAIQUERE                                   13271600SP7225VALINHOS                                          19  38290769                        SILVONEYMP@BOL.COM.BR                                                                                              49000000040000000152016060100000000N                                                                                                                                                                                                                                                                                  F
1F 249169850001681FITOVALE EXPURGOS LTDA                                                                                                                                                                                       082016090101                                                                                                                                2062201606018122200AVENIDA             VICE-PREFEITO ANESIO CAPOVILLA SITIOS FRUTAL                1000  BLOCO 4                   APT   52                  COND  BOSQUE DO FRUTAL                                                                                  CAPUAVA                                           13272181SP7225VALINHOS                                          19  38696200            19  38696200JUNIOR@HLPCONTABILIDADE.COM.BR                                                                                     49000000002000000352016060100000000N                                                                                                                                                                                                                                                                                  F
1F 249171070001671MOVEIS FONTE MARCENARIA LTDA                                                                                                                                                                                 022016060100                                                                                                                                2062201606013101200RUA                 HERMINIA OLIVIO PAVAN                                       1060                                                                                                                                                              VILA SAO CRISTOVAO                                13276600SP7225VALINHOS                                          19  38599321                        MARCENARIAFONTE@HOTMAIL.COM                                                                                        49000000010000000152016060100000000N                                                                                                                                                                                                                                                                                  F
1F 249227060001791MARCOS JOSE DA SILVA 04050556847                                                                                                                      MJS & FILHOS TRANSPORTE EXECUTIVO                      022016060200                                                                                                                                2135201606024929902RUA                 VEREADOR FERNANDO SPADACCIA                                 214   CASA A                                                                                                                                                      JARDIM DAS PALMEIRAS                              13273062SP7225VALINHOS                                          19  38490763                        marcosjose_conf@yahoo.com.br                                                                                       50000000001000000152016060200000000S                                                                                                                                                                                                                                                                                  F
1F 249232760001001ERIKA DE LIMA CUSTODIO 33959020805                                                                                                                    RED ROOM                                               022016060200                                                                                                                                2135201606024789099RUA                 HIGYNO GUILHERME COSTATO                                    596                                                                                                                                                               JARDIM PINHEIROS                                  13274410SP7225VALINHOS                                          19  89713535                        erika.custodio13@gmail.com                                                                                         50000000001000000152016060200000000S                                                                                                                                                                                                                                                                                  F
1F 249251610001541JUSSARA LEITE ROCHA DA COSTA 78267129715                                                                                                              JLRC                                                   022016060200                                                                                                                                2135201606028599699RUA                 MARCELO TURINI                                              81                                                                                                                                                                PARQUE TERRANOVA                                  13270650SP7225VALINHOS                                          19  38714462                        jussaralrc@yahoo.com.br                                                                                            50000000001000000152016060200000000S                                                                                                                                                                                                                                                                                  F
1F 249252250001171FABIO HENRIQUE DE MORAES 38304666847                                                                                                                  BINHO MORAES                                           022016060200                                                                                                                                2135201606024330404RUA                 DEZ                                                         622                                                                                                                                                               SAMAMBAIA                                         13272758SP7225VALINHOS                                          19  95221215                        binhogospel13@gmail.com                                                                                            50000000004000000152016060200000000S                                                                                                                                                                                                                                                                                  F
1F 249255890001051ALEXANDRO VIEIRA REIS 25206538841                                                                                                                     S&D TRANSPORTES                                        082017050301                                                                                                                                2135201606024929901RUA                 DO FADO                                                     500   LOTE 30 - A-  QUADRA K                                                                                                                                      JARDIM PORTUGAL                                   13273269SP7225VALINHOS                                          19  32444586                        ALEXANDRO.VIEIRAREIS@HOTMAIL.COM                                                                                   50000000005000000162016060220170503S                                                                                                                                                                                                                                                                                  F
1F 249269400001741CLUB BAR E BURGUER LIMITADA                                                                                                                           CLUB BAR E BURGUER                                     022016060200                                                                                                                                2062201606025611203RUA                 ESTRADA MUNICIPAL DO CLUBE DE CAMPO VALINHOS                S/N   KM    14                  SETOR SOCIAL                                                                                                                      FAZENDA HOTEL SAO BENTO                           13270970SP7225VALINHOS                                          19  38492231            19  38716211MICHELLI_FIGUEIREDO@HOTMAIL.COM                                                                                    49000000010000000152016060200000000N                                                                                                                                                                                                                                                                                  F
1F 249294450001191GUSTAVO LUIZ YANSEN                                                                                                                                   YANSEN ENGENHARIA E CONSTRUCAO                         022016060300                                                                                                                                2135201606037112000RUA                 ULYSSES PEDROSO DE OLIVEIRA FILHO                           656                                                                                                                                                               VILA BOA ESPERANCA                                13270393SP7225VALINHOS                                          19  3324650419  33246506            SC_CONTABILIDADE@GLOBO.COM                                                                                         50000000010000000152016060300000000N                                                                                                                                                                                                                                                                                  F
1F 249301720001221NEUSA APARECIDA DE LIMA 21949892859                                                                                                                                                                          082017053101                                                                                                                                2135201606039700500RUA                 MINERVINO MAIOLI                                            172                                                                                                                                                               JARDIM CENTENARIO                                 13273580SP7225VALINHOS                                          19  38599373                        petermlima@hotmail.com                                                                                             50000000001000000152016060300000000S                                                                                                                                                                                                                                                                                  F
1F 249320310001491CLAYTON GONCALVES DOS SANTOS 17270312885                                                                                                              SUPER NOVA ELETRO ELETRONICO                           082016120801                                                                                                                                2135201606034742300RUA                 MARQUES DE ITU                                              274                                                                                                                                                               VILA INDEPENDENCIA                                13276245SP7225VALINHOS                                          19  99372104                        supernova.clayton@gmail.com                                                                                        50000000005000000152016060300000000S                                                                                                                                                                                                                                                                                  F
1F 249346470001591ATITUDE METAIS NAO FERROSOS EIRELI                                                                                                                    ATITUDE METAIS                                         022016060300                                                                                                                                2305201606034685100RUA                 LAERTE DE PAIVA                                             344   QUADRAC                   LOTE  22                  GALPAO3                                                                                                 MACUCO                                            13279451SP7225VALINHOS                                          19  32721455                74047601FINANCEIRO@ATITUDEMETAIS.COM.BR                                                                                    65000000100000000500000000000000000N                                                                                                                                                                                                                                                                                  F
1F 249348300001541JOAO PAULO FERREIRA 33646326859                                                                                                                       JOTA ELECTRIC                                          022016060300                                                                                                                                2135201606034321500RUA                 JOAO DE OLIVEIRA CAMPOS                                     190   FUNDOS                                                                                                                                                      JARDIM SAO JORGE                                  13277100SP7225VALINHOS                                          19  92637917                        talita.casarini@gmail.com                                                                                          50000000002000000152016060300000000S                                                                                                                                                                                                                                                                                  F
1F 249351450001421ANTONIO MARCOS BARBOSA DA SILVA 89124545520                                                                                                           BAR MARCOS CARECA                                      022016060300                                                                                                                                2135201606035611204RUA                 NATALE CAPELATTO                                            120                                                                                                                                                               VILA PAGANO                                       13277230SP7225VALINHOS                                          19  38716211                        veigaepostal@veigaepostal.com.br                                                                                   50000000005000000152016060300000000S                                                                                                                                                                                                                                                                                  F
1F 249355310001341A & R TORRES SERVICOS DE CONSULTORIA EMPRESARIAL - EIRELI                                                                                                                                                    022016060300                                                                                                                                2305201606037020400RUA                 HUMBERTO BISCARDI                                           777                                                                                                                                                               JARDIM PINHEIROS                                  13274300SP7225VALINHOS                                          19  38266799                        RTCASTILLA@HOTMAIL.COM                                                                                             65000000088000000500000000000000000N                                                                                                                                                                                                                                                                                  F
1F 249373500001471PAULO HENRIQUE FAGOTO 40478400845                                                                                                                     DIGITAL INFORMATICA                                    022016060400                                                                                                                                2135201606048599699RUA                 ANTONIO JOSE BUTIGNOL                                       245                                                                                                                                                               JARDIM RIBEIRO                                    13270170SP7225VALINHOS                                          19  89329021                        digitalinfovalinhos@gmail.com                                                                                      50000000002000000152016060400000000S                                                                                                                                                                                                                                                                                  F
1F 249385760001621EREDIO CUMPRI JUNIOR 26340034802                                                                                                                      EREDIO JUNIOR SERVICOS                                 082016111301                                                                                                                                2135201606058219999RUA                 EDUARDO DE SOUZA                                            44                                                                                                                                                                JARDIM NOVO MUNDO                                 13273033SP7225VALINHOS                                          19  38490206                        erediocjunior@terra.com.br                                                                                         50000000005000000152016060500000000S                                                                                                                                                                                                                                                                                  F
1F 249387000001901ALESANDRA CRISTINA RODRIGUES 16836547816                                                                                                              LE BOUTIQUE                                            082017011301                                                                                                                                2135201606054781400RUA                 JOAO BISSOTTO FILHO                                         1656  BLOCO 1;APT 134                                                                                                                                             ORTIZES                                           13275410SP7225VALINHOS                                          19  38490327                        alesandrarodrigues75@hotmail.com                                                                                   50000000001000000152016060500000000S                                                                                                                                                                                                                                                                                  F
1F 249401680001451LUSTOSA ODONTOLOGIA LTDA                                                                                                                              COIFE ODONTO                                           022016060600                                                                                                                                2062201606068630504RUA                 JOSE MILANI                                                 37                                                                                                                                                                VILA BISSOTO                                      13270200SP7225VALINHOS                                          11  4521166411  4805166311  45211664ALGE@ALGECONTABIL.COM.BR                                                                                           49000000100000000152016060600000000N                                                                                                                                                                                                                                                                                  F
1F 249432260001941J.F.B BUZANELI PET SHOP                                                                                                                                                                                      022016060600                                                                                                                                2135201606064789004AVENIDA             INDEPENDENCIA                                               1300  CONJ  01                                                                                                                                                    JARDIM SANTO ANTONIO                              13277000SP7225VALINHOS                                          19  32992796                        SERVICOSHELPVALINHOS@YAHOO.COM.BR                                                                                  50000000010000000162016060620181231N                                                                                                                                                                                                                                                                                  F
1F 249433380001451CAMPOS & SOUZA COMERCIO VAREJISTA DE ROUPAS E ACESSORIOS LTDA                                                                                         KIWI BIRDS                                             022016060600                                                                                                                                2062201606064781400RUA                 ELSO PREVITALE                                              645   CASA  228                                                                                                                                                   JARDIM ALTO DA COLINA                             13272300SP7225VALINHOS                                          19  33246504                        SC_CONTABILIDADE@GLOBO.COM                                                                                         49000000020000000152016060600000000N                                                                                                                                                                                                                                                                                  F
1F 249438250001081DENDE LANCHES LTDA                                                                                                                                    DENDE LANCHES                                          022016060600                                                                                                                                2062201606065611203RUA                 ANTONIO JULIATTO                                            201         ESQ AV INDEPENDENCIA                                                                                                                                  SANTA MARINA                                      13277113SP7225VALINHOS                                          19  92717091                        HANALIAPIRES@HOTMAIL.COM                                                                                           49000000020000000152016060600000000N                                                                                                                                                                                                                                                                                  F
1F 249439050001631DJ CONSTRUCOES EIRELI                                                                                                                                                                                        022016060600                                                                                                                                2305201606064399103RUA                 CAMPINAS                                                    303   FUNDOS                                                                                                                                                      BELA VISTA                                        13276065SP7225VALINHOS                                          19  38711742                        ESCRITORIOINDEPENDENCIA@UOL.COM.BR                                                                                 65000000090000000152016060600000000N                                                                                                                                                                                                                                                                                  F
1F 249439750001111SUELI BARBOSA TOCOLLI 07996167885                                                                                                                                                                            022016060600                                                                                                                                2135201606067319003ALAMEDA             BASILEIA (LOT. RESID. Z. DORF)                              35                                                                                                                                                                NACOES                                            13271793SP7225VALINHOS                                          19  38765007                        sbtocolli@gmail.com                                                                                                50000000002000000152016060600000000S                                                                                                                                                                                                                                                                                  F
1F 249448960001251ADELAIDE GODOFREDO OZORIO 01483041174                                                                                                                 DIAMOND BEAUTY CENTER                                  022016060600                                                                                                                                2135201606069602502AVENIDA             JOAQUIM ALVES CORREA                                        4732  SALA 1                                                                                                                                                      PARQUE NOVA SUICA                                 13271430SP7225VALINHOS                                          19  32991041                        adelaideozorio@hotmail.com                                                                                         50000000025000000152016060600000000S                                                                                                                                                                                                                                                                                  F
1F 249485180001101ADRIANO GREGIO 11656854856                                                                                                                                                                                   022016060700                                                                                                                                2135201606077319002AVENIDA             REMO OSCAR BESEGGIO (LOT RESID ALVORADA)                    365   BLOCO D APTO 41                                                                                                                                             PARQUE DAS COLINAS                                13273649SP7225VALINHOS                                          19  38711489                                                                                                                                           50000000002000000152016060700000000S                                                                                                                                                                                                                                                                                  F
1F 249486380002062LOTUS DISTRIBUIDORA E COMERCIO DE ALIMENTOS EM GERAL- EIRELI                                                                                                                                                 082016120601                                                                                                                                2305201607184639701RUA                 BORTHOLO OLIVO                                              59                                                                                                                                                                CASTELO                                           13271310SP7225VALINHOS                                          19  32561744                        LOTUSDISTRIBUIDORAALIMENTOS@GMAIL.COM                                                                              65000000000000000300000000000000000                        00000000                                                                                                                                                                                                                                                   F
1F 249524690001991MARIA HELENA BARBOSA 26374947860                                                                                                                                                                             022016060700                                                                                                                                2135201606079700500AVENIDA             ALCINDO MARCON                                              sn    LOTE D5A                                                                                                                                                    VALE VERDE                                        13279031SP7225VALINHOS                                          19  38812362                                                                                                                                           50000000000100000152016060700000000S                                                                                                                                                                                                                                                                                  F
1F 249533850001701ROSANA PELLISSON LEITAO 09998970806                                                                                                                                                                          022016060700                                                                                                                                2135201606074781400RUA                 ROMEU CHIMINASSO                                            730   APT 131                                                                                                                                                     CHACARA DAS NACOES                                13272588SP7225VALINHOS                                          19  88252663                        rosanapelisson@hotmail.com                                                                                         50000000005000000152016060700000000S                                                                                                                                                                                                                                                                                  F
1F 249539020001001ALEXANDRE FERNANDES GOMES 85882186749                                                                                                                 AFG SERVICOS                                           082017082301                                                                                                                                2135201606078599699RODOVIA             DOM PEDRO I / QUILOMETRO 114                                100   CASA CASA                                                                                                                                                   LOPES                                             13273901SP7225VALINHOS                                          19  91043658                        alexfergom@uol.com.br                                                                                              50000000001000000152016060700000000S                                                                                                                                                                                                                                                                                  F
