1F 182259140001161FABIO KREBS                                                                                                                                                                                                  022013050900                                                                                                                                4120201305090133499SITIO               DA GALILEIA                                                 2869  CXPST 615                                                                                                                                                   MACUCO                                            13279411SP7225VALINHOS                                          19  38817100                                                                                                                                           59000000000000000500000000000000000N                                                                                                                                                                                                                                                                                  F
1F 182259490001551INNOVARE - INDUSTRIA E COMERCIO  DE EQUIPAMENTOS FITNESS LTDA.                                                                                        INNOVARE                                               022013060300                                                                                                                                2062201306033230200RUA                 DAS GARDENIAS                                               131                                                                                                                                                               PARQUE CECAP                                      13273350SP7225VALINHOS                                          19  38592021                        FINANCEIRO@MODERNFITNESS.COM.BR                                                                                    49000000030000000352019010100000000N                                                                                                                                                                                                                                                                                  F
1F 182264040001631MARIA JOSE MARTINS SOARES SOUZA 08364851659                                                                                                           SS SERVICOS DE JARDINAGEM E LIMPEZA EM GERAL           082018020167                                                                                                                                2135201306038130300RUA                 CARLOS GABETTA                                              10                                                                                                                                                                JARDIM JUREMA                                     13272476SP7225VALINHOS                                          19  99191079                                                                                                                                           50000000002000000162013060320180201S                                                                                                                                                                                                                                                                                  F
1F 182290750001041SDS PARTICIPACOES SOCIETARIAS LTDA                                                                                                                                                                           022013060300                                                                                                                                2062201306036810202RUA                 PAIQUERE                                                    430   LOTE  I3                                                                                                                                                    PAIQUERE                                          13271600SP7225VALINHOS                                          19  38439370                                                                                                                                           49000000050010000500000000000000000N                                                                                                                                                                                                                                                                                  F
1F 182290970001741FGS PARTICIPACOES LTDA                                                                                                                                                                                       022013060300                                                                                                                                2062201306036810202RUA                 ANTONIO LUIZ BALDIN                                         445                                                                                                                                                               MAISON BLANCE                                     13275500SP7225VALINHOS                                          19  37941201                                                                                                                                           49000000055282000500000000000000000N                                                                                                                                                                                                                                                                                  F
1F 182307780001521NADI DO AMOR DIVINO SANTOS 03751738541                                                                                                                TOPGRAAS GRAMADOS ESPORTIVOS E RESIDENCIAIS            082016012701                                                                                                                                2135201306034789002AVENIDA             ITATIBA                                                     03                                                                                                                                                                FAZENDA HOTEL SAO BENTO DO RECREIO                13274751SP7225VALINHOS                                          19  91569539                        Alexandrerigacci@ymail.com                                                                                         50000000001300000152013060300000000S                                                                                                                                                                                                                                                                                  F
1F 182320400001241FABIO RODRIGO SANT ANA 25432693801                                                                                                                                                                           082015071801                                                                                                                                2135201306044321500AVENIDA             GESSY LEVER                                                 915                                                                                                                                                               LENHEIRO                                          13272000SP7225VALINHOS                                          19  38716211                                                                                                                                           50000000005000000152013060400000000S                                                                                                                                                                                                                                                                                  F
1F 182346020001791CICERO JACOB DO NASCIMENTO 27496932841                                                                                                                INSTITUTO ESSENCIA DA BELEZA                           022013060400                                                                                                                                2135201306049602501RUA                 ITALIA                                                      616                                                                                                                                                               JARDIM RIBEIRO                                    13270180SP7225VALINHOS                                          19  38591576                                                                                                                                           50000000000001000152013060400000000S                                                                                                                                                                                                                                                                                  F
1F 182347970001571NEILSON PERES CAMARGO                                                                                                                                 REPRESENTACAO PRO AUTO                                 022013060400                                                                                                                                2135201306048211300RUA                 CAMPOS SALLES                                               458                                                                                                                                                               JUREMA                                            13272350SP7225VALINHOS                                          19  38691498            11  45870548MONIQUE@PROAUTO.ORG.BR                                                                                             50000000001000000152013060400000000N                                                                                                                                                                                                                                                                                  F
1F 182374220001401SANTO SUCO - LANCHES E SUCOS LTDA                                                                                                                                                                            082014120401                                                                                                                                2062201306045611203RUA                 VINTE E UM DE DEZEMBRO                                      85                                                                                                                                                                CENTRO                                            13270070SP7225VALINHOS                                          19  3324650419  3324650613  13273017SC_CONTABILIDADE@GLOBO.COM                                                                                         49000000010000000162013060420141204N                                                                                                                                                                                                                                                                                  F
1F 182374710001831GALLINA E SOUZA LOCACOES DE ANDAIMES LTDA                                                                                                                                                                    082017031601                                                                                                                                2062201306047732202AVENIDA             DR. JOSE PAGANO BRUNDO                                      60    FUNDOS                                                                                                                                                      VILA PAGANO                                       13277210SP7225VALINHOS                                          19  38710009                        contabil@stoantonio.com                                                                                            49000000050000000152013060400000000N                                                                                                                                                                                                                                                                                  F
1F 182381060001931B&B EMPREENDIMENTOS IMOBILIARIOS E PARTICIPACOES LTDA                                                                                                                                                        022013060400                                                                                                                                2062201306046810201RUA                 LAZARA DA CRUZ BARBOSA                                      316   SALA  04                                                                                                                                                    VILA NOVA VALINHOS                                13271240SP7225VALINHOS                                          19  29325680                                                                                                                                           49000003100000000500000000000000000N                                                                                                                                                                                                                                                                                  F
1F 182381270001091RANDO & MAROSTICA LTDA                                                                                                                                CIA DA COMUNICACAO SERVICOS EMPRESARIAIS               022013060400                                                                                                                                2062201306048211300AVENIDA             GESSY LEVER                                                 915   CASA  78                                                                                                                                                    LENHEIRO                                          13272000SP7225VALINHOS                                          19  38714264                        ecgarcia@dglnet.com.br                                                                                             49000000002000000152013060400000000N                                                                                                                                                                                                                                                                                  F
1F 182386920001761FELIPE ANDRE FUSCO OLIVEIRA 04764689901                                                                                                               FUSCO CAR DETAIL                                       082018020167                                                                                                                                2135201306044520005RUA                 ENGENHEIRO ANTONIO MAYER                                    400                                                                                                                                                               JARDIM PANORAMA                                   13277460SP7225VALINHOS                                          19  83545348                        felipefusco85@hotmail.com                                                                                          50000000005000000162013060420180201S                                                                                                                                                                                                                                                                                  F
1F 182414680001331JULIO CESAR GIRELLI 82366373872                                                                                                                                                                              082016062101                                                                                                                                2135201306058219999RUA                 R-CINQUENTA E TRES                                          SN    LOTE J 6;QUADRA B C                                                                                                                                         VALE VERDE                                        13279141SP7225VALINHOS                                          19  38812799                                                                                                                                           50000000000001000152013060500000000S                                                                                                                                                                                                                                                                                  F
1F 182454130001001VILMA VALENTE 20177890894                                                                                                                             VILMA PRESENTES                                        082014030701                                                                                                                                2135201306054781400RUA                 ANGELO CAPOVILA                                             514                                                                                                                                                               JARDIM AMERICA                                    13276390SP7225VALINHOS                                          19  39296124                        ipianeta@msn.com                                                                                                   50000000005000000152013060500000000S                                                                                                                                                                                                                                                                                  F
1F 182461520001341PONTO CULTURAL FEIRAS E EVENTOS - EIRELI                                                                                                                                                                     022013060500                                                                                                                                2305201306057739003AVENIDA             GESSY LEVER                                                 812   LOTE  D-1-2                                                                                                                                                 LENHEIRO                                          13272000SP7225VALINHOS                                          11  32090096                        ADM@PCULTURAL.COM.BR                                                                                               65000000093700000562013060520181231N                                                                                                                                                                                                                                                                                  F
1F 182469350001181CAMILA BRESSAM DA SILVA 21488508810                                                                                                                                                                          082018020167                                                                                                                                2135201306055611203RODOVIA             MUNICIPAL DOS ANDRADAS                                      1500                                                                                                                                                              JARDIM LORENA                                     13277650SP7225VALINHOS                                          19  32662823                                                                                                                                           50000000000001000162013060520180201S                                                                                                                                                                                                                                                                                  F
1F 182469640001801TF BATATAS LIMITADA                                                                                                                                   TF BATATAS                                             022013060500                                                                                                                                2062201306055611203RUA                 SETE DE SETEMBRO                                            306         B                                                                                                                                                     CENTRO                                            13270100SP7225VALINHOS                                          19  3871621119  3871895919  38716211veigaepostal@veigaepostal.com.br                                                                                   49000000030000000152013060500000000N                                                                                                                                                                                                                                                                                  F
1F 182523550001331REPRIX SERVICOS GRAFICOS LTDA                                                                                                                         REPRIX SERVICOS GRAFICOS                               022013060600                                                                                                                                2062201306067319003RUA                 VIRGINIO CREMASCO                                           51                                                                                                                                                                CASTELO                                           13271320SP7225VALINHOS                                          19  38715883                        ATUALVALINHOS@UOL.COM.BR                                                                                           49000000005000000152013060600000000N                                                                                                                                                                                                                                                                                  F
1F 182537210001791MICHELLE GRAZIELA DA SILVA                                                                                                                                                                                   022013060600                                                                                                                                2135201306064781400RUA                 DOUTOR CANDIDO FERREIRA                                     35    SALA  02                                                                                                                                                    CENTRO                                            13270040SP7225VALINHOS                                          19  3871531219  3871531219  38715312freitas.assessoriafiscal@gmail.com                                                                                 50000000010000000152013060600000000N                                                                                                                                                                                                                                                                                  F
1F 182547950001201MARCELA CRISTINA BRESSARIN STEFANIN 26495586876                                                                                                       MARCELA BRESSARIN STEFANIN ESTETICA                    022013060600                                                                                                                                2135201306069602502RUA                 DOIS                                                        11    APT 33                                                                                                                                                      PONTE ALTA                                        13277653SP7225VALINHOS                                          19  38491398                        marcela.bressarin@hotmail.com                                                                                      50000000003000000152013060600000000S                                                                                                                                                                                                                                                                                  F
1F 182576300001011PAULO AFONSO DE LIMA BACELAR 44707100325                                                                                                                                                                     022013060700                                                                                                                                2135201306074330405RUA                 ITALIA                                                      756                                                                                                                                                               JARDIM RIBEIRO                                    13270180SP7225VALINHOS                                          19  91712160                                                                                                                                           50000000001000000152013060700000000S                                                                                                                                                                                                                                                                                  F
1F 182599620001251RODRIGO VALLIO BENEVIDES 27105107820                                                                                                                  VALLIO.TECPC.COM.BR                                    082014021901                                                                                                                                2135201306079511800RUA                 LUIZ BISSOTO                                                662   BLOCO 33;APT 3                                                                                                                                              JARDIM SANTA ROSA                                 13275110SP7225VALINHOS                                          19  81264838                        vallio@r7.com                                                                                                      50000000001000000152013060700000000S                                                                                                                                                                                                                                                                                  F
1F 182614000001161PET AQUI RACOES E ACESSORIOS EIRELI                                                                                                                   PET AQUI                                               022013060700                                                                                                                                2305201306074789004RUA                 DOM NERY                                                    908   SALA  01                                                                                                                                                    SANTA CRUZ                                        13271170SP7225VALINHOS                                          19  9219599119  38292939            crvicentin@terra.com.br                                                                                            65000000150000000152013060700000000N                                                                                                                                                                                                                                                                                  F
1F 182614640001171C. FACONI ASSESSORIA                                                                                                                                  FACONI ASSESSORIA                                      022013060700                                                                                                                                2135201306078219999RUA                 VEREADOR WALTER OBMER WOELZKE                               609         AGUAS SERRA         CASA  33                                                                                                                          JARDIM DAS PALMEIRAS                              13273060SP7225VALINHOS                                          19  3226303519  3226985819  32263035CONTATO@CONTABILIDADEARYMANA.COM.BR                                                                                50000000005000000152013060700000000S                                                                                                                                                                                                                                                                                  F
1F 182669970001911LETICIA DOMINGUES MOSCA 33854414803                                                                                                                   LETICIA                                                082013062801                                                                                                                                2135201306107319002RUA                 DOS JACARANDAS                                              41                                                                                                                                                                CHACARA FLORA                                     13272560SP7225VALINHOS                                          19  32720103                        leticiamosca@yahoo.com.br                                                                                          50000000005000000152013061000000000S                                                                                                                                                                                                                                                                                  F
1F 182689960001861ANGELA MARIA BENATTI COCO 21589765869                                                                                                                 COKINHO FUNILARIA                                      082018020167                                                                                                                                2135201306104520002RUA                 WALDOMIRO ROSSI                                             63                                                                                                                                                                LOTEAMENTO NOVA ESPIRITO SANTO                    13273202SP7225VALINHOS                                          19  32443423                        angelamb2011@yahoo.com.br                                                                                          50000000003000000162013061020180201S                                                                                                                                                                                                                                                                                  F
1F 182699000001021EMANUEL SILVA DE LIMA 36237054898                                                                                                                     EMANUEL LIMA                                           082018020167                                                                                                                                2135201306107319002AVENIDA             ONZE DE AGOSTO                                              716   APT 41                                                                                                                                                      VILA CLAYTON                                      13276130SP7225VALINHOS                                          19  92358672                        emanuel18@uol.com.br                                                                                               50000000001000000162013061020180201S                                                                                                                                                                                                                                                                                  F
1F 182703240001051ANGELA MARINA MINTO DELLAMAGNA                                                                                                                                                                               022013061000                                                                                                                                2135201306101091101RUA                 BRAZILIANO PREVITALE                                        294                                                                                                                                                               SANTA CRUZ                                        13272403SP7225VALINHOS                                          19  32942139                        CONTABILIDADE.CLEBERMARCONDES@GMAIL.COM                                                                            50000000020000000152018010100000000N                                                                                                                                                                                                                                                                                  F
1F 182706010001801J.C. HERNANDES LINO & CIA LTDA                                                                                                                                                                               082017052601                                                                                                                                2062201306109512600RUA                 JOAO TAGLIACOLO                                             35                                                                                                                                                                JD ITAPUA                                         13273103SP7225VALINHOS                                          19  38497001                        contsenador@hotmail.com                                                                                            49000000010000000152013061000000000N                                                                                                                                                                                                                                                                                  F
1F 182707320001671FABIO HENRIQUE AGOSTINHO 18076452821                                                                                                                  AGOSTINHO MANUTENCOES ELETRICAS E HIDRAULICAS          022013061000                                                                                                                                2135201306104321500RUA                 FREDERICO BUGIM                                             278                                                                                                                                                               JARDIM SAO LUIZ                                   13272705SP7225VALINHOS                                          19  93530832                        gol_fabio@hotmail.com                                                                                              50000000005000000152013061000000000S                                                                                                                                                                                                                                                                                  F
1F 182709450002702ALTERNATIVA INDUSTRIA E COMERCIO DE MAQUINAS E PRODUTOS GRAFICOS LTDA                                                                                                                                        082018062701                                                                                                                                2062201504152869100RUA                 VEREADOR ANTONIO DE CASTRO                                  542                                                                                                                                                               LOTEAMENTO NOVA ESPIRITO SANTO                    13273201SP7225VALINHOS                                          19  34210065                        GLOBOSER@GLOBOSER.COM.BR                                                                                           49000000000000000500000000000000000                        00000000                                                                                                                                                                                                                                                   F
1F 182729310001041EDSON AMARO MARAES 22893602878                                                                                                                                                                               022013061100                                                                                                                                2135201306114321500RUA                 SANTO TORDIN                                                175   CASA 02                                                                                                                                                     JARDIM DOS MANACAS                                13273091SP7225VALINHOS                                          19  92178936                                                                                                                                           50000000005000000152013061100000000S                                                                                                                                                                                                                                                                                  F
1F 182742930001601JESSICA NASCIMENTO LIMA 40812882830                                                                                                                                                                          022013061100                                                                                                                                2135201306119602501RUA                 PAULO SETUBAL                                               204   SALA 12                                                                                                                                                     VILA ANGELI                                       13271070SP7225VALINHOS                                          19  92064328                        jenlima@hotmail.com                                                                                                50000000010000000152013061100000000S                                                                                                                                                                                                                                                                                  F
1F 182753570001481ELIEZER SCUPINARI 25048943848                                                                                                                         ELIEZER SCUPINARI                                      022013061100                                                                                                                                2135201306119602501RUA                 CAETANO FERRARI                                             382                                                                                                                                                               RESIDENCIAL JARDIM PARANA                         13272522SP7225VALINHOS                                          19  39296059                        visouzasc@yahoo.com.br                                                                                             50000000001000000152013061100000000S                                                                                                                                                                                                                                                                                  F
1F 182777260001311RAPHAEL FELIPE ZORZATO 33442560845                                                                                                                    RAPHAEL ZORZATO                                        082016052501                                                                                                                                2135201306114751201RUA                 FRANCISCO ANDREOLI                                          15                                                                                                                                                                JARDIM ITAPUA                                     13273122SP7225VALINHOS                                          19  88237125                        zorzato@gmail.com                                                                                                  50000000001000000152013061100000000S                                                                                                                                                                                                                                                                                  F
1F 182784820001011H.C.J.MARTINS CONFECCOES                                                                                                                              HUD CONFECCOES                                         042018121863                                                                                                                                2135201306111412602ALAMEDA             ITAIPAVA                                                    1340  CONJ  A                                                                                                                                                     JOAPIRANGA                                        13278460SP7225VALINHOS                                          19  3388668619  3388668619  33886686CLEONICEDOMINGOS@HOTMAIL.COM                                                                                       50000000030000000100000000000000000N                                                                                                                                                                                                                                                                                  F
1F 182784920001471GIOVANA RAMOS LAMANNA 36419448808                                                                                                                                                                            082016112401                                                                                                                                2135201306118219999RUA                 DOS JACARANDAS                                              201                                                                                                                                                               CHACARA FLORA                                     13272560SP7225VALINHOS                                          19  38295488                        contabilidade@anselmietrovatti.com.br                                                                              50000000000010000152013061100000000S                                                                                                                                                                                                                                                                                  F
1F 182785680001341ADRIANO DOMICIANO PEREIRA                                                                                                                                                                                    022013061100                                                                                                                                2135201306115611203RUA DE PEDESTRE     SETE DE SETEMBRO                                            306                                                                                                                                                               CENTRO                                            13270100SP7225VALINHOS                                          19  3829536019  38492191            dpclausant@dglnet.com.br                                                                                           50000000005000000152013061100000000N                                                                                                                                                                                                                                                                                  F
1F 182786280001191ALMEIDA & JRS COMERCIO DE OTICAS LTDA                                                                                                                 CASA DOS OCULOS                                        022013061100                                                                                                                                2062201306114774100AVENIDA             DOUTOR HEITOR PENTEADO                                      138                                                                                                                                                               CENTRO                                            13270060SP7225VALINHOS                                          19  3869133419  3869133419  38691334edneyjr@terra.com.br                                                                                               49000000050000000152013061100000000N                                                                                                                                                                                                                                                                                  F
1F 182786410001781CENTRO DE ESTETICA STEIN LTDA                                                                                                                         HEALTH STEIN                                           082017011301                                                                                                                                2062201306118650004AVENIDA             DOM NERY                                                    575                                                                                                                                                               EMBARE                                            13271170SP7225VALINHOS                                          19  3244402119  32444022            CONTATO@HEALTSTEIN.COM.BR                                                                                          49000000050000000100000000000000000N                                                                                                                                                                                                                                                                                  F
1F 182788140001581BRUNO RAMOS LAMANNA 36419447836                                                                                                                                                                              082016112301                                                                                                                                2135201306118219999RUA                 DOS JACARANDAS                                              201                                                                                                                                                               CHACARA FLORA                                     13272560SP7225VALINHOS                                          19  38295488                        contabilidade@anselmietrovatti.com.br                                                                              50000000000010000152013061100000000S                                                                                                                                                                                                                                                                                  F
1F 182788410001201DJALMA RIBEIRO LOPES- EIRELI                                                                                                                                                                                 022013061100                                                                                                                                2305201306114399103RUA                 CAMPINAS                                                    303                                                                                                                                                               JARDIM IMPERIAL                                   13276065SP7225VALINHOS                                          19  3871174219  3871174219  38711742escritorioindependencia@uol.com.br                                                                                 65000000068000000162013061120151130N                                                                                                                                                                                                                                                                                  F
1F 182794110001231CAS PARTICIPACOES SOCIETARIA LTDA                                                                                                                                                                            022013061100                                                                                                                                2062201306116810202ESTRADA             DO JEQUITIBA                                                1750        ALAMEDA JATOBA 28                                                                                                                                     VENEZA                                            13274610SP7225VALINHOS                                          19  38499385                                                                                                                                           49000000050010000500000000000000000N                                                                                                                                                                                                                                                                                  F
1F 182803400001891PALOMA CRISTINA GERTRUDES BORTOLOTTI 39811424896                                                                                                      W3 INFORMATICA                                         082013072901                                                                                                                                2135201306119511800RUA                 DAS VITORIAS REGIAS                                         540   FUNDOS                                                                                                                                                      JARDIM DAS VITORIAS REGIAS                        13273053SP7225VALINHOS                                          19  91175169                        walacevls@hotmail.com                                                                                              50000000000500000162013061120130729S                                                                                                                                                                                                                                                                                  F
1F 182804260001011DEVAIR PEREIRA DOS SANTOS 06086263680                                                                                                                 PADARIA ALFA                                           082013080101                                                                                                                                2135201306114721102RUA                 DO FADO                                                     10                                                                                                                                                                JARDIM PORTUGAL                                   13273269SP7225VALINHOS                                          19  32444375                        devanir.pereira@hotmail.com                                                                                        50000000005000000152013061100000000S                                                                                                                                                                                                                                                                                  F
1F 182826680001341ANTONIO APARECIDO PAVINI 00893705896                                                                                                                  VIDAS E TRILHAS                                        082014102501                                                                                                                                2135201306127911200RUA                 NATALINO SPIANDORELLI                                       51    EDIF Stre;APT 21                                                                                                                                            BELA VISTA                                        13276070SP7225VALINHOS                                          19  39295300                        pavinidel@hotmail.com                                                                                              50000000001000000152013061200000000S                                                                                                                                                                                                                                                                                  F
1F 182832710001671ZILDA APARECIDA ROGERIO TOFOLO 24684707881                                                                                                            ARTE & BELEZA                                          082014052901                                                                                                                                2135201306129602502AVENIDA             JOAO ANTUNES DOS SANTOS                                     385                                                                                                                                                               JARDIM PINHEIROS                                  13274290SP7225VALINHOS                                          19  38698230                        zhfdtofolo@gmail.com                                                                                               50000000001000000152013061200000000S                                                                                                                                                                                                                                                                                  F
1F 182834540001821BRUNA SCHIO 34284572857                                                                                                                                                                                      022013061200                                                                                                                                2135201306129602502RUA                 ERICA PAVAN                                                 293                                                                                                                                                               JARDIM MORADA DO SOL                              13277706SP7225VALINHOS                                          19  38716590                        brubruschio@hotmail.com                                                                                            50000000001000000152013061200000000S                                                                                                                                                                                                                                                                                  F
1F 182846440001141NUCLEO URO DE CAMPINAS E REGIAO (NUC)                                                                                                                 NUC                                                    022013051400                                                                                                                                3999201305148690999RUA                 VITAL BRASIL                                                228                                                                                                                                                               VILA EMBARE                                       13271190SP7225VALINHOS                                          19  3869801119  38296666            piva@pivacontabilidade.com.br                                                                                      16000000000000000500000000000000000N                                                                                                                                                                                                                                                                                  F
1F 182864510001001ROBSON ROGERIO POLLIZELLO 18806794850                                                                                                                 ROBSON ROGERIO POLLIZELLO                              022013061200                                                                                                                                2135201306124321500AVENIDA             VICE-PREFEITO ANESIO CAPOVILLA SITIOS FRUTAL                1000  BLOCO 8 - Apt. 62                                                                                                                                           CAPUAVA                                           13272181SP7225VALINHOS                                          19  92212782                        r.pollizello@ig.com.br                                                                                             50000000001000000152013061200000000S                                                                                                                                                                                                                                                                                  F
1F 182877200001451JOSE CARLOS MITICA SERRALHERIA                                                                                                                        SERRALHERIA NACIONAL                                   042019032063                                                                                                                                2135201306124321500RUA                 FRANCISCO DE CASTRO JUNIOR                                  204                                                                                                                                                               JARDIM PINHEIROS                                  13274460SP7225VALINHOS                                          19  38715312                        FREITAS.ASSESSORIACONTABIL@GMAIL.COM                                                                               50000000010000000162013061220151231N                                                                                                                                                                                                                                                                                  F
1F 182877740001001ANDRE LUIS SIGNORELLI 34671043807                                                                                                                     ANDRE                                                  082013110301                                                                                                                                2135201306124789099ALAMEDA             BAGDA                                                       138                                                                                                                                                               CONDOMINIO RESIDENCIAL TERRAS DO ORIENTE          13272863SP7225VALINHOS                                          19  83683822                        andresig@bol.com.br                                                                                                50000000002000000152013061200000000S                                                                                                                                                                                                                                                                                  F
1F 182883460001001C.S.B ESMALTERIA LTDA                                                                                                                                 CHUVA DE CORES                                         082015111001                                                                                                                                2062201306129602501AVENIDA             JOAQUIM ALVES CORREA                                        2988  SALA  10                                                                                                                                                    JARDIM IMPERIAL                                   13277055SP7225VALINHOS                                          19  38714264                        ecgarcia@dglnet.com.br                                                                                             49000000020000000162013061220151110N                                                                                                                                                                                                                                                                                  F
1F 182884720021092CELTA ADMINISTRADORA E CORRETORA DE SEGUROS LTDA                                                                                                                                                             081999100101                                                                                                                                2062199611056622300AVENIDA             ENG ANTONIO F P SOUZA                                       3900  LOJA 18                                                                                                                                                     JD VON ZUBEN                                      13273609SP7225VALINHOS                                                                                                                                                                                                 49000000000000000500000000000000000                        00000000                                                                                                                                                                                                                                                   F
1F 182893430001831MARLI APARECIDA DE GODOI 07958434880                                                                                                                  W3 INFOGAMES                                           082018020167                                                                                                                                2135201306124751201RUA                 CESAR TRIVELATO                                             84                                                                                                                                                                JARDIM NOVO MUNDO                                 13273034SP7225VALINHOS                                          19  91175169                        walacevls@hotmail.com                                                                                              50000000000500000162013061220180201S                                                                                                                                                                                                                                                                                  F
1F 182957260001641ERICK DE OLIVEIRA RIBEIRO 32356416889                                                                                                                 ERICK TRANSPORTES                                      082018110501                                                                                                                                2135201306134930201RUA                 MARINO ANTONIO FARTAROTTI POLIDORO                          443                                                                                                                                                               JARDIM AMERICA II                                 13272500SP7225VALINHOS                                          19  93838918                                                                                                                                           50000000001000000162013061320181105S                                                                                                                                                                                                                                                                                  F
1F 182960570001451FERMAC INTERNATIONAL TRANSPORTES NACIONAIS E INTERNACIONAIS LTDA                                                                                      FERMAC INTERNATIONAL                                   022013061300                                                                                                                                2062201306134930202RODOVIA             VISCONDE DE PORTO SEGURO                                    2760  BLOCO: 1; : 3 PISO; SALA: A;                                                                                                                                SITIO RECREIO DOS CAFEZAIS                        13278327SP7225VALINHOS                                          19  3834491219  3875089819  39358261BENE@APOIOINDAIATUBA.COM.BR                                                                                        49000000100000000500000000000000000N                                                                                                                                                                                                                                                                                  F
1F 182985930001801ALUMIBASE INDUSTRIA E COMERCIO DE ESQUADRIAS EIRELI                                                                                                                                                          022013061300                                                                                                                                2305201306132512800RUA                 DOMINGOS PERSEGHETTI                                        52                                                                                                                                                                PARQUE FLORENCE                                   13277610SP7225VALINHOS                                          19  38710711                        RH@ALUMIBASE.COM.BR                                                                                                65000000088000000352018010100000000N                                                                                                                                                                                                                                                                                  F
1F 182998330001601LAERCIO DE MICELI 06922689879                                                                                                                         E.L.VERDURAS                                           082018020167                                                                                                                                2135201306144724500ALAMEDA             CARLOS DE CARVALHO VIEIRA BRAGA                             4280                                                                                                                                                              CHACARAS ALPINA                                   13274465SP7225VALINHOS                                          19  82942007                        leninhadestribuidora@hotmail.com                                                                                   50000000001000000162013061420180201S                                                                                                                                                                                                                                                                                  F
1F 183018450001821EDINEY RIBEIRO ROCHA 04053099617                                                                                                                      MME CONSTRUCOES                                        022013061400                                                                                                                                2135201306144399103RUA                 ADENILSON CIRILLO DOS SANTOS                                28                                                                                                                                                                PARQUE DAS COLINAS                                13273615SP7225VALINHOS                                          19  94973052                        mmerocha@hotmail.com                                                                                               50000000001000000152013061400000000S                                                                                                                                                                                                                                                                                  F
1F 183041110001571PHYSALISS MAGAZINE COMERCIO DE ROUPAS LTDA.                                                                                                                                                                  082014080101                                                                                                                                2062201306144781400RUA                 EUGENIO FRANCESCHINI                                        25                                                                                                                                                                CENTRO                                            13270080SP7225VALINHOS                                          19  33246504                        sc_contabilidade@globo.com                                                                                         49000000010000000162013061420140801N                                                                                                                                                                                                                                                                                  F
1F 183047670001701AGRO SNOOP LTDA                                                                                                                                                                                              022013061400                                                                                                                                2062201306144623109RUA                 JOAO PREVITALLE                                             2588                                                                                                                                                              SANTA CRUZ                                        13272400SP7225VALINHOS                                          19  38715333                        AGRO.SNOOPY@HOTMAIL.COM                                                                                            49000000010000000152013061400000000N                                                                                                                                                                                                                                                                                  F
1F 183048530001821PAULO ROBERTO PEREIRA 16613776882                                                                                                                     PAULO                                                  082015091801                                                                                                                                2135201306144781400RUA                 CAETANO CAPOVILLA                                           16                                                                                                                                                                VILA BOA ESPERANCA                                13270384SP7225VALINHOS                                          19  33276465                        paulo_robertop@hotmail.com                                                                                         50000000001000000152013061400000000S                                                                                                                                                                                                                                                                                  F
1F 183059410001071BRUNO DE MENDONCA GIMENEZ 40342065866                                                                                                                 SICK                                                   082018020167                                                                                                                                2135201306154763602RUA                 JOAO PREVITALLE                                             2780                                                                                                                                                              SANTA CRUZ                                        13272400SP7225VALINHOS                                          19  81225986                        bruno.m.gimenez@gmail.com                                                                                          50000000001000000162013061520180201S                                                                                                                                                                                                                                                                                  F
1F 183070260001421KARINA APARECIDA CLAUDINO 34505510867                                                                                                                 NOVA COR DESIGN                                        082018020167                                                                                                                                2135201306164759899RUA                 RUBENS BARON                                                31    FUNDOS                                                                                                                                                      COLINA DOS PINHEIROS                              13274530SP7225VALINHOS                                          19  98870750                        gilmarzinhobraganholi@gmail.com                                                                                    50000000002000000162013061620180201S                                                                                                                                                                                                                                                                                  F
1F 183095450001401PATRICIA FELIPE BARBOZA 36180346879                                                                                                                                                                          022013061700                                                                                                                                2135201306174520006AVENIDA             JOAO ANTUNES DOS SANTOS                                     1140                                                                                                                                                              JARDIM PINHEIROS                                  13274290SP7225VALINHOS                                          19  78264722                        jefersonjccf@hotmail.com                                                                                           50000000003000000152013061700000000S                                                                                                                                                                                                                                                                                  F
1F 183105710001981S.F. DE ASSUMPCAO COMERCIO E SERVICOS                                                                                                                                                                        082017032101                                                                                                                                2135201306174782201RUA                 JOAO PREVITALLE                                             2740  LOJA  2                                                                                                                                                     SANTA CRUZ                                        13272400SP7225VALINHOS                                          11  93827690                        SORAIA.FERREIRA1974@OUTLOOK.COM                                                                                    50000000001000000152013061700000000N                                                                                                                                                                                                                                                                                  F
1F 183125910001061ALESSANDRA TIRSA PINHEIRO 17195393836                                                                                                                 LE PINHEIRO SERIMONIAL                                 022013061700                                                                                                                                2135201306178230001ESTRADA MUNICIPAL   DO RONCAGLIA                                                450   CASA 457                                                                                                                                                    RONCAGLIA                                         13272721SP7225VALINHOS                                          19  39295286                        eventos.lepinheiro@hotmail.com                                                                                     50000000002000000152013061700000000S                                                                                                                                                                                                                                                                                  F
1F 183163760001751MAURICIO ANDRADE MAGALHAES 15857307856                                                                                                                ANDRADE MAGALHAES TREINAMENTOS                         022013061700                                                                                                                                2135201306178599699AVENIDA             GESSY LEVER                                                 1079  CASA 7                                                                                                                                                      LENHEIRO                                          13272000SP7225VALINHOS                                          19  96080120                        mmag@br.ibm.com                                                                                                    50000000010000000152013061700000000S                                                                                                                                                                                                                                                                                  F
1F 183188310001711BRIDA HELENA GONCALVES FERNANDES LIMA 41301126861                                                                                                     TOCA DO AMIGAO                                         082014042501                                                                                                                                2135201306185611203RODOVIA             DOM PEDRO I                                                 sn    KM 118                                                                                                                                                      SANTANA DOS CUIABANOS                             13273310SP7225VALINHOS                                          19  32322399                        pmpmarco@terra.com.br                                                                                              50000000002000000152013061800000000S                                                                                                                                                                                                                                                                                  F
1F 183265080001401NAZARENO DE JESUS DOS SANTOS 34797576855                                                                                                              CIA NOSTRA PIZZA                                       082018110501                                                                                                                                2135201306195620104RUA                 ANTONIO JOSE BUTIGNOL                                       118                                                                                                                                                               JARDIM RIBEIRO                                    13270170SP7225VALINHOS                                          19  38716211                        veigaepostal@veigaepostal.com.br                                                                                   50000000010000000162013061920181105S                                                                                                                                                                                                                                                                                  F
1F 183270710001691JOSE ANTONIO DE OLIVEIRA 05939063810                                                                                                                                                                         082018020167                                                                                                                                2135201306195320201RUA                 R-QUARENTA E OITO                                           330                                                                                                                                                               VALE VERDE                                        13279140SP7225VALINHOS                                          19  32325355                        pedro@contaxcampinas.com.br                                                                                        50000000001000000162013061920180201S                                                                                                                                                                                                                                                                                  F
1F 183299620001541ALEXSANDER ALMEIDA DE OLIVEIRA                                                                                                                        ALE TACOGRAFOS & VELOCIMETROS                          022013061900                                                                                                                                2135201306194520003RUA                 CLARK                                                       1947                                                                                                                                                              MACUCO                                            13279400SP7225VALINHOS                                          19  3849077419  3327818919  33278189ALTSERVICOS@GMAIL.COM                                                                                              50000000040000000162013061920171231S                                                                                                                                                                                                                                                                                  F
1F 183309410001591FREDERICO MOREIRA DE BARROS SOUZA 23061187871                                                                                                         FMB EXPRESS                                            082017020601                                                                                                                                2135201306194930201RUA                 PALMIRA TRENTO                                              19                                                                                                                                                                JARDIM MORADA DO SOL                              13277702SP7225VALINHOS                                          19  38716211                        veigaepostal@veigaepostal.com.br                                                                                   50000000010000000152013061900000000S                                                                                                                                                                                                                                                                                  F
1F 183316660001981BORGES STUDIO PILATES EIRELI                                                                                                                                                                                 022013061900                                                                                                                                2305201306198650004AVENIDA             JOAQUIM ALVES CORREA                                        4440  SALA  01                                                                                                                                                    PARQUE NOVA SUICA                                 13271430SP7225VALINHOS                                          19  32443527            19  35780809CONTATO@MOVIMENTEPILATES.COM.BR                                                                                    65000000093700000152015010100000000N                                                                                                                                                                                                                                                                                  F
1F 183316980001931ALK FISIOTERAPIA LIMITADA                                                                                                                             ALK FISIOTERAPIA                                       022013061900                                                                                                                                2062201306198650004RUA                 ITATIBA                                                     286                                                                                                                                                               SAO CRISTOVAO                                     13276500SP7225VALINHOS                                          19  38591767            19  38716211PYCTHO@TERRA.COM.BR                                                                                                49000000010000000162015010120151231N                                                                                                                                                                                                                                                                                  F
1F 183319160001901TOY VENTURE - IMPORTACAO E EXPORTACAO DE BRINQUEDOS LTDA                                                                                              TOY VENTURE                                            022013061900                                                                                                                                2062201306194649499AVENIDA             JOAQUIM ALVES CORREA                                        4947                                                                                                                                                              NOVA SUICA                                        13277055SP7225VALINHOS                                          19  38715903                        CONTATO.TOYVENTURE@GMAIL.COM                                                                                       49000000250000000352013061900000000N                                                                                                                                                                                                                                                                                  F
1F 183320290001361PDK GESTAO E SERVICOS LTDA                                                                                                                            PDK TELECOMUNICACOES                                   022013061900                                                                                                                                2062201306196190699ALAMEDA             ALEXANDRIA                                                  66    CASA;                                                                                                                                                       CONDOMINIO RESIDENCIAL TERRAS DO ORIENTE          13272853SP7225VALINHOS                                          19  38711627                        DEVANIRCM@HOTMAIL.COM                                                                                              49000000010000000152013061900000000N                                                                                                                                                                                                                                                                                  F
1F 183320340001491FREITAS & VASCONCELOS - PRESTADORA DE SERVICOS DE COBRANCAS LTDA                                                                                                                                             042018102463                                                                                                                                2062201306198291100RUA                 IRIO GIARDELLI                                              47    CONJ  508                 COND  VERTICE 2                                                                                                                   LOTEAMENTO PAIQUERE                               13271565SP7225VALINHOS                                          19  38896329                        SAC@GRUPOLOJAS.COM.BR                                                                                              49000000010000000162013061920151231N                                                                                                                                                                                                                                                                                  F
1F 183364890001321JOSE PELLEGRINI                                                                                                                                                                                              022013062000                                                                                                                                4120201306200133499ESTRADA             DO JEQUITIBA                                                278         CH. STA ALBINA                                                                                                                                        PINHEIRO                                          13274610SP7225VALINHOS                                          19  38696400                                                                                                                                           59000000000000000500000000000000000N                                                                                                                                                                                                                                                                                  F
1F 183377810001701LILIAN GLORIA CILENTO PIMENTEL 25799343832                                                                                                                                                                   022013062000                                                                                                                                2135201306207319002AVENIDA             DOS ESTADOS                                                 619   CASA 60                                                                                                                                                     VILA DAGOSTINHO                                   13274170SP7225VALINHOS                                          19  99552255                        lilianmota.mk@hotmail.com                                                                                          50000000001000000152013062000000000S                                                                                                                                                                                                                                                                                  F
