1F 273460610001611NAIARA NAYANE SOARES STELZER 06697475994                                                                                                              NAIARA STELZER ACESSORIOS FEMININOS E EMPREENDIMENTOS  082018092101                                                                                                                                2135201703204789001RUA                 CAMPOS SALLES                                               2035  BLOCO 4;TERREO ;APT 1                                                                                                                                       VILA FAUSTINA II                                  13272350SP7225VALINHOS                                          19  33273807                        naisoares24@gmail.com                                                                                              50000000001500000162017032020180921S                                                                                                                                                                                                                                                                                  F
1F 273462680001361CARLOS GUILHERME CORREIA DE PAULA FERREIRA KERVE 41146170866                                                                                          KERVE FOTO & VIDEO                                     022017032100                                                                                                                                2135201703217420001AVENIDA             REMO OSCAR BESEGGIO (LOT RESID ALVORADA)                    365   ANDAR 3;APT 32;BLOCO i;COND                                                                                                                                 PARQUE DAS COLINAS                                13273649SP7225VALINHOS                                          19  83285651                        carloskerve@hotmail.com                                                                                            50000000025000000152017032100000000S                                                                                                                                                                                                                                                                                  F
1F 273477750001941NEUZA APARECIDA MARTINS 14987264889                                                                                                                   NEUZA APARECIDA MARTINS                                022017032100                                                                                                                                2135201703219700500AVENIDA             PRESIDENTE TANCREDO NEVES                                   485   FUNDOS                                                                                                                                                      PARQUE DAS COLINAS                                13273610SP7225VALINHOS                                          19  94249657                        damadrica@yahoo.com.br                                                                                             50000000000100000152017032100000000S                                                                                                                                                                                                                                                                                  F
1F 273483970001631VIEIRA SISTEMAS DE VENTILACAO EIRELI                                                                                                                  AIRFLOW CURTAINS                                       022017032000                                                                                                                                2305201703204757100RUA                 CAMPOS SALLES                                               1780                                                                                                                                                              VILA FAUSTINA II                                  13272350SP7225VALINHOS                                          19  33277845            19  33279845RODOLFO@R4ADCON.COM.BR                                                                                             65000000096000000152017032000000000N                                                                                                                                                                                                                                                                                  F
1F 273484110001291POUSADA RURAL SIERRA MAESTRA LTDA                                                                                                                     POUSADA SIERRA MAESTRA                                 022017032000                                                                                                                                2062201703205510801RODOVIA             DOM PEDRO I                                                 SN    KM    118                                                                                                                                                   LOPES                                             13273300SP7225VALINHOS                                          19  96490560                        ARLEIMEDEIROS@UOL.COM.BR                                                                                           49000000010000000500000000000000000N                                                                                                                                                                                                                                                                                  F
1F 273491880001341ELOHIM IDIOMAS LTDA                                                                                                                                   VERBAL INSTITUTE                                       022017032000                                                                                                                                2062201703208593700RUA                 JOSE MILANI                                                 497                                                                                                                                                               VILA BISSOTO                                      13270200SP7225VALINHOS                                          19  92399170                        VERBALENGLISHINSTITUTE@GMAIL.COM                                                                                   49000000026000000152017032000000000N                                                                                                                                                                                                                                                                                  F
1F 273503550001671CRISTIANE REGINA GUIMARAES ROSA 27458800801                                                                                                                                                                  022017032100                                                                                                                                2135201703214520003RUA                 ALDINO BARTHOLO                                             120                                                                                                                                                               JARDIM PINHEIROS                                  13274370SP7225VALINHOS                                          19  33277560                        lua_gui@yahoo.com.br                                                                                               50000000002000000152017032100000000S                                                                                                                                                                                                                                                                                  F
1F 273511610001861IVAN SOLANI MARTINS CLINICA ODONTOLOGIA                                                                                                                                                                      022017032100                                                                                                                                2135201703218630504RUA                 ELSO PREVITALE                                              645   CASA  160                                                                                                                                                   JARDIM ALTO DA COLINA                             13272300SP7225VALINHOS                                          19  32038421            19  32436915ACLUCATTO@ACLUCATTO.COM.BR                                                                                         50000000010000000152019010100000000N                                                                                                                                                                                                                                                                                  F
1F 273541880001221AIRTON LAZARETTI 71347941800                                                                                                                                                                                 082017120801                                                                                                                                2135201703214530703AVENIDA             INDEPENDENCIA                                               1292                                                                                                                                                              VILA OLIVO                                        13276030SP7225VALINHOS                                          19  38716211                        veigaepostal@veigaepostal.com.br                                                                                   50000000005000000152017032100000000S                                                                                                                                                                                                                                                                                  F
1F 273542780001131L M SECCHI MARKETING EIRELI                                                                                                                           LM SECCHI MARKETING                                    022017032100                                                                                                                                2305201703217319003RUA                 JULIA LOVISARO VICENTINI (NONA)                             100                                                                                                                                                               SITIOS FRUTAL                                     13273220SP7225VALINHOS                                          19  32343432                        LMSECCHI@GMAIL.COM                                                                                                 65000000093700000152017032100000000N                                                                                                                                                                                                                                                                                  F
1F 273549370001111JULIANA CRISTINA DA SILVA SAMPAIO                                                                                                                     KUCA PASSION                                           022017032100                                                                                                                                2135201703214772500AVENIDA             GESSY LEVER                                                 915   CASA  275                                                                                                                                                   LENHEIRO                                          13272000SP7225VALINHOS                                          11  39297014                        ALEXANDRE.SCHALCH33@GMAIL.COM                                                                                      50000000020000000152017032100000000S                                                                                                                                                                                                                                                                                  F
1F 273549510001151CLINICA MEDICA ZAMUNER LTDA.                                                                                                                          CORUJA SAUDE                                           022017032100                                                                                                                                2062201703218630503RUA                 PROFESSORA DIOMAR FERNANDES RALDI                           320                                                                                                                                                               JARDIM SAO FRANCISCO                              13272153SP7225VALINHOS                                          19  38695022                        CORUJASAUDE@GMAIL.COM                                                                                              49000000003000000152017032100000000N                                                                                                                                                                                                                                                                                  F
1F 273554350001051LABORATORIO DE ANALISES E PESQUISAS CLINICAS DUMONT LTDA                                                                                              LABORATORIO DUMONT                                     082018011101                                                                                                                                2062201703218640202RUA                 DOUTOR ERALDO AURELIO FRANZESE                              189                                                                                                                                                               JARDIM PAIQUERE                                   13271608SP7225VALINHOS                                          19  32134811                        LABORATORIODUMONT@GMAIL.COM                                                                                        49000000050000000162017032120180111N                                                                                                                                                                                                                                                                                  F
1F 273567860001301SILVANA APARECIDA NICESIO 27707544838                                                                                                                                                                        082017051801                                                                                                                                2135201703217319002RUA                 SINTRA                                                      S/N   LOTE 08 - CASA FT                                                                                                                                           JARDIM PORTUGAL                                   13273280SP7225VALINHOS                                          19  36481005                        Silvananicesio07@gmail.com                                                                                         50000000000300000152017032100000000S                                                                                                                                                                                                                                                                                  F
1F 273569820001051LUIZ HENRIQUE GONCALVES CAMARGO 16586078806                                                                                                           NINETIES BIER TRUCK - CERVEJA ARTESANAL                082018091801                                                                                                                                2135201703214723700RUA                 SEBASTIAO BARBARINI                                         105   CASA 4                                                                                                                                                      JARDIM SAO PEDRO                                  13275430SP7225VALINHOS                                          19  98488851                        luizhcamargo@hotmail.com                                                                                           50000000010000000162017032120180918S                                                                                                                                                                                                                                                                                  F
1F 273584680001091DANIELA MARIA ARNOSTI 22495714811                                                                                                                     ANDREREOLON@HOTMAIL.COM                                022017032200                                                                                                                                2135201703228219999RUA                 ANTONIO LORENCATO (JARDIM SANTA EMILIA)                     164                                                                                                                                                               VILA CAPUAVA                                      13273149SP7225VALINHOS                                          19  82860007                        andrereolon@hotmail.com                                                                                            50000000000500000152017032200000000S                                                                                                                                                                                                                                                                                  F
1F 273597600001461MARCUS VINICIUS MENINI SALICANO 11435140680                                                                                                           BAR DO CAPITAO                                         082018043001                                                                                                                                2135201703225611204RUA                 FRANCISCO GLICERIO                                          483   SALA                                                                                                                                                        VILA EMBARE                                       13271200SP7225VALINHOS                                          19  41171145                        viniciussalicano@hotmail.com                                                                                       50000000010000000162017032220180430S                                                                                                                                                                                                                                                                                  F
1F 273599730001781REGINALDO OLIVEIRA DE SOUSA 30250156830                                                                                                               NEW CAR LAVAGEM ECOLOGICA                              022017032200                                                                                                                                2135201703224520005RUA                 JOSE LAZARETTI                                              169   CASA 2                                                                                                                                                      JARDIM DOS MANACAS                                13273090SP7225VALINHOS                                          11  48523469                                                                                                                                           50000000001000000152017032200000000S                                                                                                                                                                                                                                                                                  F
1F 273609170001531JOSUE EBERTZ SANTOS 02142828051                                                                                                                       JO-KDOCES                                              022017032200                                                                                                                                2135201703223299002RUA                 ALICE GARRIDO                                               159                                                                                                                                                               LOTEAMENTO RESIDENCIAL FONTE NOVA                 13273095SP7225VALINHOS                                          19  38362158                        josue.ebertz1118@gmail.com                                                                                         50000000010000000152017032200000000S                                                                                                                                                                                                                                                                                  F
1F 273621660001041IRINEU DO NASCIMENTO 18214518806                                                                                                                                                                             022017032200                                                                                                                                2135201703224930202RUA                 THEREZA BARBISAN LAZZARETTI                                 100                                                                                                                                                               LOTEAMENTO RESIDENCIAL ANA CAROLINA               13273603SP7225VALINHOS                                          19  38716211                        veigaepostal@veigaepostal.com.br                                                                                   50000000005000000152017032200000000S                                                                                                                                                                                                                                                                                  F
1F 273627280001101ORTOSIMPLES MARKETING MEDICO EIRELI                                                                                                                                                                          022017032200                                                                                                                                2305201703227319003RUA                 CAMPOS SALLES                                               2535  CASA  95                  SALA  1                                                                                                                           VILA FAUSTINA II                                  13272350SP7225VALINHOS                                          19  99474233                        EDISON@TECNIMEDIMPLANTES.COM.BR                                                                                    65000000100000000152017032200000000N                                                                                                                                                                                                                                                                                  F
1F 273631280001761SILVIO FELIPE TEODORO 02250413916                                                                                                                     DOVALE JARDINAGEM                                      022017032200                                                                                                                                2135201703228130300RUA                 ARYLDO BORTHOLOTTO                                          0     LOTE 23;QUADRA R                                                                                                                                            JARDIM NOVA PALMARES II                           13275726SP7225VALINHOS                                          19  38716211                        veigaepostal@veigaepostal.com.br                                                                                   50000000005000000152017032200000000S                                                                                                                                                                                                                                                                                  F
1F 273635790001031DOM EMANUEL RESTAURANTE LTDA                                                                                                                          DOM EMANUEL                                            022017032200                                                                                                                                2062201703225611201RUA                 PEDRO LEARDINI                                              370   LOJA  C                                                                                                                                                     CHACARAS SILVANIA                                 13271651SP7225VALINHOS                                          19  97027298                        SOARESFILHOADV@YAHOO.COM.BR                                                                                        49000000100000000352017032200000000N                                                                                                                                                                                                                                                                                  F
1F 273674200001671JANAINA IRENE DE OLIVEIRA 31139822861                                                                                                                 JANAINA OLIVEIRA                                       022017032200                                                                                                                                2135201703224772500RUA                 JOSE DE ALENCAR                                             85                                                                                                                                                                JARDIM PLANALTO                                   13270350SP7225VALINHOS                                          19  38490559                        janainavilasboas@yahoo.com.br                                                                                      50000000000001000152017032200000000S                                                                                                                                                                                                                                                                                  F
1F 273697800001061RICARDO DIAS GUIMARAES 05110318581                                                                                                                    RICARDO MOURA                                          082017040501                                                                                                                                2135201703239602501RUA                 ELIANA DE CASTRO                                            SN    LOTE 15;QUADRA 09                                                                                                                                           JARDIM MONTE VERDE                                13275060SP7225VALINHOS                                          19  98197675                        servicoshelpvalinhos@yahoo.com.br                                                                                  50000000003000000152017032300000000S                                                                                                                                                                                                                                                                                  F
1F 273708460001701ANDREZA MOTA DE SOUZA 42297769857                                                                                                                     ANDREZA MOTA                                           022017032300                                                                                                                                2135201703239602501AVENIDA             ONZE DE AGOSTO                                              195                                                                                                                                                               VILA CLAYTON                                      13276130SP7225VALINHOS                                          19  32445376                        Andrezaa2011@live.com                                                                                              50000000050000000152017032300000000S                                                                                                                                                                                                                                                                                  F
1F 273715200001671VICTOR VALLE DE ALMEIDA EVANGELISTA 44675491880                                                                                                       CSVIT                                                  022017032300                                                                                                                                2135201703238599603RUA                 AMERICO CONTE                                               122                                                                                                                                                               VILA SAO JOSE                                     13270292SP7225VALINHOS                                          19  98020192                        alexandre.volpe@clickmobile.com.br                                                                                 50000000000100000152017032300000000S                                                                                                                                                                                                                                                                                  F
1F 273765590001771CELERIS BOX EMBALAGENS - EIRELI                                                                                                                       CELERIS BOX EMBALAGENS                                 022017032300                                                                                                                                2305201703231733800RUA                 DOS CORREIOS (LOTEAMENTO CHACARAS JOAPIRANGA)               S/N.        LOTE 02 -  QD. I          QUARTEIRAO 1014                                                                                                             MACUCO                                            13279403SP7225VALINHOS                                          19  93843066                        NOMANOID@GMAIL.COM                                                                                                 65000000093700000352017032300000000N                                                                                                                                                                                                                                                                                  F
1F 273766960001011JOSE RIVAILDO DE SOUZA CONSTRUCOES                                                                                                                                                                           022017032300                                                                                                                                2135201703234399103RUA                 RAPHAEL DIAS DE SOUSA                                       205                                                                                                                                                               LOTEAMENTO ANA CAROLINA II                        13273651SP7225VALINHOS                                          19  95534391                        FININHOCONSTRUCOES2016@GMAIL.COM                                                                                   50000000005000000152017032300000000N                                                                                                                                                                                                                                                                                  F
1F 273768430001431PIRATA - ESCOLA DE ARTES MARCIAIS - EIRELI                                                                                                            PIRATA ESCOLA DE ARTES MARCIAIS MMA                    042019053063                                                                                                                                2305201703239313100RUA                 EUCLIDES DA CUNHA                                           28    ANDAR 2                   SALA  4                                                                                                                           JARDIM PRIMAVERA                                  13270330SP7225VALINHOS                                          19  97199654                        PIRATAACADEMIA@PIRATA.COM.BR                                                                                       65000000093700000100000000000000000N                                                                                                                                                                                                                                                                                  F
1F 273814850001671FAST FOOD TRUCK & TRAILER LTDA                                                                                                                        FAST FOOD TRUCK                                        022017032400                                                                                                                                2062201703242542000RUA                 ANTONIO BRECIANI                                            155                                                                                                                                                               JARDIM NOVO MUNDO                                 13273043SP7225VALINHOS                                          11  41917318            11  41917318SOCIETARIO@SIMPLECONTABIL.COM.BR                                                                                   49000000030000000152017032400000000N                                                                                                                                                                                                                                                                                  F
1F 273825510001131ROGERIO VALERIANO MIRANDA 95833250668                                                                                                                 RC AUTOMOTIVA                                          022017032400                                                                                                                                2135201703244520002RUA                 CARLOS ALBERTO BIANCHIN                                     457                                                                                                                                                               JARDIM DAS PALMEIRAS                              13273063SP7225VALINHOS                                          19  38591217                                                                                                                                           50000000002000000152017032400000000S                                                                                                                                                                                                                                                                                  F
1F 273869890001701EDUARDO RENATO ALVES 40628420846                                                                                                                      EDUARDO ALVES                                          022017032500                                                                                                                                2135201703259602501AVENIDA             JOAQUIM ALVES CORREA                                        1100  SALA                                                                                                                                                        PARQUE NOVA SUICA                                 13271430SP7225VALINHOS                                          19  38711231                        edu.2012.alves@hotmail.com                                                                                         50000000005000000152017032500000000S                                                                                                                                                                                                                                                                                  F
1F 273877530001581SILVIA DA SILVA 26452751840                                                                                                                           SIZA                                                   022017032500                                                                                                                                2135201703258712300RUA                 NARCISO BONON                                               214                                                                                                                                                               VILA SAO JOSE                                     13270291SP7225VALINHOS                                          19  33277849                        silvialluiza1972@hotmail.com                                                                                       50000000029000000152017032500000000S                                                                                                                                                                                                                                                                                  F
1F 273891750001991A.MORON COMUNICACAO DIGITAL LTDA                                                                                                                      AMK COMUNICACAO DIGITAL                                022017032700                                                                                                                                2062201703276319400RUA                 ORLANDO MARRONE                                             11    APT   33                  BLOCO 2                                                                                                                           JARDIM ALTO DA BOA VISTA                          13272101SP7225VALINHOS                                          19  99411966                        SPMARCOS.KUESTER@GMAIL.COM                                                                                         49000000010000000352019010100000000N                                                                                                                                                                                                                                                                                  F
1F 273894350001261LIMA & SANTOS MINIMERCADO LTDA                                                                                                                        SUPERMERCADO LIMA                                      022017032700                                                                                                                                2062201703274711302RUA                 JOSE PISCIOTTA                                              35                                                                                                                                                                VILA SAO LUIZ                                     13270300SP7225VALINHOS                                          19  39295331                        SUPERMERCADOLIMA@OUTLOOK.COM                                                                                       49000000050000000152019010100000000N                                                                                                                                                                                                                                                                                  F
1F 273901530001491PIANELLI CHAMBO & FREITAS SANTOS LTDA                                                                                                                 PIANELLI CHAMBO & FREITAS SANTOS                       022017032700                                                                                                                                2062201703274724500RUA                 AUGUSTA ZACHARIAS                                           55                                                                                                                                                                JARDIM NOVO HORIZONTE                             13272028SP7225VALINHOS                                          19  3871621119  3871895919  38716211ANTONIOFREITAS1@TERRA.COM.BR                                                                                       49000000010000000152017032700000000N                                                                                                                                                                                                                                                                                  F
1F 273906900001991R C COMERCIO DE TECIDOS LTDA                                                                                                                          CONFECCOES PONTUAL                                     022017032700                                                                                                                                2062201703274755501RUA                 DEZ                                                         585                                                                                                                                                               JARDIM SAO MARCOS                                 13272824SP7225VALINHOS                                          19  39298161                        L2BASSESSORIA@GMAIL.COM                                                                                            49000000010000000152017032700000000N                                                                                                                                                                                                                                                                                  F
1F 273909340001331TELBE TELECOM VALINHOS LTDA.                                                                                                                                                                                 022017032700                                                                                                                                2062201703276190601RUA                 DOM NERY                                                    908   SALA  9                   SALA  10                  SALA  11                                                                                                VILA EMBARE                                       13271170SP7225VALINHOS                                          11  37332055                        ASH@ASH.CNT.BR                                                                                                     05000000100000000500000000000000000N                                                                                                                                                                                                                                                                                  F
1F 273910150001841SAKI COMERCIO DE ALIMENTOS EIRELI                                                                                                                                                                            022017032700                                                                                                                                2305201703275611201RUA                 LUIZ SPIANDORELLI NETO (LULA)                               161   LOJA  82                                                                                                                                                    LOTEAMENTO PAIQUERE                               13271570SP7225VALINHOS                                          19  33652160                        SAKICAFE@GMAIL.COM                                                                                                 65000000100000000152017032700000000N                                                                                                                                                                                                                                                                                  F
1F 273992430001091ALISSON CARLOS FERRAZ GUEDES 08914688623                                                                                                              NUTRIEXECELLENCE                                       082018020901                                                                                                                                2135201703288599604RUA                 DOS RUBIS                                                   26    FUNDOS                                                                                                                                                      JARDIM NOVA PALMARES                              13275587SP7225VALINHOS                                          19  95239009                        apbonatri@gmail.com                                                                                                50000000003000000162017032820180209S                                                                                                                                                                                                                                                                                  F
1F 273992650006752IBIZA FERNANDES CONFECCOES EIRELI                                                                                                                                                                            022017082300                                                                                                                                2305201708234781400RUA                 QUINZE DE NOVEMBRO                                          20    LOJA  A                                                                                                                                                     CENTRO                                            13270130SP7225VALINHOS                                          19  3252741019  3252553519  32525535MEGA.CONTABILIDADE@YAHOO.COM.BR                                                                                    65000000000000000152017032800000000                        00000000                                                                                                                                                                                                                                                   F
1F 274009380001551MARLI REGINA FAGUNDES 30324102828                                                                                                                     MARLI TURISMO                                          022017032800                                                                                                                                2135201703287911200RUA                 JOSE BARROSO                                                56    FUNDOS                                                                                                                                                      JARDIM ITAPUA                                     13273118SP7225VALINHOS                                          19  92210848                        marli-fagundes@hotmail.com                                                                                         50000000001000000152017032800000000S                                                                                                                                                                                                                                                                                  F
1F 274031230001201COMERCIAL UNIPESCA EIRELI                                                                                                                             UNIPESCA                                               022017032800                                                                                                                                2305201703284634603RUA                 ANTENOR BERGAMO                                             600                                                                                                                                                               PARQUE DOS COCAIS                                 13273182SP7225VALINHOS                                          19  33277861            19  38716211NFE.UNIPESCA@GMAIL.COM                                                                                             65000000100000000162017032820181231N                                                                                                                                                                                                                                                                                  F
1F 274043250001961LAUDINEIA CELES DE OLIVEIRA 02800739681                                                                                                               RECANTO DA NEIA                                        022017032800                                                                                                                                2135201703285611203RUA                 FRANCISCO GLICERIO                                          322                                                                                                                                                               VILA EMBARE                                       13271200SP7225VALINHOS                                          19  95686547                        antonioceles@bol.com.br                                                                                            50000000005000000152017032800000000S                                                                                                                                                                                                                                                                                  F
1F 274049990001901INFORZA CONSULTORIA ADMINISTRATIVA EM GESTAO EMPRESARIAL LTDA                                                                                         INFORZA                                                022017032800                                                                                                                                2062201703288219999RUA                 DAS ARARAS                                                  138                                                                                                                                                               JARDIM PAIQUERE                                   13271606SP7225VALINHOS                                          19  38494531                        LUCIANA@ESCRITORIOREALEZA.COM.BR                                                                                   49000000001000000152017032800000000N                                                                                                                                                                                                                                                                                  F
1F 274050570001271PRIME FRAGRANCIAS INDUSTRIA E COMERCIO EIRELI                                                                                                         PRIME FRAGRANCIAS                                      022017032800                                                                                                                                2305201703282093200ESTRADA             DUILIO BELTRAMINI                                           6861                                                                                                                                                              CHACARAS SAO BENTO                                13278078SP7225VALINHOS                                          19  3834193319  38341466            CONTALEX@CONTALEXCONTABIL.COM.BR                                                                                   65000000100000000300000000000000000N                                                                                                                                                                                                                                                                                  F
1F 274055220001201LUIS ALBERTO APARECIDO XAVIER 37568406890                                                                                                             LUIS ALBERTO                                           022017032800                                                                                                                                2135201703285320202RUA                 DOUTOR ALCIDES GOMES MIRANDA                                85                                                                                                                                                                VILA PAGANO                                       13277220SP7225VALINHOS                                          19  38718431                        luiskinha43@gmail.com                                                                                              50000000002000000152017032800000000S                                                                                                                                                                                                                                                                                  F
1F 274058790001081T K M ADMINISTRACAO DE BENS EIRELI                                                                                                                    T K M                                                  022017032800                                                                                                                                2305201703286810202RUA                 FIORAVANTE B MAGLIO                                         204                                                                                                                                                               VILA NOVA VALINHOS                                13271260SP7225VALINHOS                                          19  38494463                                                                                                                                           65000000306000000100000000000000000N                                                                                                                                                                                                                                                                                  F
1F 274060060001101FLAVIO ANTONIO DA SILVA SENATORE 14768958800                                                                                                          PRESERVA VERDE SERVICOS                                022017032800                                                                                                                                2135201703283314707ESTRADA MUNICIPAL   DO RONCAGLIA                                                450   CASA 147                                                                                                                                                    RONCAGLIA                                         13272721SP7225VALINHOS                                          19  38493404                        flavio.senatore@gmail.com                                                                                          50000000001000000152017032800000000S                                                                                                                                                                                                                                                                                  F
1F 274067690001601PIRES E OLIVEIRA COMERCIO DE PRODUTOS DE TABACARIA LTDA                                                                                               NEW TIME DISTRIBUTION                                  022017032800                                                                                                                                2062201703284649499RUA                 VEREADOR FERNANDO SPADACCIA                                 19                                                                                                                                                                JARDIM DAS PALMEIRAS                              13273062SP7225VALINHOS                                          19  38710009                        CONTADOR@SANTOANTONIOCONTABILIDADE.COM.BR                                                                          49000000050000000100000000000000000N                                                                                                                                                                                                                                                                                  F
1F 274084920001051MARF CONSULTORIA LTDA                                                                                                                                 MARF CONSULTORIA                                       082019071001                                                                                                                                2062201703297490104AVENIDA             ROSA BELMIRO RAMOS                                          465   APT   06                                                                                                                                                    ORTIZES                                           13275400SP7225VALINHOS                                          11  4301448411  43014486            SOCIETARIO@RONACONSULTORIA.COM.BR                                                                                  49000000010000000162017032920190710N                                                                                                                                                                                                                                                                                  F
1F 274104950001831DANIEL APARECIDO FARIA 17897775852                                                                                                                    LD REPRESENTACOES                                      022017032900                                                                                                                                2135201703297319002RUA                 ELIANA DE CASTRO                                            76    APT 44 BLOCO 2                                                                                                                                              JARDIM MONTE VERDE                                13275060SP7225VALINHOS                                          19  33273555                                                                                                                                           50000000002000000152017032900000000S                                                                                                                                                                                                                                                                                  F
1F 274116840001701ROSANGELA PENAS DA SILVA 26366275882                                                                                                                  ROSANGELA NENE                                         082019022501                                                                                                                                2135201703299602501RUA                 VITORIA COLOMBO ROSSI                                       37                                                                                                                                                                JARDIM VILA ROSA                                  13270260SP7225VALINHOS                                          19  99614312                        rosangelanene@yahoo.com.br                                                                                         50000000000200000162017032920190225S                                                                                                                                                                                                                                                                                  F
1F 274127610001071ELIANE AZEVEDO DE SOUZA MARTINS DE OLIVEIRA 29022725880                                                                                               SOUZA AZEVEDO CONTABILIDADE                            022017032900                                                                                                                                2135201703296920601RUA                 DOUTOR ALFREDO ZACHARIAS                                    2001  APT 11;BLOCO B                                                                                                                                              VILA PAGANO                                       13277280SP7225VALINHOS                                          19  91196809                        elianeadsouza@yahoo.com.br                                                                                         50000000005000000152017032900000000S                                                                                                                                                                                                                                                                                  F
1F 274163360001961BRUNA DE SOUZA GOMES 33872671855                                                                                                                      BRUNA E VERA MODAS                                     022017032900                                                                                                                                2135201703294781400RUA                 PEDRO BARROSO                                               0     LOTE 40;QUADRA O                                                                                                                                            JARDIM NOVA PALMARES II                           13275724SP7225VALINHOS                                          19  38716211                        veigaepostal@veigaepostal.com.br                                                                                   50000000005000000152017032900000000S                                                                                                                                                                                                                                                                                  F
1F 274164720001861ADRIANA WAGNER RODRIGUES 28771379886                                                                                                                  CASA DO NORTE                                          022017032900                                                                                                                                2135201703294729699RUA                 ITAJAI                                                      112                                                                                                                                                               JARDIM SAO BENTO DO RECREIO                       13274777SP7225VALINHOS                                          19  38716211                        veigaepostal@veigaepostal.com.br                                                                                   50000000005000000152017032900000000S                                                                                                                                                                                                                                                                                  F
1F 274174740001901RENATO EMMANUEL DE SOUZA 28821885879                                                                                                                  RENATO EMMANUEL                                        022017032900                                                                                                                                2135201703294321500RUA                 LUIZ CASTELLUBER                                            0                                                                                                                                                                 VALE VERDE                                        13279073SP7225VALINHOS                                          19  38811646                        renatoemmanuel1@hotmail.com                                                                                        50000000001000000152017032900000000S                                                                                                                                                                                                                                                                                  F
1F 274176800001081GUILHERME GERCINO ALVES CARDOSO 36657588828                                                                                                           VAREJAO DA ECONOMIA                                    022017032900                                                                                                                                2135201703294712100RUA                 VICO LEVRERO                                                367                                                                                                                                                               JARDIM DOS MANACAS                                13273070SP7225VALINHOS                                          19  38696000                        rindependencia@outlook.com                                                                                         50000000001000000152017032900000000S                                                                                                                                                                                                                                                                                  F
1F 274179790001541JUSSARA DOS SANTOS PIRES 40378164821                                                                                                                                                                         022017032900                                                                                                                                2135201703299602501RUA                 APARECIDO GERALDO MORTENE                                   216                                                                                                                                                               JARDIM UNIVERSO                                   13277710SP7225VALINHOS                                          19  92289716                        juupires.ju@icloud.com                                                                                             50000000000001000152017032900000000S                                                                                                                                                                                                                                                                                  F
1F 274181710001911GUILHERME BRESSAN DE OLIVEIRA 05553002770                                                                                                             BRESSOUND                                              022017032900                                                                                                                                2135201703297420001RUA                 MARTINHO LEARDINE                                           110   CASA 7;QUADRA C                                                                                                                                             CHACARAS SILVANIA                                 13271650SP7225VALINHOS                                          11  91062979                        bressound@gmail.com                                                                                                50000000005000000152017032900000000S                                                                                                                                                                                                                                                                                  F
1F 274222680001781RENATO PRODOXIMO 39372070823                                                                                                                          RENATO PRODOXIMO                                       022017033000                                                                                                                                2135201703305819100RUA                 VEREADOR FERNANDO SPADACCIA                                 305                                                                                                                                                               JARDIM DAS PALMEIRAS                              13273062SP7225VALINHOS                                          19  38718487                        renato.prodoximo@cepea.org.br                                                                                      50000000003000000152017033000000000S                                                                                                                                                                                                                                                                                  F
1F 274234810001021WILLIANS OLIVEIRA ALMEIDA 03553246529                                                                                                                 WILLIANS OLIVEIRA ALMEIDA 03553246529                  022017033000                                                                                                                                2135201703304399103RUA                 JORGE NIEDO                                                 366                                                                                                                                                               LOTEAMENTO RESIDENCIAL ANA CAROLINA               13273601SP7225VALINHOS                                          19  83849496                        willianoliveira.oliveira52@gmail.com                                                                               50000000000001000152017033000000000S                                                                                                                                                                                                                                                                                  F
1F 274249530001331GILBERTO ANDRADE 31249701015                                                                                                                          RESTAURANTE DO DECO                                    022017033000                                                                                                                                2135201703305611201RUA                 CARLOS GOMES                                                23                                                                                                                                                                VILA SAO SEBASTIAO                                13271050SP7225VALINHOS                                          19  89055004                        restaurantedodeco@yahoo.com.br                                                                                     50000000090000000152017033000000000S                                                                                                                                                                                                                                                                                  F
1F 274269770001211DANIEL IVAN TRIGO 24727501880                                                                                                                         GT-USINAGEM                                            022017033000                                                                                                                                2135201703302539001RUA                 LUIZ DE FRANCA PINTO                                        289   BRCAO                                                                                                                                                       LOTEAMENTO RESIDENCIAL FONTE NOVA                 13273097SP7225VALINHOS                                          19  32992088                        danieltrigo47@hotmail.com                                                                                          50000000005000000152017033000000000S                                                                                                                                                                                                                                                                                  F
1F 274279030001001THALITA DOMINGUES DO ESPIRITO SANTO 33326325827                                                                                                       MARMITARIA BENEDITO                                    022017033000                                                                                                                                2135201703305620104AVENIDA             GUARANI                                                     53                                                                                                                                                                VILA COQUEIRO                                     13276040SP7225VALINHOS                                          11  63559379                        thalitasantof@gmail.com                                                                                            50000000001000000152017033000000000S                                                                                                                                                                                                                                                                                  F
1F 274281930001321ALEXANDRA CRISTINA DO PRADO ALBUQUERQUE                                                                                                                                                                      022017033000                                                                                                                                2135201703304722901RUA                 DEZESSETE                                                   SN    LOTE  5                   QUADRAO                                                                                                                           JARDIM NOVA PALMARES II                           13275732SP7225VALINHOS                                          19  32992212                        ESCRITORIOCONTABIL@IG.COM.BR                                                                                       50000000010000000152017033000000000N                                                                                                                                                                                                                                                                                  F
1F 274295680001891R & D SOLUTIONS BRASIL PESQUISAS E DESENVOLVIMENTO FARMACEUTICO LTDA.                                                                                 R & D SOLUTIONS BRASIL                                 022017033000                                                                                                                                2062201703307210000RUA                 JOSE ANTONIO                                                29                                                                                                                                                                PARQUE RESIDENCIAL MAISON BLANCHE                 13275520SP7225VALINHOS                                          19  96444741                        V.AGUIAR@LUMENSDECOR.COM.BR                                                                                        49000000033000000500000000000000000N                                                                                                                                                                                                                                                                                  F
1F 274295730001911MARANGONI & BEZERRA COMERCIO DE BEBIDAS LTDA                                                                                                          MR. BEER                                               022017033000                                                                                                                                2062201703304723700RUA                 NOVE                                                        84                                                                                                                                                                JARDIM SAO MARCOS                                 13272823SP7225VALINHOS                                          19  38698011                        PIVA@PIVACONTABILIDADE.COM.BR                                                                                      49000000020000000152017033000000000N                                                                                                                                                                                                                                                                                  F
1F 274297410001491RAFAEL FERNANDES DO COUTO 03368437550                                                                                                                 EMPREITEIRA RFC                                        082018012601                                                                                                                                2135201703304399103RUA                 LUIZ BARBISAN                                               228   SALA 11                                                                                                                                                     JARDIM DO LAGO                                    13277511SP7225VALINHOS                                          19  82998564                        RAFAELRF2163@GMAIL.COM                                                                                             50000000001000000152017033000000000S                                                                                                                                                                                                                                                                                  F
1F 274367150001481FELIPE S. ZERUNIAN COMERCIO DE PLASTICOS                                                                                                              AZ PLASTICOS                                           022017033100                                                                                                                                2135201703314687702RUA                 MINORO TOYODA                                               120                                                                                                                                                               VALE VERDE                                        13279150SP7225VALINHOS                                          19  32444956                        CONTATO@IFIASSESSORIA.COM                                                                                          50000000010000000100000000000000000N                                                                                                                                                                                                                                                                                  F
1F 274372860001231ANDERSON ANDRE DE LIMA REPRESENTACOES                                                                                                                                                                        022017033100                                                                                                                                2135201703314612500AVENIDA             JOAQUIM ALVES CORREA                                        3501                                                                                                                                                              PARQUE NOVA SUICA                                 13271430SP7225VALINHOS                                          19  38497000                        CONTSENADOR@HOTMAIL.COM                                                                                            50000000010000000152017033100000000N                                                                                                                                                                                                                                                                                  F
1F 274373520001651ANDERSON DE SOUSA BARBOSA                                                                                                                                                                                    082017072501                                                                                                                                2135201703314617600RUA                 ULYSSES PEDROSO DE OLIVEIRA FILHO                           228                                                                                                                                                               VILA BOA ESPERANCA                                13270393SP7225VALINHOS                                          19  95295000                        ANDEREPRESENTANTE@GMAIL.COM                                                                                        50000000000100000100000000000000000N                                                                                                                                                                                                                                                                                  F
1F 274381150001191JOEL DE GOES 06856981813                                                                                                                                                                                     022017033100                                                                                                                                2135201703318230001RUA                 VICENTE ROSSI                                               304                                                                                                                                                               RESIDENCIAL SAO LUIZ                              13270460SP7225VALINHOS                                          19  38716211                        veigaepostal@veigaepostal.com.br                                                                                   50000000005000000152017033100000000S                                                                                                                                                                                                                                                                                  F
1F 274386490001451IRMAOS BIAZIOLI LTDA.                                                                                                                                 IRMAOS BIAZIOLI                                        082019072901                                                                                                                                2062201703314712100RUA                 MAXIMO PITON                                                13                                                                                                                                                                JARDIM SANTA ROSA                                 13275090SP7225VALINHOS                                          19  82043749                        ASSISTBASIC@HOTMAIL.COM                                                                                            49000000070000000362017033120190729N                                                                                                                                                                                                                                                                                  F
1F 274413560001171EDNA APARECIDA LOUREIRO 25549474816                                                                                                                   HIGICOM VALINHOS                                       022017040100                                                                                                                                2135201704019609299AVENIDA             REMO OSCAR BESEGGIO (LOT RESID ALVORADA)                    365   APT 33;BLOCO J                                                                                                                                              PARQUE DAS COLINAS                                13273649SP7225VALINHOS                                          19  91384678                        ednaapa_loureiro@hotmail.com                                                                                       50000000005000000152017040100000000S                                                                                                                                                                                                                                                                                  F
1F 274426950001181SIMONE RIBEIRO ALVES 38217285829                                                                                                                      MONNY STORE                                            082018030101                                                                                                                                2135201704024781400RUA                 ITAJAI                                                      14    LOJA                                                                                                                                                        JARDIM SAO BENTO DO RECREIO                       13274777SP7225VALINHOS                                          19  38695923                        sr_alves@yahoo.com.br                                                                                              50000000001000000162017040220180301S                                                                                                                                                                                                                                                                                  F
1F 274434540001931MARCELO MIRANDA 11284356833                                                                                                                           MARCELO                                                022017040300                                                                                                                                2135201704034929902AVENIDA             RIGESA                                                      219   FUNDOS                                                                                                                                                      VILA PAPELAO                                      13276140SP7225VALINHOS                                          19  33277919                        marcelomiranda219@gmail.com                                                                                        50000000001000000152017040300000000S                                                                                                                                                                                                                                                                                  F
1F 274455950001451ANTONIO MARCOS BISPO DOS SANTOS 42542146500                                                                                                           FAST FOOD TRUCK                                        082018053001                                                                                                                                2135201704032542000RUA                 ANTONIO BRECIANI                                            155                                                                                                                                                               JARDIM NOVO MUNDO                                 13273043SP7225VALINHOS                                          19  87624956                        antoniomarcos150469@gmail.com                                                                                      50000000010000000162017040320180530S                                                                                                                                                                                                                                                                                  F
1F 274511170001481CRISTINA APARECIDA SAPIA DAS GRACAS                                                                                                                   VOUS BY VIZOSO VIZOSO                                  022017040300                                                                                                                                2135201704034781400RUA                 ITALIA                                                      157   LOJA  02                                                                                                                                                    JARDIM RIBEIRO                                    13270180SP7225VALINHOS                                          19  33246504                        SC_CONTABILIDADE@GLOBO.COM                                                                                         50000000010000000152017040300000000N                                                                                                                                                                                                                                                                                  F
1F 274540760001431ADILSON QUENUPE GONCALVES 28420591823                                                                                                                 KANAAN                                                 022017040300                                                                                                                                2135201704035612100RUA                 DAS AZALEAS                                                 000                                                                                                                                                               PARQUE CECAP                                      13273450SP7225VALINHOS                                          19  99102854                        adilsonquenupe@gmail.com                                                                                           50000000001000000152017040300000000S                                                                                                                                                                                                                                                                                  F
1F 274550030001761ALESANDRA CRISTINA RODRIGUES 16836547816                                                                                                              ALE RODRIGUES                                          082017052301                                                                                                                                2135201704049602501RUA                 JOAO BISSOTTO FILHO                                         1656  APT 134;EDIF T 1                                                                                                                                            ORTIZES                                           13275410SP7225VALINHOS                                          19  38490327                        rodriguesgoncalvesalesandra@gmail.com                                                                              50000000000100000152017040400000000S                                                                                                                                                                                                                                                                                  F
1F 274566620001271CICERA ELIANE DE FREITAS 00698974336                                                                                                                  ELIANE & CIA                                           022017040400                                                                                                                                2135201704049602501RUA                 ITALO BORDINI                                               70    APT 12                                                                                                                                                      JARDIM DO LAGO                                    13277520SP7225VALINHOS                                          19  94281463                                                                                                                                           50000000000100000152017040400000000S                                                                                                                                                                                                                                                                                  F
